:020000040800F2
:10000000001B0020793000086B760008653000087E
:100010006530000865300008653000080000000009
:10002000000000000000000000000000393100085E
:100030006530000800000000D93000086148000861
:1000400089320008893200088932000889320008A4
:100050008932000889320008893200088932000894
:100060008932000889320008893200088932000884
:100070008932000889320008893200088932000874
:100080008932000889320008893200088932000864
:100090008932000889320008893200088932000854
:1000A0008932000889320008893200088932000844
:1000B0008932000889320008893200088932000834
:1000C0008932000889320008893200088932000824
:1000D0008932000889320008893200088932000814
:1000E0008932000889320008893200088932000804
:1000F00089320008893200088932000889320008F4
:1001000089320008893200088932000889320008E3
:1001100089320008893200088932000889320008D3
:1001200089320008893200088932000889320008C3
:08013000893200088932000841
:1001380081F0004102E000BF83F0004330B54FEA90
:1001480041044FEA430594EA050F08BF90EA020FFD
:100158001FBF54EA000C55EA020C7FEA645C7FEA90
:10016800655C00F0E2804FEA5454D4EB5555B8BFB3
:100178006D420CDD2C4480EA020281EA030382EA24
:10018800000083EA010180EA020281EA0303362DB6
:1001980088BF30BD11F0004F4FEA01314FF4801C89
:1001A8004CEA113102D0404261EB410113F0004F9B
:1001B8004FEA03334CEA133302D0524263EB430352
:1001C80094EA050F00F0A780A4F10104D5F1200EF0
:1001D8000DDB02FA0EFC22FA05F2801841F100014B
:1001E80003FA0EF2801843FA05F359410EE0A5F11F
:1001F80020050EF1200E012A03FA0EFC28BF4CF050
:10020800020C43FA05F3C01851EBE37101F0004505
:1002180007D54FF0000EDCF1000C7EEB00006EEB12
:100228000101B1F5801F1BD3B1F5001F0CD349089C
:100238005FEA30004FEA3C0C04F101044FEA4452F3
:1002480012F5800F80F09A80BCF1004F08BF5FEA7A
:10025800500C50F1000041EB045141EA050130BD5A
:100268005FEA4C0C404141EB0101013C28BFB1F56C
:10027800801FE9D291F0000F04BF01460020B1FAB7
:1002880081F308BF2033A3F10B03B3F120020CDA8A
:100298000C3208DD02F1140CC2F10C0201FA0CF068
:1002A80021FA02F10CE002F11402D8BFC2F1200CCD
:1002B80001FA02F120FA0CFCDCBF41EA0C01904083
:1002C800E41AA2BF01EB0451294330BD6FEA0404CC
:1002D8001F3C1CDA0C340EDC04F11404C4F12002B7
:1002E80020FA04F001FA02F340EA030021FA04F3C9
:1002F80045EA030130BDC4F10C04C4F1200220FA20
:1003080002F001FA04F340EA0300294630BD21FA5D
:1003180004F0294630BD94F0000F83F4801306BF23
:1003280081F480110134013D4EE77FEA645C18BF17
:100338007FEA655C29D094EA050F08BF90EA020FAE
:1003480005D054EA000C04BF1946104630BD91EAA6
:10035800030F1EBF0021002030BD5FEA545C05D1A9
:100368004000494128BF41F0004130BD14F58004E8
:100378003CBF01F5801130BD01F0004545F0FE415C
:1003880041F470014FF0000030BD7FEA645C1ABF91
:10039800194610467FEA655C1CBF0B46024650EAC8
:1003A800013406BF52EA033591EA030F41F40021F4
:1003B80030BD00BF90F0000F04BF0021704730B57A
:1003C8004FF4806404F132044FF000054FF000014F
:1003D80050E700BF90F0000F04BF0021704730B510
:1003E8004FF4806404F1320410F0004548BF4042E5
:1003F8004FF000013EE700BF42004FEAE2014FEA3A
:1004080031014FEA02701FBF12F07F4393F07F4F14
:1004180081F06051704732F07F4208BF704793F017
:100428007F4F04BF41F40021704730B54FF460742A
:1004380001F0004521F000411CE700BF50EA01022D
:1004480008BF704730B54FF000050AE050EA0102D6
:1004580008BF704730B511F0004502D5404261EB46
:1004680041014FF4806404F132045FEA915C3FF487
:10047800D8AE4FF003025FEADC0C18BF03325FEA24
:10048800DC0C18BF033202EBDC02C2F1200300FAD5
:1004980003FC20FA02F001FA03FE40EA0E0021FAFA
:1004A80002F11444BDE600BF70B54FF0FF0C4CF4E8
:1004B800E06C1CEA11541DBF1CEA135594EA0C0F9A
:1004C80095EA0C0F00F0DEF82C4481EA030621EAD5
:1004D8004C5123EA4C5350EA013518BF52EA033510
:1004E80041F4801143F4801338D0A0FB02CE4FF0C2
:1004F8000005E1FB02E506F00042E0FB03E54FF0F2
:100508000006E1FB03569CF0000F18BF4EF0010EE9
:10051800A4F1FF04B6F5007F64F5407404D25FEAE5
:100528004E0E6D4146EB060642EAC62141EA555198
:100538004FEAC52040EA5E504FEACE2EB4F1FD0CDA
:1005480088BFBCF5E06F1ED8BEF1004F08BF5FEA58
:10055800500E50F1000041EB045170BD06F000460A
:1005680046EA010140EA020081EA0301B4EB5C04B7
:10057800C2BFD4EB0C0541EA045170BD41F48011AF
:100588004FF0000E013C00F3AB8014F1360FDEBFD4
:10059800002001F0004170BDC4F10004203C35DAB0
:1005A8000C341BDC04F11404C4F1200500FA05F333
:1005B80020FA04F001FA05F240EA020001F00042D4
:1005C80021F0004110EBD37021FA04F642EB06014A
:1005D8005EEA430E08BF20EAD37070BDC4F10C0474
:1005E800C4F1200500FA04F320FA05F001FA04F238
:1005F80040EA020001F0004110EBD37041F1000124
:100608005EEA430E08BF20EAD37070BDC4F120052E
:1006180000FA05F24EEA020E20FA04F301FA05F296
:1006280043EA020321FA04F001F0004121FA04F23E
:1006380020EA020000EBD3705EEA430E08BF20EA0E
:10064800D37070BD94F0000F0FD101F00046400048
:1006580041EB010111F4801F08BF013CF7D041EACA
:10066800060195F0000F18BF704703F000465200CE
:1006780043EB030313F4801F08BF013DF7D043EA9F
:100688000603704794EA0C0F0CEA135518BF95EA55
:100698000C0F0CD050EA410618BF52EA4306D1D1DC
:1006A80081EA030101F000414FF0000070BD50EAFB
:1006B800410606BF1046194652EA430619D094EA85
:1006C8000C0F02D150EA013613D195EA0C0F05D16F
:1006D80052EA03361CBF104619460AD181EA0301C3
:1006E80001F0004141F0FE4141F470014FF000007B
:1006F80070BD41F0FE4141F4780170BD70B54FF016
:10070800FF0C4CF4E06C1CEA11541DBF1CEA135595
:1007180094EA0C0F95EA0C0F00F0A7F8A4EB050477
:1007280081EA030E52EA03354FEA013100F088806E
:100738004FEA03334FF0805545EA131343EA126337
:100748004FEA022245EA111545EA10654FEA0026EC
:100758000EF000419D4208BF964244F1FD0404F5A5
:10076800407402D25B084FEA3202B61A65EB030501
:100778005B084FEA32024FF480104FF4002CB6EBBE
:10078800020E75EB030E22BFB61A754640EA0C003E
:100798005B084FEA3202B6EB020E75EB030E22BF7E
:1007A800B61A754640EA5C005B084FEA3202B6EBBF
:1007B800020E75EB030E22BFB61A754640EA9C007E
:1007C8005B084FEA3202B6EB020E75EB030E22BF4E
:1007D800B61A754640EADC0055EA060E18D04FEA0C
:1007E800051545EA16754FEA06164FEAC30343EAAC
:1007F80052734FEAC2025FEA1C1CC0D111F4801F79
:100808000BD141EA00014FF000004FF0004CB6E771
:1008180011F4801F04BF01430020B4F1FD0C88BF10
:10082800BCF5E06F3FF6AFAEB5EB030C04BFB6EB1B
:10083800020C5FEA500C50F1000041EB045170BD0E
:100848000EF0004E4EEA113114EB5C04C2BFD4EB3B
:100858000C0541EA045170BD41F480114FF0000EBF
:10086800013C90E645EA060E8DE60CEA135594EA3B
:100878000C0F08BF95EA0C0F3FF43BAF94EA0C0F3E
:100888000AD150EA01347FF434AF95EA0C0F7FF4B3
:1008980025AF104619462CE795EA0C0F06D152EA07
:1008A80003353FF4FDAE1046194622E750EA4106EB
:1008B80018BF52EA43067FF4C5AE50EA41047FF4FC
:1008C8000DAF52EA43057FF4EBAE12E74FF0FF3C61
:1008D80006E000BF4FF0010C02E000BF4FF0010C32
:1008E8004DF804CD4FEA410C7FEA6C5C4FEA430CAB
:1008F80018BF7FEA6C5C1BD001B050EA410C0CBFFA
:1009080052EA430C91EA030F02BF90EA020F00205B
:10091800704710F1000F91EA030F58BF994208BFC2
:1009280090422CBFD8176FEAE37040F0010070477F
:100938004FEA410C7FEA6C5C02D150EA013C07D1D6
:100948004FEA430C7FEA6C5CD6D152EA033CD3D021
:100958005DF8040B704700BF8446104662468C461B
:100968001946634600E000BF01B5FFF7B7FF00284E
:1009780048BF10F1000F01BD4DF808EDFFF7F4FF77
:100988000CBF012000205DF808FB00BF4DF808ED02
:10099800FFF7EAFF34BF012000205DF808FB00BF25
:1009A8004DF808EDFFF7E0FF94BF012000205DF847
:1009B80008FB00BF4DF808EDFFF7CEFF94BF0120FC
:1009C80000205DF808FB00BF4DF808EDFFF7C4FFF5
:1009D80034BF012000205DF808FB00BF4FEA410248
:1009E80012F5001215D211D56FF47873B3EB625279
:1009F80012D94FEAC12343F0004343EA505311F0A0
:100A0800004F23FA02F018BF404270474FF0000031
:100A1800704750EA013005D111F0004008BF6FF06F
:100A2800004070474FF00000704700BF4FEA410296
:100A3800B2F1E04324BFB3F5001CDCF1FE5C0DD934
:100A480001F0004C4FEAC0024CEA5070B2F1004F7E
:100A580040EB830008BF20F00100704711F0804F81
:100A680021D113F13872BCBF01F00040704741F446
:100A780080114FEA5252C2F11802C2F1200C10FA4A
:100A88000CF320FA02F018BF40F001004FEAC1232E
:100A98004FEAD32303FA0CFC40EA0C0023FA02F3D2
:100AA8004FEA4303CCE77FEA625307D150EA0133A8
:100AB8001EBF4FF0FE4040F44000704701F0004078
:100AC80040F0FE4040F40000704700BF80F0004056
:100AD80002E000BF81F0004142001FBF5FEA41030E
:100AE80092EA030F7FEA226C7FEA236C6AD04FEA0E
:100AF8001262D2EB1363C1BFD21841404840414053
:100B0800B8BF5B42192B88BF704710F0004F40F404
:100B1800000020F07F4018BF404211F0004F41F420
:100B2800000121F07F4118BF494292EA030F3FD0EC
:100B3800A2F1010241FA03FC10EB0C00C3F12003FF
:100B480001FA03F100F0004302D5494260EB40008E
:100B5800B0F5000F13D3B0F1807F06D340084FEAF9
:100B6800310102F10102FE2A51D2B1F1004F40EBEE
:100B7800C25008BF20F0010040EA03007047490056
:100B880040EB0000013A28BFB0F5000FEDD2B0FAF3
:100B980080FCACF1080CB2EB0C0200FA0CF0AABF16
:100BA80000EBC25052421843BCBFD04018437047B4
:100BB80092F0000F81F4000106BF80F400000132BA
:100BC800013BB5E74FEA41037FEA226C18BF7FEA91
:100BD800236C21D092EA030F04D092F0000F08BFD3
:100BE8000846704790EA010F1CBF0020704712F0BA
:100BF8007F4F04D1400028BF40F00040704712F1F9
:100C080000723CBF00F50000704700F0004343F05D
:100C1800FE4040F4000070477FEA226216BF084693
:100C28007FEA23630146420206BF5FEA412390EA56
:100C3800010F40F4800070474FF0000304E000BF4C
:100C480010F0004348BF40425FEA000C08BF7047FD
:100C580043F0964301464FF000001CE050EA0102C1
:100C680008BF70474FF000030AE000BF50EA0102D6
:100C780008BF704711F0004302D5404261EB4101C3
:100C88005FEA010C02BF84460146002043F0B643E8
:100C980008BFA3F18053A3F50003BCFA8CF2083A0D
:100CA800A3EBC25310DB01FA02FC634400FA02FC16
:100CB800C2F12002BCF1004F20FA02F243EB02001D
:100CC80008BF20F00100704702F1200201FA02FC7F
:100CD800C2F1200250EA4C0021FA02F243EB020072
:100CE80008BF20EADC7070474FF0FF0C1CEAD052B6
:100CF8001EBF1CEAD15392EA0C0F93EA0C0F6FD077
:100D08001A4480EA010C400218BF5FEA41211ED054
:100D18004FF0006343EA501043EA5111A0FB013140
:100D28000CF00040B1F5000F3EBF490041EAD37115
:100D38005B0040EA010062F17F02FD2A1DD8B3F191
:100D4800004F40EBC25008BF20F00100704790F000
:100D5800000F0CF0004C08BF49024CEA502040EA52
:100D680051207F3AC2BFD2F1FF0340EAC250704718
:100D780040F400004FF00003013A5DDC12F1190F56
:100D8800DCBF00F000407047C2F10002410021FAC8
:100D980002F1C2F1200200FA02FC5FEA310040F1E0
:100DA800000053EA4C0308BF20EADC70704792F059
:100DB800000F00F0004C02BF400010F4000F013A91
:100DC800F9D040EA0C0093F0000F01F0004C02BF8C
:100DD800490011F4000F013BF9D041EA0C018FE7FB
:100DE8000CEAD15392EA0C0F18BF93EA0C0F0AD001
:100DF80030F0004C18BF31F0004CD8D180EA010027
:100E080000F00040704790F0000F17BF90F0004FBF
:100E1800084691F0000F91F0004F14D092EA0C0FA1
:100E280001D142020FD193EA0C0F03D14B0218BF34
:100E3800084608D180EA010000F0004040F0FE407A
:100E480040F40000704740F0FE4040F44000704716
:100E58004FF0FF0C1CEAD0521EBF1CEAD15392EA95
:100E68000C0F93EA0C0F69D0A2EB030280EA010C85
:100E780049024FEA402037D04FF0805343EA11111E
:100E880043EA10130CF000408B4238BF5B0042F17C
:100E98007D024FF4000C8B4224BF5B1A40EA0C0021
:100EA800B3EB510F24BFA3EB510340EA5C00B3EB53
:100EB800910F24BFA3EB910340EA9C00B3EBD10F41
:100EC80024BFA3EBD10340EADC001B0118BF5FEA93
:100ED8001C1CE0D1FD2A3FF650AF8B4240EBC250BC
:100EE80008BF20F0010070470CF0004C4CEA50207D
:100EF8007F32C2BFD2F1FF0340EAC250704740F4CC
:100F080000004FF00003013A37E792F0000F00F0BD
:100F1800004C02BF400010F4000F013AF9D040EA3B
:100F28000C0093F0000F01F0004C02BF490011F4CF
:100F3800000F013BF9D041EA0C0195E70CEAD153C7
:100F480092EA0C0F08D142027FF47DAF93EA0C0FAE
:100F58007FF470AF084676E793EA0C0F04D14B0292
:100F68003FF44CAF08466EE730F0004C18BF31F044
:100F7800004CCAD130F000427FF45CAF31F000433E
:100F88007FF43CAF5FE700BF4FF0FF3C06E000BFD7
:100F98004FF0010C02E000BF4FF0010C4DF804CDFA
:100FA8004FEA40024FEA41037FEA226C18BF7FEA0A
:100FB800236C11D001B052EA530C18BF90EA010F0C
:100FC80058BFB2EB030088BFC81738BF6FEAE1709B
:100FD80018BF40F0010070477FEA226C02D15FEA37
:100FE800402C05D17FEA236CE4D15FEA412CE1D0A3
:100FF8005DF8040B704700BF844608466146FFE76A
:101008000FB5FFF7C9FF002848BF10F1000F0FBD4B
:101018004DF808EDFFF7F4FF0CBF012000205DF844
:1010280008FB00BF4DF808EDFFF7EAFF34BF0120C9
:1010380000205DF808FB00BF4DF808EDFFF7E0FF62
:1010480094BF012000205DF808FB00BF4DF808EDB3
:10105800FFF7D2FF94BF012000205DF808FB00BF16
:101068004DF808EDFFF7C8FF34BF012000205DF8F8
:1010780008FB00BF42000ED2B2F1FE4F0BD34FF077
:101088009E03B3EB126209D44FEA002343F00043F6
:1010980023FA02F070474FF00000704712F1610F19
:1010A80001D1420202D14FF0FF3070474FF00000EB
:1010B800704700BF53B94AB9002908BF00281CBFB0
:1010C8004FF0FF314FF0FF3000F00CB8ADF1080CD5
:1010D8006DE904CE00F023F8DDF804E0DDE9022331
:1010E80004B07047704700BF034613F8012B002A6D
:1010F800FBD1181A01387047430803F05533C01A5A
:1011080000F03333800800F03330184400EB10103F
:101118004FF0013300F00F305843000E70472DE9AF
:10112800F04786468C460846089E1546744619467A
:10113800002B40F0C2808542B2FA82F245D94AB10A
:10114800C2F1200300FA02FC2EFA03F3954043EAA9
:101158000C0C94404FEA154EA8B2BCFBFEF8230CC9
:101168000EFB18CC08FB00F943EA0C43994528D933
:10117800EB1808F1FF3704D2994502D9A8F1020704
:101188002B44A3EB0903A4B2B3FBFEFC0EFB1C33F8
:101198000CFB00F044EA0344A04214D92C190CF1CA
:1011A800FF3304D2A04202D9ACF102032C44241A22
:1011B80043EA07401EB1D440002334607360BDE8A1
:1011C800F0874746DDE76346F1E792BB431B012101
:1011D8004FEA154EAFB2B3FBFEFC200C0EFB1C33DE
:1011E8000CFB07F840EA0343984562D9EB180CF169
:1011F800FF3004D2984502D9ACF102002B44A3EB8E
:101208000803A4B2B3FBFEFC0EFB1C330CFB07F770
:1012180044EA0344A7424ED92C190CF1FF3304D2F7
:10122800A74202D9ACF102032C44E41B43EA004074
:10123800C0E7C2F1200320FA03F1954090402EFA4E
:1012480003F303434FEA154EAFB2B1FBFEFC0EFBAE
:101258001C10190C0CFB07F841EA0041884504FAF8
:1012680002F422D969180CF1FF3004D2884502D95A
:10127800ACF102002944A1EB08019BB2B1FBFEFCD2
:101288000EFB1C110CFB07F743EA01439F420ED9E2
:10129800EB180CF1FF3104D29F4202D9ACF10201E4
:1012A8002B44DB1B41EA004192E76046E3E76146D5
:1012B800F7E76046A3E76346B7E7834206D916B95E
:1012C800002108467BE7C6E900E0F9E7B3FA83F7AF
:1012D8008FB9834201D3724508D8BEEB020460EB94
:1012E800030301209C461EB9002168E73846FAE747
:1012F800C6E9004CF8E7C7F1200CBB4022FA0CF411
:101308001C432EFA0CF120FA0CF3B84001434FEAC3
:1013180014490EFA07F5B3FBF9F81FFA84FE09FB26
:1013280018300B0C08FB0EFA43EA00439A4502FA00
:1013380007F240D9E31808F1FF3004D29A4502D9E0
:10134800A8F102002344A3EB0A0389B2B3FBF9F81E
:1013580009FB183308FB0EFE41EA03418E452CD9E0
:10136800611808F1FF3304D28E4502D9A8F10203AF
:10137800214443EA0040A0FB0298A1EB0E0141453D
:10138800CE46434602D306D14D4504D2B9EB020EF0
:1013980068EB04030138002EA6D0B5EB0E0261EB12
:1013A800030101FA0CFC22FA07F34CEA0303F940A3
:1013B800C6E9003198E74046C5E74346D9E700004B
:1013C80008B5114B1868836810495B689847011E77
:1013D80004DABDE808400E4806F02DB90D4BB3F904
:1013E80000001E38FEF7F6FF05A3D3E90023FFF738
:1013F80085F9FFF71BFB084B186008BDAFF30080A9
:1014080033333333335344403804002088030020F7
:10141800399E0008F0050020240400200A4B012210
:101428001A700A4A13680133042BA8BF0123012B41
:10143800136006D0022B0CBF01230223044A137049
:1014480070470023FAE700BF8A060020A8000020A2
:10145800090600201FB50B46094901910221029196
:101468008DF80C109DF80C20816842F002028DF86E
:101478000C208C68012201A9A04704B010BD00BF50
:101488000606002010B586B00B4600218DF808101E
:101498000A4900920122CDE90312019207228DF830
:1014A80014209DF81420816842F002028DF814205F
:1014B8008C6802226946A04706B010BD08060020C5
:1014C80008B508484FF4B01105F0F9FF06484FF485
:1014D800B01105F0F4FFBDE8084004484FF4B0111E
:1014E80005F0EDBF889400088094000878940008FF
:1014F8002DE9F0471F4D20492B68204EDFF88080EA
:1015080020480B600024AB883480C8F800008B802A
:101518008368DFF874901B6898471C4B18601C4B55
:101528004FF0140A52462146184607F022F9194985
:10153800D5F806300B600122C0E901266B89A9F8AD
:10154800004002270C26C76006748B80D8F800007C
:1015580083681B689847104B1860104B5246214609
:10156800184607F006F92022C0E90129C760067469
:10157800BDE8F08744910008EA050020F205002044
:1015880038040020148E0008F00500208403002091
:101598009C030020E405002080030020880300202D
:1015A80070B50F4D0F4C28680123802629216370E0
:1015B8002670FFF74FFF032005F087FF2868267085
:1015C800032329216370FFF745FF81232370D52367
:1015D800637028682921BDE87040FFF73BBF00BF52
:1015E800400400200606002038B50A4C0A4D2A237C
:1015F800286823701D2101236370FFF72BFF0E233A
:1016080023700023637028681D21BDE83840FFF768
:1016180021BF00BF060600204004002010B50F4C73
:101628000F48206006F03DFF20B90E48BDE8104085
:1016380006F001B820684FF4B012052105F009FF43
:1016480008B10948F2E720684FF48032062105F016
:1016580000FF08B10548E9E710BD00BF34040020C9
:10166800C08D00087C9800088E980008A59800088E
:10167800431E10B50446052B07D8DFE803F0031115
:10168800131517190B4805F0D6FF204600F0A2FDE8
:10169800FA2005F01AFFBDE81040002000F09ABDBE
:1016A8000548F0E70548EEE70548ECE70548EAE7AE
:1016B8000548E8E7BC980008CF980008E0980008BB
:1016C800FB980008149900082A9900082DE9F04FA2
:1016D800A64B1B7885B0002B40F08D80A44BA54A03
:1016E8001B8812889A4206D2A34A12889A4202D2CA
:1016F800012000F06FFD9F4B9D4A1B8812889A427B
:1017080006D29D4A12889A4202D2022000F062FD57
:10171800994B974A1B8812889A4206D2954A128892
:101728009A4202D2032000F055FD944B1868FEF748
:1017380063FE02460B46924805F07DFF914B186800
:10174800FEF75AFE02460B468F4805F074FF002349
:101758008E498F48002203F0A3FB844B1B78002B93
:1017680040F08481012000F0A1FD834B804A1B8852
:10177800009388497F4B12881B880988864805F0A2
:101788005AFF864B1868FEF737FE854B04461868E3
:101798000D46FEF731FECDE90201824B1868FEF7CF
:1017A8002BFE2246CDE900012B467F4805F043FF7A
:1017B8007E4B1868FEF720FE7D4B044618680D46E0
:1017C800FEF71AFE2246CDE900012B46794805F0BE
:1017D80032FF794B00221A70644B1B78022B04D11C
:1017E800764B7748196805F026FF764805B0BDE8BE
:1017F800F04F05F020BF614A013B012B176894D8D0
:10180800604BDFF8C4B11E68684B1D68684B1C68E4
:10181800624BD3F800A0634BD3F80090604BD3F829
:101828000080654B1A78694B002A46D0DF601F603C
:10183800674BCBF80C60C3F800A0C3F80C90C3F852
:1018480004A0C3F80890C3F81080C3F81480614B53
:10185800CBF80060DD601D605F4BDC601C60DFF86A
:101868006C813946D8F80400574FFFF735F93146EF
:10187800C8F804007868574EFFF72EF929467860B3
:101888007068554DFFF728F9214670606868FFF7C2
:1018980023F9374B68601A88364B1988364B8A42C9
:1018A8001B8800F2D080C0F0D5809A42BFF43DAFCB
:1018B8004A4A93680133936037E7D8683946FFF797
:1018C800B1FB424B00283DD0DF60DBF80C0031460D
:1018D800FFF7A8FB00283ED0CBF80C60DFF8F4B087
:1018E8002946DBF80C00FFF79DFB002878D0CBF8E1
:1018F8000C50DFF8E4B02146DBF80C00FFF792FB50
:10190800002877D0CBF80C40DFF8C4B05146DBF89C
:101918000000FFF787FB002876D0CBF800A0DBF8A3
:1019280008004946FFF77EFB002877D0CBF80890DF
:10193800DBF810004146FFF775FB002878D0CBF89C
:1019480010808CE718683946FFF78AFB0028BCD05E
:101958001E4B1F60B9E7DBF800003146FFF780FB3C
:101968000028BBD0CBF80060B8E700BF090600200C
:10197800F8050020F4050020F605002020040020CA
:101988003C99000824040020539900080A06002006
:1019980034010020FA050020629900083004002074
:1019A800280400202C040020969900081C0400201C
:1019B80018040020DF990008010100201404002009
:1019C800199A0008C19B0008E4030020D4030020F2
:1019D800BC03002004040020F4030020B00300200E
:1019E800DBF800002946FFF73BFB002881D0CBF845
:1019F80000507EE7DBF800002146FFF731FB0028A6
:101A080082D0CBF800407FE7DBF804005146FFF7AF
:101A180027FB002883D0CBF804A080E7DBF80C0074
:101A28004946FFF71DFB002882D0CBF80C907FE7D2
:101A3800DBF814004146FFF713FB00283FF40FAF13
:101A4800CBF814800BE79A420BD9094A1368013383
:101A580013606AE6994204D9054A53680133536012
:101A680063E69A42BFF461AE99421FE702207AE624
:101A7800B003002010B5474B47491C682046FFF7C4
:101A8800D1FA20B945492046FFF7EAFA10B10120FA
:101A9800FFF7EEFD424B1888FFF7D2F8414904469C
:101AA800FFF7C0FA00BB40492046FFF7D9FAD8B97A
:101AB8003E4B1888FFF7C4F83D490446FFF7B2FAD1
:101AC80090B93C492046FFF7CBFA68B93A4B1888D9
:101AD800FFF7B6F839490446FFF7A4FA20B93849A0
:101AE8002046FFF7BDFA10B10220FFF7C1FD354BC4
:101AF80018684FF07E5120F00040FFF7B1FAB0B9F6
:101B0800314B32491C6824F000442046FFF78AFA1A
:101B180068B92F492046FFF7A3FA40B92D4B18683A
:101B28004FF0804120F00040FFF79AFA10B10320EF
:101B3800FFF79EFD284B29491C682046FFF772FADB
:101B480020B927492046FFF78BFA10B10420FFF788
:101B58008FFD244B24491C682046FFF763FA20B9FF
:101B680022492046FFF77CFA10B10520FFF780FDD7
:101B78001F4B20491C682046FFF754FA20B91E491C
:101B88002046FFF76DFA20B1BDE810400620FFF7A8
:101B98006FBD10BD240400200000404000007041CB
:101BA800F805002000401C4500A08C45F4050020E5
:101BB80000C05A4500E0AB45F60500200000484447
:101BC80000002F45300400202C04002000000841AC
:101BD80000002841280400201C040020000020C127
:101BE80000004842180400200000C8410000964246
:101BF8002004002066668C420000BE4238B5114DB4
:101C0800FFF7DEFB00F0C8FC00F018FD00F092FDC5
:101C180000F094FE2B78022B01D100F0B5FE0A4C9F
:101C2800237853B9FFF752FD2B78013B012B01D8DC
:101C3800FFF720FF0123237038BD012005F045FC84
:101C4800EEE700BF090600200201002037B52E4844
:101C580006F027FC002849D12C4805F0ECFC2C4C58
:101C6800206806F01EFC10B92A4805F0E4FC2A4B4F
:101C7800186806F016FC10B9284805F0DCFC284B5B
:101C8800186806F00EFC10B9264805F0D4FC264D5D
:101C9800264A2068002329212B70FFF7F3FB2978B7
:101CA800442902D0224805F0C6FC00232B70206886
:101CB8000D230DF107021D218DF80730FFF7E2FB18
:101CC8002B781A2B02D01B4805F0B5FCE7232068B7
:101CD8008DF807300DF107024021FFF7D3FB80B1E3
:101CE800154803B0BDE8304005F0A5BC064806F02D
:101CF800D8FB0028B0D0114806F0D3FB0028ABD0A1
:101D0800ADE703B030BD00BFA48D0008299A0008D4
:101D1800400400203E9A00083C0400204D9A000828
:101D2800380400205D9A0008080600200001002001
:101D38006C9A0008879A0008A89A0008C08D0008C5
:101D48002DE9FF4704466348634F644E644D05F030
:101D580072FC2046FEF774FF804601467868614CA5
:101D6800FFF776F841468246B8607068FFF770F86A
:101D78004146B0606868FFF76BF84146A860606844
:101D8800FFF766F8A0603868FEF736FB8046F8680B
:101D98008946FEF731FBCDE902015046FEF72CFBE0
:101DA80042464B46CDE900014F4805F044FC3068F7
:101DB800FEF722FB8046F0688946FEF71DFBCDE959
:101DC8000201B068FEF718FB42464B46CDE9000118
:101DD800464805F030FC2868FEF70EFB8046E868A8
:101DE8008946FEF709FBCDE90201A868FEF704FB66
:101DF80042464B46CDE900013D4805F01CFC2068F1
:101E0800FEF7FAFA8046E0688946FEF7F5FACDE96A
:101E18000201A068FEF7F0FA4246CDE900014B4600
:101E2800344805F008FC00236360334C7B60736022
:101E38006B60D4E90032934205DDA268934202DD6B
:101E48002E4805F0F8FBD4E90023934205DDA2688B
:101E5800934202DD2A4805F0EEFBD4E901239342C0
:101E680005DD2268934202DD264805F0E4FB0023E5
:101E7800C4E90033A360244C2068FEF7BDFA064687
:101E880020690F46FEF7B8FACDE90201A068FEF70F
:101E9800B3FA32463B46CDE900011C4805F0CBFBBE
:101EA8006068FEF7A9FA064660690F46FEF7A4FACD
:101EB800CDE90201E068FEF79FFA3246CDE900015C
:101EC8003B46134805F0B7FB124B01221A7004B0C9
:101ED800BDE8F087BF9A000804040020F40300203E
:101EE800E4030020D4030020D19A00082D9B0008A9
:101EF8007D9B0008C49B0008B0030020079C0008D5
:101F08001F9C0008399C0008BC030020529C000854
:101F1800A39C00080101002070B511484FF48031DE
:101F280005F0CDFA0F488468A56965B103691B6897
:101F380013F0020F14BF4FF000734FF080634FF09F
:101F4800A0720121A8470849084B4B6002238B6007
:101F5800E36923B1BDE8704002480122184770BD0B
:101F680090940008C08D000844040020251400083F
:101F78002DE9F84FFFF7A4FA864B874A1A60874B7A
:101F8800874A1A60FFF7B4FAFFF70AFBFFF72CFB42
:101F9800FFF744FBFFF7C0FF8248834E4FF4B011B0
:101FA80005F08DFA81484FF4B01105F088FA8048A1
:101FB8004FF4B01105F083FADFF8F8A19AF8004061
:101FC800002C63D09AF80040012C21D1002000F0A9
:101FD80001F9794805F02FFB784B72481C700021F5
:101FE80005F059FA7248002105F055FA21466F4864
:101FF80005F051FA05F047FA04460F4605F043FA92
:102008004FF00009054688469AF80030012B61D048
:102018009AF80030022BCFD1002000F0DBF8684896
:1020280005F009FB5F48002105F035FA60480121F9
:1020380005F031FA5D48002105F02DFA05F023FA84
:1020480083460D4605F01FFA4FF0000804460F4678
:102058009AF80030022BAFD1FFF7D0FD05F013FA44
:10206800584B001B61EB0701984271F1000108F120
:10207800010808DB4046FFF763FE05F004FA4FF05D
:10208800000804460F46DFF840915BE04F4805F032
:10209800D2FAFFF7DBFD4348012105F0FCF944487B
:1020A800214605F0F8F94148214605F0F4F99AF877
:1020B8000030002B86D1FFF7A1FD4FF4FA64337886
:1020C80013B100233370F2E7012005F0FEF9013C5B
:1020D800F5D1ECE7FFF792FD05F0D5F9394B401B38
:1020E80061EB0801984271F1000109F1010908DB6F
:1020F8004846FFF725FE05F0C6F94FF000090546EA
:10210800884647F2305B02E0012005F0DEF905F071
:10211800BAF9001B61EB0701584571F1000104DAB7
:102128003378002BF0D00023337005F0ACF9044667
:102138000F4669E71E48012105F0ADF91BE00120B3
:1021480005F0C3F905F09FF947F23053B0EB0B00E7
:1021580061EB0501984271F1000115DA00F014FCF9
:10216800D9F80030632BE5D1194B19489B684FF417
:1021780000715B6998474FF47A7005F0A6F93378D7
:10218800002BDCD00023337005F07DF983460D4623
:102198005EE700BF40040020308E00083C040020A9
:1021A800F88D0008709400088A06002068940008DA
:1021B8006094000809060020FF9C00080101002027
:1021C8000D9D000880EE360014040020F39C0008E2
:1021D800A48D000810B5002104461A4805F07AF9C4
:1021E8001948002105F076F91848002105F072F920
:1021F800062C26D8DFE804F004122218141B1E004F
:102208001048002105F066F900210E4805F062F932
:1022180000210C48BDE8104005F05CB90121F8E741
:102228000848012105F056F908480121F2E7064857
:102238000121F7E70348012105F04CF90248012183
:10224800E8E710BD88940008809400087894000896
:10225800F8B518B303780BB3002103F097FC114BC2
:10226800002206460F46FEF749FAFEF7B7FBFEF7CF
:10227800B1F80C4B002204460D46FEF715F902464C
:102288000B4630463946FDF757FF074B0022FEF74D
:1022980035FA22462B46FDF751FFF8BD00200021F4
:1022A800FBE700BF0000594000004E402DE9F04F09
:1022B8009F4D2B78C3B083462BB99E4805F0BBF9D8
:1022C80043B0BDE8F08F9C490622284606F06AFA1A
:1022D800044630B19948294643B0BDE8F04F05F0AF
:1022E800AAB922AE29467F22304606F06DFA3C2272
:1022F800214613A88DF8074106F03BFA0C96904E3C
:1023080013AD31460CA806F091FA30B9092C09DC56
:1023180087498C4805F08FF9D2E701340F2C45F82E
:10232800040BEED1DDE916A31A9D1C9C0893DDE988
:102338001468DDE91879002DBFD02B78002BBCD0AC
:10234800284606F01EFAB9F1000FB6D099F8003009
:10235800002BB2D0302BB0D00028AED04046FFF7CB
:1023680077FF80468946BAF1000F08D09AF8003006
:10237800532B01BF024601F1004390469946089845
:10238800FFF766FFCDE9080147B13B78572B05D128
:10239800DDE9082101F10043CDE908236A4A106804
:1023A8005168127A0DAB03C31A7010AB03C31A70CD
:1023B800002E00F0A3803046FEF796FE052840F276
:1023C8009D8096F800C0ACF1300CBCF1090F00F20A
:1023D800958070783038092800F29080B1783039CB
:1023E800092900F28B80F278303A092A00F28680B7
:1023F8003379303B092B00F281807779303F092F00
:102408007CD84FF00A0E0EFB01260EFB0C0A0EFBC1
:102418000377CDE900674D4A534609210DA803F01B
:102428008BFBBBF1010F28D12B78DFF824A149469B
:10243800002B08BF5546002200234046FEF7BAFA93
:102448004646DDE90883002829F00047DDE9080150
:1024580023F000494FF000024FF0000314BF4FF083
:102468004E0B4FF0530BFEF7A5FA002814BF452377
:102478005723002C47D1544649E00AF1010A182392
:10248800CDE90067BAFBF3F2092103FB12A310A8F8
:102498002E4A03F051FB10AE2B782D4F4946002BE6
:1024A80008BF3D46002200234046FEF783FA002875
:1024B80014BF4E2353230B93C246DDE90883DDE99D
:1024C800080129F0004B002223F000490023FEF701
:1024D80071FA002814BF452357233CB32278002AF9
:1024E80008BF3C4604930B9B0093CDE90546CDE914
:1024F8000289184852465B46294614E0BBF1010F91
:1025080092D00DAEC8E72278002A08BF5446CDE91C
:1025180002890DAA10480493CDE90542CDF800B010
:1025280032463B46294605F086F8C9E63C46D9E7D7
:102538000A060020279D0008459D00084C9D0008BC
:10254800599D00085B9D0008309E0008769D000894
:10255800379E0008D69D0008859D000810B586B0F6
:102568000122019200228DF808200A4A0091039264
:102578000721022204928DF814109DF81430816806
:1025880013438DF814308C6829236946A04706B098
:1025980010BD00BF8B06002038B50F4D0F4C1049F9
:1025A8002868FFF7DBFF0F4B22880F4928681A803D
:1025B800FFF7D4FF0D4B22880D4928681A80FFF7D2
:1025C800CDFF0C4B22880C4928681A80FFF7C6FFFC
:1025D8000A4B22881A8038BD400400208B06002050
:1025E80006010020FA05002005010020F80500205A
:1025F80004010020F405002003010020F605002056
:1026080010B586B00122019200228DF808200A4AEE
:10261800009103920721022204928DF814109DF86C
:102628001430816813438DF814308C681D23694673
:10263800A04706B010BD00BF8D060020F8B5224E99
:10264800224C23493068234D234FFFF7D9FF2388B5
:1026580022493068DBBA9B102B80FFF7D1FF238813
:102668001F493068DBBA9B103B80FFF7C9FF2488FD
:102678001C4BB5F90000E4BAA4101C80FEF7E0FA80
:102688001949FEF731FB4FF06651FEF72DFB174B4A
:102698001860B7F90000FEF7D3FA1349FEF724FBD8
:1026A8004FF06651FEF720FB114B18602046FEF7ED
:1026B800C7FA0D49FEF718FB4FF06651FEF714FBF9
:1026C8000C4B1860F8BD00BF400400208D060020A8
:1026D8000901002000060020FE0500200801002056
:1026E80007010020FC0500200AE81C4130040020F6
:1026F8002C0400202804002010B586B00122019285
:1027080000228DF808200A4A00910392072102222C
:1027180004928DF814109DF81430816813438DF8D5
:1027280014308C6840236946A04706B010BD00BF2E
:102738008F06002070B5244E244D25493068254C5D
:10274800FFF7DAFF2B88244930685BBA2380FFF74C
:10275800D3FF2888214B40BA188080B2FEF76CFA64
:102768001F49FEF7C1FA4FF05E51FEF7BDFA1D4949
:10277800FEF7B0F91C4B054618602088FEF75CFA96
:102788001A49FEF7B1FA4FF05E51FEF7ADFA184953
:10279800FEF7A0F9174B1849186004462846FEF7BB
:1027A800A3FA04F00DFE1449FEF752FB134B12492D
:1027B80018602046FEF798FA04F002FE0E49FEF76C
:1027C80047FB0F4B186070BD400400208F060020A7
:1027D8000B010020040600200A0100200206002048
:1027E80052B82F4366663B42500400200000FA426C
:1027F8000000C040540400200000C8421C0400200F
:10280800180400202DE9F04F424DA1B0424FDFF8E7
:102818000C913B78002BF9D0DFF804810DE099F892
:1028280000300D2B09D02A7892B9242B05D13D49C7
:1028380001222A700A603C4A1370D8F800008368A5
:102848001B68002BE5D0354998470028E7D0DDE71D
:10285800344E0A2B346855D1DFF8CCA033490AF836
:1028680004000622504605F09DFF002841D12A2188
:10287800504605F0C5FF014600283AD00AF1010A82
:10288800504536D34078A0B391F802B0BBF1000FA1
:102898002FD004F033FEB0F1000A2ADB584604F0CA
:1028A8002DFE031E25DB43EA0A132148DBB2002272
:1028B800814222D193421CD11E498022684605F0EC
:1028C8004AFF7F2C28BF7F2422461749684605F017
:1028D80042FF04F180030DEB03044FF0000A04F8F3
:1028E80080AC154800220023694605F008FE87F8E9
:1028F80000A000232B7033609FE710F801CB82EA19
:102908000C02D5E77E2CF4DC621C3260064A1355B3
:1029180093E700BF910600200201002092060020E4
:102928003C0400205804002093060020459D000820
:1029380094060020509100083401002008B50B4B84
:10294800186883680A495B6898470A4BB3F900001E
:10295800FEF776F90849FEF7BDF80849FEF7C4F90D
:102968000749FEF775FA074B186008BD38040020C0
:102978009C030020F2050020000048430000C842E4
:10298800008054452004002038B51F4C01212068E0
:1029980004F0D8FD0A2005F05EFD2068002104F04F
:1029A800D1FD206804F0C0FD0028FAD002F00EF82E
:1029B8000546206804F0B8FD0128FAD002F006F8B0
:1029C800401B18302CBF012100214FF42E62002338
:1029D800FEF770FB0446FEF72FF90C49FEF740FBA3
:1029E80000280CBF20460020FEF726F908490446B7
:1029F800FEF736FB28B92046FEF73CFB054B18606E
:102A080038BD6320FAE700BF340400200000E1432A
:102A18000000C64214040020014B1B68184700BF81
:102A2800AC000020014B1860704700BFAC000020CC
:102A380030B585B004460D4610220021684605F0E1
:102A480098FE02238DF802302A46044B0193214652
:102A5800684603F069FB05B030BD00BF212A0008B5
:102A680080B505460E461746984602F033FD0346E4
:102A780006F000F9DFF81890044649F8003042469D
:102A880030463946A84754F8090000F00BFB00BF50
:102A980008000000034A536823F002035360002033
:102AA800704700BF002004E0EFF31180102383F388
:102AB8001288BFF36F8F094B1A683AB9084A116830
:102AC80041F4807111601168C905FCD51A6801329A
:102AD8001A6080F31188BFF36F8F7047600400207D
:102AE80000040058EFF31180102383F31288BFF31A
:102AF8006F8F114B1A689AB9BFF35B8F0F4B012286
:102B080053E8001F002904D143E8002CBCF1000F52
:102B1800F6D1BFF35B8F80F31188BFF36F8F7047D7
:102B2800012A01BF06490A6822F480720A601A68FD
:102B3800013A1A60EFE700BF600400205C0400203F
:102B480000040058084B1A6842F400721A601A68A8
:102B580042F480621A601A6842F480721A60034B69
:102B6800034A1A60704700BF00400058F000002078
:102B780000093D00014B036000207047989400084D
:102B880008B50348034A0021121A04F062FD08BD83
:102B980060010020180700200748084A084908B5BE
:102BA800121A04F058FD0748074A0849BDE80840CA
:102BB800121A04F050BD00BF000000205C01002084
:102BC8005CA3000800000020000000205CA30008AF
:102BD80038B505460C4699B1D1E901230F48096873
:102BE80004F029FDD4E90423E1680D4804F023FD2D
:102BF800E1690C4804F01FFDA1690B4804F01BFDB6
:102C0800012D05D1EFF305810848103904F013FDB3
:102C180021462846BDE8384001F0ACBF589E000860
:102C2800889E0008B89E0008C89E0008F79E000805
:102C380030BFFFF7FDBF00BF2DE9F0410B4EDFF8B5
:102C4800308006EB0807CC1B05463246094920466A
:102C580005F081FDA01942460021083C05F089FDD8
:102C68002C6707F10800BDE8F08100BF00000000F4
:102C78000800000030910008054B5A699B689A4289
:102C88001FBF044A536843F080535360704700BF26
:102C9800B805002000ED00E02DE9F8432B4D8046F3
:102CA8002B481746894604F0C6FCAB6ADA0622D5DB
:102CB800284804F0C0FC1124AB6A1B0703D526483A
:102CC80004F0B9FC1224214DAB6A9E0715D52348A0
:102CD80004F0B1FC6E6BAB6A1C0634D52048314653
:102CE80004F0A9FCB9F1000F03D0AB6A23F080030C
:102CF800AB62132403E01024DEE76FF01506134DD2
:102D0800AB6AD80703D5174804F095FC1424AB6ABE
:102D1800D90602D4AB6A9A070BD50C4B5B681B0526
:102D280007D54146304600F065FA10B180F30988AE
:102D38000224064A936A43F0FF03936200233B7020
:102D48002046BDE8F8836FF01506D2E700ED00E0F5
:102D58000B9F0008229F0008569F00086A9F0008E2
:102D6800839F00089A9F000810B51D4C1D4804F069
:102D780062FCA36A990130D51B4804F05CFC1E2054
:102D8800A36ADA0103D5194804F055FC1F20144C36
:102D9800A36A1B0303D5164804F04DFC2120A36A3F
:102DA800590303D5134804F046FC22200C4CA36AAF
:102DB8009A0303D5104804F03EFC2320A36ADB03E2
:102DC80003D50E4804F037FC2420054A936A6FEABD
:102DD80003436FEA1343936210BD1D20D0E700BF81
:102DE80000ED00E0BA9F0008D39F0008E79F0008A5
:102DF80002A0000821A0000847A0000862A000085F
:102E080070B5204C064620480D4604F014FCA36A11
:102E1800D90435D51D4804F00EFC1720A36A1A05FD
:102E280003D51B4804F007FC1820164CA36A9B0521
:102E38000FD5184804F0FFFBA16BA36A180407D547
:102E4800154804F0F8FB1EB1A36A23F40043A362FB
:102E580019200C4CA36A5A0503D5104804F0EBFB63
:102E68001A20A36ADB0503D50D4804F0E4FB1B20F8
:102E7800044A936A43F47F43936200232B7070BD26
:102E88001620CBE700ED00E08EA00008A5A0000802
:102E9800569F0008B7A00008D1A00008E7A00008C6
:102EA80003A100082DE9F0415B4B5F688AB0044636
:102EB800C7F30806002585F31188BFF36F8F02F06A
:102EC8007F43B3F17F4F06D102F00C03082B13D1D7
:102ED800524804F0B0FB00252C464FF00008F31EC2
:102EE8008DF80780092B00F28680DFE803F00A7A64
:102EF8007E7684848484848210074CBF0C46012526
:102F0800EBE74748444E04F096FB8DF80780F36AD8
:102F18009A0704D5434804F08EFB002330E0F36A97
:102F2800002B01DA4048F6E7F36A5B00F5D53F4825
:102F380004F081FB7369A26943F480737361BFF382
:102F48004F8FBFF36F8F736932F8022C23F48073AD
:102F58007361BFF34F8FBFF36F8F4DF602739A42C1
:102F680009D0B36ADBB253B30DF107020121204641
:102F7800FFF792FE33E021682D4804F05CFB2368DC
:102F88009DF80720C2B902AE04F1200720686168E5
:102F9800324603C20834BC421646F7D1099AB5B383
:102FA800C2F3080121B96FEA52226FEA422209925C
:102FB80002A91846FFF70CFE0AB0BDE8F081B36A13
:102FC80013F47F4F05D00DF107010120FFF718FF1B
:102FD80005E0B36AB3F5803F9FD3FFF7C5FE03460C
:102FE800CEE70DF107020021C1E70DF1070100202E
:102FF800ECE710488FE7104B1049114817F4F87F99
:10300800A6F1100218BF194604F015FB85E722F453
:10301800FF7222F00102CAE700ED00E04AA10008B1
:1030280076A100088EA10008B0A10008BFA1000881
:10303800DFA10008FCA1000831A100081CA10008BC
:1030480021A20008044B5A6942F010025A615A69D9
:1030580022F008025A61704700ED00E0EFF30880A3
:10306800EFF3098101B57246FFF71CFF01BD00BFF0
:103078000A4880F30888102080F3118808484FF424
:103088000461401880F30988EFF314800221084393
:1030980080F31488BFF36F8F04F0EEFA001B002052
:1030A80080090020084B9B6883420BD1EFF305830E
:1030B80043B1064B5A6842F080525A605A6A22F469
:1030C80000425A6202F00CBAB805002000ED00E098
:1030D80014498A684FF030001044EFF3098C80E8F7
:1030E800F01F102080F31288BFF36F8F0E4F4FF040
:1030F80000664A698A603E60106F0C4C2060506F11
:103108000023536780F3118804B5104600F0D6F801
:10311800BDE8044002F1300090E8F01F8CF3098804
:1031280070470000B805002004ED00E064040020AA
:103138001EF0040F0CBFEFF30880EFF309808169DC
:1031480011F8021C0229FFD001B5724604F085FA75
:1031580001BD00BF40B2002807DB044A4109012332
:1031680000F01F00834042F82130704700E100E082
:1031780040B20028A8BF00F1604001F10101B8BFCA
:10318800064B4FEA0111ACBF00F5614000F00F009B
:10319800C9B2B4BF195480F80013704714ED00E0A9
:1031A800044B054A23F07F039360BFF34F8FBFF3AF
:1031B8006F8F70470000000800ED00E042F8203CE7
:1031C800009B42F81C3C0A49019B42F8183C029BB0
:1031D80042F8143C21F001014FF0807342F8043C9E
:1031E80042F8081C0023203A02654367704700BF75
:1031F800692A0008094A0346906870B113F1160F4E
:10320800006E05D0A0F140029A4205D8834203D24D
:10321800814228BF0020704700207047B805002071
:1032280008B515460B4A0C4B9060026F1A600E46A3
:1032380000F044F82C4686F309880020034B984791
:103248002046002100220023014C20479D760008DB
:10325800692A0008B805002064040020014B1022E8
:103268001A61704700ED00E0044800231021C218DD
:1032780001333E2B82F80013F9D1704700E100E0DA
:1032880008B5EFF30583064A103B02EBC30152F879
:10329800330049688847BDE80840FFF7EDBC00BF28
:1032A8004C8E0008024B034A0348012100F076B80F
:1032B800000001200000002098940008026E054BD1
:1032C800403A1A60044A4021C3E901121846012114
:1032D80000F06EB86804002000000B15084AC2F818
:1032E80098000B6823F01F03034343F01003C2F850
:1032F8009C308B6843F00103C2F8A030704700BFD0
:1033080000ED00E02DE9F043DFF8608085B00E465F
:103318001F4604464FF00009B14523DA6068D8B16A
:103328003FB1411E08421BD11F2819D923681942F1
:1033380016D12368019304F0C1F9A36803430393EA
:10334800D8F89050C5F30725D0B2013DA84207D858
:1033580001A9FFF7C3FF421C09F101090C34DBE79F
:103368006FF01502104605B0BDE8F08300ED00E0EF
:10337800044B0522C3F89420BFF34F8FBFF36F8F20
:10338800704700BF00ED00E0BFF35F8F024B0022E3
:10339800C3F89420704700BF00ED00E010B5034C5F
:1033A80001232278FFF7AEFF207010BD130700201D
:1033B80008B50B4A00231278FFF7A4FF10F1160F87
:1033C80007D0084A0021D2F89030C3F30723984267
:1033D80000DB08BDC2F89800C2F8A0100130F2E77F
:1033E8001307002000ED00E02DE9F043534B544C47
:1033F800D3F890302568C3F307239D4285B000F2C7
:103408009A80FFF7C1FF00200C2685421AD14D4C47
:103418004D4F25706846FFF7ADFBDFF82081DFF8D8
:103428002C9106460025AE4213D12378434900204B
:10343800D1F89020C2F30722934276DBFFF798FF7A
:10344800002042E0616806FB0011FFF747FF0130EA
:10345800DBE7009800EB05114FEA051CCB683B4001
:10346800B3F5000F48D00AD8B3F5001F30D0B3F534
:10347800800F36D0B3F5801F10D00135D3E7B3F1F4
:10348800807F42D0B3F1007FF7D150F80C308868C4
:103498004A6804F013F940F4802009E050F80C3031
:1034A80088684A6804F00AF940F0885040F43020EF
:1034B800CDE901230390D8F890302078C3F307238F
:1034C800013B98422AD96FF0150005B0BDE8F0839A
:1034D80050F80C3088684A6804F0F0F840EA0900AF
:1034E800E6E750F80C3088684A6804F0E7F840F0DE
:1034F800C06040F40030DBE750F80C3088684A6858
:1035080004F0DCF840F08270D2E750F80C3088689C
:103518004A6804F0D3F840F08870C9E701A9FFF7BA
:10352800DDFE237801332370A7E7C1F89830C1F88E
:10353800A00001337CE74FF0FF30C6E700ED00E064
:10354800A4940008130700200000F0FF00000811F1
:1035580008B5024B1B689847002008BD740400207A
:10356800034B044A1860937843F002039370704742
:1035780074040020B000002008B50649064821F070
:103588000701C1F1005202F5803204F015F800205D
:1035980008BD00BF471F00207804002013B50C4C5D
:1035A800204604F07EFF68B10A4A92E803006B46A1
:1035B80083E80300A26812683AB11946204690478A
:1035C80002B010BD6FF01200FAE76FF05700F7E78E
:1035D800188D0008309100083F280DD800F01F0210
:1035E80001239340054A1F2894BFD268D26A9343A7
:1035F8000CBF0120002070470020704700080058C9
:1036080000F01F0201233F2803FA02F307D81F28FE
:10361800044A02D8D36000207047D362FBE76FF0FA
:103628001500704700080058044B18440023013364
:10363800994200F8012BFADC704700BF0C0100200A
:103648002DE9F041104F054600264FF001086B7830
:10365800F4B2A34201D8BDE8F0812B781C4420467F
:10366800FFF7BAFF68B12046FFF7CAFF57F83430B2
:103678003BB107EBC40204F01F04516808FA04F0D8
:1036880098470136E3E700BF84040020034670B181
:10369800B0FA80F2C2F11F02D2B206498856064A31
:1036A800D2F880100B43C2F88030FFF753BDFF22D9
:1036B800F3E700BF0C01002000080058034AD2F8C5
:1036C800803023EA0003C2F88030704700080058B1
:1036D800032921D8DFE801F0020C10190F4B1A68F2
:1036E80022EA00021A605A6822EA00025A60704709
:1036F8000A4B1A680243F5E7084B5A6802435A60B6
:103708001A6822EA00021A607047044B1A680243DA
:103718001A605A6810435860704700BF0008005884
:1037280030B5B0B1B0FA80F3C3F11F03DBB20B4878
:1037380050F833408C4204D100EBC3056D689542C4
:1037480005D044B940F8331000EBC30042600020B4
:1037580030BDFF23EBE76FF00F00F9E7840400208A
:1037680060B1B0FA80F3C3F11F03DBB2044A002151
:1037780042F8331002EBC30251607047FF23F5E7AC
:103788008404002000F00302043292000F239340C7
:1037980043EA900000F003030233064A52F823205C
:1037A800030C02EA104093FAA3F3B3FA83F3D84068
:1037B800704700BF00000140F0B5456895F83C30FF
:1037C800DB0602D40B799F061BD40B78092B18D182
:1037D8004B78042B15D14A88B2B143F6FF739A424D
:1037E8001BD0930B032B0CD1264F05F12606002383
:1037F80036F8024F3C43A4B2A24206D00133082B4C
:10380800F6D16FF0150007E0134695F93820012A24
:1038180005DC002AF5DB0020F0BD0723F5E7022AC6
:10382800EFD10C7901692A6891F9A600461C04F0C9
:103838001F0401D098420ED181F8A63051694FF487
:103848008070A04021EA00015161516921F007010F
:103858000B435361DFE791F9A700451C01D098425B
:10386800CFD181F8A730556907484FF48071A1403E
:103878006840014069405161516921F0700141EA95
:103888000313E6E700C0FFFF04FFFF0338B52F4B23
:103898001A68D10644BF10221A601A68520745D523
:1038A8002B4C1A6CD4F89430991CC4F894101A80D4
:1038B80094F8A53094F8A4200133DBB29A4284F836
:1038C800A530254632D1002384F8A530636E9BB31A
:1038D800E36FB4F888203BB11E4804F164019847AF
:1038E800012811D0022822D0B4F88830B4F88420F6
:1038F8009A421CD90133A4F88830A36F4BB9BDE8AC
:103908003840134803F073BFD4F89830C4F89430A3
:10391800F3E7BFF35B8F55E8003F5A1E45E80021E7
:103928000029F8D1BFF35B8F012BE8DC38BDA36F0A
:1039380013B1094804F0EBFE4FF6FF73A4F8A63064
:103948000648BDE8384001F00DBB00BF0024014027
:1039580000000020148E00080800002050000020FD
:1039680073B5466835680446284603F07FFF6068EB
:1039780003F030FF96F83C309B0602D5606803F0F0
:1039880029FF074861688368DB6808310BB101AA21
:103998009847284602B0BDE8704003F04EBF00BF0C
:1039A800188D00082DE9F74F456806692F68044609
:1039B800DFF81CA1504604F074FD002800F0858053
:1039C8004FF6FF73C6F89040A6F8A630D4F80480E6
:1039D800DAF808B04146DBF8003051F8089B63B3C9
:1039E80050469847024640BB98F83C30D9071BD44C
:1039F80098F83C309A0708D5DBF8183008F1180118
:103A0800DBB1334800229847B8B9D8F8202022F013
:103A18000043B3F1804F43D1D9F8103023F040432D
:103A28001343C9F8103008E0DBF8183008F110012A
:103A38001BB1504698470028DAD0686A01AA0021CD
:103A480004F0A5FA00283BDB019B002219791868CD
:103A580000F086FC002833DB95F93B3073B1BB6876
:103A680023F0104323F0170343F08053BB6095F90C
:103A78003B30012B02D1142004F0EDFC6B6803B13C
:103A880098472046FFF76CFFFB6823F45C63FB60F4
:103A9800B36C1BB906F1400001F064FA002011E094
:103AA800B2F1004FB8D00B49D1F8083723F470139E
:103AB8001343C1F80837D9F8103023F04043B0E772
:103AC800831CC9D003B0BDE8F08F6FF01200F9E78E
:103AD800188D0008002001402DE9F04F036985B0DA
:103AE80006460D4603F140084FF0FF324FF0FF3312
:103AF800404601F06BFA73683469D3F80090AB68FC
:103B0800C4F894306F68C4F8A0703846FDF7F4FA2A
:103B1800002384F8A40084F8A53047B96FF0150491
:103B2800404601F01FFA204605B0BDE8F08F7268E4
:103B3800106892F93D103C328B4201DB12D1EDE75F
:103B480052F8047F95F810C0BCEBD74F40F08D8039
:103B5800FBB2FF2BC7F30422C7F3423BC7F3024A69
:103B680040F0858033697068D3F8A0204FF0010CCD
:103B78000023002A40F0958090F939204AB902685C
:103B8800C3F31103936213689904FCD54FF40053EF
:103B9800136094F8A4302A685B0012B1928902FB82
:103BA8000333EA689A42C0F0B880D6F804B095F8B2
:103BB80011A0DBF80000BAF1000F7ED10369DA0723
:103BC80005D503F053FE036923F001030361AB7CC1
:103BD80013B13046FFF7C4FE484603F02EFE10230B
:103BE800C9F80030D9F8043043F00403C9F80430A8
:103BF8002F460FCF04F164060FC63B6833600026DA
:103C080026662B68002B00F084800FCB04F1780522
:103C180085E80F006566A4F88860002879D0BFF3AE
:103C28005B8F54E8003F44E80062002AF9D1BFF3F3
:103C38005B8FA06F633046F1000164220023FDF71B
:103C480039FA0022CDE90001002304F1080001F04F
:103C580023FF4FF0FF324FF0FF3304F1500001F023
:103C6800B5F900B12066246E5AE7013364E7C358FA
:103C78000392D3400BEA03039A453FF473AF03F072
:103C8800F5FD7368039A196807F0FC070BFA02FB45
:103C9800CB590AFA02FA23EA0B0343EA0A03CB5187
:103CA80060E792FAA2F1B1FA81F10CFA01F747EA5A
:103CB80081610B4322EA07025BE7BAF1080F3FF67E
:103CC8002DAF0369DB0705D403F0D0FD036943F08A
:103CD80001030361124B53F82A709BF93A30012B08
:103CE8007FF475AF0F4B53F82AA0036903F01C0348
:103CF8009A4505D1036903F4F0739F423FF467AF17
:103D080003F0B4FD036947EA0A0723F4FE733B4353
:103D18005CE7204603F06BFD9BE76FF00B04FFE6C2
:103D2800589500083495000838B5294B18680B8851
:103D3800C3F30B030B2B0D46144622D813B96FF0AF
:103D480085002FE0013B0A2BF9D801A252F823F095
:103D5800A13D0008C33D0008853D0008BB3D0008A3
:103D6800BF3D0008A13D0008A13D0008A13D000895
:103D7800473D0008AF3D0008AF3D00084FF4FA404A
:103D88000AE003F6B873C3F30B031C2BD7D8114A08
:103D980022FA03F3DB07D2D520602B68B3F5805FE6
:103DA8000ED2002038BD00F0E1F806235843400841
:103DB800F2E70948F0E70020EEE74FF40040EBE7B0
:103DC800C3F313330133B0FBF3F02060E9E700BF1E
:103DD800F0000020110111110024F40070B5604DAD
:103DE80003F0ECFD284603F0E8FD00F003FE4FF079
:103DF800B0435C4AD3F8083103F00F0352F823604C
:103E08001368B0FBF6F6B5FBF3F5AE4202D22846CE
:103E180000F05EFE03F047FD012809D04FF0B042E4
:103E2800136843F48073136003F03DFD0128FBD150
:103E38004FF0B044D4F8943043F00103C4F8943000
:103E4800D4F894309B07FBD5FEF72EFED4F89030BB
:103E580043F00103C4F890304FF0B043D3F89020FA
:103E68009407FBD5D3F8902042F08002C3F8902045
:103E78004FF0B044D4F890301805FBD5FEF732FE69
:103E8800A36803F00C030C2B1CD103F00CFD0128D4
:103E980007D0236843F48073236003F004FD0128EE
:103EA800FBD14FF0B0439A6822F0030242F00102BE
:103EB8009A609A6802F00C02042AFAD19A6822F0F1
:103EC800F0029A604FF0B044236823F080732360B7
:103ED80023689901FCD4E36823F0606343F000731E
:103EE800E360E36843F08073E36000F043F823681D
:103EF80043F0807323604FF0B0431A689201FCD5F9
:103F08009A6822F0F0029A609A6842F003029A6076
:103F18004FF0B042936803F00C030C2BFAD1AE4279
:103F280002D3284600F0D4FD0F4B0D4A1A604FF01B
:103F3800B04300209A6822F4E0629A609A6822F4FA
:103F480060529A60D3F8082122F0F002C3F80821E1
:103F5800D3F8082122F00F02C3F8082170BD00BF72
:103F6800006CDC0260970008F000002000487047F1
:103F78000024F4004FF0B0430549DA681140054ABF
:103F88000A43DA60DA6842F08052DA60704700BFAC
:103F98008C80FF1F0206002008B5074804F081FA4C
:103FA80038B10648FFF7DCFA0448FEF73BFD00206D
:103FB80008BD6FF01200FBE7DC8D0008C93F000860
:103FC8000A2838B5074D044604D1AB680D215B6853
:103FD80028469847AB6803485B68E1B29847204693
:103FE80038BD00BFDC8D00082DE9F843D0F8048007
:103FF800D0F81090D8F8080017460D461E4603F072
:10400800BBFBB7F5001F044616D12846D8F8084070
:10401800FFF7B8FB84420CD1294603F0ADFB0446F8
:10402800FFF74CFB2046FFF79BFB00212046FFF7DC
:104038004FFB0020BDE8F883B7F5800F20D0B6F11C
:10404800806F19D0B6F1C06F18D0B6F1007F1AD1C1
:10405800022610494A462046FFF762FBB0B9D8F855
:104068000810284603F08DFB20463146FFF730FB49
:104078002046FFF70BFBDCE70126EAE70326E8E723
:104088006FF08500D6E76FF01500D3E76FF00F00EB
:10409800D0E700BF337C000838B503690446586090
:1040A8000A4D284604F0FDF960B1AB6861681B68E9
:1040B8000C3123B12846984700EAE07038BD6FF00C
:1040C8005700F9E76FF01200F8E700BF188D0008F5
:1040D800F7B50446436806691948DD680F4659680C
:1040E8008368DB680022019223B96FF0040420463C
:1040F80003B0F0BD01AA98470028F6DB376206F145
:1041080010074FF0FF324FF0FF33384600F05EFFE4
:104118002B6823F001032B60204696F8521003F019
:1041280014FE019900F084F896F8513004461BB14A
:104138002B6843F001032B60384600F013FFD6E7E5
:10414800188D000870B50446466805694FF0FF32BF
:104158000021284604F0DAF93368204698470023FE
:1041680085F8503085F852300122114605F11000CB
:1041780004F0CCF91A4804F094F968B3204600F02A
:1041880039F83169174B994220D013D8164B994208
:104198001ED0164BCB1A59425941890041F01001E3
:1041A8002046FFF795FF002803DB012385F85030F0
:1041B800002070BD0E4B99420CD003F5C31303F5D4
:1041C800206399420CBF0A210021E7E70621E5E7B1
:1041D8000221E3E70821E1E76FF01200E9E700BFF9
:1041E800188D000840420F00A0860100801A0600C2
:1041F80040E1330013B5446801AA6069002103F067
:10420800C6FE002810DB019B00221979186800F00F
:10421800A7F8002808DB0548616883681B680BB1AC
:10422800984708B16FF0040002B010BD188D00085F
:104238002DE9F74F446803690193E568E369DFF8FE
:104248000881DFF80891DFF808A1DFF808B10093CA
:104258000020009B8342019B1A6A33D1C2F34202B9
:10426800012A61D0022A6BD140F2145E4FF4167C09
:104278004FF4FA7740F27716DFF8DC800220421E0E
:10428800B1FBF2F2B8FBF2F2BCFBF2F4013CFF2CFA
:1042980053D8BEFBF2F3013BFF2B4ED8B6FBF2F925
:1042A800B9F10F0F49D8B7FBF2F2013A0F2A44D8F7
:1042B80043EA0943023843EA007343EA025343EAF4
:1042C80004231DE00C23D4F818C0DFF890E003FBAA
:1042D80000F70CEB0706736873451DD015D85345D6
:1042E8001CD05B4514BF002301239B00C2F342028C
:1042F800B2EB530F16D15CF807308B4212D1B3687A
:104308002B61002003B0BDE8F08F434508D04B4532
:104318000CBF0A230023E9E70623E7E70223E5E7C2
:104328000823E3E7013094E741F25C2E4FF47A6CFE
:1043380040F2E2474FF4FA769EE7013011289ED109
:104348006FF01500DEE700BF40E13300404B4C0042
:10435800A0860100801A060000CA9A3B40420F005E
:104368002DE9F0471E4F044600EBC1060025B44274
:1043780001D1002014E02068C30600F01F0911D401
:10438800656845F02005C0F3481AC0F34420192891
:1043980023D857F82080B8F1000F0DD16FF0120024
:1043A800BDE8F087B9F1100F04D0B9F1110FEAD1C7
:1043B8006568E8E73025E6E7404604F072F800282B
:1043C800ECD04B462A460AF00F01404603F043FC66
:1043D800002804F10804CADAE2E76FF01500DFE705
:1043E80014960008012912D0022907D089B900685B
:1043F800094BC01A18BF0120000370470068064B1C
:10440800984214BF4FF440504FF4005070470020BA
:1044180070474FF4005070470080004043681B68A5
:1044280003F1080252E8002F42F0010203F10800EC
:1044380040E800210029F3D1094A934203D0A2F5AC
:104448007442934203D15A6842F040025A6053E8DA
:10445800002F42F4807243E800210029F7D1704709
:104468000038014043681B6803F1080252E8002F36
:1044780022F0010203F1080040E800210029F3D1ED
:10448800094A934203D0A2F57442934203D15A6871
:1044980022F040025A6053E8002F22F4807243E869
:1044A80000210029F7D170470038014070B51D463A
:1044B800094B002633F812203346FCF7FBFD0902AE
:1044C80041EA10616C08000220182A46334641F17F
:1044D8000001FCF7EFFD70BD64980008F7B543686C
:1044E80002691D680C4619B96FF0150003B0F0BDDC
:1044F8001068D9688368DB68002B45D001AA984703
:104508000028F3DB224B9D4230D1019F214E00252C
:104518002346AAB238460021FFF7C8FFA0F540702D
:10452800B04203D901350C2DF2D1DDE7184EF36AFC
:1045380023F00F032B43F362174B33F815200023A6
:1045480019463846FCF7B6FD090241EA10616308CE
:104558000002C01822464FF0000341F10001FCF7A9
:10456800A9FDC0F31300F0600020BFE72B6823F417
:1045780000432B60019800EB5400B0FBF4F10F29C5
:10458800B2D989B2E960EFE76FF05700AEE700BF34
:1045980000800040FFFC0F00649800082DE9F843F4
:1045A80006460A794068336904685F68012A0D463F
:1045B8001AD0931ED3F1000848EB03084FEA882865
:1045C8006979FFF70FFF95F80690B9F1020F0346D6
:1045D8000DD0B9F1040F0ED0AAB1033A012A0CD8B4
:1045E8006FF08500BDE8F8834FF4C068E8E73AB992
:1045F8004FF0805008E0002AF2D14FF4805003E0D9
:10460800033A012AECD90020B3F5805F30D0B3F526
:10461800405F2FD0002B0CBF012303239942DFD129
:10462800414603F0FFFC8145DAD1EB7963B1012BF8
:1046380022D1134B9C4207D0A3F574439C4203D06C
:1046480003F570539C42CBD1236823F00103236008
:104658002946304603F060FE0028C1DB236843F09A
:104668000103236095E8030087E803000020B9E709
:104678000023D3E70223D1E7032BDAD0B0E700BF4A
:10468800003801402DE9F3410469476806464F4860
:10469800206003F006FF20B96FF0120002B0BDE8F9
:1046A800F0812068F96883681B68002B00F08B8014
:1046B80098470028F2DB386A01AA002103F067FC5A
:1046C8000028EBDB019B002219791868FFF748FEE8
:1046D8000028E3DB756833692C68D3F80480236805
:1046E80023F001032360686803F0DBFE0028D3D0C1
:1046F800D5E901018368DB6803B1984754E8003FB6
:1047080043F00C0344E80032002AF7D14146304612
:1047180003F002FE002802DA6FF01500BEE72B7DD9
:104728001BB1A36843F00803A3606B7D1BB16368EA
:1047380043F400436360AB7D1BB1636843F480338B
:104748006360EB7D1BB1636843F4003363602B7EC9
:1047580023B31F4B9C4207D0A3F574439C4203D05C
:1047680003F570539C42D7D173681A68936843F471
:104778008043936023686A7E23F0787343EA425348
:1047880023602368AA7E23F4F81343EA02432360D4
:10479800EB7E1BB1A36843F40043A3602B7F1BB1DE
:1047A800236843F000532360236843F00103236028
:1047B800E3699A02FCD5E3695B02FCD530467B6A63
:1047C800984700206AE76FF0570067E7188D0008E0
:1047D8000038014010B54FF0E0230F499C691A6971
:1047E80008689B690D4902F4803234B993B90346CD
:1047F8004AB90A681044C01A10BD002B08BF034606
:104808000AB9A342F5D90A6802440A604FF0E022C7
:104818001269EEE70446F3E7B4050020A805002076
:104828000A4B102283F82320094B4FF496521A6042
:10483800084B002018604FF0E02341F2BF225A6174
:1048480098611A6942F007021A61704700ED00E0AA
:10485800B4050020A8050020684620F007018D4611
:1048680001B5FFF7B7FF0D4B0D4A186811680844EA
:10487800106000221A600B4A13684FF49651C01A50
:10488800B0FBF1F001FB0033136001F00BF8FEF709
:10489800F3F9BDE801408546704700BFA805002030
:1048A800B0050020AC0500202DE9F041334E91B150
:1048B800421C0AD14FF0E022136923F0010313616F
:1048C8004FF07F433360BDE8F0813468012807DC8E
:1048D8004FF000080BE0431C3468F7D140F6A650AF
:1048E80040F6A7539842A8BF184600F1FF38EFF3E7
:1048F8001185102383F31288BFF36F8FFFF76AFFC8
:104908004FF0E023DFF878C09F69DCF800301844E6
:104918001C4B00221A601C4B1A68831A2AD44FF4C5
:10492800965E0EFB083303F595531F33B3FBFEF178
:10493800131A0EFB0133B3F5806F144A38BF4FF4D6
:104948008063934228BF13464FF0E0223360916999
:104958008F42A7EB010703F1FF3338BF3F195361BB
:10496800384400239361CCF8000085F31188BFF325
:104978006F8FA8E74FF48063E6E700BFB405002017
:10498800B0050020A8050020AC05002080E8FF0045
:1049980038B5EFF31185102383F31288BFF36F8FB7
:1049A800084B1C68084B1B68E41AFFF713FF85F3D4
:1049B8001188BFF36F8F4FF496532044B0FBF3F088
:1049C80038BD00BFB0050020AC05002038B5EFF3B6
:1049D8001185102383F31288BFF36F8F044B1C6873
:1049E800FFF7F8FE85F31188BFF36F8F204438BDB9
:1049F800B005002010B54FF0B0439A68D96812F09E
:104A08000C0205D00C2A4AD101F00303012B51D125
:104A18004FF0B0412B480B6813F0080306D00B6821
:104A280013F0080337D1D1F8941007E00C68240775
:104A380056BFD1F894300968C3F3032350F82330E4
:104A4800002A0CBF184600204FF0B0418A6802F0D7
:104A58000C020C2A1ED1CA6802F00302022A2ED0C8
:104A6800032A06D10B68184A13F4801F174B18BF86
:104A780013464FF0B042D068D168D268C0F3062020
:104A88005843C1F302130133B0FBF3F0530F013362
:104A9800B0FBF3F010BD0B68C3F30313CEE7042A91
:104AA80005D0082A06D11B6813F4801305D00648E0
:104AB8000023C9E700231846C6E70448C4E7024BA9
:104AC800D7E700BF209700080024F4000048E80159
:104AD8001F4A034607CA84B00DF1100C0CE9070001
:104AE80018463BB31B4B1B6803F4C063B3F5007F48
:104AF80022D1194B984229D8184B984224D9184BDF
:104B080098428CBF02200120164904AB03EB8000B9
:104B18000B6850F80C2C23F0070313430B6008684C
:104B280000F0070082421CBF086800F00700831AE3
:104B38005842584104B070470B4B984206D80B4B6B
:104B4800984201D90A4BDBE70020DDE70020F1E7B6
:104B58003891000800040058006CDC0280A812019B
:104B680000512502004000580024F400808D5B00AD
:104B7800001BB70038B5EFF31185102383F31288B3
:104B8800BFF36F8F064B9C6803F09EFC85F311887A
:104B9800BFF36F8F2046BDE83840FEF783BA00BFE9
:104BA800B805002038B50A4B53F82040013053F8B7
:104BB8002050A54200D838BD606830B1037EDB07BD
:104BC80001D403F056FC0834F3E723689847FAE762
:104BD800A097000870B52A4B2A4C2B4D012286B0AD
:104BE80003201A70FFF7DEFF00F08EFF0420FFF7A6
:104BF800D9FF2646AE4204F1300410D300F076FB0C
:104C0800204C224EAC4226D300F084FBFDF7B0F9CD
:104C18001F4A137B23F00103137306B070BD54F8C9
:104C28000C3C059354F8103C049354F8143C03933B
:104C380054F8183C029354F81C3C019354F8203C57
:104C4800009354E90A2354E90C0100F0E5F954F8FB
:104C5800303C5E65CDE7D4E90A23B3F1FF3F08BFD6
:104C6800B2F1FF3F05D052EA0301206803D100F0FA
:104C78000DFC3034C6E73146183000F083FDF8E704
:104C88001407002040900008709000081B86000858
:104C98006002002070B5002386B00122CDE904230C
:104CA800134E144D01930F22CDE9023212491423F9
:104CB80003FB005506EBC01604464FF4A07000FB3A
:104CC80004110E4B00954FF48072304600F0A4F9A1
:104CD800737B0B4AEE6023F0040373734FF4046391
:104CE80004FB033313442C746B6006B070BD00BF23
:104CF800E0010020B8050020C0110020D78400087A
:104D080080090020BFB50020FFF74CFF284B83F334
:104D18000888284C284F636943F4007363610025B1
:104D2800F02384F82230E57725766576A57684F831
:104D38002050636A43F4E0236362FEF783F9FEF7C9
:104D48008DFA4FF0FF33A362E362FEF74DFBFEF7E7
:104D5800A9FA1A481A4C00F0ABF9FDF7F3FE012046
:104D6800FFF720FF0220FFF71DFF00F007FB154BA0
:104D780015495C61154B05930123CDE903534FF4A5
:104D880000623B46CDE901550095204600F044F904
:104D9800627B064622F004022046627303F0FCFBA5
:104DA8002846FFF777FF3A4631462046FEF738FA9D
:104DB800C011002000ED00E0DD4B0008E0020020FB
:104DC80060020020B80500200013002000A300089E
:104DD8002DE9F34104460E469DF8200004F1080829
:104DE800EFF31187102181F31288BFF36F8F256AC3
:104DF800E1688D4241D22568AC4219D0C5B1284638
:104E080003F070FB05F1180003F053FCA268286951
:104E18003146002403F09FFC2846AC6703F0BCFB36
:104E28004046394600F03CFA204602B0BDE8F08121
:104E3800A268A8B1E069314603F08DFCE369A26875
:104E480013446269E361934201D12369E361236AF0
:104E580001332362002087F31188BFF36F8FE4E7E3
:104E6800A1692369994204BF6369A361A069801A93
:104E7800A061314603F06FFCE9E752EA03010AD06A
:104E88000649896840460E61CDE900233946224625
:104E980000F0E4F9C9E76FF02200DCE7B80500206C
:104EA800F7B5044604F108070846EFF31186102108
:104EB80081F31288BFF36F8F216A002939D0A26865
:104EC800A16903F048FCA369A268256813446269D4
:104ED800A361934204BF2369A361236AAC4203F12F
:104EE800FF33236233D02846002D31D003F0FAFA7D
:104EF80005F1180003F0DDFBA2682969E06903F0F9
:104F08002AFCE369A26813446269E361934204BF1F
:104F18002369E361236A0133236200242846AC67CE
:104F280003F03AFB3846314600F0BAF9204603B0A0
:104F3800F0BD52EA030110D0094989680861CDE93A
:104F4800002331462246384600F088F9EFE7002072
:104F580086F31188BFF36F8FE9E76FF02200F7E758
:104F6800B805002070B5EFF31186102383F312887B
:104F7800BFF36F8F0468A0421AD0CCB1D4E90032D5
:104F880013605A60637B002523F002036373C4E94E
:104F98000055A56004F1180003F08BFB2046A567B7
:104FA80003F0FAFA31460848BDE8704000F078B9D5
:104FB800D0E902329A4218BF0133836086F3118820
:104FC800BFF36F8F70BD00BF1507002013B5EFF357
:104FD8001181102484F31288BFF36F8F846844B161
:104FE800013C846081F31188BFF36F8F002002B009
:104FF80010BD52EA030406D181F31188BFF36F8F05
:105008006FF00F00F3E7CDE900230246014800F0F6
:1050180025F9ECE7150700202DE9F043073285B0A4
:1050280022F007020E461F461099017300F158033B
:105038007F32C0E916330446002322F03F020421E0
:10504800836041733F2A0F98A073C4E90633E37362
:1050580006F14009A2F1400805D883F31188BFF38F
:105068006F8F084602DFB51829462046FDF7E4FD94
:1050780007300E9B20F00700A066C4E91898029339
:105088000D9B01932D1A0C9B00932A463B463146F3
:105098002046FEF793F800236365044B9B6803B131
:1050A800DB6EE366284605B0BDE8F083B80500204E
:1050B80040F2011383810023C0E91833C366014B12
:1050C80098607047B8050020094A93686FF00A0194
:1050D8009967084958674B6843F080534B60002331
:1050E80083F31188BFF36F8F9368986F704700BF81
:1050F800B805002000ED00E070B590F90D20437B65
:10510800002A36DBD90634D11B4C63F07F032246D4
:10511800437352F8183FE169934207D1C0E900216F
:105128000860E06111E09942F8D01B68002BF5D0C7
:1051380090F90E5093F90E60B542F4D0AE42F2DD0C
:105148005968C0E9003108605860A569954200D0E7
:1051580005B9E568A3685A7BD20604D1DA897F2AA3
:1051680001D9AA6932B1AB4202D0284600F086FACA
:10517800656170BD6361FCE7B805002038B590F93A
:105188000D20437B002A014604DA03F07F034373B2
:1051980003F0C8F90D4D2A46AB6852F8184F9442EF
:1051A80000D004B9EC688B4207D05A7BD20604D1F0
:1051B800DA897F2A01D9A2692AB1A34202D02046FE
:1051C80000F05CFA23466B6138BD00BFB8050020CB
:1051D800B3F1FF3F08BFB2F1FF3F03D002491830D7
:1051E80000F0D0BA704700BF1B86000838B5194CCC
:1051F800A168E0690B68814214BF1A460022496819
:105208000B605960A368E1692AB9134AC3E9002110
:105218000B60E3610CE093F90E0092F90E50A8427E
:1052280014D0854212DD5168C3E900210B60536038
:10523800A569094B9D4200D005B9E568A3689D4260
:1052480002D0284600F01AFA656138BD9142DCD0D8
:105258001268D9E7B8050020D0050020F8B50E4B34
:105268000C4611460D4A98681060DDE90667EFF3B1
:105278001182102282F31288BFF36F8F9D6828462F
:1052880003F062F9284632463B46FFF7A1FF204665
:10529800BDE8F840FFF718BFB8050020D805002082
:1052A80049B9EFF3058030B9054B5A699B689A42B2
:1052B80001D0FFF709BF81F31188BFF36F8F7047E3
:1052C800B8050020034648B9EFF3058232B9064A0B
:1052D80051699268914201D0FFF7F6BE83F31188B5
:1052E800BFF36F8F704700BFB8050020EFF311813F
:1052F800102383F31288BFF36F8F054B9A68D37B13
:10530800013BD37381F31188BFF36F8F704700BFE0
:10531800B805002070B5EFF31186102383F31288C7
:10532800BFF36F8F144DAB68DA7B0132DA732A460C
:1053380052F8184F944200D004B9EC685A7BD20650
:1053480004D1DA897F2A01D9A2692AB1A34202D0FD
:10535800204600F093F923466B6186F31188BFF36A
:105368006F8FEFF31180102383F31288BFF36F8FD1
:10537800BDE87040FFF7A6BFB8050020024B03F157
:105388001802C3E906227047B805002070B5EFF38C
:105398001186102383F31288BFF36F8F1B4CA1680B
:1053A800E0690B68814214BF1A46002249680B6005
:1053B8005960A368E1692AB9154AC3E900210B605D
:1053C800E3610CE093F90E0092F90E50A84218D050
:1053D800854216DD5168C3E900210B605360A56959
:1053E8000B4B9D4200D005B9E568A3689D4202D0E9
:1053F800284600F043F965613046BDE87040FFF784
:1054080063BE8A42D8D01268D5E700BFB80500202D
:10541800D0050020F8B550EA010306460C4603D132
:10542800FFF7B4FF0020F8BDEFF31187102383F3D3
:105438001288BFF36F8F124D124BA8681860FFF7E0
:105448009DFEA868104923463246183000F09AF9A4
:10545800AA68537B43F00403537304463846FFF7A6
:1054680033FEAB68D3E90A23B3F1004F08BF002A23
:10547800D8D103F046F9201A20EAE070D3E700BF3C
:10548800B8050020D80500201B86000838B504465A
:10549800EFF31185102383F31288BFF36F8F437BDB
:1054A8005B070FD5183003F004F9637B23F004037E
:1054B80020466373FFF720FE29460548BDE83840BB
:1054C800FFF7EEBE85F31188BFF36F8F38BD00BFBD
:1054D80015070020014B9868704700BFB8050020E9
:1054E8002DE9F8430446077BEFF31185102383F376
:1054F8001288BFF36F8F437B190705D585F3118891
:10550800BFF36F8FBDE8F883D90943F008025DD176
:105518004273A36813B1204603F00CF804F1180095
:1055280003F0C7F8A66D04F15808B04511D04FF044
:10553800000976B1304602F0FDFF06F1180003F0CD
:10554800B8F8C6F878903046FFF7D6FDA66DB04596
:10555800EFD1DFF8C080D8F808309C423ED1EFF395
:105568000589B9F1000918BF4FF00109D8F818608A
:10557800294A964200D00EB9D8F80C60B34202D03E
:10558800304600F07BF82046C8F8146002F07FF837
:10559800B9F1000F02D02148FFF78AFDD8F808308A
:1055A8009C4231D1EFF3058373BB227BD20718D419
:1055B8002846FFF789FDFB07A4D5002383F311884C
:1055C800BFF36F8F0423184602DF9BE703F07F03C6
:1055D80043F00803437302F0A5FF9AE74FF0000970
:1055E800C4E785F31188BFF36F8F83F31188BFF386
:1055F8006F8F0423184602DFEFF31180102383F323
:105608001288BFF36F8FD4E785F31188BFF36F8FCC
:10561800D1E700BFB8050020D0050020E002002037
:10562800044BC01A044BC0105843044B01221A54AF
:10563800704700BF60030020ABAAAAAA1507002084
:10564800C3897F2B12D80A4B1B6863B1094B90F9A9
:105658000E201B689A4209DB437BDB0606D1064B0A
:10566800C31A18BF012303F0010070470023FAE7AB
:10567800F4000020DC050020E001002070B50E4B8E
:105688000E4C1E7C06EB460304EBC304054620467D
:1056980003F00FF80A4B002228469A55FFF7D0FF6F
:1056A80048B1084B08491A68013A2046D317BDE8A3
:1056B800704000F067B870BDB80500206003002096
:1056C80015070020F40000202956000838B5EFF32C
:1056D8001185102383F31288BFF36F8F0F4B104A85
:1056E8009C681068A04206D1FFF7C8FF85F31188AF
:1056F800BFF36F8F38BD00211B7C1160094AD35C52
:10570800002BF3D02046FFF79BFF0028EED0637BE9
:10571800DB0601D1FFF76AFD2046E5E7B805002062
:10572800D805002015070020024B1868984208BFCA
:1057380000207047F8000020034B1B680BB9FFF7E7
:1057480027B90020704700BFE005002030B570B1D0
:105758000B4B5B6898420AD0036843B1D3E9042134
:10576800D0E90445121941EB0501C3E90421D0E948
:10577800003213605A600023C0E9003330BD00BF17
:10578800F8000020B3F1FF3F08BFB2F1FF3F2DE959
:10579800F84F0446994615461F467AD08160EFF3C4
:1057A8001188102383F31288BFF36F8FB9F1000FAC
:1057B800DFF8E4A020DBFFF7BFFFDAE900270135B7
:1057C80049F100092D1849EBE073C4E90453AD18F9
:1057D800064643EB07074FF00109FFF7A5FFDFF87F
:1057E800BCE0DEF804A00346EBB9C4E900EACAF855
:1057F8000040CEF8044028E0DAE900126FF0010317
:105808005B1A4FF0FF3161EB02025B1B62EB09028E
:10581800012B72F10001BCBF01230022C0E9043250
:105828004FF00009D9E7D3E9041CD4E904208A42DF
:1058380070EB0C0B24DA891A5A686CEB0000C3E988
:105848000410C4E9003214605C60FFF76DFF844205
:105858000ED1134B1B685BB9B9F1000F02D1FFF7EA
:105868006BFF0646304602F00DFF0021FFF71CF8DB
:1058780088F31188BFF36F8F28463946BDE8F88F43
:10588800521A60EB0C009A45C4E90420ADD01B689D
:10589800AAE700252F46EFE778030020F80000204C
:1058A800E00500202DE9F047EFF31185102383F37D
:1058B8001288BFF36F8FDFF8A490DFF8A480C9F8CF
:1058C8000000FFF731FF00260027D9F80030D8E99B
:1058D80000ECD91750B1D0E90442A34271EB020A97
:1058E8001CDAE41A62EB0102C0E9044213EB0E036E
:1058F8004FF000044CEB01012046C8E90031C9F81B
:10590800004002F0BFFE2146FEF7CEFF85F3118866
:10591800BFF36F8FBDE8F047FFF7D8BE14EB0E0258
:105928004CEBE473C0E90467C8E90023FFF70EFFF6
:1059380085F31188BFF36F8F83689847EFF311855C
:10594800102383F31288BFF36F8FD9F800301B1B25
:10595800C9F80030FFF7E8FEB7E700BFE005002010
:105968007803002010B5EFF31184102383F3128815
:10597800BFF36F8FFFF7E0FE054A0346D2E9000147
:10598800181841EBE37184F31188BFF36F8F10BDD2
:1059980078030020F8B50646EFF31187102383F348
:1059A8001288BFF36F8F026822B187F31188BFF3A3
:1059B8006F8FF8BDD0E90A54691C44F1000302292D
:1059C80073F1000334D3013D44F1FF34002CBCBF14
:1059D80015462C4602F099FE013041F100014019AC
:1059E80044EB0101012871F1000149DB02F08DFE51
:1059F800013041F100016FF00203401944EB01014D
:105A080083426FF000438B413FDB02F07EFE0130A2
:105A180041F100016FF00102401944EB01044FF01D
:105A2800FF33121A63EB04031A493046FFF7AAFE44
:105A3800336B01333363336A6BB187F31188BFF378
:105A48006F8F336A30469847EFF31187102383F33B
:105A58001288BFF36F8F334653F8184F9C42A4D077
:105A6800002CA2D0204602F0A6FD0023A36787F3EE
:105A78001188BFF36F8F2046BDE8F84002F08CBD57
:105A88006FF001024FF0FF33CEE700224FF00043E2
:105A9800CAE700BF9D5900082DE9F04105461C469C
:105AA80090461F46EFF31186102383F31288BFF345
:105AB8006F8FB4F1FF3F08BFB2F1FF3F05D186F306
:105AC8001188BFF36F8FBDE8F081002C09DB012A34
