:020000040800F2
:1000000080150020650A00087F300008510A0008AA
:10001000510A0008510A0008510A000800000000B7
:10002000000000000000000000000000250B000898
:10003000510A000800000000C50A0008411C000821
:10004000750C0008750C0008750C0008750C00088C
:10005000750C0008750C0008750C0008750C00087C
:10006000750C0008750C0008750C0008750C00086C
:10007000750C0008750C0008750C0008750C00085C
:10008000750C0008750C0008750C0008750C00084C
:10009000750C0008750C0008750C0008750C00083C
:1000A000750C0008750C0008750C0008750C00082C
:1000B000750C0008750C0008750C0008750C00081C
:1000C000750C0008750C0008750C0008750C00080C
:1000D000750C0008750C0008750C0008750C0008FC
:1000E000750C0008750C0008750C0008750C0008EC
:1000F000750C0008750C0008750C0008750C0008DC
:10010000750C0008750C0008750C0008750C0008CB
:10011000750C0008750C0008750C0008750C0008BB
:10012000750C0008750C0008750C0008750C0008AB
:08013000750C0008750C0008B5
:1001380053B94AB9002908BF00281CBF4FF0FF3146
:100148004FF0FF3000F00CB8ADF1080C6DE904CEAB
:1001580000F008F8DDF804E0DDE9022304B0704798
:10016800704700BF2DE9F04786468C460846089E32
:10017800154674461946002B40F0C2808542B2FAF3
:1001880082F245D94AB1C2F1200300FA02FC2EFAE4
:1001980003F3954043EA0C0C94404FEA154EA8B27D
:1001A800BCFBFEF8230C0EFB18CC08FB00F943EA55
:1001B8000C43994528D9EB1808F1FF3704D2994523
:1001C80002D9A8F102072B44A3EB0903A4B2B3FB9D
:1001D800FEFC0EFB1C330CFB00F044EA0344A04277
:1001E80014D92C190CF1FF3304D2A04202D9ACF176
:1001F80002032C44241A43EA07401EB1D4400023CA
:1002080034607360BDE8F0874746DDE76346F1E791
:1002180092BB431B01214FEA154EAFB2B3FBFEFC64
:10022800200C0EFB1C330CFB07F840EA03439845EF
:1002380062D9EB180CF1FF3004D2984502D9ACF121
:1002480002002B44A3EB0803A4B2B3FBFEFC0EFB95
:100258001C330CFB07F744EA0344A7424ED92C1978
:100268000CF1FF3304D2A74202D9ACF102032C44AB
:10027800E41B43EA0040C0E7C2F1200320FA03F17F
:10028800954090402EFA03F303434FEA154EAFB260
:10029800B1FBFEFC0EFB1C10190C0CFB07F841EA25
:1002A8000041884504FA02F422D969180CF1FF309C
:1002B80004D2884502D9ACF102002944A1EB080117
:1002C8009BB2B1FBFEFC0EFB1C110CFB07F743EACB
:1002D80001439F420ED9EB180CF1FF3104D29F4223
:1002E80002D9ACF102012B44DB1B41EA004192E741
:1002F8006046E3E76146F7E76046A3E76346B7E78A
:10030800834206D916B9002108467BE7C6E900E012
:10031800F9E7B3FA83F78FB9834201D3724508D856
:10032800BEEB020460EB030301209C461EB90021CA
:1003380068E73846FAE7C6E9004CF8E7C7F1200C49
:10034800BB4022FA0CF41C432EFA0CF120FA0CF3F1
:10035800B84001434FEA14490EFA07F5B3FBF9F820
:100368001FFA84FE09FB18300B0C08FB0EFA43EA4F
:1003780000439A4502FA07F240D9E31808F1FF3022
:1003880004D29A4502D9A8F102002344A3EB0A0338
:1003980089B2B3FBF9F809FB183308FB0EFE41EAF2
:1003A80003418E452CD9611808F1FF3304D28E45DC
:1003B80002D9A8F10203214443EA0040A0FB0298B5
:1003C800A1EB0E014145CE46434602D306D14D4529
:1003D80004D2B9EB020E68EB04030138002EA6D054
:1003E800B5EB0E0261EB030101FA0CFC22FA07F3EC
:1003F8004CEA0303F940C6E9003198E74046C5E7EF
:100408004346D9E7014B1B68184700BF000000208E
:10041800014B1860704700BF0000002030B585B060
:1004280004460D4610220021684603F0F5FC02231D
:100438008DF802302A46044B01932146684602F0A3
:100448003BFB05B030BD00BF0D04000880B5054674
:100458000E461746984602F0DFF8034603F048FDBB
:10046800DFF81890044649F80030424630463946CD
:10047800A84754F8090000F00BFB00BF0800000073
:10048800034A536823F0020353600020704700BFFB
:10049800002004E0EFF31180102383F31288BFF3E8
:1004A8006F8F094B1A683AB9084A116841F480718C
:1004B80011601168C905FCD51A6801321A6080F309
:1004C8001188BFF36F8F7047FC01002000040058AB
:1004D800EFF31180102383F31288BFF36F8F114B52
:1004E8001A689AB9BFF35B8F0F4B012253E8001FBC
:1004F800002904D143E8002CBCF1000FF6D1BFF36A
:100508005B8F80F31188BFF36F8F7047012A01BF9B
:1005180006490A6822F480720A601A68013A1A6069
:10052800EFE700BFFC010020F8010020000400589C
:10053800084B1A6842F400721A601A6842F4806222
:100548001A601A6842F480721A60034B034A1A60F0
:10055800704700BF004000582400002000093D00FB
:10056800014B0360002070473C43000808B503486E
:10057800034A0021121A02F076FD08BD5800002037
:10058800D80300200748084A084908B5121A02F09B
:100598006CFD0748074A0849BDE80840121A02F0EE
:1005A80064BD00BF00000020580000209C4A0008DD
:1005B80000000020000000209C4A000838B50546CD
:1005C8000C4699B1D1E901230F48096802F03DFDB5
:1005D800D4E90423E1680D4802F037FDE1690C48CD
:1005E80002F033FDA1690B4802F02FFD012D05D162
:1005F800EFF305810848103902F027FD2146284607
:10060800BDE8384001F092BCB0450008E04500085C
:1006180010460008204600084F46000830BFFFF784
:10062800FDBF00BF2DE9F0410B4EDFF8308006EB2F
:100638000807CC1B054632460949204603F0DEFB75
:10064800A01942460021083C03F0E6FB2C6707F19D
:100658000800BDE8F08100BF0000000004000000B1
:1006680030430008054B5A699B689A421FBF044AE9
:10067800536843F080535360704700BFA8030020BD
:1006880000ED00E02DE9F8432B4D80462B48174636
:10069800894602F0DAFCAB6ADA0622D5284802F06D
:1006A800D4FC1124AB6A1B0703D5264802F0CDFC05
:1006B8001224214DAB6A9E0715D5234802F0C5FCCC
:1006C8006E6BAB6A1C0634D52048314602F0BDFC7F
:1006D800B9F1000F03D0AB6A23F08003AB62132497
:1006E80003E01024DEE76FF01506134DAB6AD80758
:1006F80003D5174802F0A9FC1424AB6AD90602D422
:10070800AB6A9A070BD50C4B5B681B0507D54146AE
:10071800304600F065FA10B180F309880224064AD1
:10072800936A43F0FF03936200233B702046BDE8C1
:10073800F8836FF01506D2E700ED00E06346000885
:100748007A460008AE460008C2460008DB460008A4
:10075800F246000810B51D4C1D4802F076FCA36A4D
:10076800990130D51B4802F070FC1E20A36ADA01FB
:1007780003D5194802F069FC1F20144CA36A1B0317
:1007880003D5164802F061FC2120A36A590303D55A
:10079800134802F05AFC22200C4CA36A9A0303D592
:1007A800104802F052FC2320A36ADB0303D50E484D
:1007B80002F04BFC2420054A936A6FEA03436FEA70
:1007C8001343936210BD1D20D0E700BF00ED00E089
:1007D800124700082B4700083F4700085A470008FF
:1007E800794700089F470008BA47000870B5204CB1
:1007F800064620480D4602F028FCA36AD90435D5E0
:100808001D4802F022FC1720A36A1A0503D51B48CD
:1008180002F01BFC1820164CA36A9B050FD518483C
:1008280002F013FCA16BA36A180407D5154802F05F
:100838000CFC1EB1A36A23F40043A36219200C4CDC
:10084800A36A5A0503D5104802F0FFFB1A20A36AD1
:10085800DB0503D50D4802F0F8FB1B20044A936A18
:1008680043F47F43936200232B7070BD1620CBE7BF
:1008780000ED00E0E6470008FD470008AE46000826
:100888000F480008294800083F4800085B4800084E
:100898002DE9F0415B4B5F688AB00446C7F3080650
:1008A800002585F31188BFF36F8F02F07F43B3F102
:1008B8007F4F06D102F00C03082B13D1524802F0E7
:1008C800C4FB00252C464FF00008F31E8DF8078066
:1008D800092B00F28680DFE803F00A7A7E768484AA
:1008E8008484848210074CBF0C460125EBE74748F7
:1008F800444E02F0AAFB8DF80780F36A9A0704D5E4
:10090800434802F0A2FB002330E0F36A002B01DA2F
:100918004048F6E7F36A5B00F5D53F4802F095FBDF
:100928007369A26943F480737361BFF34F8FBFF398
:100938006F8F736932F8022C23F480737361BFF3ED
:100948004F8FBFF36F8F4DF602739A4209D0B36A87
:10095800DBB253B30DF1070201212046FFF792FEE7
:1009680033E021682D4802F070FB23689DF80720CA
:10097800C2B902AE04F1200720686168324603C29A
:100988000834BC421646F7D1099AB5B3C2F3080138
:1009980021B96FEA52226FEA4222099202A9184647
:1009A800FFF70CFE0AB0BDE8F081B36A13F47F4F7D
:1009B80005D00DF107010120FFF718FF05E0B36A24
:1009C800B3F5803F9FD3FFF7C5FE0346CEE70DF191
:1009D80007020021C1E70DF107010020ECE71048EC
:1009E8008FE7104B1049114817F4F87FA6F1100251
:1009F80018BF194602F029FB85E722F4FF7222F09E
:100A08000102CAE700ED00E0A2480008CE4800084D
:100A1800E64800080849000817490008374900084F
:100A280054490008894800087448000879490008B2
:100A3800044B5A6942F010025A615A6922F00802BE
:100A48005A61704700ED00E0EFF30880EFF3098189
:100A580001B57246FFF71CFF01BD00BF0A4880F3CD
:100A68000888102080F3118808484FF40461401862
:100A780080F30988EFF314800221084380F3148877
:100A8800BFF36F8F02F002FB8015002000040020E6
:100A9800084B9B6883420BD1EFF3058343B1064BA8
:100AA8005A6842F080525A605A6A22F400425A62E6
:100AB80001F0B8BDA803002000ED00E014498A68E1
:100AC8004FF030001044EFF3098C80E8F01F10203D
:100AD80080F31288BFF36F8F0E4F4FF000664A699C
:100AE8008A603E60106F0C4C2060506F0023536783
:100AF80080F3118804B5104600F0D6F8BDE804402C
:100B080002F1300090E8F01F8CF30988704700006C
:100B1800A803002004ED00E0000200201EF0040FEE
:100B28000CBFEFF30880EFF30980816911F8021C0C
:100B38000229FFD001B5724602F099FA01BD00BF43
:100B480040B2002807DB044A4109012300F01F00D6
:100B5800834042F82130704700E100E040B20028AD
:100B6800A8BF00F1604001F10101B8BF064B4FEA90
:100B78000111ACBF00F5614000F00F00C9B2B4BF6D
:100B8800195480F80013704714ED00E0044B054A2F
:100B980023F07F039360BFF34F8FBFF36F8F7047CE
:100BA8000000000800ED00E042F8203C009B42F8FD
:100BB8001C3C0A49019B42F8183C029B42F8143C31
:100BC80021F001014FF0807342F8043C42F8081C00
:100BD8000023203A02654367704700BF55040008A8
:100BE800094A0346906870B113F1160F006E05D0DC
:100BF800A0F140029A4205D8834203D2814228BF1D
:100C08000020704700207047A803002008B515464B
:100C18000B4A0C4B9060026F1A600E4600F044F8C5
:100C28002C4686F309880020034B9847204600216C
:100C380000220023014C2047B13000085504000869
:100C4800A803002000020020014B10221A617047FF
:100C580000ED00E0044800231021C21801333E2BA8
:100C680082F80013F9D1704700E100E008B5EFF30E
:100C78000583064A103B02EBC30152F8330049686A
:100C88008847BDE80840FFF7EDBC00BFC440000836
:100C9800024B034A0348012100F076B80000012006
:100CA800000000203C430008026E054B403A1A60E1
:100CB800044A4021C3E901121846012100F06EB828
:100CC8000402002000000B15084AC2F898000B68BF
:100CD80023F01F03034343F01003C2F89C308B68D2
:100CE80043F00103C2F8A030704700BF00ED00E0F8
:100CF8002DE9F043DFF8608085B00E461F460446B4
:100D08004FF00009B14523DA6068D8B13FB1411E00
:100D180008421BD11F2819D92368194216D1236804
:100D2800019302F0D5F9A36803430393D8F89050D0
:100D3800C5F30725D0B2013DA84207D801A9FFF79E
:100D4800C3FF421C09F101090C34DBE76FF01502FF
:100D5800104605B0BDE8F08300ED00E0044B052225
:100D6800C3F89420BFF34F8FBFF36F8F704700BF56
:100D780000ED00E0BFF35F8F024B0022C3F8942020
:100D8800704700BF00ED00E010B5034C0123227846
:100D9800FFF7AEFF207010BDD403002008B50B4A42
:100DA80000231278FFF7A4FF10F1160F07D0084AA6
:100DB8000021D2F89030C3F30723984200DB08BD26
:100DC800C2F89800C2F8A0100130F2E7D40300205E
:100DD80000ED00E02DE9F043534B544CD3F890302C
:100DE8002568C3F307239D4285B000F29A80FFF778
:100DF800C1FF00200C2685421AD14D4C4D4F25705D
:100E08006846FFF7ADFBDFF82081DFF82C91064636
:100E18000025AE4213D1237843490020D1F8902011
:100E2800C2F30722934276DBFFF798FF002042E0E7
:100E3800616806FB0011FFF747FF0130DBE7009808
:100E480000EB05114FEA051CCB683B40B3F5000FDA
:100E580048D00AD8B3F5001F30D0B3F5800F36D08C
:100E6800B3F5801F10D00135D3E7B3F1807F42D0AE
:100E7800B3F1007FF7D150F80C3088684A6802F067
:100E880027F940F4802009E050F80C3088684A6857
:100E980002F01EF940F0885040F43020CDE90123DB
:100EA8000390D8F890302078C3F30723013B984289
:100EB8002AD96FF0150005B0BDE8F08350F80C3062
:100EC80088684A6802F004F940EA0900E6E750F841
:100ED8000C3088684A6802F0FBF840F0C06040F4C3
:100EE8000030DBE750F80C3088684A6802F0F0F808
:100EF80040F08270D2E750F80C3088684A6802F0F7
:100F0800E7F840F08870C9E701A9FFF7DDFE23780C
:100F180001332370A7E7C1F89830C1F8A000013366
:100F28007CE74FF0FF30C6E700ED00E048430008DB
:100F3800D40300200000F0FF0000081108B5024BA0
:100F48001B689847002008BD10020020034B044A84
:100F58001860937843F002039370704710020020E2
:100F68000400002008B50649064821F00701C1F130
:100F7800005202F5803202F029F8002008BD00BFB7
:100F8800C715002014020020044B18440023013325
:100F9800994200F8012BFADC704700BF34000020AA
:100FA8002DE9F041104F054600264FF001086B78F7
:100FB800F4B2A34201D8BDE8F0812B781C44204646
:100FC80000F0C6F868B1204600F0D6F857F834307B
:100FD8003BB107EBC40204F01F04516808FA04F09F
:100FE80098470136E3E700BF20020020034670B1AE
:100FF800B0FA80F2C2F11F02D2B206498856064AF8
:10100800D2F880100B43C2F88030FFF799BDFF2259
:10101800F3E700BF3400002000080058034AD2F864
:10102800803023EA0003C2F8803070470008005877
:10103800032921D8DFE801F0020C10190F4B1A68B8
:1010480022EA00021A605A6822EA00025A607047CF
:101058000A4B1A680243F5E7084B5A6802435A607C
:101068001A6822EA00021A607047044B1A680243A1
:101078001A605A6810435860704700BF000800584B
:1010880030B5B0B1B0FA80F3C3F11F03DBB20B483F
:1010980050F833408C4204D100EBC3056D6895428B
:1010A80005D044B940F8331000EBC300426000207B
:1010B80030BDFF23EBE76FF00F00F9E720020020B7
:1010C80060B1B0FA80F3C3F11F03DBB2044A002118
:1010D80042F8331002EBC30251607047FF23F5E773
:1010E8002002002000F00302043292000F239340F4
:1010F80043EA900000F003030233064A52F8232023
:10110800030C02EA104093FAA3F3B3FA83F3D8402E
:10111800704700BF0000014013B50C4C204602F098
:1011280097FD60B14FF480735422CDE90023A36882
:101138001B683BB169462046984702B010BD6FF066
:101148001200FAE76FF05700F7E700BF843F000886
:101158003F280DD800F01F0201239340054A1F289D
:1011680094BFD268D26A93430CBF01200020704715
:10117800002070470008005800F01F0201233F2894
:1011880003FA02F307D81F28044A02D8D3600020C4
:101198007047D362FBE76FF01500704700080058EE
:1011A80038B5294B18680B88C3F30B030B2B0D4676
:1011B800144622D813B96FF085002FE0013B0A2BA3
:1011C800F9D801A252F823F0191200083B120008BE
:1011D800FD11000833120008371200081912000820
:1011E8001912000819120008BF1100082712000878
:1011F800271200084FF4FA400AE003F6B873C3F365
:101208000B031C2BD7D8114A22FA03F3DB07D2D5DC
:1012180020602B68B3F5805F0ED2002038BD00F047
:10122800E1F8062358434008F2E70948F0E70020B0
:10123800EEE74FF40040EBE7C3F313330133B0FBA1
:10124800F3F02060E9E700BF24000020110111112C
:101258000024F40070B5604D02F046F8284602F00C
:1012680042F800F0A3FD4FF0B0435C4AD3F80831D0
:1012780003F00F0352F823601368B0FBF6F6B5FBD2
:10128800F3F5AE4202D2284600F0FEFD01F0A1FFC0
:10129800012809D04FF0B042136843F480731360FB
:1012A80001F097FF0128FBD14FF0B044D4F89430F7
:1012B80043F00103C4F89430D4F894309B07FBD56D
:1012C800FFF7E8F8D4F8903043F00103C4F8903001
:1012D8004FF0B043D3F890209407FBD5D3F8902073
:1012E80042F08002C3F890204FF0B044D4F8903018
:1012F8001805FBD5FFF7ECF8A36803F00C030C2BDB
:101308001CD101F066FF012807D0236843F48073DD
:10131800236001F05EFF0128FBD14FF0B0439A68CB
:1013280022F0030242F001029A609A6802F00C026D
:10133800042AFAD19A6822F0F0029A604FF0B04479
:10134800236823F08073236023689901FCD4E36841
:1013580023F0606343F00073E360E36843F0807355
:10136800E36000F043F8236843F0807323604FF094
:10137800B0431A689201FCD59A6822F0F0029A608C
:101388009A6842F003029A604FF0B042936803F003
:101398000C030C2BFAD1AE4202D3284600F074FDA0
:1013A8000F4B0D4A1A604FF0B04300209A6822F4A0
:1013B800E0629A609A6822F460529A60D3F8082131
:1013C80022F0F002C3F80821D3F8082122F00F0216
:1013D800C3F8082170BD00BF006CDC02404500085E
:1013E80024000020004870470024F4004FF0B04368
:1013F8000549DA681140054A0A43DA60DA6842F0BA
:101408008052DA60704700BF8C80FF1F0206002000
:1014180008B5074802F01CFC38B10648FFF796FDEE
:101428000448FEF7F5FF002008BD6FF01200FBE747
:1014380064400008411400080A2838B5074D0446DE
:1014480004D1AB680D215B6828469847AB68034810
:101458005B68E1B29847204638BD00BF6440000889
:101468002DE9F843D0F80480D0F81090D8F8080097
:1014780017460D461E4601F089FEB7F5001F0446C3
:1014880016D12846D8F80840FFF72CFE84420CD124
:10149800294601F07BFE0446FFF7C0FD2046FFF712
:1014A8000FFE00212046FFF7C3FD0020BDE8F883AA
:1014B800B7F5800F20D0B6F1806F19D0B6F1C06FA4
:1014C80018D0B6F1007F1AD1022610494A462046A4
:1014D800FFF7D6FDB0B9D8F80810284601F05BFE32
:1014E80020463146FFF7A4FD2046FFF77FFDDCE7E5
:1014F8000126EAE70326E8E76FF08500D6E76FF0F4
:101508001500D3E76FF00F00D0E700BF5F35000884
:1015180038B50369044658600A4D284602F098FB1E
:1015280060B1AB6861681B680C3123B128469847E5
:1015380000EAE07038BD6FF05700F9E76FF012006D
:10154800F8E700BF843F0008F7B50446436806691A
:101558001948DD680F4659688368DB6800220192E4
:1015680023B96FF00404204603B0F0BD01AA9847E0
:101578000028F6DB376206F110074FF0FF324FF014
:10158800FF33384600F034FE2B6823F001032B604C
:10159800204696F8521002F081F8019900F084F87C
:1015A80096F8513004461BB12B6843F001032B60B9
:1015B800384600F0E9FDD6E7843F000870B50446D8
:1015C800466805694FF0FF320021284602F061FBAA
:1015D800336820469847002385F8503085F8523004
:1015E8000122114605F1100002F053FB1A4802F0DF
:1015F8002FFB68B3204600F039F83169174B994240
:1016080020D013D8164B99421ED0164BCB1A5942EC
:101618005941890041F010012046FFF795FF002845
:1016280003DB012385F85030002070BD0E4B994232
:101638000CD003F5C31303F5206399420CBF0A21AC
:101648000021E7E70621E5E70221E3E70821E1E7D2
:101658006FF01200E9E700BF843F000840420F0026
:10166800A0860100801A060040E1330013B54468E3
:1016780001AA6069002102F033F9002810DB019B00
:1016880000221979186800F0A7F8002808DB054837
:10169800616883681B680BB1984708B16FF0040054
:1016A80002B010BD843F00082DE9F74F4468036974
:1016B8000193E568E369DFF80881DFF80891DFF84E
:1016C80008A1DFF808B100930020009B8342019B2A
:1016D8001A6A33D1C2F34202012A61D0022A6BD1BD
:1016E80040F2145E4FF4167C4FF4FA7740F2771606
:1016F800DFF8DC800220421EB1FBF2F2B8FBF2F206
:10170800BCFBF2F4013CFF2C53D8BEFBF2F3013BC7
:10171800FF2B4ED8B6FBF2F9B9F10F0F49D8B7FB3A
:10172800F2F2013A0F2A44D843EA0943023843EA5D
:10173800007343EA025343EA04231DE00C23D4F860
:1017480018C0DFF890E003FB00F70CEB070673689E
:1017580073451DD015D853451CD05B4514BF0023D5
:1017680001239B00C2F34202B2EB530F16D15CF87F
:1017780007308B4212D1B3682B61002003B0BDE85B
:10178800F08F434508D04B450CBF0A230023E9E7F7
:101798000623E7E70223E5E70823E3E7013094E7B8
:1017A80041F25C2E4FF47A6C40F2E2474FF4FA763D
:1017B8009EE7013011289ED16FF01500DEE700BFCB
:1017C80040E13300404B4C00A0860100801A06001F
:1017D80000CA9A3B40420F002DE9F0471E4F0446CD
:1017E80000EBC1060025B44201D1002014E02068B6
:1017F800C30600F01F0911D4656845F02005C0F341
:10180800481AC0F34420192823D857F82080B8F183
:10181800000F0DD16FF01200BDE8F087B9F1100F7D
:1018280004D0B9F1110FEAD16568E8E73025E6E799
:10183800404602F00DFA0028ECD04B462A460AF042
:101848000F01404601F09DFE002804F10804CADAA1
:10185800E2E76FF01500DFE748440008012912D0DD
:10186800022907D089B90068094BC01A18BF01209E
:10187800000370470068064B984214BF4FF440506D
:101888004FF400507047002070474FF400507047E5
:101898000080004070B51D46094B002633F8122021
:1018A8003346FEF745FC090241EA10616C08000264
:1018B80020182A46334641F10001FEF739FC70BD75
:1018C80098450008F7B5436802691D680C4619B9C0
:1018D8006FF0150003B0F0BD1068D9688368DB6845
:1018E800002B45D001AA98470028F3DB224B9D42E4
:1018F80030D1019F214E00252346AAB23846002147
:10190800FFF7C8FFA0F54070B04203D901350C2D90
:10191800F2D1DDE7184EF36A23F00F032B43F3628D
:10192800174B33F81520002319463846FEF700FCFC
:10193800090241EA106163080002C01822464FF00C
:10194800000341F10001FEF7F3FBC0F31300F06060
:101958000020BFE72B6823F400432B60019800EBBD
:101968005400B0FBF4F10F29B2D989B2E960EFE76E
:101978006FF05700AEE700BF00800040FFFC0F008B
:10198800984500082DE9F84306460A794068336906
:1019980004685F68012A0D461AD0931ED3F1000827
:1019A80048EB03084FEA88286979FFF757FF95F84D
:1019B8000690B9F1020F03460DD0B9F1040F0ED00D
:1019C800AAB1033A012A0CD86FF08500BDE8F88364
:1019D8004FF4C068E8E73AB94FF0805008E0002AB1
:1019E800F2D14FF4805003E0033A012AECD90020E9
:1019F800B3F5805F30D0B3F5405F2FD0002B0CBF1C
:101A0800012303239942DFD1414601F0B4FF814508
:101A1800DAD1EB7963B1012B22D1134B9C4207D069
:101A2800A3F574439C4203D003F570539C42CBD179
:101A3800236823F0010323602946304602F051F859
:101A48000028C1DB236843F00103236095E8030005
:101A580087E803000020B9E70023D3E70223D1E792
:101A6800032BDAD0B0E700BF00380140F7B50569AD
:101A7800446806464D48286002F0EAF8002800F05D
:101A88008F802868E16883681B68002B00F08B80D2
:101A98009847002831DB206A01AA002101F020FFC5
:101AA80000282ADB019B002219791868FFF794FEA9
:101AB800002822DB756833692C685F68236823F087
:101AC80001032360686802F0C3F8002868D0D5E9EC
:101AD80001018368DB6803B1984754E8003F43F08D
:101AE8000C0344E80032002AF7D13946304601F0A9
:101AF800F8FF002803DA6FF0150003B0F0BD2B7D66
:101B08001BB1A36843F00803A3606B7D1BB1636836
:101B180043F400436360AB7D1BB1636843F48033D7
:101B28006360EB7D1BB1636843F4003363602B7E15
:101B380023B31F4B9C4207D0A3F574439C4203D0A8
:101B480003F570539C42D6D173681A68936843F4BE
:101B58008043936023686A7E23F0787343EA425394
:101B680023602368AA7E23F4F81343EA0243236020
:101B7800EB7E1BB1A36843F40043A3602B7F1BB12A
:101B8800236843F000532360236843F00103236074
:101B9800E3699A02FCD5E3695B02FCD50020ACE757
:101BA8006FF01200A9E76FF05700A6E7843F00081E
:101BB8000038014010B54FF0E0230F499C691A69BD
:101BC80008689B690D4902F4803234B993B9034619
:101BD8004AB90A681044C01A10BD002B08BF034652
:101BE8000AB9A342F5D90A6802440A604FF0E02214
:101BF8001269EEE70446F3E7A403002098030020E7
:101C08000A4B102283F82320094B4FF496521A608E
:101C1800084B002018604FF0E02341F2BF225A61C0
:101C280098611A6942F007021A61704700ED00E0F6
:101C3800A403002098030020684620F007018D4681
:101C480001B5FFF7B7FF0D4B0D4A18681168084436
:101C5800106000221A600B4A13684FF49651C01A9C
:101C6800B0FBF1F001FB0033136000F0BFFEFEF79C
:101C7800F9FCBDE801408546704700BF9803002085
:101C8800A00300209C0300202DE9F041334E91B1C0
:101C9800421C0AD14FF0E022136923F001031361BB
:101CA8004FF07F433360BDE8F0813468012807DCDA
:101CB8004FF000080BE0431C3468F7D140F6A650FB
:101CC80040F6A7539842A8BF184600F1FF38EFF333
:101CD8001185102383F31288BFF36F8FFFF76AFF14
:101CE8004FF0E023DFF878C09F69DCF80030184433
:101CF8001C4B00221A601C4B1A68831A2AD44FF412
:101D0800965E0EFB083303F595531F33B3FBFEF1C4
:101D1800131A0EFB0133B3F5806F144A38BF4FF422
:101D28008063934228BF13464FF0E02233609169E5
:101D38008F42A7EB010703F1FF3338BF3F19536107
:101D4800384400239361CCF8000085F31188BFF371
:101D58006F8FA8E74FF48063E6E700BFA403002075
:101D6800A0030020980300209C03002080E8FF00C7
:101D780038B5EFF31185102383F31288BFF36F8F03
:101D8800084B1C68084B1B68E41AFFF713FF85F320
:101D98001188BFF36F8F4FF496532044B0FBF3F0D4
:101DA80038BD00BFA00300209C03002010B54FF0F1
:101DB800B0439A68D96812F00C0205D00C2A4AD1AF
:101DC80001F00303012B51D14FF0B0412B480B68B0
:101DD80013F0080306D00B6813F0080337D1D1F8C5
:101DE800941007E00C68240756BFD1F894300968AE
:101DF800C3F3032350F82330002A0CBF18460020F1
:101E08004FF0B0418A6802F00C020C2A1ED1CA6851
:101E180002F00302022A2ED0032A06D10B68184AC0
:101E280013F4801F174B18BF13464FF0B042D06809
:101E3800D168D268C0F306205843C1F302130133B6
:101E4800B0FBF3F0530F0133B0FBF3F010BD0B6898
:101E5800C3F30313CEE7042A05D0082A06D11B686A
:101E680013F4801305D006480023C9E70023184659
:101E7800C6E70448C4E7024BD7E700BF004500089F
:101E88000024F4000048E8011F4A034607CA84B04A
:101E98000DF1100C0CE9070018463BB31B4B1B68EF
:101EA80003F4C063B3F5007F22D1194B984229D8B7
:101EB800184B984224D9184B98428CBF0220012015
:101EC800164904AB03EB80000B6850F80C2C23F088
:101ED800070313430B60086800F0070082421CBF29
:101EE800086800F00700831A5842584104B0704748
:101EF8000B4B984206D80B4B984201D90A4BDBE7AB
:101F08000020DDE70020F1E7304300080004005816
:101F1800006CDC0280A81201005125020040005824
:101F28000024F400808D5B00001BB70038B5EFF388
:101F38001185102383F31288BFF36F8F064B9C68BB
:101F480001F099FE85F31188BFF36F8F2046BDE835
:101F58003840FEF79DBD00BFA803002038B50A4BE6
:101F680053F82040013053F82050A54200D838BD1E
:101F7800606830B1037FDB0701D401F051FE0834FB
:101F8800F3E723689847FAE78045000870B52A4BBD
:101F98002A4C2B4D012286B003201A70FFF7DEFF72
:101FA80000F084FD0420FFF7D9FF2646AE4204F175
:101FB800300410D300F0BCFA204C224EAC4226D399
:101FC80000F0CAFA00F0D5FF1F4A137B23F0010383
:101FD800137306B070BD54F80C3C059354F8103CCC
:101FE800049354F8143C039354F8183C029354F89F
:101FF8001C3C019354F8203C009354E90A2354E90B
:102008000C0100F01BF954F8303C5E65CDE7D4E9CB
:102018000A23B3F1FF3F08BFB2F1FF3F05D052EAF0
:102028000301206803D100F0D3FA3034C6E7314603
:10203800183000F04BFCF8E7D5030020B442000844
:10204800B44200087F3D0008D800002070B5002386
:1020580086B00122CDE90423134E144D01930F22BB
:10206800CDE902321249142303FB005506EBC016D2
:1020780004464FF4A07000FB04110E4B00954FF47A
:102088008072304600F0DAF8737B0B4AEE6023F07A
:10209800040373734FF4046304FB033313442C7475
:1020A8006B6006B070BD00BF58000020A803002078
:1020B800400C0020853C000800040020BFB500202B
:1020C800FFF74CFF284B83F30888284C284F636997
:1020D80043F4007363610025F02384F82230E57728
:1020E80025766576A57684F82050636A43F4E02364
:1020F8006362FEF79DFCFEF7A7FD4FF0FF33A36276
:10210800E362FEF767FEFEF7C3FD1A481A4C00F0BB
:10211800E1F8FEF70DFA0120FFF720FF0220FFF794
:102128001DFF00F04DFA154B15495C61154B0593E1
:102138000123CDE903534FF400623B46CDE9015535
:102148000095204600F07AF8627B064622F00402E9
:102158002046627301F0E3FD2846FFF777FF3A4611
:1021680031462046FEF752FD400C002000ED00E00D
:10217800951F000858010020D8000020A80300205F
:10218800800D0020484A000870B5EFF3118610232F
:1021980083F31288BFF36F8F0468A0421AD0CCB1C2
:1021A800D4E9003213605A60637B002523F00203F0
:1021B8006373C4E90055A56004F1180001F0F6FD49
:1021C8002046A56701F0ABFD31460848BDE87040E0
:1021D80000F088B9D0E902329A4218BF013383600F
:1021E80086F31188BFF36F8F70BD00BFD603002040
:1021F80013B5EFF31181102484F31288BFF36F8FA6
:10220800846844B1013C846081F31188BFF36F8F07
:10221800002002B010BD52EA030406D181F31188F0
:10222800BFF36F8F6FF00F00F3E7CDE9002302468D
:10223800014800F035F9ECE7D60300202DE9F0431A
:10224800073285B022F007020E461F461099017327
:1022580000F158037F32C0E916330446002322F008
:102268003F020421836041733F2A0F98A073C4E999
:102278000633E37306F14009A2F1400805D883F359
:102288001188BFF36F8F084602DFB518294620462C
:10229800FEF7C8F907300E9B20F00700A066C4E9D6
:1022A800189802930D9B01932D1A0C9B00932A46B4
:1022B8003B4631462046FEF777FC00236365044B16
:1022C8009B6803B1DB6EE366284605B0BDE8F08382
:1022D800A803002040F2011383810023C0E91833CA
:1022E800C366014B98607047A8030020094A9368A9
:1022F8006FF00A019967084958674B6843F08053A3
:102308004B60002383F31188BFF36F8F9368986F36
:10231800704700BFA803002000ED00E070B590F9F9
:102328000D20437B002A36DBD90634D11B4C63F0E1
:102338007F032246437352F8183FE169934207D15D
:10234800C0E900210860E06111E09942F8D01B68FB
:10235800002BF5D090F90E5093F90E60B542F4D0E9
:10236800AE42F2DD5968C0E9003108605860A569DD
:10237800954200D005B9E568A3685A7BD20604D116
:10238800DA897F2A01D9AA6932B1AB4202D028463C
:1023980000F016FA656170BD6361FCE7A8030020D0
:1023A80038B590F90D20437B002A014604DA03F082
:1023B8007F03437301F079FC0D4D2A46AB6852F850
:1023C800184F944200D004B9EC688B4207D05A7B6E
:1023D800D20604D1DA897F2A01D9A2692AB1A34297
:1023E80002D0204600F0ECF923466B6138BD00BFEF
:1023F800A8030020B3F1FF3F08BFB2F1FF3F03D0AD
:102408000249183000F062BA704700BF7F3D0008EB
:1024180070B590F90D20437B002A014604DA03F0D9
:102428007F03437301F041FC4B7B1C4C63F07F033B
:1024380022464B7352F8183FE069934207D1C1E92D
:1024480000200160E16111E09842F8D01B68002B80
:10245800F5D091F90E5093F90E60B542F4D0AE4222
:10246800F2DD5868C1E9003001605960A569A368C8
:10247800954200D005B9E5688B4207D05A7BD20651
:1024880004D1DA897F2A01D9AA692AB1AB4202D0DC
:10249800284600F095F92B46636170BDA80300201B
:1024A800F8B50E4B0C4611460D4A98681060DDE9E8
:1024B8000667EFF31182102282F31288BFF36F8F41
:1024C8009D68284601F003FC284632463B46FFF744
:1024D80091FF2046BDE8F840FFF708BFA803002099
:1024E800C803002049B9EFF3058030B9054B5A6994
:1024F8009B689A4201D0FFF7F9BE81F31188BFF3B8
:102508006F8F7047A8030020034648B9EFF3058290
:1025180032B9064A51699268914201D0FFF7E6BE86
:1025280083F31188BFF36F8F704700BFA8030020A3
:10253800EFF31181102383F31288BFF36F8F054BDC
:102548009A68D37B013BD37381F31188BFF36F8FF4
:10255800704700BFA803002070B5EFF31186102361
:1025680083F31288BFF36F8F144DAB68DA7B0132A7
:10257800DA732A4652F8184F944200D004B9EC682E
:102588005A7BD20604D1DA897F2A01D9A2692AB1F5
:10259800A34202D0204600F013F923466B6186F36C
:1025A8001188BFF36F8FEFF31180102383F3128824
:1025B800BFF36F8FBDE87040FFF7A6BFA8030020E8
:1025C800024B03F11802C3E906227047A803002052
:1025D80038B50446EFF31185102383F31288BFF34F
:1025E8006F8F437B5B070FD5183001F0DFFB637BF0
:1025F80023F0040320466373FFF790FE294605483D
:10260800BDE83840FFF76EBF85F31188BFF36F8FC1
:1026180038BD00BFD6030020014B9868704700BF43
:10262800A80300202DE9F8430446077BEFF3118542
:10263800102383F31288BFF36F8F437B190705D5E7
:1026480085F31188BFF36F8FBDE8F883D90943F08C
:1026580008025DD14273A36813B1204601F02DFB37
:1026680004F1180001F0A2FBA66D04F15808B0456A
:1026780011D04FF0000976B1304601F01EFB06F18B
:10268800180001F093FBC6F878903046FFF746FE35
:10269800A66DB045EFD1DFF8C080D8F808309C426D
:1026A8003ED1EFF30589B9F1000918BF4FF00109D0
:1026B800D8F81860294A964200D00EB9D8F80C60AC
:1026C800B34202D0304600F07BF82046C8F81460C8
:1026D80000F0E7FCB9F1000F02D02148FFF7FAFD3E
:1026E800D8F808309C4231D1EFF3058373BB227BC5
:1026F800D20718D42846FFF7F9FDFB07A4D5002315
:1027080083F31188BFF36F8F0423184602DF9BE71A
:1027180003F07F0343F00803437301F0C6FA9AE716
:102728004FF00009C4E785F31188BFF36F8F83F377
:102738001188BFF36F8F0423184602DFEFF311806F
:10274800102383F31288BFF36F8FD4E785F31188C2
:10275800BFF36F8FD1E700BFA8030020C00300209C
:1027680058010020044BC01A044BC0105843044BB6
:1027780001221A54704700BFD8010020ABAAAAAAA8
:10278800D6030020C3897F2B12D80A4B1B6863B17C
:10279800094B90F90E201B689A4209DB437BDB0644
:1027A80006D1064BC31A18BF012303F00100704776
:1027B8000023FAE728000020CC030020580000205E
:1027C80070B50E4B0E4C1E7C06EB460304EBC3049F
:1027D8000546204601F0EAFA0A4B002228469A5597
:1027E800FFF7D0FF48B1084B08491A68013A20465C
:1027F800D317BDE8704000F069B870BDA803002089
:10280800D8010020D6030020280000206D270008EA
:1028180038B5EFF31185102383F31288BFF36F8F58
:10282800104B114A9C681068A04206D1FFF7C8FFF8
:1028380085F31188BFF36F8F38BD00211B7C1160B1
:102848000A4AD35C002BF3D02046FFF79BFF0028F1
:10285800EED0637BDB0602D12046FFF7D9FD204688
:10286800E4E700BFA8030020C8030020D603002027
:10287800024B1868984208BF002070472C000020BF
:10288800034B1B680BB9FFF773BA0020704700BFF2
:10289800D003002030B570B10B4B5B6898420AD06A
:1028A800036843B1D3E90421D0E90445121941EB87
:1028B8000501C3E90421D0E9003213605A600023FE
:1028C800C0E9003330BD00BF2C000020B3F1FF3F4A
:1028D80008BFB2F1FF3F2DE9F84F04469946154667
:1028E8001F467AD08160EFF31188102383F3128892
:1028F800BFF36F8FB9F1000FDFF8E4A020DBFFF71B
:10290800BFFFDAE90027013549F100092D1849EB25
:10291800E073C4E90453AD18064643EB07074FF0CC
:102928000109FFF7A5FFDFF8BCE0DEF804A00346C5
:10293800EBB9C4E900EACAF80040CEF8044028E040
:10294800DAE900126FF001035B1A4FF0FF3161EB17
:1029580002025B1B62EB0902012B72F10001BCBF92
:1029680001230022C0E904324FF00009D9E7D3E976
:10297800041CD4E904208A4270EB0C0B24DA891A6F
:102988005A686CEB0000C3E90410C4E90032146013
:102998005C60FFF76DFF84420ED1134B1B685BB977
:1029A800B9F1000F02D1FFF76BFF0646304601F080
:1029B800E6F90021FFF768F988F31188BFF36F8FF4
:1029C80028463946BDE8F88F521A60EB0C009A4544
:1029D800C4E90420ADD01B68AAE700252F46EFE71D
:1029E800F00100202C000020D00300202DE9F04742
:1029F800EFF31185102383F31288BFF36F8FDFF88D
:102A0800A490DFF8A480C9F80000FFF731FF002682
:102A18000027D9F80030D8E900ECD91750B1D0E92F
:102A28000442A34271EB020A1CDAE41A62EB0102C7
:102A3800C0E9044213EB0E034FF000044CEB010114
:102A48002046C8E90031C9F8004001F098F921464C
:102A5800FFF71AF985F31188BFF36F8FBDE8F047C8
:102A6800FFF7D6BE14EB0E024CEBE473C0E9046723
:102A7800C8E90023FFF70EFF85F31188BFF36F8FB6
:102A880083689847EFF31185102383F31288BFF307
:102A98006F8FD9F800301B1BC9F80030FFF7E8FE2C
:102AA800B7E700BFD0030020F0010020014800F084
:102AB800CCBA00BF4D4A00082DE9F04F8DB04368ED
:102AC8000293837815469A07804640F10D810024C9
:102AD8000E78002E00F00A81252E0BD04B1C039394
:102AE8000134029B4146304698470028C0F2F680E0
:102AF8000399EDE74E788B1C252E0393F0D0002721
:102B0800B946BB46BBF11F0F38D8A6F12003102BDE
:102B18000AD8DFE803F02A09093009090921090957
:102B28000928092D09091F00A6F13003092B33D9FB
:102B38002A2E37D11BF0400F55F8043B40F0828015
:102B4800002BA7BF4BF0200B9946C3F100094BF0AF
:102B5800280B01E04BF0010B039B13F8016B039367
:102B6800002ECFD130E04BF0020B4BF0040BF3E713
:102B78004BF0080BF0E74BF0100BEDE7BBF17F0FC4
:102B880019D8A6F13003092BD2D81BF0400F03D077
:102B98000A2101FB0737DFE70A2101FB09394BF05E
:102BA800200BD9E72E2E06D11BF0400F40F09E8057
:102BB8004BF0400BD0E76C2E31D02BD8682E36D096
:102BC8006A2E3CD04C2E3AD0002F46F02003B8BFD6
:102BD8002BF04002A3F16501BCBF1FFA82FB00275E
:102BE800022901D9612B2FD1073525F00705DFF818
:102BF800ACA2083507271BF0080F66D00AEB070BB5
:102C080056465E4563D1A4EB0A0A06EB0A02A9EB15
:102C180007096FE1742E9FD07A2E9DD0D4E71BF060
:102C2800800F18BF4BF4007B4BF0800B94E71BF42C
:102C3800807F18BF4BF4007B4BF4807B8CE74BF410
:102C4800207B89E71F4687E7A6F16301122900F276
:102C5800F080DFE811F013004F00EE00EE00EE0008
:102C6800EE004F00EE00EE00EE00EE00EE00FE007B
:102C7800E900EE00EE001B00EE00AF0055F8043B43
:102C88008DF8183001270DF1180AB4E755F804AB90
:102C9800834BBAF1000F08BF9A461BF0400F14BFD0
:102CA80039464FF0FF31504601F0BEF80746A2E71B
:102CB800029B41462020984700280FDB013EB7427F
:102CC800F6D34C44A41BB14698E74E46F7E716F8EE
:102CD800010B029B41469847002892DA98F8023087
:102CE80043F0040388F802304FF0FF3420460DB05B
:102CF800BDE8F08F1BF0800F34D01BF4007F2CD080
:102D0800073525F00705AA4669685AF8080B2BF01D
:102D180010050029ADB237DA404261EB410145F4B4
:102D280080650DF1180B0A235A4601F089F8A0EBCB
:102D38000B0301936B0662D5019B25F001019F42AD
:102D480089B240F3A180002E00F0998015F010029E
:102D580040F09C80BB460D4623E0AA465AF8040B77
:102D6800C117D4E7AA461BF4807F5AF8041B01D187
:102D78000846F5E71BF4007F15BF48B208B241F3D7
:102D8800C01141F3C031C2E750EA0103C9D11BF0B9
:102D9800400FC6D0002FC4D12BF0110295B2BB460C
:102DA800019740F2064115EA01021CBF0BF1010B25
:102DB80000222CE02BF010021FFA82FB0A231BF0E2
:102DC800800C49D01BF400711DBF073525F007059D
:102DD800AA46AA461ABF5AF8080B69685AF8040B9B
:102DE80050EA010545D12BF016051BF0400FADB296
:102DF80042D0002F40D12BF0170295B2019715F061
:102E0800100248D0019B002E42D103F1010B290783
:102E18005AD4EB0706D5D9456FDD0199A9EB0B0309
:102E28005F18CB465B4649E04BF0100B1023782621
:102E3800C5E7782B04D1C6F1780343F01003BEE749
:102E4800029B4146252098470028FFF647AF0234E9
:102E580047E608230026B2E7AA461BF480715AF811
:102E6800040BBDD01BF400711ABFC0B2614680B21A
:102E7800B6E72BF0060295B20DF1180B54E725F0D2
:102E88001105ADB2BB468CE70D46B8E73B460D468B
:102E980003F1020BBBE7DDF804B082E7914A0008B2
:102EA8008A4A0008CDE904324146029B202098470F
:102EB8000028FFF613AF049B059A01339945F1DC0E
:102EC800A4EB0B01CC189B460AB3029B4146302069
:102ED80098470028FFF602AF8EB901342744019BBA
:102EE800391B994224DC1D465DBB019AA9EB0B09ED
:102EF800224455461446914435E0019F92E7023436
:102F080041463046029B98470028E7DAE6E640F259
:102F180006410D42E2D015F0020F14BF2B202020ED
:102F280015F4806F04F10104414618BF2D20E9E72C
:102F3800029B414630209847002804F10104CEDA6C
:102F4800CCE606AB013D4146585D029B98470028F8
:102F5800CADAC3E6029B414620209847002804F1BC
:102F68000104FFF6BBAEA9EB0403002BF2DCBFE5BE
:102F78007047704700EBC100408840087047F8B5BB
:102F88000346FFF7F7FFB0FA80F0C0F11F0003EB2C
:102F9800800CCA00DCF81060171D0C4606328DB292
:102FA80056B9012101FA00F0D9680143D960CCF87B
:102FB8001040DD539D52F8BDF1000431585AD853E2
:102FC80003EBC0009E52C5805D52F4E7043A2DE938
:102FD800F041CC1D114424F0070421F007010E1B19
:102FE800F708B7FA87F2C2F12405AD004FF00008E0
:102FF8000735C2F12002ED0804604146A760C4F815
:103008000C80920004F1100000F006FF6B0043F002
:103018000103638004EBC5027B1B5900A4F8008000
:103028005180A21924F83550A2F80280A35304EB6A
:10303800C70329465A8842F001025A802046BDE853
:10304800F041FFF79CBF002070470FB407B504A9F3
:1030580051F8040B0191FDF7E1F903B05DF804EBB9
:1030680004B07047704700F0D7BE00F0C7BE0146F5
:103078000068FDF7A3BA08B5FDF7D0FABDE8084027
:10308800FDF7F0BA00210120FDF798BA08B5FDF761
:103098007DFDFDF76BFAFDF775FAFDF7DBFDFFF730
:1030A8000DF86FF08500704761B662B680F311883D
:1030B800BFF36F8F704772B6002383F31188BFF395
:1030C8006F8FBFF34F8F30BF62B6BFF36F8F7047FC
:1030D800202809D9B0F1004F08D80138B0FA80F09B
:1030E800C0F11F0040007047082070473E2070471D
:1030F80008B5FDF723FF002008BD08B50622012109
:103108000020FDF741FF002211460620FDF726FDAD
:10311800012108460722FDF737FF00221146072044
:10312800FDF71CFD082201210220FDF72DFF0022DA
:1031380011460820FDF712FD092201210320FDF7A1
:1031480023FF002211460920FDF708FD0A2201216C
:103158000420FDF719FF002211460A20FDF7FEFCA6
:10316800052108461622FDF70FFF002211461620FA
:10317800FDF7F4FC292206210A20FDF705FF0022AD
:1031880011462920FDF7EAFC002008BD01F01F01C7
:1031980001208840704700F00302043292000F2398
:1031A800934043EA900010B500F003039B0003F13D
:1031B800804303F58033020C9C6892FAA2F2B2FABB
:1031C80082F202F00F0224EA104091400143996014
:1031D80010BD4FF0B0431868C0F3802070470B88CB
:1031E800C3F30B0303F6B872C2F30B021C2A82B0B6
:1031F80010D803F1B04348681A6802431A600B8874
:10320800C3F30B0303F1B04300201B680193019B38
:1032180002B070476FF08500FAE70B88C3F30B0321
:1032280003F6B872C2F30B021C2A9FBF03F1B04326
:1032380049681A688A439ABF00201A606FF08500AF
:10324800704701380A2809D840F2EF63C34013F0E9
:10325800010F14BF00206FF0850070476FF08500E4
:10326800704738B50888C0F30B00FFF7EAFF00285D
:103278001EDB4A68FF2A1AD090B2C2F3415500F10A
:10328800B04001350123AB400468C2F30442013B5E
:10329800934024EA030303604A6891B201F1B04104
:1032A800130E0868C2F30442934003430B600020E6
:1032B80038BD0888C0F30B0008B500F6B873C3F32F
:1032C8000B031C2B08D800F1B0404B6802689343ED
:1032D80014BF0120022008BDFFF7B3FF002814BF68
:1032E80001200220F7E77047704743685B681B6955
:1032F8000B600020704743685B68586942400A4089
:1033080042405A610020704743685B680020996119
:10331800704743685B6800209962704743685B6840
:103328005A69514059610020704710B5036998687F
:10333800F8B1884219D1DC6808689860A14200D1C8
:10334800D860002008602AB19A680A60DA68996033
:1033580002B9D960002010E0814206D108682060D7
:10336800D8688142EDD1DC60EBE7044600680028AC
:10337800F2D1002AE8D16FF0150010BDF0B544680D
:103388000120676888401E46C2F3801327EA0007B9
:103398008B403B43636090FAA0F7B7FA87F7D4F8FD
:1033A80008C04FF0030E7F000EFA07F72CEA070C4F
:1033B80090FAA0F7B7FA87F7C2F3C1137F00BB40B2
:1033C80043EA0C03A36090FAA0F3B3FA83F3E76827
:1033D8005B000EFA03F327EA030790FAA0F3B3FAA7
:1033E80083F302F030055B00C2F341229A403A436E
:1033F800202DE26016D107292BD890FAA0F3226A73
:103408002BB3B3FA83F39B000F2101FA03F322EAEB
:10341800030290FAA0F3B3FA83F39B0006FA03F3CE
:103428001343236290FAA0F3B3FA83F3226890FA65
:10343800A0F05B000321B0FA80F02D0901FA03F334
:10344800400022EA030385401D432560F0BD2B465A
:10345800D9E7030A616A93FAA3F282B1B2FA82F257
:1034680092000F2793FAA3F3B3FA83F307FA02F251
:103478009B0021EA02029E4016436662D2E72A4672
:10348800EEE712F4003CF8B50C4613461DD096073B
:1034980014D555075CD55022D90611D542F40072CF
:1034A80003F4C061B1F5806F42D0B1F5C06F19D097
:1034B800B1F5007F18D142F0800215E01022EBE749
:1034C8009F06EDD542F48062EAE7D60305D5D50616
:1034D80005D4C2F340129202E2E73022E0E74FF44B
:1034E8000072DDE742F4C07213F44036056908D073
:1034F8002F6927FA04F1C9075FBF0121A1403943A9
:103508002961BCF1000F06D01F03416813D5496833
:103518000123A3408B61406800232146FFF72EFF5B
:1035280026B92B6923FA04F2D2070BD40020F8BD80
:1035380042F48072D8E75F0341BF01234968A34082
:103548008B62E8E70122A24023EA02032B61EDE740
:103558006FF08500EBE770B50B468968054611B139
:103568005E680C6801B970BD8A682A4002D04B6851
:10357800304698471CB1236821461C46F2E723468B
:10358800FAE7F8B51F46044640680E461546FFF7A9
:10359800F5FE112F08D1012303FA06F663685B686C
:1035A8002A054CBF9E619E620020F8BD036993F80E
:1035B80050201AB11B6A0B60002070476FF004009E
:1035C800704708B5002211462020FDF7C7FA2020D1
:1035D800FDF7B6FA002221201146FDF7BFFABDE833
:1035E80008402120FDF7ACBA08B50022114630206A
:1035F800FDF7B4FA3020FDF7A3FA00223120114676
:10360800FDF7ACFABDE808403120FDF799BA2DE97D
:10361800F74398460B7A066943F0040315460B7284
:1036280007460C460B460122AA420AD906F11009A0
:103638004FF0FF324FF0FF334846FEF7D9FD002622
:1036480020E00AD2197A187D81EA000C1CF0010FDB
:1036580001D040071FD589071DD401320C33D2B2DF
:10366800E2E7012D14BF04F114030023CDE900386B
:10367800384694E80E0000F0B0F8061E04DB013D61
:103688000C34EDB2002DECD14846FEF77DFD3046F6
:1036980003B0BDE8F0836FF01506F8E742680369E8
:1036A800D26883F8521019B9136823F440131360D1
:1036B800704700F021B800F06EB843680169DB6814
:1036C8001A6822F002021A601A6822F004021A60CC
:1036D8001A6822F020021A601A6822F010021A6092
:1036E8001A6822F040021A6091F851201AB91A6833
:1036F80022F080021A60704710B543680469DB68DD
:103708009A69D10607D5DA6942F01002DA61012216
:10371800A2639B6910BD91060CD5DA6942F02002BC
:10372800DA6101229A61FFF7C8FF2046BDE8104020
:10373800FEF72ABD510709D5E26C596A1170A26CCF
:10374800013AA264E26C0132E264E2E7110612D5A2
:10375800A16C5A680029E6D0FF2901D95A60D8E738
:1037680022F47F0242EA014294F840100029F5D180
:1037780022F08072F2E7910703D5E26C12789A6220
:10378800DDE75106C5D5626C127A9207CBD55A6827
:1037980042F48042E2E710B543680469DA68936945
:1037A8009B050DD5D36943F40073D361012363638B
:1037B800FFF783FF2046FEF7E7FC6FF0040010BD1B
:1037C800936913F4807306D0D36943F48073D3618B
:1037D8000123E363ECE71846F1E7F0B585B001ADE6
:1037E80085E80E0043680269D968029B9364019BCF
:1037F800D3640023C2E90D33D363012355648B617D
:103808000B68BDF82C400A9E43F001030B604B681F
:10381800156A8F6923F07F7323F44233ED0723F48D
:103828007F739DF80C5023F0030346BF44F40064F3
:10383800234343EA440315F0020447D1002E47D03E
:103848003678760702D443F08073012482F840402A
:10385800029CFF2C86BF43F0FF7343F4803343EA96
:1038680004433E0610D4EC0734D4946C44B1D46CB1
:1038780024788C62946C013C9464D46C0134D464D4
:1038880023F4806343F400534B600B6843F0F60362
:103898000B609DF80C5004694668002341F2883299
:1038A8002046FEF7A5FCA36BBBB9636B184314D184
:1038B80094F8513043B915F0020005D01846F26863
:1038C800136823F00103136005B0F0BD0024BDE7C1
:1038D8003446BBE743F48063D4E76FF00400EEE7B7
:1038E80030B5036813600579046804EBC504A34286
:1038F80002D36FF0010030BD5C798C4201D00833EF
:10390800F0E70020F7E74368C1F34B101B6801F0AC
:103918001F01C05801238B40034214BF0123002319
:1039280013700020704710B54368C1F34B101A6834
:1039380001F01F01845801238B402343835000204A
:1039480010BD10B54368C1F34B14186801F01F018E
:10395800235801228A4023EA02032350002010BD85
:1039680038B504460D46FFF7DEFF29462046FFF727
:10397800E8FF002038BDB0F5805F07D0B0F1805F68
:1039880009D1002914BF012002207047002914BF63
:10399800032004207047002914BF02200320704729
:1039A80043681B68D869DA69D107DA69C0F3C000CF
:1039B80048BF40F002009207DA6948BF40F00400AF
:1039C8005107DA6948BF40F02000D20542BF4FF4E2
:1039D800807240F008001A62C10744BF08221A62C8
:1039E800820744BF01221A62410744BF02221A62B9
:1039F800820644BF04221A62704710B543681B68E8
:103A08001020DA691206FCD5EFF3118280F31288D0
:103A1800BFF36F8FDC69240604D482F31188BFF3E7
:103A28006F8FEEE7996282F31188BFF36F8F10BD35
:103A380043681B68DA69100744BF08221A62DA690A
:103A4800920643BF5B6A0B7000204FF0FF3070474F
:103A580010B50269526812680A60426812681268F2
:103A680002F4C062B2F5806F04460B4633D0A2F56B
:103A7800C060424242411A7162681268526802F498
:103A88004052B2F5805F28D0B2F5405F27D0002AB7
:103A98000CBF012203225A7162681268106811680B
:103AA80000F0102001F4C061FFF765FF98716268AB
:103AB8001268926802F44072A2F540714A424A4183
:103AC800DA7161680968896811F4804F18BF0322A8
:103AD800DA71002010BD0222CDE70022DBE70222C6
:103AE800D9E72DE9F0410A790369D0F804805E68C6
:103AF800012A04460D4611D0901E47424741BF0295
:103B080069794046FDF7AAFEAB79022B09D0042B50
:103B180033D0131E18BF01231B0306E04FF4C06700
:103B2800EEE7B2FA82F35B091B07EA79D8F80010CE
:103B3800012A14BF4FF0000C4FF4407CAE421FD155
:103B48000A6822F0805222F4B0523A431A430A60BB
:103B58004B6823F4405303434B6063681A689368C7
:103B680023F4407343EA0C03936031682046FDF761
:103B7800A9FE00EAE070BDE8F0814FF48053D4E775
:103B8800D1F800E00EF4C06E77451FBFD1F800E011
:103B98002EF4C06E4EEA07070F6061680F687968F7
:103BA80001F4405188421FBF796821F44051014314
:103BB800796061680868016801F010218B421FBFB5
:103BC800016821F010210B430360636819688B6852
:103BD80003F440739C451FBF8B6823F4407343EA8A
:103BE8000C038B6063681B689968490405D5032A30
:103BF80009D09A6822F4804204E0032A03D19A6823
:103C080042F480429A6029683368994206D0204677
:103C1800FDF758FE0028AEDB2B6833600020AAE7CA
:103C280010B5436904463BB90020E268537843F075
:103C380001035370404210BD98470028F4D0002873
:103C4800B8BF4042E368FF28A8BFFF201870ECE720
:103C580040B1C368587810F001001EBF1878B0FA58
:103C680080F040097047EFF31183102383F3128823
:103C7800BFF36F8FFEE708B5FFF7F5FF08B510240F
:103C8800EFF3118384F31288BFF36F8FFFF713FAF2
:103C9800F6E73AB18A4205D3C0E90212C0E900004A
:103CA800002070476FF015007047D0E900321360AC
:103CB8005A600023C0E90033704708B5FFF7F5FFE5
:103CC800437B23F0020343730023836008BD38B5A8
:103CD80004460D46FEF764FB637B43F002036373FF
:103CE800E5B1A5602B689D4209D16B68C4E9005312
:103CF8001C606C6012E06A689A42F6D01B68002B60
:103D0800F3D094F90E2093F90E108A42F3D0914221
:103D1800F1DD5A68C4E9003214605C6038BD10B542
:103D2800EFF31184102383F31288BFF36F8FFEF72C
:103D3800F5FA84F31188BFF36F8F10BD10B50146F3
:103D4800EFF31184102383F31288BFF36F8F437B43
:103D580013F0280F0AD183680BB1FFF7AEFF4B7B36
:103D680023F004034B730846FEF7D8FA84F311884E
:103D7800BFF36F8F10BD01211838FFF7DFBF08B5FB
:103D88000246FEF775FD70B1D0E904319B1A61EB6C
:103D9800E272B3F1004F72F1000104DA002AACBFFD
:103DA8001846002008BD6FF00040FBE738B5024612
:103DB800EFF31185102383F31288BFF36F8F036825
:103DC800CBB1FEF755FD04461046FEF763FD002211
:103DD8004FF000438442C0E9042306D1FEF750FDAA
:103DE800FFF7CDFF0021FDF74FFF002085F3118875
:103DF800BFF36F8F38BD6FF01500F7E70A449142A3
:103E080000F1FF3300D1704710B511F8014B03F8EA
:103E1800014F9142F9D110BD02440346934200D1AB
:103E2800704703F8011BF9E710B5024601448A42BE
:103E3800134603D01C780132002CF8D1181A10BD93
:103E4800F0B5C3F137070446FFB203F01F0310466D
:103E5800082BE6B233D0102B3ED06508A40844EAFC
:103E6800817445EAC1752D194FEA910242EB51025E
:103E7800290941EA02716D1842EB1212290A41EA36
:103E880002616D1842EB1222290C41EA02416D18B9
:103E980042EB1242AD1842F10002EC0844EA4274C7
:103EA800D10804EB8402A6EB4205EDB2092D0CD92A
:103EB8000134A5F10A0541F10001EDB212E0E40870
:103EC80044EA417406F00705C908303554EA01028E
:103ED80000F8015BBCD1F0BD240944EA017406F086
:103EE8000F050909092D84BFED19EDB2EDE70000B2
:0C3EF80001480068704700000002002034
:083F040068C2FF7F010000000C
:103F0C0000000000843F0008890400080000000045
:103F1C0000000000A43F000800000000444000081E
:103F2C0000000000044000080000000024400008CD
:103F3C0000000000C43F000800000000E43F00083F
:103F4C00033100080000000000000000644000087D
:103F5C001914000800000000091C000800000000F3
:103F6C006D0F00080000000000000000A4400008D5
:083F7C00000000008440000871
:103F8400C849000800000000004300084600002063
:103F9400000000005D1200080000000000000000A6
:103FA400274A0008B0440008F042000854000020EA
:103FB40000000000000000000000000000000000FD
:103FC400AA4900080000000000000000440000208E
:103FD40000000000211100080000000000000000A3
:103FE400D549000868430008B4420008480000208E
:103FF400A0020020191500080000000000000000C5
:10400400E34900087C430008B44200084A00002049
:10401400B402002019150008000000000000000090
:10402400F149000890430008B44200084C00002005
:10403400C80200201915000800000000000000005C
:10404400FF490008A4430008B44200084E000020C1
:10405400DC02002019150008000000000000000028
:10406400384A0008B44400081C43000856000020E5
:1040740014000020751A0008000000000000000071
:104084000D4A0008B8430008D84200085000002038
:10409400F0020020C5150008000000000000000028
:1040A4001A4A000800440008D842000852000020C0
:1040B40044030020C51500080000000000000000B3
:1040C400000000008D300008000000008D30000862
:1040D400000000008D300008000000008D30000852
:1040E400000000008D300008000000008D30000842
:1040F400A8490008A90F0008A6490008A90F00084C
:10410400A4490008A90F0008A2490008A90F000843
:10411400A0490008A90F0008000000008D30000825
:10412400000000008D300008000000008D30000801
:10413400000000008D300008000000008D300008F1
:10414400000000008D300008000000008D300008E1
:10415400000000008D300008000000008D300008D1
:10416400000000008D300008000000008D300008C1
:104174009E490008A90F0008000000008D300008C7
:10418400000000008D300008000000008D300008A1
:10419400000000008D300008000000008D30000891
:1041A400000000008D300008000000008D30000881
:1041B400000000008D300008000000008D30000871
:1041C400A4400008BB360008A4400008BF3600081D
:1041D400000000008D300008000000008D30000851
:1041E400000000008D300008000000008D30000841
:1041F400000000008D300008000000008D30000831
:10420400000000008D3000089C490008A90F000838
:10421400000000008D300008000000008D30000810
:10422400000000008D300008000000008D30000800
:10423400000000008D300008000000008D300008F0
:1042440084400008BB36000884400008BF360008DC
:10425400000000008D300008000000008D300008D0
:10426400000000008D300008000000008D300008C0
:10427400000000008D300008000000008D300008B0
:10428400000000008D300008000000008D300008A0
:10429400000000008D300008000000008D30000890
:1042A400000000008D300008000000008D30000880
:1042B4008B340008F3320008FF3200081133000881
:1042C4001B33000825330008691400083333000841
:0442D40000000000E6
:1042D80051150008B5350008173600080000000021
:0842E8000000000000000000CE
:1042F0000F3900082F3900084B39000869390008C8
:10430000E73100082332000800000000A91100086E
:0C431000BB320008000000006B32000807
:10431C00393A0008033A0008A93900088D19000839
:04432C00593A0008F2
:10433000000000000100000002000000000000205A
:104340000000000000000B060200000050430008BF
:10435000000000088D49000822000206000000202D
:10436000954900081E000B11FFFF0000001C0048CB
:10437000070000004C00000080000000FFFF00006C
:1043800000080048020000004C000000040000008B
:10439000FFFF000000040048010000004C00000086
:1043A00002000000FFFF00000000004800000000C5
:1043B0004C00000001000000F1350008D84300085F
:1043C00001000000005C0040801A0600E043000885
:1043D00000440008000000005800000000008000B9
:1043E000E843000801000000F0430008020000005C
:1043F000A403000040020000C403000040020000CB
:10440000CB3500082044000801000000005800409F
:10441000801A0600284400084844000800000000F4
:104420005800000000004000304400080100000077
:10443000384400080200000084010000400200002F
:1044400064010000400200004440000824400008CD
:104450000440000800000000000000000000000010
:1044600000000000E43F0008000000000000000021
:10447000000000000000000000000000000000003C
:10448000000000000000000000000000000000002C
:10449000000000000000000000000000000000001C
:1044A000000000000000000000000000000000000C
:1044B0000000005800800040A43F00088007000072
:1044C000D8440008010000000000000000000000C7
:1044D00000000000E04400085C0000000100000053
:1044E000E844000801000000F04400080200000059
:1044F000480000000002000068000000000000000A
:10450000A0860100400D0300801A060000350C0053
:1045100040420F0080841E0000093D0000127A0016
:104520000024F40000366E010048E801006CDC0253
:10453000000000000000000000000000000000007B
:104540000100000003000000050000000100000061
:1045500001000000060000000A000000200000002A
:10456000020000000400000008000000100000002D
:104570004000000080000000000100000002000078
:104580000C3F00080C3F0008643F00086C3F000827
:10459000843F0008843F0008010002000400060078
:1045A00008000A000C0010002000400080000001FC
:1045B00072302F61313A2020307825303878202031
:1045C00072312F61323A202030782530387820201F
:1045D00072322F61333A20203078253038780A0043
:1045E00072332F61343A20203078253038782072A9
:1045F00031322F69703A2020307825303878207297
:1046000031342F6C723A20203078253038780A0007
:1046100020787073723A20203078253038780A007C
:104620004661756C74696E6720696E737472756328
:1046300074696F6E206164647265737320287231CF
:10464000352F7063293A203078253038780A0055A4
:104650006E68616E646C6564204952516E3A202523
:10466000640A002A2A2A2A2A204D505520464155FC
:104670004C54202A2A2A2A2A0A00202053746163D3
:104680006B696E67206572726F722028636F6E743B
:104690006578742061726561206D69676874206255
:1046A00065206E6F742076616C6964290A00202091
:1046B000556E737461636B696E67206572726F7299
:1046C0000A00202044617461204163636573732094
:1046D00056696F6C6174696F6E0A0020204D4D46FB
:1046E000415220416464726573733A2030782578B2
:1046F0000A002020496E737472756374696F6E20AE
:104700004163636573732056696F6C6174696F6E82
:104710000A002A2A2A2A2A20555341474520464181
:10472000554C54202A2A2A2A2A0A00202044697635
:104730006973696F6E206279207A65726F0A002052
:1047400020556E616C69676E6564206D656D6F7272
:1047500079206163636573730A0020204E6F2063C4
:104760006F70726F636573736F7220696E737472AA
:10477000756374696F6E730A002020496C6C6567FD
:10478000616C206C6F6164206F66204558435F52F6
:10479000455455524E20696E746F2050430A0020D4
:1047A00020496C6C6567616C20757365206F6620AD
:1047B00074686520455053520A0020204174746586
:1047C0006D707420746F20657865637574652075ED
:1047D0006E646566696E656420696E737472756374
:1047E00074696F6E0A002A2A2A2A2A204255532009
:1047F0004641554C54202A2A2A2A2A0A00202053AE
:104800007461636B696E67206572726F720A002053
:1048100020507265636973652064617461206275FC
:1048200073206572726F720A002020424641522046
:10483000416464726573733A20307825780A0020E9
:1048400020496D70726563697365206461746120CD
:10485000627573206572726F720A002020496E7350
:104860007472756374696F6E2062757320657272FD
:104870006F720A00526573657276656420457863CD
:10488000657074696F6E20280053707572696F755A
:104890007320696E74657272757074202849525164
:1048A0002000535053454C20696E20746872656136
:1048B00064206D6F646520646F6573206E6F742073
:1048C000696E646963617465205053500A002A2A36
:1048D0002A2A2A2048415244204641554C54202A35
:1048E0002A2A2A2A0A002020427573206661756CE4
:1048F00074206F6E20766563746F72207461626CD1
:104900006520726561640A00202044656275672035
:104910006576656E740A0020204661756C742065AA
:104920007363616C6174696F6E20287365652062C2
:10493000656C6F77290A00415243485F45584345EB
:104940005054207769746820726561736F6E2025FA
:10495000780A0A002A2A2A2A2A20446562756720D2
:104960006D6F6E69746F7220657863657074696FBE
:104970006E202A2A2A2A2A0A002A2A2A2A2A2025B6
:104980007320256429202A2A2A2A2A0A00464C4113
:1049900053485F30005352414D5F30000A06050511
:1049A00004010301020101010001696E7465727264
:1049B0007570742D636F6E74726F6C6C65724035B8
:1049C0003830303038303000726363403538303042
:1049D00030303030006770696F40343830303163C8
:1049E0003030006770696F403438303030383030E4
:1049F000006770696F4034383030303430300067D1
:104A000070696F4034383030303030300069326394
:104A100040343030303563303000693263403430F8
:104A20003030353830300072657365742D636F6EC9
:104A300074726F6C6C65720073657269616C40347E
:104A400030303038303030006D61696E002A2A2AEB
:104A500020426F6F74696E67205A657068797220A2
:104A60004F53206275696C642076342E332E302DBE
:104A70007263312D37352D6766306362626130664F
:104A800038656635202A2A2A0A00286E756C6C293A
:0C4A9000002A666C6F61742A00000000B0
:104A9C004F30000800000000F93000080000000052
:104AAC0000000000000000001C00002000C20100FB
:104ABC000001030000093D00C80000002C0000208C
:104ACC002C000020FFFFFFFFFFFFFFFFFFFFFFFF9A
:044ADC00FFFFFFFFDA
:104AE00000000000000000000000000000000000C6
:044AF00000000000C2
:044AF40015E015E0D4
:0400000508000A6580
:00000001FF
