:020000040800F2
:1000000040150020090B0008D32F0008F50A00084E
:10001000F50A0008F50A0008F50A000800000000CB
:10002000000000000000000000000000C90B0008F4
:10003000F50A000800000000690B0008151B000805
:10004000190D0008190D0008190D0008190D0008F8
:10005000190D0008190D0008190D0008190D0008E8
:10006000190D0008190D0008190D0008190D0008D8
:10007000190D0008190D0008190D0008190D0008C8
:10008000190D0008190D0008190D0008190D0008B8
:10009000190D0008190D0008190D0008190D0008A8
:1000A000190D0008190D0008190D0008190D000898
:1000B000190D0008190D0008190D0008190D000888
:1000C000190D0008190D0008190D0008190D000878
:1000D000190D0008190D0008190D0008190D000868
:1000E000190D0008190D0008190D0008190D000858
:1000F000190D0008190D0008190D0008190D000848
:10010000190D0008190D0008190D0008190D000837
:10011000190D0008190D0008190D0008190D000827
:10012000190D0008190D0008190D0008190D000817
:08013000190D0008190D00086B
:1001380053B94AB9002908BF00281CBF4FF0FF3146
:100148004FF0FF3000F00CB8ADF1080C6DE904CEAB
:1001580000F008F8DDF804E0DDE9022304B0704798
:10016800704700BF2DE9F04786468C460846089E32
:10017800154674461946002B40F0C2808542B2FAF3
:1001880082F245D94AB1C2F1200300FA02FC2EFAE4
:1001980003F3954043EA0C0C94404FEA154EA8B27D
:1001A800BCFBFEF8230C0EFB18CC08FB00F943EA55
:1001B8000C43994528D9EB1808F1FF3704D2994523
:1001C80002D9A8F102072B44A3EB0903A4B2B3FB9D
:1001D800FEFC0EFB1C330CFB00F044EA0344A04277
:1001E80014D92C190CF1FF3304D2A04202D9ACF176
:1001F80002032C44241A43EA07401EB1D4400023CA
:1002080034607360BDE8F0874746DDE76346F1E791
:1002180092BB431B01214FEA154EAFB2B3FBFEFC64
:10022800200C0EFB1C330CFB07F840EA03439845EF
:1002380062D9EB180CF1FF3004D2984502D9ACF121
:1002480002002B44A3EB0803A4B2B3FBFEFC0EFB95
:100258001C330CFB07F744EA0344A7424ED92C1978
:100268000CF1FF3304D2A74202D9ACF102032C44AB
:10027800E41B43EA0040C0E7C2F1200320FA03F17F
:10028800954090402EFA03F303434FEA154EAFB260
:10029800B1FBFEFC0EFB1C10190C0CFB07F841EA25
:1002A8000041884504FA02F422D969180CF1FF309C
:1002B80004D2884502D9ACF102002944A1EB080117
:1002C8009BB2B1FBFEFC0EFB1C110CFB07F743EACB
:1002D80001439F420ED9EB180CF1FF3104D29F4223
:1002E80002D9ACF102012B44DB1B41EA004192E741
:1002F8006046E3E76146F7E76046A3E76346B7E78A
:10030800834206D916B9002108467BE7C6E900E012
:10031800F9E7B3FA83F78FB9834201D3724508D856
:10032800BEEB020460EB030301209C461EB90021CA
:1003380068E73846FAE7C6E9004CF8E7C7F1200C49
:10034800BB4022FA0CF41C432EFA0CF120FA0CF3F1
:10035800B84001434FEA14490EFA07F5B3FBF9F820
:100368001FFA84FE09FB18300B0C08FB0EFA43EA4F
:1003780000439A4502FA07F240D9E31808F1FF3022
:1003880004D29A4502D9A8F102002344A3EB0A0338
:1003980089B2B3FBF9F809FB183308FB0EFE41EAF2
:1003A80003418E452CD9611808F1FF3304D28E45DC
:1003B80002D9A8F10203214443EA0040A0FB0298B5
:1003C800A1EB0E014145CE46434602D306D14D4529
:1003D80004D2B9EB020E68EB04030138002EA6D054
:1003E800B5EB0E0261EB030101FA0CFC22FA07F3EC
:1003F8004CEA0303F940C6E9003198E74046C5E7EF
:100408004346D9E738B50548054C02F09CFD002560
:100418002046294603F0A7FBFAE700BF204400085E
:10042800A0860100F7B5002140F6B83003F09BFB29
:10043800174803F035FB28B9164803B0BDE8F0406B
:1004480002F081BD124D1448144C02F07CFDAE68D8
:1004580033689BB10DF107012846984770B99DF89C
:10046800071023680E4A0A2901D07E2B0BDD0027CE
:100478000B490C48D75402F066FD27600021322052
:1004880003F071FBE4E7581CD1542060F6E700BF85
:10049800C83E00084D4400085F4400087803002067
:1004A800B004002079440008014B1B68184700BFBE
:1004B80000000020014B1860704700BF00000020BA
:1004C80030B585B004460D4610220021684603F079
:1004D800BAFB02238DF802302A46044B01932146C9
:1004E800684602F061FA05B030BD00BFB1040008EB
:1004F80080B505460E461746984601F0EDFF0346BF
:1005080003F00CFCDFF81890044649F80030424626
:1005180030463946A84754F8090000F00BFB00BFE5
:1005280008000000034A536823F0020353600020C8
:10053800704700BF002004E0EFF31180102383F31D
:100548001288BFF36F8F094B1A683AB9084A1168C5
:1005580041F4807111601168C905FCD51A6801322F
:100568001A6080F31188BFF36F8F704780030020F3
:1005780000040058EFF31180102383F31288BFF3AF
:100588006F8F114B1A689AB9BFF35B8F0F4B01221B
:1005980053E8001F002904D143E8002CBCF1000FE8
:1005A800F6D1BFF35B8F80F31188BFF36F8F70476D
:1005B800012A01BF06490A6822F480720A601A6893
:1005C800013A1A60EFE700BF800300207C03002097
:1005D80000040058084B1A6842F400721A601A683E
:1005E80042F480621A601A6842F480721A60034BFF
:1005F800034A1A60704700BF00400058A40000205A
:1006080000093D00014B036000207047E8410008E5
:1006180008B50348034A0021121A02F0CEFC08BDAF
:10062800D8000020340500200748084A084908B5C2
:10063800121A02F0C4FC0748074A0849BDE80840F6
:10064800121A02F0BCBC00BF00000020D800002035
:100658005C49000800000020000000205C490008F8
:1006680038B505460C4699B1D1E901230F48096808
:1006780002F069FCD4E90423E1680D4802F063FC48
:10068800E1690C4802F05FFCA1690B4802F05BFCD1
:10069800012D05D1EFF305810848103902F053FC0C
:1006A80021462846BDE8384001F0AABB7D44000831
:1006B800AD440008DD440008ED4400081C4500086E
:1006C80030BFFFF7FDBF00BF2DE9F0410B4EDFF84B
:1006D800308006EB0807CC1B054632460949204600
:1006E80003F0A3FAA01942460021083C03F0ABFA34
:1006F8002C6707F10800BDE8F08100BF000000008A
:1007080004000000DC410008054B5A699B689A42C6
:100718001FBF044A536843F080535360704700BFBB
:100728008404002000ED00E02DE9F8432B4D8046BD
:100738002B481746894602F006FCAB6ADA0622D532
:10074800284802F000FC1124AB6A1B0703D5264891
:1007580002F0F9FB1224214DAB6A9E0715D52348F8
:1007680002F0F1FB6E6BAB6A1C0634D520483146AB
:1007780002F0E9FBB9F1000F03D0AB6A23F0800364
:10078800AB62132403E01024DEE76FF01506134D67
:10079800AB6AD80703D5174802F0D5FB1424AB6A17
:1007A800D90602D4AB6A9A070BD50C4B5B681B05BC
:1007B80007D54146304600F065FA10B180F3098844
:1007C8000224064A936A43F0FF03936200233B70B6
:1007D8002046BDE8F8836FF01506D2E700ED00E08B
:1007E80030450008474500087B4500088F4500084C
:1007F800A8450008BF45000810B51D4C1D4802F06B
:10080800A2FBA36A990130D51B4802F09CFB1E206D
:10081800A36ADA0103D5194802F095FB1F20144C8E
:10082800A36A1B0303D5164802F08DFB2120A36A97
:10083800590303D5134802F086FB22200C4CA36A07
:100848009A0303D5104802F07EFB2320A36ADB033A
:1008580003D50E4802F077FB2420054A936A6FEA15
:1008680003436FEA1343936210BD1D20D0E700BF16
:1008780000ED00E0DF450008F84500080C460008D8
:1008880027460008464600086C46000887460008C8
:1008980070B5204C064620480D4602F054FBA36A6A
:1008A800D90435D51D4802F04EFB1720A36A1A0556
:1008B80003D51B4802F047FB1820164CA36A9B057A
:1008C8000FD5184802F03FFBA16BA36A180407D59F
:1008D800154802F038FB1EB1A36A23F40043A36253
:1008E80019200C4CA36A5A0503D5104802F02BFBBB
:1008F8001A20A36ADB0503D50D4802F024FB1B2050
:10090800044A936A43F47F43936200232B7070BDBB
:100918001620CBE700ED00E0B3460008CA46000801
:100928007B450008DC460008F64600080C4700082E
:10093800284700082DE9F0415B4B5F688AB0044600
:10094800C7F30806002585F31188BFF36F8F02F0FF
:100958007F43B3F17F4F06D102F00C03082B13D16C
:10096800524802F0F0FA00252C464FF00008F31E1A
:100978008DF80780092B00F28680DFE803F00A7AF9
:100988007E7684848484848210074CBF0C460125BB
:10099800EBE74748444E02F0D6FA8DF80780F36A31
:1009A8009A0704D5434802F0CEFA002330E0F36AF0
:1009B800002B01DA4048F6E7F36A5B00F5D53F48BB
:1009C80002F0C1FA7369A26943F480737361BFF3DB
:1009D8004F8FBFF36F8F736932F8022C23F4807343
:1009E8007361BFF34F8FBFF36F8F4DF602739A4257
:1009F80009D0B36ADBB253B30DF1070201212046D7
:100A0800FFF792FE33E021682D4802F09CFA236834
:100A18009DF80720C2B902AE04F12007206861687A
:100A2800324603C20834BC421646F7D1099AB5B318
:100A3800C2F3080121B96FEA52226FEA42220992F1
:100A480002A91846FFF70CFE0AB0BDE8F081B36AA8
:100A580013F47F4F05D00DF107010120FFF718FFB0
:100A680005E0B36AB3F5803F9FD3FFF7C5FE0346A1
:100A7800CEE70DF107020021C1E70DF107010020C3
:100A8800ECE710488FE7104B1049114817F4F87F2E
:100A9800A6F1100218BF194602F055FA85E722F4AC
:100AA800FF7222F00102CAE700ED00E06F4700087C
:100AB8009B470008B3470008D5470008E4470008EB
:100AC8000448000821480008564700084147000824
:100AD80046480008044B5A6942F010025A615A69A4
:100AE80022F008025A61704700ED00E0EFF3088039
:100AF800EFF3098101B57246FFF71CFF01BD00BF86
:100B08000A4880F30888102080F3118808484FF4B9
:100B18000461401880F30988EFF314800221084328
:100B280080F31488BFF36F8F02F05AFA4015002043
:100B3800C0070020084B9B6883420BD1EFF3058365
:100B480043B1064B5A6842F080525A605A6A22F4FE
:100B580000425A6201F0C6BC8404002000ED00E0A7
:100B680014498A684FF030001044EFF3098C80E88C
:100B7800F01F102080F31288BFF36F8F0E4F4FF0D5
:100B880000664A698A603E60106F0C4C2060506FA6
:100B98000023536780F3118804B5104600F0D6F897
:100BA800BDE8044002F1300090E8F01F8CF309889A
:100BB800704700008404002004ED00E08403002056
:100BC8001EF0040F0CBFEFF30880EFF30980816972
:100BD80011F8021C0229FFD001B5724602F0F1F9A2
:100BE80001BD00BF40B2002807DB044A41090123C8
:100BF80000F01F00834042F82130704700E100E018
:100C080040B20028A8BF00F1604001F10101B8BF5F
:100C1800064B4FEA0111ACBF00F5614000F00F0030
:100C2800C9B2B4BF195480F80013704714ED00E03E
:100C3800044B054A23F07F039360BFF34F8FBFF344
:100C48006F8F70470000000800ED00E042F8203C7C
:100C5800009B42F81C3C0A49019B42F8183C029B45
:100C680042F8143C21F001014FF0807342F8043C33
:100C780042F8081C0023203A02654367704700BF0A
:100C8800F9040008094A0346906870B113F1160F79
:100C9800006E05D0A0F140029A4205D8834203D2E3
:100CA800814228BF0020704700207047840400203C
:100CB80008B515460B4A0C4B9060026F1A600E4639
:100CC80000F044F82C4686F309880020034B984727
:100CD8002046002100220023014C2047053000084F
:100CE800F90400088404002084030020014B10222A
:100CF8001A61704700ED00E0044800231021C21873
:100D080001333E2B82F80013F9D1704700E100E06F
:100D180008B5EFF30583064A103B02EBC30152F80E
:100D2800330049688847BDE80840FFF7EDBC00BFBD
:100D3800EC3E0008024B034A0348012100F076B854
:100D48000000012000000020E8410008026E054B69
:100D5800403A1A60044A4021C3E9011218460121A9
:100D680000F06EB88803002000000B15084AC2F88E
:100D780098000B6823F01F03034343F01003C2F8E5
:100D88009C308B6843F00103C2F8A030704700BF65
:100D980000ED00E02DE9F043DFF8608085B00E46F5
:100DA8001F4604464FF00009B14523DA6068D8B100
:100DB8003FB1411E08421BD11F2819D92368194287
:100DC80016D12368019302F02DF9A3680343039316
:100DD800D8F89050C5F30725D0B2013DA84207D8EE
:100DE80001A9FFF7C3FF421C09F101090C34DBE735
:100DF8006FF01502104605B0BDE8F08300ED00E085
:100E0800044B0522C3F89420BFF34F8FBFF36F8FB5
:100E1800704700BF00ED00E0BFF35F8F024B002278
:100E2800C3F89420704700BF00ED00E010B5034CF4
:100E380001232278FFF7AEFF207010BD3005002097
:100E480008B50B4A00231278FFF7A4FF10F1160F1C
:100E580007D0084A0021D2F89030C3F307239842FC
:100E680000DB08BDC2F89800C2F8A0100130F2E714
:100E78003005002000ED00E02DE9F043534B544CC1
:100E8800D3F890302568C3F307239D4285B000F25C
:100E98009A80FFF7C1FF00200C2685421AD14D4CDD
:100EA8004D4F25706846FFF7ADFBDFF82081DFF86E
:100EB8002C9106460025AE4213D1237843490020E1
:100EC800D1F89020C2F30722934276DBFFF798FF10
:100ED800002042E0616806FB0011FFF747FF013080
:100EE800DBE7009800EB05114FEA051CCB683B4097
:100EF800B3F5000F48D00AD8B3F5001F30D0B3F5CA
:100F0800800F36D0B3F5801F10D00135D3E7B3F189
:100F1800807F42D0B3F1007FF7D150F80C30886859
:100F28004A6802F07FF840F4802009E050F80C305D
:100F380088684A6802F076F840F0885040F430201B
:100F4800CDE901230390D8F890302078C3F3072324
:100F5800013B98422AD96FF0150005B0BDE8F0832F
:100F680050F80C3088684A6802F05CF840EA0900DA
:100F7800E6E750F80C3088684A6802F053F840F009
:100F8800C06040F40030DBE750F80C3088684A68ED
:100F980002F048F840F08270D2E750F80C308868C8
:100FA8004A6802F03FF840F08870C9E701A9FFF7E6
:100FB800DDFE237801332370A7E7C1F89830C1F824
:100FC800A00001337CE74FF0FF30C6E700ED00E0FA
:100FD800F4410008300500200000F0FF000008116F
:100FE80008B5024B1B689847002008BD94030020F1
:100FF800034B044A1860937843F0020393707047D8
:10100800940300200400002008B50649064821F092
:101018000701C1F1005202F5803201F055FF0020AE
:1010280008BD00BF8715002098030020044B184412
:1010380000230133994200F8012BFADC704700BF06
:10104800B40000202DE9F041104F054600264FF06E
:1010580001086B78F4B2A34201D8BDE8F0812B787F
:101068001C44204600F0C6F868B1204600F0D6F8C7
:1010780057F834303BB107EBC40204F01F04516841
:1010880008FA04F098470136E3E700BFA4030020FC
:10109800034670B1B0FA80F2C2F11F02D2B206491B
:1010A8008856064AD2F880100B43C2F88030FFF702
:1010B80099BDFF22F3E700BFB400002000080058E4
:1010C800034AD2F8803023EA0003C2F88030704720
:1010D80000080058032921D8DFE801F0020C101994
:1010E8000F4B1A6822EA00021A605A6822EA0002C4
:1010F8005A6070470A4B1A680243F5E7084B5A686A
:1011080002435A601A6822EA00021A607047044BC8
:101118001A6802431A605A6810435860704700BF43
:101128000008005830B5B0B1B0FA80F3C3F11F031E
:10113800DBB20B4850F833408C4204D100EBC305B6
:101148006D68954205D044B940F8331000EBC300F0
:101158004260002030BDFF23EBE76FF00F00F9E796
:10116800A403002060B1B0FA80F3C3F11F03DBB21F
:10117800044A002142F8331002EBC3025160704761
:10118800FF23F5E7A403002000F0030204329200D5
:101198000F23934043EA900000F003030233064A0A
:1011A80052F82320030C02EA104093FAA3F3B3FA8F
:1011B80083F3D840704700BF0000014013B50C4CC2
:1011C800204602F06DFC60B14FF480735422CDE9E3
:1011D8000023A3681B683BB169462046984702B0C4
:1011E80010BD6FF01200FAE76FF05700F7E700BF85
:1011F800A83D00083F280DD800F01F0201239340A6
:10120800054A1F2894BFD268D26A93430CBF0120B5
:1012180000207047002070470008005800F01F02A7
:1012280001233F2803FA02F307D81F28044A02D8EB
:10123800D36000207047D362FBE76FF0150070475A
:101248000008005838B5294B18680B88C3F30B03FE
:101258000B2B0D46144622D813B96FF085002FE0EA
:10126800013B0A2BF9D801A252F823F0BD1200085D
:10127800DF120008A1120008D7120008DB120008CC
:10128800BD120008BD120008BD1200086312000854
:10129800CB120008CB1200084FF4FA400AE003F61C
:1012A800B873C3F30B031C2BD7D8114A22FA03F3E4
:1012B800DB07D2D520602B68B3F5805F0ED2002003
:1012C80038BD00F0E1F8062358434008F2E7094822
:1012D800F0E70020EEE74FF40040EBE7C3F31333E9
:1012E8000133B0FBF3F02060E9E700BFA400002061
:1012F800110111110024F40070B5604D01F09EFF3A
:10130800284601F09AFF00F0BBFC4FF0B0435C4A5E
:10131800D3F8083103F00F0352F823601368B0FBC9
:10132800F6F6B5FBF3F5AE4202D2284600F016FDFC
:1013380001F0F9FE012809D04FF0B042136843F4D8
:101348008073136001F0EFFE0128FBD14FF0B04429
:10135800D4F8943043F00103C4F89430D4F89430AE
:101368009B07FBD5FFF7E8F8D4F8903043F001036A
:10137800C4F890304FF0B043D3F890209407FBD5D1
:10138800D3F8902042F08002C3F890204FF0B04488
:10139800D4F890301805FBD5FFF7ECF8A36803F0F4
:1013A8000C030C2B1CD101F0BEFE012807D02368CA
:1013B80043F48073236001F0B6FE0128FBD14FF09F
:1013C800B0439A6822F0030242F001029A609A68D8
:1013D80002F00C02042AFAD19A6822F0F0029A600C
:1013E8004FF0B044236823F0807323602368990189
:1013F800FCD4E36823F0606343F00073E360E368C0
:1014080043F08073E36000F043F8236843F080738F
:1014180023604FF0B0431A689201FCD59A6822F015
:10142800F0029A609A6842F003029A604FF0B04264
:10143800936803F00C030C2BFAD1AE4202D3284672
:1014480000F08CFC0F4B0D4A1A604FF0B04300209F
:101458009A6822F4E0629A609A6822F460529A606C
:10146800D3F8082122F0F002C3F80821D3F80821A4
:1014780022F00F02C3F8082170BD00BF006CDC0227
:10148800B0430008A4000020004870470024F4007E
:101498004FF0B0430549DA681140054A0A43DA605B
:1014A800DA6842F08052DA60704700BF8C80FF1F14
:1014B8000206002008B5074802F0F2FA38B10648DB
:1014C800FFF796FD0448FEF7F5FF002008BD6FF012
:1014D8001200FBE7A43E0008E51400080A2838B506
:1014E800074D044604D1AB680D215B682846984730
:1014F800AB6803485B68E1B29847204638BD00BF37
:10150800A43E00082DE9F843D0F80480D0F81090E4
:10151800D8F8080017460D461E4601F0E1FDB7F55C
:10152800001F044616D12846D8F80840FFF72CFEBD
:1015380084420CD1294601F0D3FD0446FFF7C0FDD3
:101548002046FFF70FFE00212046FFF7C3FD0020CD
:10155800BDE8F883B7F5800F20D0B6F1806F19D0B9
:10156800B6F1C06F18D0B6F1007F1AD10226104923
:101578004A462046FFF7D6FDB0B9D8F808102846E5
:1015880001F0B3FD20463146FFF7A4FD2046FFF7E2
:101598007FFDDCE70126EAE70326E8E76FF0850030
:1015A800D6E76FF01500D3E76FF00F00D0E700BF64
:1015B800B334000810B5036904465860064802F0C1
:1015C8006FFA28B120460549BDE8104001F0D5BCA6
:1015D8006FF0120010BD00BFA83D0008E915000813
:1015E800012907D00DD9023901298CBF6FF0850078
:1015F800002070474168074883681B680C3133B185
:1016080018474168034883680C315B68F7E76FF057
:1016180057007047A83D00082DE9F0471E4F0446C3
:1016280000EBC1060025B44201D1002014E0206877
:10163800C30600F01F0911D4656845F02005C0F302
:10164800481AC0F34420192823D857F82080B8F145
:10165800000F0DD16FF01200BDE8F087B9F1100F3F
:1016680004D0B9F1110FEAD16568E8E73025E6E75B
:10167800404602F015FA0028ECD04B462A460AF0FC
:101688000F01404601F027FF002804F10804CADAD8
:10169800E2E76FF01500DFE764420008012912D085
:1016A800022907D089B90068094BC01A18BF012060
:1016B800000370470068064B984214BF4FF440502F
:1016C8004FF400507047002070474FF400507047A7
:1016D8000080004043681B6803F1080252E8002FAD
:1016E80042F0010203F1080040E800210029F3D18B
:1016F800094A934203D0A2F57442934203D15A682F
:1017080042F040025A6053E8002F42F4807243E8E6
:1017180000210029F7D170470038014043681B6851
:1017280003F1080252E8002F22F0010203F1080039
:1017380040E800210029F3D1094A934203D0A2F5D9
:101748007442934203D15A6822F040025A6053E827
:10175800002F22F4807243E800210029F7D1704756
:101768000038014070B51D46094B002633F8122099
:101778003346FEF7DDFC090241EA10616C080002FD
:1017880020182A46334641F10001FEF7D1FC70BD0E
:1017980008440008F7B5436802691D680C4619B982
:1017A8006FF0150003B0F0BD1068D9688368DB6876
:1017B800002B45D001AA98470028F3DB224B9D4215
:1017C80030D1019F214E00252346AAB23846002178
:1017D800FFF7C8FFA0F54070B04203D901350C2DC2
:1017E800F2D1DDE7184EF36A23F00F032B43F362BF
:1017F800174B33F81520002319463846FEF798FC96
:10180800090241EA106163080002C01822464FF03D
:10181800000341F10001FEF78BFCC0F31300F060F8
:101828000020BFE72B6823F400432B60019800EBEE
:101838005400B0FBF4F10F29B2D989B2E960EFE79F
:101848006FF05700AEE700BF00800040FFFC0F00BC
:10185800084400082DE9F84306460A7940683369C8
:1018680004685F68012A0D461AD0931ED3F1000858
:1018780048EB03084FEA88286979FFF70FFF95F8C6
:101888000690B9F1020F03460DD0B9F1040F0ED03E
:10189800AAB1033A012A0CD86FF08500BDE8F88395
:1018A8004FF4C068E8E73AB94FF0805008E0002AE2
:1018B800F2D14FF4805003E0033A012AECD900201A
:1018C800B3F5805F30D0B3F5405F2FD0002B0CBF4D
:1018D800012303239942DFD1414601F05CFE814593
:1018E800DAD1EB7963B1012B22D1134B9C4207D09B
:1018F800A3F574439C4203D003F570539C42CBD1AB
:10190800236823F0010323602946304601F0CCFF09
:101918000028C1DB236843F00103236095E8030036
:1019280087E803000020B9E70023D3E70223D1E7C3
:10193800032BDAD0B0E700BF00380140F8B545689E
:1019480003692C685F68236823F001032360064657
:10195800686802F0A5F8002867D0D5E90101836816
:10196800DB6803B1984754E8003F43F00C0344E8B0
:101978000032002AF7D13946304601F095FF002899
:1019880002DA6FF01500F8BD2B7D1BB1A36843F098
:101998000803A3606B7D1BB1636843F40043636075
:1019A800AB7D1BB1636843F480336360EB7D1BB18F
:1019B800636843F4003363602B7E23B31C4B9C4263
:1019C80007D0A3F574439C4203D003F570539C429F
:1019D800D7D173681A68936843F480439360236887
:1019E8006A7E23F0787343EA425323602368AA7E11
:1019F80023F4F81343EA02432360EB7E1BB1A36888
:101A080043F40043A3602B7F1BB1236843F00053CA
:101A18002360236843F001032360E3699A02FCD53D
:101A2800E3695B02FCD50020ADE76FF01200AAE77E
:101A38000038014070B506694568044611483060B1
:101A480002F02EF8B8B13068E96883681B68ABB15A
:101A5800984700280EDB286A002101F038FE00288C
:101A680008DB2046FFF76AFF002803DB20466B6A85
:101A78009847002070BD6FF01200FBE76FF0570029
:101A8800F8E700BFA83D000810B54FF0E0230F4964
:101A98009C691A6908689B690D4902F4803234B957
:101AA80093B903464AB90A681044C01A10BD002BFE
:101AB80008BF03460AB9A342F5D90A6802440A6076
:101AC8004FF0E0221269EEE70446F3E780040020B5
:101AD800740400200A4B102283F82320094B4FF48A
:101AE80096521A60084B002018604FF0E02341F22C
:101AF800BF225A6198611A6942F007021A61704759
:101B080000ED00E08004002074040020684620F006
:101B180007018D4601B5FFF7B7FF0D4B0D4A186851
:101B280011680844106000221A600B4A13684FF4C9
:101B38009651C01AB0FBF1F001FB0033136000F0BE
:101B4800B5FEFEF7E1FDBDE801408546704700BFE0
:101B5800740400207C040020780400202DE9F04162
:101B6800334E91B1421C0AD14FF0E022136923F0A1
:101B7800010313614FF07F433360BDE8F08134689F
:101B8800012807DC4FF000080BE0431C3468F7D14C
:101B980040F6A65040F6A7539842A8BF184600F151
:101BA800FF38EFF31185102383F31288BFF36F8F8B
:101BB800FFF76AFF4FF0E023DFF878C09F69DCF891
:101BC800003018441C4B00221A601C4B1A68831AF8
:101BD8002AD44FF4965E0EFB083303F595531F3352
:101BE800B3FBFEF1131A0EFB0133B3F5806F144AF1
:101BF80038BF4FF48063934228BF13464FF0E0226A
:101C0800336091698F42A7EB010703F1FF3338BFB7
:101C18003F195361384400239361CCF8000085F3E1
:101C28001188BFF36F8FA8E74FF48063E6E700BF22
:101C3800800400207C040020740400207804002024
:101C480080E8FF0038B5EFF31185102383F312887D
:101C5800BFF36F8F084B1C68084B1B68E41AFFF72B
:101C680013FF85F31188BFF36F8F4FF49653204409
:101C7800B0FBF3F038BD00BF7C04002078040020DE
:101C880010B54FF0B0439A68D96812F00C0205D02D
:101C98000C2A4AD101F00303012B51D14FF0B04176
:101CA8002B480B6813F0080306D00B6813F00803E1
:101CB80037D1D1F8941007E00C68240756BFD1F843
:101CC80094300968C3F3032350F82330002A0CBF6B
:101CD800184600204FF0B0418A6802F00C020C2A26
:101CE8001ED1CA6802F00302022A2ED0032A06D1A6
:101CF8000B68184A13F4801F174B18BF13464FF090
:101D0800B042D068D168D268C0F306205843C1F306
:101D180002130133B0FBF3F0530F0133B0FBF3F0C0
:101D280010BD0B68C3F30313CEE7042A05D0082AB5
:101D380006D11B6813F4801305D006480023C9E7B1
:101D480000231846C6E70448C4E7024BD7E700BF9C
:101D5800704300080024F4000048E8011F4A0346C5
:101D680007CA84B00DF1100C0CE9070018463BB304
:101D78001B4B1B6803F4C063B3F5007F22D1194BDA
:101D8800984229D8184B984224D9184B98428CBFAE
:101D980002200120164904AB03EB80000B6850F8C1
:101DA8000C2C23F0070313430B60086800F00700AE
:101DB80082421CBF086800F00700831A5842584145
:101DC80004B070470B4B984206D80B4B984201D988
:101DD8000A4BDBE70020DDE70020F1E7DC410008E3
:101DE80000040058006CDC0280A812010051250292
:101DF800004000580024F400808D5B00001BB700F1
:101E080038B5EFF31185102383F31288BFF36F8F72
:101E1800064B9C6801F057FE85F31188BFF36F8F5E
:101E28002046BDE83840FEF785BE00BF8404002088
:101E380038B50A4B53F82040013053F82050A542DA
:101E480000D838BD606830B1037FDB0701D401F0EA
:101E58000FFE0834F3E723689847FAE7F0430008D1
:101E680070B52A4B2A4C2B4D012286B003201A70DC
:101E7800FFF7DEFF00F092FD0420FFF7D9FF2646AA
:101E8800AE4204F1300410D300F032FA204C224E56
:101E9800AC4226D300F040FAFEF7B4FA1F4A137B8F
:101EA80023F00103137306B070BD54F80C3C05937E
:101EB80054F8103C049354F8143C039354F8183C19
:101EC800029354F81C3C019354F8203C009354E9C5
:101ED8000A2354E90C0100F0C1F854F8303C5E655F
:101EE800CDE7D4E90A23B3F1FF3F08BFB2F1FF3FC2
:101EF80005D052EA0301206803D100F0C9FA303452
:101F0800C6E73146183000F041FCF8E731050020FB
:101F1800E040000840410008673B000858020020E4
:101F280070B5002386B00122CDE90423134E144D69
:101F380001930F22CDE902321249142303FB005505
:101F480006EBC01604464FF4A07000FB04110E4BBC
:101F580000954FF48072304600F080F8737B0B4A8E
:101F6800EE6023F0040373734FF4046304FB03333C
:101F780013442C746B6006B070BD00BFD8010020FC
:101F88008404002000100020D53A0008C007002073
:101F9800BFB50020FFF74CFF284B83F30888284C77
:101FA800284F636943F4007363610025F02384F8C4
:101FB8002230E57725766576A57684F82050636A21
:101FC80043F4E0236362FEF785FDFEF78FFE4FF0D2
:101FD800FF33A362E362FEF74FFFFEF7ABFE1A483A
:101FE8001A4C00F087F8FEF7F5FA0120FFF720FFFA
:101FF8000220FFF71DFF00F0C3F9154B15495C617E
:10200800154B05930123CDE903534FF480623B46FA
:10201800CDE901550095204600F020F8627B064680
:1020280022F004022046627301F06DFD2846FFF796
:1020380077FF3A4631462046FEF73AFE0010002068
:1020480000ED00E0691E0008D802002058020020B8
:1020580084040020401100200B4900082DE9F043BA
:10206800073285B022F007020E461F461099017309
:1020780000F158037F32C0E916330446002322F0EA
:102088003F020421836041733F2A0F98A073C4E97B
:102098000633E37306F14009A2F1400805D883F33B
:1020A8001188BFF36F8F084602DFB518294620460E
:1020B800FEF70AFB07300E9B20F00700A066C4E974
:1020C800189802930D9B01932D1A0C9B00932A4696
:1020D8003B4631462046FEF7B9FD00236365044BB5
:1020E8009B6803B1DB6EE366284605B0BDE8F08364
:1020F8008404002040F2011383810023C0E91833CF
:10210800C366014B9860704784040020094A9368AD
:102118006FF00A019967084958674B6843F0805384
:102128004B60002383F31188BFF36F8F9368986F18
:10213800704700BF8404002000ED00E070B590F9FE
:102148000D20437B002A36DBD90634D11B4C63F0C3
:102158007F032246437352F8183FE169934207D13F
:10216800C0E900210860E06111E09942F8D01B68DD
:10217800002BF5D090F90E5093F90E60B542F4D0CB
:10218800AE42F2DD5968C0E9003108605860A569BF
:10219800954200D005B9E568A3685A7BD20604D1F8
:1021A800DA897F2A01D9AA6932B1AB4202D028461E
:1021B80000F066FA656170BD6361FCE78404002085
:1021C80038B590F90D20437B002A014604DA03F064
:1021D8007F03437301F085FC0D4D2A46AB6852F826
:1021E800184F944200D004B9EC688B4207D05A7B50
:1021F800D20604D1DA897F2A01D9A2692AB1A34279
:1022080002D0204600F03CFA23466B6138BD00BF7F
:102218008404002070B590F90D20437B002A014604
:1022280004DA03F07F03437301F05BFC4B7B1C4C27
:1022380063F07F0322464B7352F8183FE0699342DC
:1022480007D1C1E900200160E16111E09842F8D0AE
:102258001B68002BF5D091F90E5093F90E60B5422A
:10226800F4D0AE42F2DD5868C1E90030016059602F
:10227800A569A368954200D005B9E5688B4207D0E7
:102288005A7BD20604D1DA897F2A01D9AA692AB1F0
:10229800AB4202D0284600F0F3F92B46636170BDCB
:1022A8008404002049B9EFF3058030B9054B5A6919
:1022B8009B689A4201D0FFF729BF81F31188BFF3C9
:1022C8006F8F704784040020034648B9EFF30582F6
:1022D80032B9064A51699268914201D0FFF716BF98
:1022E80083F31188BFF36F8F704700BF8404002009
:1022F800EFF31181102383F31288BFF36F8F054B1F
:102308009A68D37B013BD37381F31188BFF36F8F36
:10231800704700BF8404002070B5EFF311861023C6
:1023280083F31288BFF36F8F144DAB68DA7B0132E9
:10233800DA732A4652F8184F944200D004B9EC6870
:102348005A7BD20604D1DA897F2A01D9A2692AB137
:10235800A34202D0204600F093F923466B6186F32E
:102368001188BFF36F8FEFF31180102383F3128866
:10237800BFF36F8FBDE87040FFF7A6BF840400204D
:10238800024B03F11802C3E90622704784040020B7
:1023980070B5EFF31186102383F31288BFF36F8FA4
:1023A8001B4CA168E0690B68814214BF1A460022E1
:1023B80049680B605960A368E1692AB9154AC3E9FD
:1023C80000210B60E3610CE093F90E0092F90E50C6
:1023D800A84218D0854216DD5168C3E900210B6078
:1023E8005360A5690B4B9D4200D005B9E568A36809
:1023F8009D4202D0284600F043F965613046BDE8A9
:102408007040FFF783BE8A42D8D01268D5E700BF74
:10241800840400209C040020F8B550EA0103064615
:102428000C4603D1FFF7B4FF0020F8BDEFF3118786
:10243800102383F31288BFF36F8F124D124BA868D5
:102448001860FFF7BDFEA8681049234632461830C9
:1024580000F09CF9AA68537B43F0040353730446C5
:102468003846FFF753FEAB68D3E90A23B3F1004FB0
:1024780008BF002AD8D101F0D4FB201A20EAE07066
:10248800D3E700BF84040020A4040020673B0008B1
:1024980038B50446EFF31185102383F31288BFF390
:1024A8006F8F437B5B070FD5183001F092FB637B7E
:1024B80023F0040320466373FFF740FE29460548CE
:1024C800BDE83840FFF7EEBE85F31188BFF36F8F84
:1024D80038BD00BF32050020014B9868704700BF27
:1024E800840400202DE9F8430446077BEFF31185A7
:1024F800102383F31288BFF36F8F437B190705D529
:1025080085F31188BFF36F8FBDE8F883D90943F0CD
:1025180008025DD14273A36813B1204601F0E9FABD
:1025280004F1180001F055FBA66D04F15808B045F8
:1025380011D04FF0000976B1304601F0DAFA06F111
:10254800180001F046FBC6F878903046FFF7F6FD14
:10255800A66DB045EFD1DFF8C080D8F808309C42AE
:102568003ED1EFF30589B9F1000918BF4FF0010911
:10257800D8F81860294A964200D00EB9D8F80C60ED
:10258800B34202D0304600F07BF82046C8F8146009
:1025980000F031FDB9F1000F02D02148FFF7AAFD84
:1025A800D8F808309C4231D1EFF3058373BB227B06
:1025B800D20718D42846FFF7A9FDFB07A4D50023A6
:1025C80083F31188BFF36F8F0423184602DF9BE75C
:1025D80003F07F0343F00803437301F082FA9AE79C
:1025E8004FF00009C4E785F31188BFF36F8F83F3B9
:1025F8001188BFF36F8F0423184602DFEFF31180B1
:10260800102383F31288BFF36F8FD4E785F3118803
:10261800BFF36F8FD1E700BF840400209C04002023
:10262800D8020020044BC01A044BC0105843044B76
:1026380001221A54704700BF58030020ABAAAAAA67
:1026480032050020C3897F2B12D80A4B1B6863B15F
:10265800094B90F90E201B689A4209DB437BDB0685
:1026680006D1064BC31A18BF012303F001007047B7
:102678000023FAE7A8000020A8040020D8010020C1
:1026880070B50E4B0E4C1E7C06EB460304EBC304E0
:102698000546204601F09DFA0A4B002228469A5525
:1026A800FFF7D0FF48B1084B08491A68013A20469D
:1026B800D317BDE8704000F069B870BD84040020ED
:1026C8005803002032050020A80000202D2600080D
:1026D80038B5EFF31185102383F31288BFF36F8F9A
:1026E800104B114A9C681068A04206D1FFF7C8FF3A
:1026F80085F31188BFF36F8F38BD00211B7C1160F3
:102708000A4AD35C002BF3D02046FFF79BFF002832
:10271800EED0637BDB0602D12046FFF77BFD204627
:10272800E4E700BF84040020A40400203205002050
:10273800024B1868984208BF00207047AC00002080
:10274800034B1B680BB9FFF77DBA0020704700BF29
:10275800AC04002030B570B10B4B5B6898420AD0CE
:10276800036843B1D3E90421D0E90445121941EBC8
:102778000501C3E90421D0E9003213605A6000233F
:10278800C0E9003330BD00BFAC000020B3F1FF3F0B
:1027980008BFB2F1FF3F2DE9F84F044699461546A8
:1027A8001F467AD08160EFF31188102383F31288D3
:1027B800BFF36F8FB9F1000FDFF8E4A020DBFFF75C
:1027C800BFFFDAE90027013549F100092D1849EB67
:1027D800E073C4E90453AD18064643EB07074FF00E
:1027E8000109FFF7A5FFDFF8BCE0DEF804A0034607
:1027F800EBB9C4E900EACAF80040CEF8044028E082
:10280800DAE900126FF001035B1A4FF0FF3161EB58
:1028180002025B1B62EB0902012B72F10001BCBFD3
:1028280001230022C0E904324FF00009D9E7D3E9B7
:10283800041CD4E904208A4270EB0C0B24DA891AB0
:102848005A686CEB0000C3E90410C4E90032146054
:102858005C60FFF76DFF84420ED1134B1B685BB9B8
:10286800B9F1000F02D1FFF76BFF0646304601F0C1
:1028780099F90021FFF772F988F31188BFF36F8F78
:1028880028463946BDE8F88F521A60EB0C009A4585
:10289800C4E90420ADD01B68AAE700252F46EFE75E
:1028A80070030020AC000020AC0400202DE9F047A4
:1028B800EFF31185102383F31288BFF36F8FDFF8CE
:1028C800A490DFF8A480C9F80000FFF731FF0026C4
:1028D8000027D9F80030D8E900ECD91750B1D0E971
:1028E8000442A34271EB020A1CDAE41A62EB010209
:1028F800C0E9044213EB0E034FF000044CEB010156
:102908002046C8E90031C9F8004001F04BF92146DA
:10291800FFF724F985F31188BFF36F8FBDE8F047FF
:10292800FFF7D6BE14EB0E024CEBE473C0E9046764
:10293800C8E90023FFF70EFF85F31188BFF36F8FF7
:1029480083689847EFF31185102383F31288BFF348
:102958006F8FD9F800301B1BC9F80030FFF7E8FE6D
:10296800B7E700BFAC0400207003002010B5EFF3F8
:102978001184102383F31288BFF36F8FFFF7E0FEF3
:10298800054A0346D2E90001181841EBE37184F3C4
:102998001188BFF36F8F10BD70030020014800F04D
:1029A800D2BA00BF104900082DE9F04F8DB0436836
:1029B8000293837815469A07804640F10D810024DA
:1029C8000E78002E00F00A81252E0BD04B1C0393A5
:1029D8000134029B4146304698470028C0F2F680F1
:1029E8000399EDE74E788B1C252E0393F0D0002732
:1029F800B946BB46BBF11F0F38D8A6F12003102BF0
:102A08000AD8DFE803F02A09093009090921090968
:102A18000928092D09091F00A6F13003092B33D90C
:102A28002A2E37D11BF0400F55F8043B40F0828026
:102A3800002BA7BF4BF0200B9946C3F100094BF0C0
:102A4800280B01E04BF0010B039B13F8016B039378
:102A5800002ECFD130E04BF0020B4BF0040BF3E724
:102A68004BF0080BF0E74BF0100BEDE7BBF17F0FD5
:102A780019D8A6F13003092BD2D81BF0400F03D088
:102A88000A2101FB0737DFE70A2101FB09394BF06F
:102A9800200BD9E72E2E06D11BF0400F40F09E8068
:102AA8004BF0400BD0E76C2E31D02BD8682E36D0A7
:102AB8006A2E3CD04C2E3AD0002F46F02003B8BFE7
:102AC8002BF04002A3F16501BCBF1FFA82FB00276F
:102AD800022901D9612B2FD1073525F00705DFF829
:102AE800ACA2083507271BF0080F66D00AEB070BC6
:102AF80056465E4563D1A4EB0A0A06EB0A02A9EB27
:102B080007096FE1742E9FD07A2E9DD0D4E71BF071
:102B1800800F18BF4BF4007B4BF0800B94E71BF43D
:102B2800807F18BF4BF4007B4BF4807B8CE74BF421
:102B3800207B89E71F4687E7A6F16301122900F287
:102B4800F080DFE811F013004F00EE00EE00EE0019
:102B5800EE004F00EE00EE00EE00EE00EE00FE008C
:102B6800E900EE00EE001B00EE00AF0055F8043B54
:102B78008DF8183001270DF1180AB4E755F804ABA1
:102B8800834BBAF1000F08BF9A461BF0400F14BFE1
:102B980039464FF0FF31504601F05DF80746A2E78D
:102BA800029B41462020984700280FDB013EB74290
:102BB800F6D34C44A41BB14698E74E46F7E716F8FF
:102BC800010B029B41469847002892DA98F8023098
:102BD80043F0040388F802304FF0FF3420460DB06C
:102BE800BDE8F08F1BF0800F34D01BF4007F2CD091
:102BF800073525F00705AA4669685AF8080B2BF02F
:102C080010050029ADB237DA404261EB410145F4C5
:102C180080650DF1180B0A235A4601F028F8A0EB3D
:102C28000B0301936B0662D5019B25F001019F42BE
:102C380089B240F3A180002E00F0998015F01002AF
:102C480040F09C80BB460D4623E0AA465AF8040B88
:102C5800C117D4E7AA461BF4807F5AF8041B01D198
:102C68000846F5E71BF4007F15BF48B208B241F3E8
:102C7800C01141F3C031C2E750EA0103C9D11BF0CA
:102C8800400FC6D0002FC4D12BF0110295B2BB461D
:102C9800019740F2064115EA01021CBF0BF1010B36
:102CA80000222CE02BF010021FFA82FB0A231BF0F3
:102CB800800C49D01BF400711DBF073525F00705AE
:102CC800AA46AA461ABF5AF8080B69685AF8040BAC
:102CD80050EA010545D12BF016051BF0400FADB2A7
:102CE80042D0002F40D12BF0170295B2019715F072
:102CF800100248D0019B002E42D103F1010B290795
:102D08005AD4EB0706D5D9456FDD0199A9EB0B031A
:102D18005F18CB465B4649E04BF0100B1023782632
:102D2800C5E7782B04D1C6F1780343F01003BEE75A
:102D3800029B4146252098470028FFF647AF0234FA
:102D480047E608230026B2E7AA461BF480715AF822
:102D5800040BBDD01BF400711ABFC0B2614680B22B
:102D6800B6E72BF0060295B20DF1180B54E725F0E3
:102D78001105ADB2BB468CE70D46B8E73B460D469C
:102D880003F1020BBBE7DDF804B082E75449000801
:102D98004D490008CDE904324146029B202098475E
:102DA8000028FFF613AF049B059A01339945F1DC1F
:102DB800A4EB0B01CC189B460AB3029B414630207A
:102DC80098470028FFF602AF8EB901342744019BCB
:102DD800391B994224DC1D465DBB019AA9EB0B09FE
:102DE800224455461446914435E0019F92E7023447
:102DF80041463046029B98470028E7DAE6E640F26B
:102E080006410D42E2D015F0020F14BF2B202020FE
:102E180015F4806F04F10104414618BF2D20E9E73D
:102E2800029B414630209847002804F10104CEDA7D
:102E3800CCE606AB013D4146585D029B9847002809
:102E4800CADAC3E6029B414620209847002804F1CD
:102E58000104FFF6BBAEA9EB0403002BF2DCBFE5CF
:102E6800704708B500214CF2503000F07CFEF9E7BD
:102E780000EBC100408840087047F8B50346FFF7EB
:102E8800F7FFB0FA80F0C0F11F0003EB800CCA0016
:102E9800DCF81060171D0C4606328DB256B90121B8
:102EA80001FA00F0D9680143D960CCF81040DD532D
:102EB8009D52F8BDF1000431585AD85303EBC000B5
:102EC8009E52C5805D52F4E7043A2DE9F041CC1DCD
:102ED800114424F0070421F007010E1BF708B7FA84
:102EE80087F2C2F12405AD004FF000080735C2F1A2
:102EF8002002ED0804604146A760C4F80C809200E7
:102F080004F1100000F09FFE6B0043F001036380A2
:102F180004EBC5027B1B5900A4F800805180A2195C
:102F280024F83550A2F80280A35304EBC7032946BE
:102F38005A8842F001025A802046BDE8F041FFF766
:102F48009CBF002070470FB407B504A951F8040BC3
:102F58000191FDF7B5FA03B05DF804EB04B07047D2
:102F68007047036A3BB1DB682BB11B6A1879B0FA6A
:102F780080F0400970470120704770B5056A044623
:102F88000E460DB103232B712046FFF7EAFF98B1D7
:102F980003212046B047002802DA10F1860F0BD132
:102FA800012125B920463346BDE8704018472971EC
:102FB8002046B04700232B7170BD00F044BE00F0DE
:102FC80034BE01460068FDF74BBB08B5FDF778FB3A
:102FD800BDE80840FDF798BB00210120FDF740BB84
:102FE80008B5FDF725FEFDF713FBFDF71DFBFDF703
:102FF80083FEFEF7CDFF6FF08500704761B662B6BD
:1030080080F31188BFF36F8F704772B6002383F384
:103018001188BFF36F8FBFF34F8F30BF62B6BFF316
:103028006F8F7047202809D9B0F1004F08D80138B0
:10303800B0FA80F0C0F11F004000704708207047C8
:103048003E20704708B5FDF7CBFF002008BD08B546
:10305800062201210020FDF7E9FF00221146062083
:10306800FDF7CEFD012108460722FDF7DFFF00220C
:1030780011460720FDF7C4FD082201210220FDF7B3
:10308800D5FF002211460820FDF7BAFD09220121CB
:103098000320FDF7CBFF002211460920FDF7B0FD04
:1030A8000A2201210420FDF7C1FF002211460A204F
:1030B800FDF7A6FD052108461622FDF7B7FF0022F9
:1030C80011461620FDF79CFD292206210A20FDF74E
:1030D800ADFF002211462920FDF792FD002008BD12
:1030E80001F01F0101208840704700F003020432FC
:1030F80092000F23934043EA900010B500F00303B9
:103108009B0003F1804303F58033020C9C6892FA1C
:10311800A2F2B2FA82F202F00F0224EA10409140C1
:103128000143996010BD4FF0B0431868C0F3802088
:1031380070470B88C3F30B0303F6B872C2F30B0294
:103148001C2A82B010D803F1B04348681A680243B9
:103158001A600B88C3F30B0303F1B04300201B680C
:103168000193019B02B070476FF08500FAE70B8866
:10317800C3F30B0303F6B872C2F30B021C2A9FBFFA
:1031880003F1B04349681A688A439ABF00201A605D
:103198006FF08500704701380A2809D840F2EF63BC
:1031A800C34013F0010F14BF00206FF08500704773
:1031B8006FF08500704738B50888C0F30B00FFF73B
:1031C800EAFF00281EDB4A68FF2A1AD090B2C2F331
:1031D800415500F1B04001350123AB400468C2F30A
:1031E8000442013B934024EA030303604A6891B216
:1031F80001F1B041130E0868C2F30442934003433F
:103208000B60002038BD0888C0F30B0008B500F635
:10321800B873C3F30B031C2B08D800F1B0404B68FC
:103228000268934314BF0120022008BDFFF7B3FFD3
:10323800002814BF01200220F7E770477047436851
:103248005B681B690B600020704743685B685869BE
:1032580042400A4042405A610020704743685B6818
:1032680000209961704743685B6800209962704745
:1032780043685B685A69514059610020704710B52E
:1032880003699868F8B1884219D1DC6808689860C1
:10329800A14200D1D860002008602AB19A680A606B
:1032A800DA68996002B9D960002010E0814206D13D
:1032B80008682060D8688142EDD1DC60EBE70446FD
:1032C80000680028F2D1002AE8D16FF0150010BD7F
:1032D800F0B544680120676888401E46C2F3801331
:1032E80027EA00078B403B43636090FAA0F7B7FAE0
:1032F80087F7D4F808C04FF0030E7F000EFA07F7DF
:103308002CEA070C90FAA0F7B7FA87F7C2F3C113B3
:103318007F00BB4043EA0C03A36090FAA0F3B3FA22
:1033280083F3E7685B000EFA03F327EA030790FAD2
:10333800A0F3B3FA83F302F030055B00C2F3412235
:103348009A403A43202DE26016D107292BD890FAEB
:10335800A0F3226A2BB3B3FA83F39B000F2101FA7F
:1033680003F322EA030290FAA0F3B3FA83F39B0073
:1033780006FA03F31343236290FAA0F3B3FA83F334
:10338800226890FAA0F05B000321B0FA80F02D09C2
:1033980001FA03F3400022EA030385401D43256038
:1033A800F0BD2B46D9E7030A616A93FAA3F282B10A
:1033B800B2FA82F292000F2793FAA3F3B3FA83F3D7
:1033C80007FA02F29B0021EA02029E401643666257
:1033D800D2E72A46EEE712F4003CF8B50C4613464D
:1033E8001DD0960714D555075CD55022D90611D59E
:1033F80042F4007203F4C061B1F5806F42D0B1F5B8
:10340800C06F19D0B1F5007F18D142F0800215E0E5
:103418001022EBE79F06EDD542F48062EAE7D60377
:1034280005D5D50605D4C2F340129202E2E7302250
:10343800E0E74FF40072DDE742F4C07213F440365F
:10344800056908D02F6927FA04F1C9075FBF012170
:10345800A14039432961BCF1000F06D01F03416820
:1034680013D549680123A3408B6140680023214696
:10347800FFF72EFF26B92B6923FA04F2D2070BD4E3
:103488000020F8BD42F48072D8E75F0341BF0123F2
:103498004968A3408B62E8E70122A24023EA0203BD
:1034A8002B61EDE76FF08500EBE770B50B46896897
:1034B800054611B15E680C6801B970BD8A682A407A
:1034C80002D04B68304698471CB1236821461C46F9
:1034D800F2E72346FAE7F8B51F46044640680E4669
:1034E8001546FFF7F5FE112F08D1012303FA06F65A
:1034F80063685B682A054CBF9E619E620020F8BD28
:1035080030B5036813600579046804EBC504A34269
:1035180002D36FF0010030BD5C798C4201D00833D2
:10352800F0E70020F7E74368C1F34B101B6801F090
:103538001F01C05801238B40034214BF01230023FD
:1035480013700020704710B54368C1F34B101A6818
:1035580001F01F01845801238B402343835000202E
:1035680010BD10B54368C1F34B14186801F01F0172
:10357800235801228A4023EA02032350002010BD69
:1035880038B504460D46FFF7DEFF29462046FFF70B
:10359800E8FF002038BDB0F5805F07D0B0F1805F4C
:1035A80009D1002914BF012002207047002914BF47
:1035B800032004207047002914BF0220032070470D
:1035C80043681B68D869DA69D107DA69C0F3C000B3
:1035D80048BF40F002009207DA6948BF40F0040093
:1035E8005107DA6948BF40F02000D20542BF4FF4C6
:1035F800807240F008001A62C10744BF08221A62AC
:10360800820744BF01221A62410744BF02221A629C
:10361800820644BF04221A62704743681A6852E857
:10362800003F43F0400342E800310029F7D17047DA
:1036380043681A6852E8003F23F0400342E800312B
:103648000029F7D1704743681B68D869C0F3801018
:10365800704743681A6852E8003F43F0200342E885
:1036680000310029F7D1704743681A6852E8003FD3
:1036780023F0200342E800310029F7D1704743685E
:103688001B68D869C0F34010704701207047036970
:10369800C3E902127047026993680BB1D1681847F1
:1036A800704708B5002224201146FDF7A9FABDE8A5
:1036B80008402420FDF796BA08B5002226201146B6
:1036C800FDF79EFABDE808402620FDF78BBA07B53E
:1036D80001AAFFF715FF002805DB019B00221979D5
:1036E8001868FDF799FF03B05DF804FB43681B6891
:1036F800D86910F080001CBF1868C0F380107047AC
:1037080010B50269526812680A6042681268126845
:1037180002F4C062B2F5806F04460B4633D0A2F5BE
:10372800C060424242411A7162681268526802F4EB
:103738004052B2F5805F28D0B2F5405F27D0002A0A
:103748000CBF012203225A7162681268106811685E
:1037580000F0102001F4C061FFF71DFF9871626846
:103768001268926802F44072A2F540714A424A41D6
:10377800DA7161680968896811F4804F18BF0322FB
:10378800DA71002010BD0222CDE70022DBE7022219
:10379800D9E738B543681B680C461868196800F003
:1037A800102001F4C061FFF7F6FE04281AD0D8698A
:1037B80010F0800015D0EFF31181102080F31288EB
:1037C800BFF36F8F0020151A002D06DDDD692D0669
:1037D80003D5255C9D620130F5E781F31188BFF3BD
:1037E8006F8F38BD6FF08500FBE710B543681B6825
:1037F8001020DA691206FCD5EFF3118280F31288E3
:10380800BFF36F8FDC69240604D482F31188BFF3F9
:103818006F8FEEE7996282F31188BFF36F8F10BD47
:1038280043681B68DA69910602D51A68920607D4BC
:10383800D86910F0400004D01868C0F380107047B1
:103848000120704738B543681B680C46186819682A
:1038580000F0102001F4C061FFF79DFE042810D08D
:1038680000200821151A002D0DDDDD69AD060AD5E9
:103878005D6A2554DD692D0700F10100F2D5196252
:10388800F0E76FF0850038BD43681B68DA691007F8
:1038980044BF08221A62DA69920643BF5B6A0B705A
:1038A80000204FF0FF3070472DE9F0410A79036995
:1038B800D0F804805E68012A04460D4611D0901E97
:1038C80047424741BF0269794046FDF7E7FEAB79B9
:1038D800022B09D0042B33D0131E18BF01231B035E
:1038E80006E04FF4C067EEE7B2FA82F35B091B0704
:1038F800EA79D8F80010012A14BF4FF0000C4FF4F1
:10390800407CAE421FD10A6822F0805222F4B052A5
:103918003A431A430A604B6823F4405303434B600D
:1039280063681A68936823F4407343EA0C0393604E
:1039380031682046FDF72EFF00EAE070BDE8F0810F
:103948004FF48053D4E7D1F800E00EF4C06E774509
:103958001FBFD1F800E02EF4C06E4EEA07070F60D3
:1039680061680F68796801F4405188421FBF79681F
:1039780021F440510143796061680868016801F0E9
:1039880010218B421FBF016821F010210B430360F7
:10399800636819688B6803F440739C451FBF8B6884
:1039A80023F4407343EA0C038B6063681B689968CF
:1039B800490405D5032A09D09A6822F4804204E014
:1039C800032A03D19A6842F480429A6029683368CE
:1039D800994206D02046FDF7DDFE0028AEDB2B68B5
:1039E80033600020AAE770B5054644680669F1B15E
:1039F80001293AD1206A0021FFF769FE002806DB79
:103A08003068E16883681B6813B96FF0570070BDB0
:103A180098470028FBDB23681B68DC0701D50020DA
:103A2800F5E72846FDF78AFF00EAE070EFE723682C
:103A3800DA69D003FCD4DA695106FCD5DA69520296
:103A4800FCD508221A623068E16883685B68002B3D
:103A5800DBD098470028DADB206A0121FFF737FE20
:103A68000028DCDA831CDAD0D1E76FF08500CEE7D6
:103A780010B5436904463BB90020E268537843F027
:103A880001035370404210BD98470028F4D0002825
:103A9800B8BF4042E368FF28A8BFFF201870ECE7D2
:103AA80040B1C368587810F001001EBF1878B0FA0A
:103AB80080F040097047EFF31183102383F31288D5
:103AC800BFF36F8FFEE708B5FFF7F5FF08B51024C1
:103AD800EFF3118384F31288BFF36F8FFFF795FA22
:103AE800F6E7D0E9003213605A600023C0E90033DA
:103AF800704708B5FFF7F5FF437B23F002034373D4
:103B08000023836008BD10B5EFF31184102383F3FD
:103B18001288BFF36F8FFEF711FB84F31188BFF390
:103B28006F8F10BD10B50146EFF31184102383F396
:103B38001288BFF36F8F437B13F0280F0AD1836875
:103B48000BB1FFF7D6FF4B7B23F004034B730846FA
:103B5800FEF7F4FA84F31188BFF36F8F10BD0121CB
:103B68001838FFF7DFBF38B504460D46FEF754FC9A
:103B7800B5F1FF3F08BFB4F1FF3F0346204610D020
:103B880013F109004FEAE37141F100010A22002311
:103B9800FCF7CEFAB0F1004F71F1000128BF6FF0C9
:103BA800004038BD08B50246FEF7C2FD70B1D0E945
:103BB80004319B1A61EBE272B3F1004F72F100011C
:103BC80004DA002AACBF1846002008BD6FF0004098
:103BD800FBE738B50246EFF31185102383F312880B
:103BE800BFF36F8F0368CBB1FEF7A2FD0446104602
:103BF800FEF7B0FD00224FF000438442C0E90423E1
:103C080006D1FEF79DFDFFF7CDFF0021FDF7A6FFCA
:103C1800002085F31188BFF36F8F38BD6FF0150052
:103C2800F7E708B5FEF7A2FE08BD0A44914200F185
:103C3800FF3300D1704710B511F8014B03F8014F5D
:103C48009142F9D110BD02440346934200D1704716
:103C580003F8011BF9E710B5024601448A421346EE
:103C680003D01C780132002CF8D1181A10BDF0B519
:103C7800C3F137070446FFB203F01F031046082BB1
:103C8800E6B233D0102B3ED06508A40844EA81740C
:103C980045EAC1752D194FEA910242EB51022909F3
:103CA80041EA02716D1842EB1212290A41EA0261D7
:103CB8006D1842EB1222290C41EA02416D1842EBC1
:103CC8001242AD1842F10002EC0844EA4274D108ED
:103CD80004EB8402A6EB4205EDB2092D0CD90134A0
:103CE800A5F10A0541F10001EDB212E0E40844EA49
:103CF800417406F00705C908303554EA010200F896
:103D0800015BBCD1F0BD240944EA017406F00F053B
:103D18000909092D84BFED19EDB2EDE701480068E6
:083D2800704700008403002035
:083D30003CC4FF7F010000000C
:103D380000000000A83D00082D0500080000000054
:103D480000000000CC3D000800000000803E000894
:103D580000000000383E0008000000005C3E00083B
:103D680000000000F03D000800000000143E0008BC
:103D7800573000080000000000000000A43E0008C2
:103D880000000000C83E0008BD1400080000000044
:103D9800DD1A0008000000001110000800000000F3
:103DA800954800080000000074410008C600002083
:103DB80000000000011300080000000000000000DF
:103DC80000000000DA480008CC42000864410008FE
:103DD800D0000020000000000000000000000000EB
:103DE8000000000000000000774800080000000004
:103DF80000000000C400002000000000C5110008F9
:103E0800000000000000000000000000A2480008B8
:103E18001442000840410008C80000202404002083
:103E2800BD1500080000000000000000140000207C
:103E3800B04800082842000840410008CA00002095
:103E480038040020BD150008000000000000000034
:103E580024000020BE4800083C42000840410008F9
:103E6800CC0000204C040020BD1500080000000014
:103E78000000000034000020CC4800085042000830
:103E880040410008CE00002060040020BD15000855
:103E9800000000000000000044000020EB4800087B
:103EA800D042000890410008D200002064000020A1
:103EB8003D1A000800000000000000005400002027
:103EC800FB4800082043000890410008D400002067
:103ED8008C0000203D1A00080000000000000000CF
:043EE8007C0000203A
:103EEC0000000000E12F000800000000E12F000896
:103EFC0000000000E12F000800000000E12F000886
:103F0C0000000000E12F000800000000E12F000875
:103F1C00754800084D100008734800084D10000843
:103F2C00714800084D1000086F4800084D1000083B
:103F3C006D4800084D10000800000000E12F00083B
:103F4C0000000000E12F000800000000E12F000835
:103F5C0000000000E12F000800000000E12F000825
:103F6C0000000000E12F000800000000E12F000815
:103F7C0000000000E12F000800000000E12F000805
:103F8C0000000000E12F000800000000E12F0008F5
:103F9C006B4800084D10000800000000E12F0008DD
:103FAC0000000000E12F000800000000E12F0008D5
:103FBC0000000000E12F000800000000E12F0008C5
:103FCC0000000000E12F000800000000E12F0008B5
:103FDC0000000000E12F000800000000E12F0008A5
:103FEC0000000000E12F000800000000E12F000895
:103FFC0000000000E12F000800000000E12F000885
:10400C00C83E00089F36000800000000E12F0008A1
:10401C00A43E00089F36000800000000E12F0008B5
:10402C0000000000E12F0008694800084D1000084E
:10403C0000000000E12F000800000000E12F000844
:10404C0000000000E12F000800000000E12F000834
:10405C0000000000E12F000800000000E12F000824
:10406C0000000000E12F000800000000E12F000814
:10407C0000000000E12F000800000000E12F000804
:10408C0000000000E12F000800000000E12F0008F4
:10409C0000000000E12F000800000000E12F0008E4
:1040AC0000000000E12F000800000000E12F0008D4
:1040BC0000000000E12F000800000000E12F0008C4
:1040CC0000000000E12F000800000000E12F0008B4
:1040E000D800002040050020000100006B2E0008D1
:1040F00000000000000000000000000001000000BF
:10410000000000003844000800000000000000002B
:104110005801002080060020000100002D04000846
:10412000000000000000000000000000010000008E
:1041300000000000424400080000000000000000F1
:10414000DF330008473200085332000865320008A8
:104150006F320008793200080D1500088732000818
:04416000000000005B
:104164002F3500084F3500086B35000889350008E5
:104174003B31000877310008000000004D120008B0
:0C4184000F32000800000000BF310008EE
:1041900091380008F3370008C93500085D18000899
:1041A000093700089B3700084D38000823360008FF
:1041B00039360008F53600085B360008713600080D
:1041C0004F36000887360008DD160008251700085E
:0C41D000293800089336000897360008D4
:1041DC0000000000010000000200000000000020B0
:1041EC000000000000000B0602000000FC4100086B
:1041FC00000000085A4800082200020600000020B7
:10420C00624800081E000B11FFFF0000001C004854
:10421C00070000004C00000080000000FFFF0000C1
:10422C0000080048020000004C00000004000000E0
:10423C00FFFF000000040048010000004C000000DB
:10424C0002000000FFFF000000000048000000001A
:10425C004C00000001000000803E00085C3E00089D
:10426C00383E0008000000000000000000000000C4
:10427C0000000000143E00080000000000000000D8
:10428C000000000000000000000000000000000022
:10429C000000000000000000000000000000000012
:1042AC000000000000000000000000000000000002
:1042BC0000000000000000000000000000000000F2
:1042CC000000005800800040CC3D00088007000032
:1042DC00F84200080100000000000000000000008F
:1042EC000000000000430008C13600085C0000001C
:1042FC000100000008430008010000001043000802
:10430C0002000000480000000002000068000000ED
:10431C000000000000380140CC3D00080E080000F1
:10432C0048430008010000000000000000000000ED
:10433C000000000050430008AB360008600000008D
:10434C0000400000584300080100000060430008D2
:10435C0002000000C702000000020000E70200009B
:10436C0000000000A0860100400D0300801A06002A
:10437C0000350C0040420F0080841E0000093D00F7
:10438C0000127A000024F40000366E010048E801A7
:10439C00006CDC02000000000000000000000000C7
:1043AC0000000000010000000300000005000000F8
:1043BC000100000001000000060000000A000000DF
:1043CC0020000000020000000400000008000000B3
:1043DC001000000040000000800000000001000000
:1043EC0000020000383D0008383D0008983D0008E8
:1043FC00A03D0008A83D0008A83D000801000200EF
:10440C000400060008000A000C0010002000400008
:10441C00800000014D696E696D616C20475053201E
:10442C0074657374206275696C640A006932635434
:10443C006872656164007561727454687265616458
:10444C0000555341525431206E6F74207265616473
:10445C00790A005553415254312072656164792CAC
:10446C002072656164696E672E2E2E0A0025730A10
:10447C000072302F61313A20203078253038782086
:10448C002072312F61323A20203078253038782054
:10449C002072322F61333A20203078253038780A58
:1044AC000072332F61343A20203078253038782050
:1044BC007231322F69703A202030782530387820CC
:1044CC007231342F6C723A20203078253038780ACB
:1044DC000020787073723A20203078253038780AB2
:1044EC00004661756C74696E6720696E73747275C1
:1044FC006374696F6E2061646472657373202872D3
:10450C0031352F7063293A203078253038780A00FD
:10451C00556E68616E646C6564204952516E3A2028
:10452C0025640A002A2A2A2A2A204D505520464161
:10453C00554C54202A2A2A2A2A0A00202053746116
:10454C00636B696E67206572726F722028636F6E81
:10455C00746578742061726561206D696768742078
:10456C006265206E6F742076616C6964290A002084
:10457C0020556E737461636B696E67206572726F20
:10458C00720A002020446174612041636365737377
:10459C002056696F6C6174696F6E0A0020204D4D56
:1045AC0046415220416464726573733A2030782519
:1045BC00780A002020496E737472756374696F6E8B
:1045CC00204163636573732056696F6C6174696F06
:1045DC006E0A002A2A2A2A2A20555341474520468A
:1045EC0041554C54202A2A2A2A2A0A0020204469A0
:1045FC00766973696F6E206279207A65726F0A0032
:10460C002020556E616C69676E6564206D656D6FF9
:10461C007279206163636573730A0020204E6F20EA
:10462C00636F70726F636573736F7220696E7374EE
:10463C0072756374696F6E730A002020496C6C6527
:10464C0067616C206C6F6164206F66204558435F16
:10465C0052455455524E20696E746F2050430A00D7
:10466C002020496C6C6567616C20757365206F66E2
:10467C002074686520455053520A00202041747400
:10468C00656D707420746F20657865637574652032
:10469C00756E646566696E656420696E7374727597
:1046AC006374696F6E0A002A2A2A2A2A20425553FB
:1046BC00204641554C54202A2A2A2A2A0A00202016
:1046CC00537461636B696E67206572726F720A0056
:1046DC002020507265636973652064617461206287
:1046EC007573206572726F720A0020204246415227
:1046FC0020416464726573733A20307825780A001F
:10470C002020496D70726563697365206461746102
:10471C0020627573206572726F720A002020496ED8
:10472C00737472756374696F6E2062757320657231
:10473C00726F720A005265736572766564204578F3
:10474C0063657074696F6E20280053707572696FA1
:10475C00757320696E746572727570742028495275
:10476C00512000535053454C20696E20746872657B
:10477C006164206D6F646520646F6573206E6F7467
:10478C0020696E646963617465205053500A002A75
:10479C002A2A2A2A2048415244204641554C54206A
:1047AC002A2A2A2A2A0A002020427573206661755B
:1047BC006C74206F6E20766563746F722074616206
:1047CC006C6520726561640A00202044656275671F
:1047DC00206576656E740A0020204661756C742025
:1047EC00657363616C6174696F6E202873656520F5
:1047FC0062656C6F77290A00415243485F45584304
:10480C00455054207769746820726561736F6E200F
:10481C0025780A0A002A2A2A2A2A20446562756702
:10482C00206D6F6E69746F72206578636570746942
:10483C006F6E202A2A2A2A2A0A002A2A2A2A2A20A1
:10484C00257320256429202A2A2A2A2A0A00464C64
:10485C004153485F30005352414D5F30000A06050A
:10486C000504010301020101010001696E74657206
:10487C00727570742D636F6E74726F6C6C657240B0
:10488C003538303030383030007263634035383072
:10489C003030303030006770696F40343830303130
:1048AC00633030006770696F4034383030303830E6
:1048BC0030006770696F403438303030343030003D
:1048CC006770696F4034383030303030300072658A
:1048DC007365742D636F6E74726F6C6C657200739C
:1048EC00657269616C403430303038303030007370
:1048FC00657269616C403430303133383030006D62
:10490C0061696E002A2A2A20426F6F74696E6720D3
:10491C005A6570687972204F53206275696C6420F7
:10492C0076342E332E302D7263312D37352D67664C
:10493C003063626261306638656635202A2A2A0A3D
:10494C0000286E756C6C29002A666C6F61742A00E5
:10495C004B2F0008000000004D3000080000000044
:10496C00000000000000000000000000E915000835
:10497C00000000000000000000000000E915000825
:10498C00000000000000000000000000E915000815
:10499C00000000000000000000000000E915000805
:1049AC00000000000000000000000000EF390008CB
:1049BC000000000000000000740000200000000057
:1049CC000000000000C20100000103000000000014
:1049DC0000000000EF39000800000000000000009B
:1049EC009C0000200000000000000000802500005A
:1049FC000001030000093D00C8000000AC000020CD
:104A0C00AC000020FFFFFFFFFFFFFFFFFFFFFFFFDA
:044A1C00FFFFFFFF9A
:104A20000000000000000000000000000000000086
:044A30000000000082
:044A340015E015E094
:0400000508000B09DB
:00000001FF
