:020000040800F2
:10000000003D00205D430008E75201084943000815
:100010004943000849430008494300080000000024
:100020000000000000000000000000002144000863
:100030004943000800000000BD430008C1F7000864
:10004000F5450008F5450008F5450008F5450008A8
:10005000F5450008F5450008F5450008F545000898
:10006000F5450008F5450008F5450008F545000888
:10007000F5450008F5450008F5450008F545000878
:10008000F5450008F5450008F5450008F545000868
:10009000F5450008F5450008F5450008F545000858
:1000A000F5450008F5450008F5450008F545000848
:1000B000F5450008F5450008F5450008F545000838
:1000C000F5450008F5450008F5450008F545000828
:1000D000F5450008F5450008F5450008F545000818
:1000E000F5450008F5450008F5450008F545000808
:1000F000F5450008F5450008F5450008F5450008F8
:10010000F5450008F5450008F5450008F5450008E7
:10011000F5450008F5450008F5450008F5450008D7
:10012000F5450008F5450008F5450008F5450008C7
:08013000F5450008F545000843
:1001380081F0004102E000BF83F0004330B54FEA90
:1001480041044FEA430594EA050F08BF90EA020FFD
:100158001FBF54EA000C55EA020C7FEA645C7FEA90
:10016800655C00F0E2804FEA5454D4EB5555B8BFB3
:100178006D420CDD2C4480EA020281EA030382EA24
:10018800000083EA010180EA020281EA0303362DB6
:1001980088BF30BD11F0004F4FEA01314FF4801C89
:1001A8004CEA113102D0404261EB410113F0004F9B
:1001B8004FEA03334CEA133302D0524263EB430352
:1001C80094EA050F00F0A780A4F10104D5F1200EF0
:1001D8000DDB02FA0EFC22FA05F2801841F100014B
:1001E80003FA0EF2801843FA05F359410EE0A5F11F
:1001F80020050EF1200E012A03FA0EFC28BF4CF050
:10020800020C43FA05F3C01851EBE37101F0004505
:1002180007D54FF0000EDCF1000C7EEB00006EEB12
:100228000101B1F5801F1BD3B1F5001F0CD349089C
:100238005FEA30004FEA3C0C04F101044FEA4452F3
:1002480012F5800F80F09A80BCF1004F08BF5FEA7A
:10025800500C50F1000041EB045141EA050130BD5A
:100268005FEA4C0C404141EB0101013C28BFB1F56C
:10027800801FE9D291F0000F04BF01460020B1FAB7
:1002880081F308BF2033A3F10B03B3F120020CDA8A
:100298000C3208DD02F1140CC2F10C0201FA0CF068
:1002A80021FA02F10CE002F11402D8BFC2F1200CCD
:1002B80001FA02F120FA0CFCDCBF41EA0C01904083
:1002C800E41AA2BF01EB0451294330BD6FEA0404CC
:1002D8001F3C1CDA0C340EDC04F11404C4F12002B7
:1002E80020FA04F001FA02F340EA030021FA04F3C9
:1002F80045EA030130BDC4F10C04C4F1200220FA20
:1003080002F001FA04F340EA0300294630BD21FA5D
:1003180004F0294630BD94F0000F83F4801306BF23
:1003280081F480110134013D4EE77FEA645C18BF17
:100338007FEA655C29D094EA050F08BF90EA020FAE
:1003480005D054EA000C04BF1946104630BD91EAA6
:10035800030F1EBF0021002030BD5FEA545C05D1A9
:100368004000494128BF41F0004130BD14F58004E8
:100378003CBF01F5801130BD01F0004545F0FE415C
:1003880041F470014FF0000030BD7FEA645C1ABF91
:10039800194610467FEA655C1CBF0B46024650EAC8
:1003A800013406BF52EA033591EA030F41F40021F4
:1003B80030BD00BF90F0000F04BF0021704730B57A
:1003C8004FF4806404F132044FF000054FF000014F
:1003D80050E700BF90F0000F04BF0021704730B510
:1003E8004FF4806404F1320410F0004548BF4042E5
:1003F8004FF000013EE700BF42004FEAE2014FEA3A
:1004080031014FEA02701FBF12F07F4393F07F4F14
:1004180081F06051704732F07F4208BF704793F017
:100428007F4F04BF41F40021704730B54FF460742A
:1004380001F0004521F000411CE700BF50EA01022D
:1004480008BF704730B54FF000050AE050EA0102D6
:1004580008BF704730B511F0004502D5404261EB46
:1004680041014FF4806404F132045FEA915C3FF487
:10047800D8AE4FF003025FEADC0C18BF03325FEA24
:10048800DC0C18BF033202EBDC02C2F1200300FAD5
:1004980003FC20FA02F001FA03FE40EA0E0021FAFA
:1004A80002F11444BDE600BF80F0004002E000BF46
:1004B80081F0004142001FBF5FEA410392EA030F47
:1004C8007FEA226C7FEA236C6AD04FEA1262D2EB91
:1004D8001363C1BFD218414048404140B8BF5B4296
:1004E800192B88BF704710F0004F40F4000020F02F
:1004F8007F4018BF404211F0004F41F4000121F045
:100508007F4118BF494292EA030F3FD0A2F101028E
:1005180041FA03FC10EB0C00C3F1200301FA03F1CC
:1005280000F0004302D5494260EB4000B0F5000FEF
:1005380013D3B0F1807F06D340084FEA310102F1AE
:100548000102FE2A51D2B1F1004F40EBC25008BF60
:1005580020F0010040EA03007047490040EB00002A
:10056800013A28BFB0F5000FEDD2B0FA80FCACF12B
:10057800080CB2EB0C0200FA0CF0AABF00EBC25058
:1005880052421843BCBFD0401843704792F0000F46
:1005980081F4000106BF80F400000132013BB5E799
:1005A8004FEA41037FEA226C18BF7FEA236C21D00F
:1005B80092EA030F04D092F0000F08BF0846704774
:1005C80090EA010F1CBF0020704712F07F4F04D142
:1005D800400028BF40F00040704712F100723CBF55
:1005E80000F50000704700F0004343F0FE4040F47F
:1005F800000070477FEA226216BF08467FEA23633D
:100608000146420206BF5FEA412390EA010F40F427
:10061800800070474FF0000304E000BF10F0004373
:1006280048BF40425FEA000C08BF704743F096435A
:1006380001464FF000001CE050EA010208BF704775
:100648004FF000030AE000BF50EA010208BF7047FC
:1006580011F0004302D5404261EB41015FEA010C11
:1006680002BF84460146002043F0B64308BFA3F109
:100678008053A3F50003BCFA8CF2083AA3EBC253EB
:1006880010DB01FA02FC634400FA02FCC2F120020A
:10069800BCF1004F20FA02F243EB020008BF20F041
:1006A8000100704702F1200201FA02FCC2F12002A7
:1006B80050EA4C0021FA02F243EB020008BF20EA9C
:1006C800DC7070474FF0FF0C1CEAD0521EBF1CEACA
:1006D800D15392EA0C0F93EA0C0F6FD01A4480EAB8
:1006E800010C400218BF5FEA41211ED04FF00063A1
:1006F80043EA501043EA5111A0FB01310CF00040CD
:10070800B1F5000F3EBF490041EAD3715B0040EAF2
:10071800010062F17F02FD2A1DD8B3F1004F40EBC2
:10072800C25008BF20F00100704790F0000F0CF095
:10073800004C08BF49024CEA502040EA51207F3A59
:10074800C2BFD2F1FF0340EAC250704740F4000034
:100758004FF00003013A5DDC12F1190FDCBF00F025
:1007680000407047C2F10002410021FA02F1C2F1D3
:10077800200200FA02FC5FEA310040F1000053EA6F
:100788004C0308BF20EADC70704792F0000F00F0BD
:10079800004C02BF400010F4000F013AF9D040EAC3
:1007A8000C0093F0000F01F0004C02BF490011F457
:1007B800000F013BF9D041EA0C018FE70CEAD15355
:1007C80092EA0C0F18BF93EA0C0F0AD030F0004CD5
:1007D80018BF31F0004CD8D180EA010000F0004089
:1007E800704790F0000F17BF90F0004F084691F047
:1007F800000F91F0004F14D092EA0C0F01D1420281
:100808000FD193EA0C0F03D14B0218BF084608D149
:1008180080EA010000F0004040F0FE4040F4000093
:10082800704740F0FE4040F4400070474FF0FF0C26
:100838001CEAD0521EBF1CEAD15392EA0C0F93EA6D
:100848000C0F69D0A2EB030280EA010C49024FEABF
:10085800402037D04FF0805343EA111143EA101378
:100868000CF000408B4238BF5B0042F17D024FF430
:10087800000C8B4224BF5B1A40EA0C00B3EB510F0B
:1008880024BFA3EB510340EA5C00B3EB910F24BFF4
:10089800A3EB910340EA9C00B3EBD10F24BFA3EB79
:1008A800D10340EADC001B0118BF5FEA1C1CE0D141
:1008B800FD2A3FF650AF8B4240EBC25008BF20F0F4
:1008C800010070470CF0004C4CEA50207F32C2BF48
:1008D800D2F1FF0340EAC250704740F400004FF0E5
:1008E8000003013A37E792F0000F00F0004C02BF16
:1008F800400010F4000F013AF9D040EA0C0093F0E0
:10090800000F01F0004C02BF490011F4000F013B39
:10091800F9D041EA0C0195E70CEAD15392EA0C0FA1
:1009280008D142027FF47DAF93EA0C0F7FF470AFD9
:10093800084676E793EA0C0F04D14B023FF44CAF1C
:1009480008466EE730F0004C18BF31F0004CCAD1B1
:1009580030F000427FF45CAF31F000437FF43CAFED
:100968005FE700BF4FF0FF3C06E000BF4FF0010C0F
:1009780002E000BF4FF0010C4DF804CD4FEA4002F1
:100988004FEA41037FEA226C18BF7FEA236C11D03B
:1009980001B052EA530C18BF90EA010F58BFB2EBEE
:1009A800030088BFC81738BF6FEAE17018BF40F06E
:1009B800010070477FEA226C02D15FEA402C05D122
:1009C8007FEA236CE4D15FEA412CE1D05DF8040BA7
:1009D800704700BF844608466146FFE70FB5FFF73A
:1009E800C9FF002848BF10F1000F0FBD4DF808EDF2
:1009F800FFF7F4FF0CBF012000205DF808FB00BFE3
:100A08004DF808EDFFF7EAFF34BF012000205DF83C
:100A180008FB00BF4DF808EDFFF7E0FF94BF012089
:100A280000205DF808FB00BF4DF808EDFFF7D2FF86
:100A380094BF012000205DF808FB00BF4DF808EDC9
:100A4800FFF7C8FF34BF012000205DF808FB00BF96
:100A58004FEA4002B2F1FE4F0FD34FF09E03B3EBC3
:100A680012620DD94FEA002343F0004310F0004F03
:100A780023FA02F018BF404270474FF00000704759
:100A880012F1610F01D1420205D110F0004008BFF8
:100A98006FF0004070474FF0000070477BB972B9A3
:100AA8000029BEBF00204FF0004106E008BF002823
:100AB8001CBF6FF000414FF0FF3000F057B8ADF1A8
:100AC800080C6DE904CE002909DB002B1ADB00F0C5
:100AD80074F8DDF804E0DDE9022304B07047404211
:100AE80061EB4101002B1BDB00F067F8DDF804E047
:100AF800DDE9022304B0404261EB4101524263EB5D
:100B080043037047524263EB430300F056F8DDF8A5
:100B180004E0DDE9022304B0404261EB4101704783
:100B2800524263EB430300F048F8DDF804E0DDE9E6
:100B3800022304B0524263EB4303704753B94AB9E6
:100B4800002908BF00281CBF4FF0FF314FF0FF30CD
:100B580000F00CB8ADF1080C6DE904CE00F02DF8EA
:100B6800DDF804E0DDE9022304B07047704700BFF8
:100B780010F8012B11F8013B012A28BF9A42F7D03F
:100B8800D01A7047034613F8012B002AFBD1181A14
:100B980001387047430803F05533C01A00F0333367
:100BA800800800F03330184400EB10104FF0013388
:100BB80000F00F305843000E70472DE9F047864685
:100BC8008C460846089E154674461946002B40F088
:100BD800C2808542B2FA82F245D94AB1C2F12003F5
:100BE80000FA02FC2EFA03F3954043EA0C0C9440F9
:100BF8004FEA154EA8B2BCFBFEF8230C0EFB18CC2E
:100C080008FB00F943EA0C43994528D9EB1808F189
:100C1800FF3704D2994502D9A8F102072B44A3EB68
:100C28000903A4B2B3FBFEFC0EFB1C330CFB00F063
:100C380044EA0344A04214D92C190CF1FF3304D21E
:100C4800A04202D9ACF102032C44241A43EA07401B
:100C58001EB1D440002334607360BDE8F087474676
:100C6800DDE76346F1E792BB431B01214FEA154ECE
:100C7800AFB2B3FBFEFC200C0EFB1C330CFB07F8D9
:100C880040EA0343984562D9EB180CF1FF3004D2CF
:100C9800984502D9ACF102002B44A3EB0803A4B297
:100CA800B3FBFEFC0EFB1C330CFB07F744EA0344C2
:100CB800A7424ED92C190CF1FF3304D2A74202D90E
:100CC800ACF102032C44E41B43EA0040C0E7C2F144
:100CD800200320FA03F1954090402EFA03F30343D2
:100CE8004FEA154EAFB2B1FBFEFC0EFB1C10190CFF
:100CF8000CFB07F841EA0041884504FA02F422D9BE
:100D080069180CF1FF3004D2884502D9ACF1020011
:100D18002944A1EB08019BB2B1FBFEFC0EFB1C11A0
:100D28000CFB07F743EA01439F420ED9EB180CF17D
:100D3800FF3104D29F4202D9ACF102012B44DB1BE4
:100D480041EA004192E76046E3E76146F7E760461B
:100D5800A3E76346B7E7834206D916B900210846D8
:100D68007BE7C6E900E0F9E7B3FA83F78FB9834276
:100D780001D3724508D8BEEB020460EB03030120DF
:100D88009C461EB9002168E73846FAE7C6E9004CD8
:100D9800F8E7C7F1200CBB4022FA0CF41C432EFAEA
:100DA8000CF120FA0CF3B84001434FEA14490EFA4B
:100DB80007F5B3FBF9F81FFA84FE09FB18300B0C92
:100DC80008FB0EFA43EA00439A4502FA07F240D9B3
:100DD800E31808F1FF3004D29A4502D9A8F10200BD
:100DE8002344A3EB0A0389B2B3FBF9F809FB1833D0
:100DF80008FB0EFE41EA03418E452CD9611808F123
:100E0800FF3304D28E4502D9A8F10203214443EAF4
:100E18000040A0FB0298A1EB0E014145CE46434697
:100E280002D306D14D4504D2B9EB020E68EB040398
:100E38000138002EA6D0B5EB0E0261EB030101FAD2
:100E48000CFC22FA07F34CEA0303F940C6E9003127
:100E580098E74046C5E74346D9E700001FB5044672
:100E68000DF10F010DF10E0014F08CFA9DF80F3002
:100E7800044A009304482346032114F05CF804B0A4
:100E880010BD00BF8CA70108F0980108F8B500AFA5
:100E98006D468CB0FE696C46DFF85CC06362C4E9DD
:100EA80005C001F00100C4E907022246C1F3400170
:100EB8000723A16242F8103F104800234FF4635102
:100EC80002F0A6F9AD46A6B188B06A460C4B53614C
:100ED800397E0C4B93614FF40073938309050A4BD9
:100EE80042F8103F41F4E6510448334602F090F9C5
:100EF800AD46BD46F8BD00BFB0A70108F09801088F
:100F080056BB0108E3A70108030000012DE9F04FD3
:100F1800904B914A9DB01A60904A02AF1068516890
:100F28008F4A3B1D03C31068516807F10C0303C3C4
:100F38008C4B07F1200203F1100C07F1040807F1AC
:100F48000C06154618685968144603C408336345E7
:100F58002246F7D14FF6FF730024BB82824BC7F8B5
:100F68001640C7F81A40FC83BB61DFF80092484678
:100F780017F0BBFC0346C0B96C4688B0D9F800101E
:100F880002AA7B48C2E905014FF4007191837949AF
:100F980042F8101F78484FF4E25102F039F9A5469B
:100FA80000206C37BD46BDE8F08F052003F0CCFE6D
:100FB800031E05DA714A7048012113F0B2FFEFE70A
:100FC80004F094F8031E01DA6D4AF4E7204603F0B2
:100FD800BBFF07F1140004F073F86A48DFF8A89122
:100FE80004F07EF8694887F84440C7E90D55C7F80A
:100FF80040803E6312F054F918F8011B484601344A
:1010080012F04EF9082CF7D16148DFF87C8112F014
:1010180047F9002416F8011B4046013412F040F944
:10102800082CF7D15B48584E12F03AF9002415F80D
:10103800011B3046013412F033F9102CF7D1564811
:1010480012F040F9554A4C48032113F061FF002182
:10105800534810F063FE534A4748534D464EDFF855
:101068004C81032113F054FF00244FF0000907F1CD
:10107800300003F085FE031E34DB4D4A3E484D4EDA
:10108800DFF83481032113F043FF00F0C3F8414631
:1010980030684A4D4A4CFFF715FB17F074FF41467C
:1010A80081462868FFF70EFB17F06DFF2388A7F825
:1010B8004830A7F84C000023062207F14801012018
:1010C800A7F84A9003F072FF10F10B0F034620D1E6
:1010D8003C4A2948012113F024FF0021304810F030
:1010E8001DFED2E701341F2C08D11E230093364A77
:1010F80021482346012113F01EFF51E701210094E6
:101108002A46304613F017FF4046494610F006FEBF
:10111800ADE7002801DA2D4A4DE723882C4A164806
:10112800032113F0FEFE23883068FE2B9ABF01339B
:101138009BB200232380FFF75FF9824628688B461D
:10114800FFF75AF95246CDE900015B46214813F0F2
:10115800DAFAC2E7F80E0020E0930108A5A9010811
:10116800D0990108AEA90108950E00083494010829
:10117800EDA7010803000001F098010803A8010881
:1011880021A80108650E000847A801083AA8010827
:101198004CA8010859A8010866A8010868A8010810
:1011A800A086010086A80108D9A80108E0930400D8
:1011B8000EA90108F40E002000002041F00E0020C6
:1011C8002422002027A90108A0A801084EA9010887
:1011D80066A9010888A9010810B586B00122019204
:1011E80000228DF808200A4A009103920721022262
:1011F80004928DF814109DF81430816813438DF80B
:1012080014308C6840236946A04706B010BD00BF63
:101218002C22002070B5244E244D25493068254CD9
:10122800FFF7DAFF2B88244930685BBA2380FFF781
:10123800D3FF2888214B40BA188080B2FFF7EAF91B
:101248001F49FFF73FFA4FF05E51FFF73BFA1D4980
:10125800FFF72EF91C4B054618602088FFF7DAF9CE
:101268001A49FFF72FFA4FF05E51FFF72BFA18498A
:10127800FFF71EF9174B1849186004462846FFF770
:1012880021FA13F095F91449FFF7D0FA134B1249D4
:1012980018602046FFF716FA13F08AF90E49FFF78F
:1012A800C5FA0F4B186070BDF80E00202C220020E4
:1012B800ED05002028220020EC0500202622002031
:1012C80052B82F4366663B42FC0E00200000FA42EB
:1012D8000000C040000F00200000C842F40E0020AB
:1012E800F00E0020B2F5802F2DE9F0410ED33C49D5
:1012F8003C4A3D4840F2132313F01BFA3B4813F0D5
:1013080018FA40F21321374813F00AFA042A0CD8C5
:101318003749344A344840F21A2313F00AFA354858
:1013280013F007FA40F21A21EDE7043ACD1D8E18A2
:1013380025F0070526F00706761B172E4FEAD60775
:101348000CD82D49274A284840F2232313F0F1F9F5
:10135800284813F0EEF940F22321D4E7B7FA87F4CE
:10136800C4F12002C4F12404A4000734E408631C77
:101378004FF00008BB420560AF60C5F80C800CD97F
:101388001E49184A18484FF40E7313F0D2F9194839
:1013980013F0CFF94FF40E71B5E74146920005F10D
:1013A800100017F09FFC630043F001036B8005EB0E
:1013B800C4023B1B5900A5F800805180AA1925F8E2
:1013C8003440A2F80280AB5305EBC70321465A8884
:1013D80042F001025A802846BDE8F04113F012B9E4
:1013E800BAAA0108CFA9010803AA0108D0AA0108CE
:1013F800E7AA010808AB010821AB01084AAB0108BC
:101408002DE9F04F91B00546009302F004030193D3
:10141800C2F3C203013304938307DDF86890029294
:101428000E4640F0FC81041D30B1072909D86FF041
:101438001B0011B0BDE8F08F01F007063444C6F177
:101448000806009B4FF000084FF0040B591ECDF81A
:101458000C80474643464FF0FF32DA460DB10098FC
:1014680020600498002800F3DF809B48DDF800C066
:10147800844503D399488445C0F0D680DDF808C078
:10148800A4EB050E1CF0020F4FEA9E0000F0E78067
:101498004FF0000CD1E07A2862D84B280FD84728A3
:1014A8005ED829282DD8252859D059D820287DD06C
:1014B800A0F12309D9F1000343EB090376E04C3886
:1014C8002E284DD8DFE800F0724C4C4C4C4C4C4C5C
:1014D8004C4C4C4C4E4C4C4C4C4C4C4C4C5C4C4E30
:1014E8004E5C5C5C724E6F4C724C184E184C4C81C2
:1014F8007E4E4C4C4E4C7E00002000234FF0040BD7
:101508003CE02A384FF0010EC0B20EFA00F04FF658
:10151800DA7E10EA0E0F49D110F0625E30D110F079
:10152800010343D07046013C5C44B4FBFBF40BFB65
:1015380004F4002D5ED0AAEB050EA644B6453FF68E
:1015480076AF002868D1BAF1040F43D1E14659F8C3
:10155800040B20600434CC464FF0040A26E0013A1C
:10156800002323E011F8013C6C2B30D111F8023C28
:1015780000206C2B0346C1D14FF0080BDA46D2E7A6
:101588000CF1070929F0070C0734FCE802AB24F03A
:10159800070435B105982044B0423FF648AFC4E986
:1015A80000AB083400234FF0080BDA4611F8010F9E
:1015B800002800F0BC80002B7FF46DAF2528F5D102
:1015C800013201234FF0040BEFE7184695E700209E
:1015D8000346A8E7BAF1080F40F09B800CF1070911
:1015E80029F0070CFCE8029AC4E9009A08344FF085
:1015F800080ADBE780B9BAF1040F02D10CF104093B
:10160800A8E7BAF1080F40F084800CF1070929F027
:10161800070909F1080CE9E70498E1460138049044
:1016280059F8040B009019E70298800748D5A4EBF5
:10163800050E4FEA9E004FF0010CBEF5007F1DD34A
:101648002749284A28484FF41F7313F072F827488F
:1016580013F06FF84FF41F71224813F061F80F2F41
:101668000ED8002D46D007F1400CEC440CF8200CA5
:101678000CF8102C03980130039020E00F2F0CD9A0
:101688001749184A184840F2812313F052F81848AD
:1016980013F04FF840F28121DEE7BDB107F1400EAB
:1016A800EE44C0B20EF8200C0EF8102CBCF1000F5E
:1016B800E0D060F07F000EF8200C08F10108013737
:1016C800C5F108000434CC4605906FE7BCF1000F63
:1016D80010D00136F3E700BF3C91010810E701087C
:1016E8005DDB010875AB010803AA0108A3AB01087B
:1016F800C4AB0108019802360028E0D10098059291
:10170800CDE90631FFF73EFADDE90631059A0644D0
:10171800D5E7444A4449454840F2C62313F009F83E
:101728005146434813F005F840F2C62194E7631B7D
:10173800B3F5806F0CD33C493A4A3C4840F2D22377
:1017480012F0F7FF3B4812F0F4FF40F2D22183E792
:101758001DB9A6F10804E0186BE6019A28609B08F9
:101768002B709DF80C30C2B1EB7085F80280B8F18F
:10177800000F05D008A80022C5F1010C97420ED130
:10178800C5F101030DF120094FF0000A02930DF194
:10179800300B574512D1601B4BE66B70E5E710F82C
:1017A800013B190608D50CEB040EB64503F07F0380
:1017B8003FF63DAE04F8013B0132DFE7B8F1000F18
:1017C80003D099F90020002A17DB019BD3B11AF83E
:1017D8000B2004F8012B0022029B18191044B04278
:1017E8003FF625AE99F8000004F8010B0099039222
:1017F800204617F069FA039A14440AF1010A09F11C
:101808000109C6E799F8002055F822300093019B9A
:1018180045F822300098FFF7B5F9421CDCE76FF075
:101828000D0006E675AB01085DDB010803AA010897
:10183800DEAB0108F3AB01082DE9F04F97B000AF1C
:101848008946D7F880B0FA623B62044658B9A8497D
:10185800A84AA94840F2993312F06BFF40F2993137
:10186800A44812F05DFFCBF3C00390F802A07B619F
:1018780041B9457800780AEB800020444D4517D8D7
:10188800A0EB0409E378FB61BAF1000F02D01BF06A
:10189800010F16D1FB6953BBFB6A1BB13A6A494673
:1018A800204698474D4628465C37BD46BDE8F08F30
:1018B800461C3046FFF766F90130304409F101094A
:1018C800DCE7237862687A62FA6A9900B96104EB06
:1018D8008301002A40F001814D460E4601EB0A09BA
:1018E8004FF000084E454CD101EB0A0610E01BF002
:1018F800020FD1D023789A00BA6162687A62FA6AD4
:1019080004EB8301002A77D14D4601EB0A06904685
:101918001BF0050F0CBF02230123FB62FB6906EBDA
:10192800430A0BF00203BB625645BCD016F8021BF3
:1019380016F8013C54F82390704B994502D3704B2C
:10194800994536D37B69002B40D0786A12F0B2FEF5
:1019580000283BD0E9468AB06A466A4B53617B6AE5
:10196800C2E906314FF400731384674B42F8103F05
:10197800664800234FF4125101F04AFC023DCD465F
:10198800D2E716F8013BF96254F82300FFF7FAF89A
:10199800D7F88430F96A01304BB1D7F888309845C8
:1019A8003EBFD7F8843023F8180008F10108054431
:1019B80098E77B6923B1786A12F07CFE0028C9D1C8
:1019C8001BF0010F05D1FB6AED1AADE7BB6A002BCE
:1019D800AAD04846FFF7D6F8D7F8843053B1D7F8DD
:1019E800883098453FBFD7F88420431C22F8183028
:1019F80008F10108054497E7BAF1000F73D01BF00E
:101A0800040673D0D046002607F1480052463B61D1
:101A1800B96217F059F9B96A3B6901EB0A02BA626F
:101A2800FA69F9695200FA60BA6A02EB41023A614E
:101A38000BF00202BA60BA6A39698A4268D16278E0
:101A48007A621BF0020F32440CBF4FEA58010021A2
:101A58001BF0010FD2B240F0E4801BF0040F14BF5A
:101A6800404600207B616270A070E1703A6AB969F3
:101A7800FB6A20469847051EFFF615AF7B69237061
:101A88007B6A6370FB69E37041463A6AFB6A84F8D3
:101A980002A007F148009847B0F10008C0F2F580AD
:101AA800BB693A6AA9EB0A01C91AFB68C91AD7E9DE
:101AB8000A0398470028C0F2EA80A84408EB00050A
:101AC8004FF0000B07F1380AB345C0F0AC80002195
:101AD8003A6AFB6A08469847E5E656464FF000081A
:101AE80007F1380092E75646D04696E7B04694E7A5
:101AF8000AAC010875AB010803AA01083C9101086A
:101B080010E7010825AC01080400000160980108ED
:101B1800BA6A12F8021BBA6212F8015C5D4A54F8FC
:101B28002500904202D35C4A904218D37A693AB1B0
:101B3800786A7B6012F0BEFD7B6800287FF47BAF7B
:101B4800BA68002A4CD00F2E40D95449544A5548F7
:101B580040F24D4312F0EDFD40F24D4180E67A69C6
:101B68003AB1786A7B6012F0A5FD7B6800287FF4A3
:101B780062AF1BF0010F0BD00F2E27D94749484AF7
:101B8800484840F2434312F0D4FD40F2434167E62F
:101B98001BF0040F3FF44FAFB8F10F0F09D94249BA
:101BA8003F4A404840F2464312F0C3FD40F24641E6
:101BB80056E608F1280207F1300008F1010102EBAE
:101BC800000808F8105C5FFA81F834E706F128028B
:101BD80007F13000711C161806F8205CCEB22AE70F
:101BE800B8F10F0F09D930492D4A2E484FF48A63AE
:101BF80012F09FFD4FF48A6132E608F1280207F1DE
:101C0800300C08F10100944407F1580252FA80F0B0
:101C180008F102080CF8101C5FFA88F800F8105C4C
:101C280009E700201EE71BF80A3087F8373054F818
:101C38002390D7F884302BB3D7F888309B4521D22E
:101C4800D7F8843033F81B803A6AFB6A012107F120
:101C58003700984700281ADB0544B8F1000F06D171
:101C68004846FEF78FFF00F101081FFA88F83A6A24
:101C7800FB6A414648469847002808DB05440BF1B3
:101C8800010B21E74FF00008DEE745460BE6054665
:101C980009E600BF3C91010810E70108C8AC01083B
:101CA80075AB010803AA0108E7AC0108014B1860ED
:101CB800704700BF6803002080B505460E461746EA
:101CC800984610F0BDF8034617F02AFADFF83C9062
:101CD800044649F80030424639463046A8470C4B7E
:101CE8001B7873B90B490C4A0C4840F2463312F082
:101CF80020FD0B4812F01DFD074840F2463112F056
:101D08000FFD54F8090002F03FFB00BF0800000077
:101D18003E23002043AD010818AD010803AA0108BD
:101D280056AD010838B50D4604462022002116F0AC
:101D3800D9FFEB68E361AB68A3612B6823626B682A
:101D480063620022A2622A6923B1591E194208BFA0
:101D580042F0010222610122002104F12C0016F058
:101D6800E6FD48B105490648064A2F2312F0E1FC72
:101D780004482F2112F0D4FC38BD00BF9EAD0108E5
:101D880003AA010878AD01082DE9F04F89B0CDE923
:101D98000123436A00278B42044688460597079724
:101DA800BA4654D300F11406EFF31185102383F3D8
:101DB8001288BFF36F8F3046A94610F0C3FA58B99E
:101DC8004D4A4E494E48882312F0B3FC31464D48DF
:101DD80012F0AFFC882163E0304610F0D7FA079A7A
:101DE8002AB13946204612F08CFD0023079306A934
:101DF800204612F0ABFC06994145834630D3226851
:101E0800236A13F8221021F0030103F8221003EBD0
:101E1800820A21684246204612F0BCFCE368206032
:101E2800984218D04FF0000B304610F099FA50B392
:101E380089F31188BFF36F8F059929B1A2690AB197
:101E48002046904700230593BBF1000FACD15046C4
:101E580009B0BDE8F08F236943F008032361E1E787
:101E680018B1204612F0B0FCDEE7DDE90132134379
:101E780039D0039116F0CFFD0399A0BB9DBB304626
:101E880010F06EFA78B91C4A1F491D484FF49A732E
:101E980012F04FFC31461D4812F04BFC4FF49A717A
:101EA800154812F03DFC85F31188BFF36F8FDDE90B
:101EB800012304F12C000EF077FB8346EFF3118920
:101EC800102383F31288BFF36F8F304610F03AFA6D
:101ED80000283FF475AF3046BBFA8BFB10F056FA7A
:101EE8004FEA5B1BA0E707AB05AA2046276812F05C
:101EF80088FC834698E700BFA7AD0108D4AD010868
:101F080003AA0108E9AD0108FFAD010816AE0108F2
:101F18002DE9F0410446C36908460E46984704F186
:101F280014050746EFF31188102383F31288BFF3D3
:101F38006F8F284610F006FA68B91B4A1B491C48DF
:101F4800882312F0F6FB29461A4812F0F2FB882182
:101F5800154812F0E5FB284610F018FA337843F0DC
:101F68000103337061683A46204612F013FC606042
:101F7800204612F0E1FC284610F0F2F968B90A4A46
:101F88000D490B484FF49A7312F0D3FB29460B48BE
:101F980012F0CFFB4FF49A71DAE788F31188BFF398
:101FA8006F8FBDE8F08100BFA7AD0108D4AD01086F
:101FB80003AA0108E9AD0108FFAD010816AE010842
:101FC8002DE9F0470446002700F11406EFF31188C5
:101FD800102383F31288BFF36F8F304610F0B2F9E5
:101FE800054668B93A4A3B493B48882312F0A1FBA9
:101FF80031463A4812F09DFB8821354812F090FB93
:10200800304610F0C3F92369A16813F0080F02D114
:102018006368994200D9636A5B1A002B41D0206A31
:1020280010F8213013F0030200EB81093CD0022A9A
:1020380004D150F821205FEA920A05D1DA0720D4AA
:10204800E369484698478246A1685246204612F0FE
:10205800A1FB5146A060204612F0AAFB2F4630464D
:1020680010F07EF910BB1A4A1D491B484FF49A73A9
:1020780012F05FFB31461B4812F05BFB4FF49A717C
:10208800BBE743F0020300F821304846E369A5683E
:10209800984729460246204612F07CFB0025A0609E
:1020A800DDE71D46A946DAE71546FBE788F3118800
:1020B800BFF36F8F002D89D137B1B9F1000F03D16C
:1020C80004F12C000EF0ECF94846BDE8F08700BF9B
:1020D800A7AD0108D4AD010803AA0108E9AD0108BC
:1020E800FFAD010816AE01082DE9F0410446C369A9
:1020F80008460D46984704F114060746EFF3118881
:10210800102383F31288BFF36F8F304610F01AF94B
:1021180068B9284A28492948882312F00AFB314619
:10212800274812F006FB8821224812F0F9FA3046B7
:1021380010F02CF92B786FF300032B7023699B07A1
:1021480005D5E268236A03EB82039D4222D12B78EE
:102158006FF341032B70D4E90231994204D13A4616
:10216800204612F017FBA0603946204612F020FBEB
:10217800304610F0F5F890B90E4A12490F484FF45E
:102188009A7312F0D6FA31460F4812F0D2FA4FF489
:102198009A71C9E72B6867F39F032B60E8E788F318
:1021A8001188BFF36F8F04F12C00BDE8F0410EF0E9
:1021B80077B900BFA7AD0108D4AD010803AA01088B
:1021C800E9AD0108FFAD010816AE010870B5044677
:1021D80000F11405EFF31186102383F31288BFF37F
:1021E8006F8F284610F0AEF868B91B4A1B491C4887
:1021F800882312F09EFA29461A4812F09AFA882182
:10220800154812F08DFA284610F0C0F82369A06826
:1022180013F0080F02D16368984213D9646A241A2C
:10222800284610F09DF878B90B4A0F490C484FF42E
:102238009A7312F07EFA29460C4812F07AFA4FF493
:102248009A71DDE71C1AEBE786F31188BFF36F8FED
:10225800201E18BF012070BDA7AD0108D4AD01082C
:1022680003AA0108E9AD0108FFAD010816AE01088F
:10227800034A536823F0020353600020704700BFED
:10228800002004E010B5EFF31184102383F31288C3
:10229800BFF36F8F1C4810F055F868B91B4A1C49EA
:1022A8001C48882312F045FA17491B4812F041FAD6
:1022B8008821164812F034FA134810F067F8174BC3
:1022C8001A683AB9164A116841F4807111601168A8
:1022D800C905FCD51A680C4801321A6010F040F89C
:1022E80068B90A4A0F490B484FF49A7312F021FA59
:1022F80005490D4812F01DFA4FF49A71D9E784F395
:102308001188BFF36F8F10BD0C0F0020A7AD010817
:10231800D4AD010803AA0108E9AD0108080F00209F
:1023280000040058FFAD010816AE010810B5EFF320
:102338001184102383F31288BFF36F8F264810F09F
:1023480001F868B9254A26492648882312F0F1F988
:102358002149254812F0EDF98821204812F0E0F9CA
:102368001D4810F013F8214B1A682ABBBFF35B8F86
:102378001F4B012253E8001F002903D143E8002026
:102388000028F7D1BFF35B8F04D11A4A1A480221FB
:1023980012F0BEFD10480FF0E3FFC0B90F4A17490D
:1023A80010484FF49A7312F0C4F90B49144812F00C
:1023B800C0F94FF49A71D0E7012A01BF11490A68A0
:1023C80022F480720A601A68013A1A60E2E784F31C
:1023D8001188BFF36F8F10BD0C0F0020A7AD010847
:1023E800D4AD010803AA0108E9AD0108080F0020CF
:1023F800040F002036AE010840990108FFAD01081E
:1024080016AE010800040058084B1A6842F400721E
:102418001A601A6842F480621A601A6842F480727C
:102428001A60034B034A1A60704700BF0040005807
:10243800D405002000093D002DE9F7430F46064664
:102448000821C06ADFF8509012F0EEFA3C68241AAE
:1024580080463C6004EA0905AC4203D8002003B07A
:10246800BDE8F08308236A462146304612F072FA26
:102478000028F4D16946304612F0E0FA40B1BDF8C0
:102488000230BDF804203C6005EA090513441D44E8
:10249800A4EB0804E0E700BF0000FFFF73B50446A3
:1024A8000821C06A124E12F0BFFA4FF6FF72636835
:1024B800ADF800208DF80620E2681918334013445F
:1024C800181A002560606846ADF80210ADF804508F
:1024D80012F0A1FA6946204612F070FB2046211D31
:1024E80012F071FA636828463340A36002B070BDE9
:1024F8000000FFFF2DE9F04704468AB000F11407F9
:10250800384616F00DFAA06A8368DB689847E062DF
:1025180050B98D4A8D48012112F062FA6FF0150505
:1025280028460AB0BDE8F087A06A8368DB68984748
:102538000368013B1F2B01D9854AEBE7E368B3F534
:10254800803F08D94FF4803200928048814A0121A7
:1025580012F0F1FCE2E7A06A216807AA15F0E0F89A
:1025680008B17D4AD6E7E5682DB1089BB5FBF3F2C3
:1025780003FB12550DB1794ACCE7238A012B01D808
:10258800774AC7E7E36A029593F805904FF0FF335F
:102598004FF0FF3238460DF0C3FDE06A082112F013
:1025A80043FAA8460646238A1FFA85FA534508D8EF
:1025B800238A434523D138460DF082FE6FF02C055F
:1025C800AEE7E1682B04891B13FA81F14A46082318
:1025D8002046029112F0CCF978B102A9204612F0F7
:1025E800F2F908F10108029908234A4620461FFA21
:1025F80088F812F0BDF90028DAD00135D3E79A45FA
:102608000BD1029908234A46891B204612F0B0F9DB
:1026180018B902A9204612F0D6F902A92046FFF7F8
:102628000BFF054618B138460DF04AFE78E7029BC5
:1026380063604FEA13484FEA0848C4F80880D4E9B1
:10264800011399420FD3082303AA204612F082F9F6
:1026580005460028E7D103AB13F8012B91453DD17E
:102668000135082DF8D163681B0C1B0402A920460C
:10267800029312F0A8F9E36802994A46204612F03C
:1026880077F9051ECFDB63687ED006EB03084FF6AB
:10269800FF79E368CDF808801FFA88F29B1B9A42FD
:1026A80038D3304A2948032112F09AF96168204644
:1026B80012F098F905460028B5D163682A4AE168FE
:1026C80013400B44A3EB460363601340A36020460A
:1026D80012F09CFA0546002D72D0A4E703A9204603
:1026E80012F0ACF9626810B9921B6260A7E7BDF8F6
:1026F8001050BDF80E10E06AC4F80880294412F0A2
:1027080093F940449042A060EED1002DECD06FF0D8
:102718001C0580E0082305AA4146204612F01AF954
:10272800054600287FF47FAF05A9204612F086F9F8
:1027380038B1BDF814304B4503D1BDF81830002B23
:102748006FD0B044A5E700BF8BAE0108A898010878
:10275800ADAE0108CAAE0108F3AE01080BAF01081F
:102768001FAF010891AF01080000FFFF5B1A4A463E
:10277800204612F0FDF8051EFFF655AF08D0E26AB4
:10278800A36812681344A360D4E901318B42EDD8E1
:102798006168E36801EB46029A429CD1DFF8A880A1
:1027A800A26801EA08039A4295D0204612F01AF965
:1027B800054600287FF437AF636803EA0803A3607F
:1027C800E368A288A3EB46039A4220D038460DF06E
:1027D80077FD0123A374E268238A1C480092032131
:1027E8001B4A12F0A8FB63689AB200921748194A6C
:1027F8001B0C032112F09FFBA3689AB200921348A6
:10280800154A1B0C032112F096FB002588E620468A
:1028180012F0E5F9054638460DF052FD002DD8D0E6
:102828007EE60E4A0948032112F0DAF863681B0CA9
:102838001B0402A92046029312F0C5F8029920460B
:1028480012F0D0F846E700BF0000FFFFA898010883
:1028580042AF010859AF01086BAF01087CAF01080E
:102868002DE9F04F1D4691B0837C029104460092F9
:1028780053B9644A6448012112F0B2F86FF00C06AB
:10288800304611B0BDE8F08FC26A0821104612F038
:10289800CBF829460190104612F0C6F8E368019A71
:1028A800A3EB8203AB420746C0F0A9801DB1009B91
:1028B800002B00F0A4806368059306AA05A92046AA
:1028C800DDF814A012F0F7F806460028D8D1BDF8B4
:1028D8001830029A934206D06268059B9A42ECD15E
:1028E800002D36D1CCE706A9204612F0A7F800281B
:1028F800F2D0BDF81A80BDF81C3045B39D4228D1EE
:10290800E36ADDF800B01B684FEA1A4A5B424FEAF7
:102918000A4A03F02003D0440393AA46DDF80C903A
:10292800D14528BFD1464B4608AA4146204612F059
:1029380011F800284AD14A4608A9584616F0DAF98B
:1029480038B9BAEB090AC844CB44E7D198E7002B59
:1029580096D0002F3DD1B84604F1140A4FF0FF324B
:102968004FF0FF3350460DF0DBFB238A9E4243D0E5
:10297800A168626808EB01039A422FD3029BADF865
:102988002030FF238DF82630009AADF822102B4610
:102998002046ADF8245012F0D8F829460746E06AD8
:1029A80012F042F8A3680344A36057B908A812F0CC
:1029B80032F808A9204612F001F9002814BF07468A
:1029C8002F4650460DF07CFC3E4659E7C1DC0646D2
:1029D80056E7019B1F441FFA87F8BDE72046FFF71B
:1029E8005DFD07460028ECD1204612F00FF9074696
:1029F8000028E6D10136B8E76FF01B07E1E76FF072
:102A080015063DE777AE0108A89801082DE9FF47AC
:102A18001E46837CBDF8309004460F4690464BB95D
:102A28002C482D4A012111F0DBFF6FF00C0004B097
:102A3800BDE8F087C06A082111F0F6FFE368A3EB50
:102A48004003B34243D3D4F804A0CDF804A0002532
:102A58004D455146DDF804A009D9636853451ED198
:102A6800BDF80830BB421AD06FF00100DFE702AAB8
:102A780001A9204612F01FF80028D8D1BDF8083067
:102A8800BB4206D102A9204611F0D8FF08B1013592
:102A9800ADB26268019B9A42DAD15146E0E7BDF8CF
:102AA8000C30002BE0D0A945DED8BDF80A00090C8F
:102AB800B3424FEA014128BF33460144424620460B
:102AC80011F048FF0028B2D1BDF80C00AFE76FF055
:102AD8001500ACE7A898010877AE010830B5104991
:102AE800104889B0002216F050F80F4D0F49002207
:102AF8000023CDE9062300240E23CDE90334CDE9D4
:102B080001440B4B00944FF4006228460EF034FA4F
:102B1800084928460EF09EF9204609B030BD00BF8E
:102B2800892C0008F80B00205007002040230020C3
:102B3800D12F0008BFAF01082DE9F047DFF8588012
:102B4800044607464FF0010914B93846BDE8F08736
:102B580094FAA4F5B5FA85F509FA05F32E0108EB00
:102B680005156FEA030A24EA03042B7B002BEBD03C
:102B780058F806301B694BB9464404227368284646
:102B8800196807EA0A0712F053F9DDE7284698475B
:102B98000028D9D1F0E700BF889901082DE9F0474E
:102BA800DFF8BC902F4CA9EB04038F2B80460F460F
:102BB8000BD92D492D4A2E484FF4A67311F0B9FDB3
:102BC8004FF4A671294811F0ABFD2A4812F008F914
:102BD800064678B300252846BDE8F087237B83B1F5
:102BE8002368DB680BB120469847636883F806A022
:102BF80023681B69B3B9636804221968204612F078
:102C080017F9013610344C4518D91B49174A18488A
:102C18004FF4AC7311F08DFD184811F08AFD4FF494
:102C2800AC71CFE7204698470028E4D00AFA06F3AB
:102C38001D43E6E705464FF0010AE4E7CED3B8F1B5
:102C4800000FC8D0002DC5D02846FFF775FF0546F0
:102C5800002FF7D0002164200FF060F8F2E700BFE2
:102C68009899010888990108F4AF0108C7AF0108CD
:102C780003AA0108240F002024B0010845B0010868
:102C880001480DF00DBC00BF04070020014B53F8AC
:102C9800200070479C9C010808B5034608462BB1E4
:102CA800044A136000F0D0FD002008BD6FF0150045
:102CB800FBE700BF6C03002010B5044C237813B960
:102CC80003480DF0EDFB0123237010BD2E220020D8
:102CD8000407002010B504460B4812F081F85CB1D7
:102CE800BFF35B8F094B53E8001F013943E800121B
:102CF800002AF8D1BFF35B8F054815F052FF05484D
:102D0800BDE810400DF0CCBB1C0F0020200F0020A8
:102D1800F80B0020040700200020064BBFF35B8F50
:102D2800014653E8000F43E80012002AF9D1BFF327
:102D38005B8F70471C0F002070B5FFF7EDFF104C3C
:102D4800104E0546B44219D90F49104A10484FF49D
:102D5800037311F0EEFC0F4811F0EBFC0B484FF435
:102D6800037111F0DDFC63685B792BB123685B6844
:102D780013B12946204698471034E3E7F3D370BDD2
:102D8800889901089899010824B00108C7AF01087B
:102D980003AA010845B0010810B5044C04492046AF
:102DA800FEF7C0FF034B1C6010BD00BF44060020A7
:102DB800889C0108100F0020154A1648002310B5FA
:102DC8001370154A1360154A4FF47A711360FFF7B0
:102DD80063FFFFF7E1FF124B124918468B4215D9E2
:102DE8001149124A124840F2271311F0A2FC114867
:102DF80011F09FFC0D4840F2271111F091FC1A1AAE
:102E08005C681211013222711033E7E7F7D310BD65
:102E18002F220020034E01081C0F0020200F002045
:102E2800889901089899010824B00108C7AF0108DA
:102E380003AA010845B00108014600220148002301
:102E4800FEF7A2BF440600200148FFF7B9B800BF4B
:102E580044060020024B01461868FFF745B900BF39
:102E6800100F00200148FFF7B1B900BF4406002049
:102E780070B52E4B1878002856D0FFF7E5FF0546A9
:102E880000283DD12A4B2B4C1B68002B12DD15F076
:102E980034FE0A220023FDF751FED4E90032C01A9D
:102EA80040F2E93361EB0201984271F1000101D36C
:102EB800FFF742FFD4E9003213F57A7342F10002BA
:102EC800C4E90032BDE87040FFF7CCBF63685B79A6
:102ED80023B1236829461B68204698471034B4421A
:102EE80011D91549154A16484FF4007311F021FC01
:102EF800144811F01EFC11484FF4007111F010FC39
:102F0800114C124EEBE7E1D32846FFF7A3FFBFF3BE
:102F18005B8F0F4B53E8001F013943E80012002A6A
:102F2800F8D1BFF35B8FADE770BD00BF2E22002044
:102F38001C0F0020F00B002024B00108C7AF0108C7
:102F480003AA010845B00108889901089899010861
:102F5800200F002070B5154D297829BB0120FFF7F7
:102F68001DFE134C134EB44217D91349134A144883
:102F780040F2C51311F0DDFB124811F0DAFB0F48DF
:102F880040F2C51111F0CCFB63685B791BB1236873
:102F980020469B6898471034E5E7F5D3FFF768FFAC
:102FA8000028FBD101232B7070BD00BF2F22002009
:102FB800889901089899010824B00108C7AF010849
:102FC80003AA010845B001082DE9F047384B394FED
:102FD800FB1A1B090AD13849384A394840F2A93343
:102FE80011F0A7FB40F2A931344819E00021084646
:102FF800FFF7D4FD0446A8B14FF4FA784FF0000962
:10300800304B1B789BB93049304A2D4840F2463343
:1030180011F08FFB2E4811F08CFB2C4840F2463102
:1030280011F07EFB4FF0FF384FF0FF39E8E716F05C
:1030380077F8284B284A1B58136033B1274B1B6875
:10304800092B02DD26480DF02BFADFF894A00025A5
:1030580044B12046FFF770FD044618B94FF0FF3819
:103068004FF0FF39FFF704FF064628B935B9424645
:103078004B4650460DF098FA3546E9E70C4D08E006
:10308800F5D22B689B691BB1002211462846984748
:103098001035BD42F4D91349084A094840F29D3316
:1030A80011F047FB104811F044FB40F29D319BE7BB
:1030B800889901089899010864B00108C7AF010808
:1030C80003AA01083E23002043AD010818AD0108FA
:1030D80056AD010808000000180F0020200F00203E
:1030E8000407002024B0010845B0010813B52C4896
:1030F80011F076FE2B4B1B78002B35D0EFF31184A3
:10310800102383F31288BFF36F8F27480FF01AF943
:1031180068B9264A26492748882311F00AFB22491C
:10312800254811F006FB8821204811F0F9FA1E48BD
:103138000FF02CF9FFF79CFE1B480FF011F968B946
:103148001A4A1E491B484FF49A7311F0F2FA1649AD
:103158001B4811F0EEFA4FF49A71E5E784F31188F1
:10316800BFF36F8F02B010BD164B1B68002BF9D050
:1031780050B900220023CDE90023134842F210720F
:1031880000230FF033FCEDE70928EBD10E4815F0CA
:1031980008FD0E4802B0BDE810400DF081B900BF2F
:1031A800200F00202F220020140F0020A7AD0108B7
:1031B800D4AD010803AA0108E9AD0108FFAD010873
:1031C80016AE0108180F0020F80B00200407002095
:1031D80010B5064B1B68044698472146A060044872
:1031E800FEF796FEBDE81040FFF780BF6C03002095
:1031F80044060020044A054B9B1AB1EBD30F34BF99
:1032080052F8310000207047509801088899010849
:103218002DE9F04F8FB004AFC1F34A28B8600D46CE
:1032280091467B600C0DB8F1000F68D0002607F1BD
:1032380014034FF0040B4FF00A0AC7F80C80C7E9D3
:1032480007667E620193CDF808B0CDF800A007F1BB
:103258001C03F96832464846FEF7EEFAB0F5006FEF
:1032680003461CD36C468AB0D9F8041004AB2C482A
:10327800C3E9050140F2FF71D9611A464FF40071A4
:103288001984284B42F8103F274833464FF412510F
:10329800FFF7BEFFA5462C37BD46BDE8F08FC0F34B
:1032A8000A0804F11700184420F0070080083B6062
:1032B800FFF7C2FD68F35325044640B33B681B4A39
:1032C800C7E9083600F1100107F11403F961CDE9E7
:1032D80000A3CDF808B0F96807F11C034846FEF7CB
:1032E800ABFA002813DA12491248134A4FF4A373B1
:1032F80011F01FFA10484FF4A37111F011FA04F1FC
:10330800170020F007008008FFF796FD044668F3D1
:1033180053257B68B9682A46204611F0A9FDBAE70B
:103328008DB0010804000001D09801084B4E010837
:10333800F9B0010803AA0108CCB001082DE9F04F43
:1033480087B0DDE91279DDE9106A044603919346F6
:10335800984627B3CDF800903B46524610210020EE
:10336800CDF81490FEF74CF8051E0BDA2649274ACB
:10337800274840F2651311F0DCF940F26511234843
:1033880011F0CEF9B5F5006F0ADB224A224840F267
:10339800FF73022107B0BDE8F04F11F0C2BD3D46F2
:1033A80006F11700284420F0070004F007048008FD
:1033B800FFF742FD0BF0070BE40044EA8B1444EAE4
:1033C800452444EA06540646A0B19FB1CDF80090C2
:1033D8003B46524629461030FEF712F8002809DA13
:1033E80009490A4A0A484FF4C47311F0A2F94FF484
:1033F800C471C4E7039943462246304607B0BDE886
:10340800F04F11F035BD00BFF8B00108CCB001088D
:1034180003AA010802B10108D0980108406820B148
:10342800034BC01A40F3CF0070474FF0FF3070478E
:10343800509801080EB403B503AB014653F8042BAA
:103448000448019301F0EAFA02B05DF804EB03B016
:10345800704700BF7D340008CA0605D48B064CBFF0
:1034680002490349FFF7E6BF704700BF1DDE0108A8
:103478003AB1010838B54B681A68CB689A420546D4
:103488000C4602D1084611F070FD6368BFF35B8FEC
:1034980053E8002F511C43E800100028F8D1BFF36F
:1034A8005B8FA3689D5463681A68E3689A4209D9D8
:1034B80005490648064A722311F03BF9044872216F
:1034C80011F02EF9002038BD6CB1010803AA0108DB
:1034D8003DB101082DE9F04F89B09B46149B069336
:1034E8009DF84CA0159B0593169B179E04930446C4
:1034F8000D469046BAF1000F00F0AD80BAF1040F06
:103508000BD9A349A34AA44840F24D2311F011F95D
:1035180040F24D219F4811F003F906F48073079398
:1035280011F084FC06F00209024600283FD09B49AE
:103538002046FFF77FFF0746B9F1000F08D016F0C5
:10354800440F36D196492A462046FFF773FF0744B1
:1035580006F0010353B1934B934953F82A20934B38
:103568002046002A08BF1A46FFF764FF06F4807356
:10357800002B4AD006F00803002B64D1B8F1000FE5
:1035880067D08B4942462046FFF754FF0546069B05
:103598003D44002B6ED1049B002B40F08380F30741
:1035A80000F1F08031462046FFF756FFE4E0074679
:1035B800C2E7804B18680028C9D07F4B4FF47A794E
:1035C8001B68B5FBF3F54FF46163B5FBF0F100FB45
:1035D800115509FB05F54FF03C0CB1FBF3F203FB69
:1035E8001211B5FBF0FEB1FBFCF300FB1E550CFB02
:1035F800131109FB05F50091B5FBF0F56F49CDE90D
:1036080001E52046FFF716FFA1E706F00803EBB136
:103618006B4B6C4953F82A202046FFF70BFF0546F1
:10362800B8F1000F05D0624942462046FFF702FF75
:103638000544BBF1000FAAD063495A462046FFF75C
:10364800F9FE0544A3E74FF0000BE1E706F0080593
:10365800E6E745469BE7BBF1010F069B06D1DBB9C0
:10366800049B002B00F0888000251BE0002BF7D07E
:10367800564812E05648069B5649224610F0E9FF84
:1036880000280CDA5449434A434840F2A72311F072
:1036980050F840F2A7213DE74D485546EBE7049B1B
:1036A800002B65D0DFF83481DFF83491049F314670
:1036B800102F204628BF1027FFF7CEFE4FF0000B33
:1036C8005D4542DC059B49461A782046FFF7B2FE65
:1036D8004FF0010B1BF0070F03D141462046FFF7BF
:1036E800A9FE5F4538D9059B494613F80B202046AB
:1036F800FFF7A0FE0BF1010BBBF1100FEAD139491E
:1037080020464FF0000BFFF795FE5A46059B9A5C42
:10371800A2F120015F2928BF2E2233492046FFF756
:1037280089FE0BF1010BBBF1100F1AD01BF0070F2C
:1037380003D141462046FFF77DFE5F455A46E5D84E
:1037480041462046FFF776FEEBE741462046FFF765
:1037580071FE0BF1010BB3E724492046FFF76AFE1F
:10376800C8E7059B3B440593049BDB1B04939DD151
:10377800BAF1000F7FF413AF204609B0BDE8F04F4F
:1037880011F0F3BB094A08492046FFF753FE09E741
:10379800A1B101083DB1010803AA0108ACB10108B3
:1037A800B0B10108AC9C010856BB01089CB10108E6
:1037B800D5B101082C0F0020280F0020B9B101084D
:1037C800C09C0108D9B10108DFB101088D4F01087B
:1037D8007D340008254A0008E4B10108F5B1010864
:1037E800EDB10108F7B10108F9B10108F3B1010819
:1037F80073B542F20F738B4228BF0B4605680F4A18
:103808000446052168460FF07DFD63680C495B6836
:1038180006460B22284611F09AFB63683246694631
:1038280028465B6811F093FB636806495B681B22B6
:10383800284611F08CFB02B070BD00BF9ACF01087A
:1038480018B20108FCB10108074A0021012390427F
:1038580006D8064A01B901231360054B1860704762
:1038680040085B000121F2E740420F00280F0020CA
:103878002C0F0020F8B5074F0D4604464618B442F1
:1038880001D12846F8BD14F8011BBB680148DB6963
:103898009847F4E77093010810B543681C68094815
:1038A80015F023F848B908490848094A992310F03F
:1038B80040FF0748992110F033FF23685B685C607C
:1038C80010BD00BF7093010882B2010803AA010865
:1038D80044B20108014B036000207047089D0108AD
:1038E80070B5104B1C680D46B4B10F4B1968002316
:1038F8008B4202DB6FF0010070BD224612F8106B9C
:10390800864202D001331446F2E7E06814F0EDFF76
:1039180028B12C600020EFE76FF00C00ECE76FF0A7
:103928001200E9E778030020089D010810B588B067
:10393800436802938368C068CDE903320A680023AC
:10394800CDE906230C4601AA0449059313F0ECFEC1
:10395800079808B9059B236008B010BD7B50010883
:103968002DE9F0410C4B1C6805460E4617467CB104
:1039780000F004F963682046D3F8108032463B46CD
:103988002946C047044600F003F92046BDE8F08107
:103998006FF00104F9E700BF5C0F0020002303600B
:1039A800044B5A6812B9C3E90000704710605860A8
:1039B800704700BF600F0020014B1860704700BFC0
:1039C8005C0F00201FB5CDE90101039200F0D6F885
:1039D800074B1C6824B900F0DBF8204604B010BD82
:1039E800636820461B6801A998472468F2E700BF6E
:1039F800600F0020024B0022C3E90022704700BF7D
:103A0800600F0020024B0022C3E90022FFF7F2BF3B
:103A1800680F00202DE9F74307460C4609B100233B
:103A28000B60264DDFF8989000264D4524D925498E
:103A3800254A26489D2310F07CFE254810F079FE83
:103A480021489D2110F06CFED5F8008001AA41465E
:103A5800384611F049FB50B116B954B92E4606E064
:103A680031680022404611F03FFB0028F5D1183597
:103A7800DBE7019B2360F1E7E6D3164B1D68C5B170
:103A880055F8188C01AA41463846183D11F02CFB10
:103A980050B116B954B92E4606E0316800224046A6
:103AA80011F022FB0028F5D1AD69E8E7019B2360FE
:103AB800F1E7304603B0BDE8F08300BF98990108EC
:103AC80098990108FFB20108CDB2010803AA0108BC
:103AD80045B00108680F00202DE9F04784B002AF17
:103AE8000446D7F8289078600D4616469846B9F1EE
:103AF800000F07D0D9F8001031BBD9F804A0BAF1EB
:103B0800000F28D1391D2046FFF784FF08B3D0F8ED
:103B18000C907868434632462946C847C8B16D4676
:103B28008AB002AA124BD061C2E905344FF400737F
:103B38001384104B42F8103F0F4800234FF41151E3
:103B4800FFF766FBAD4604E03A1D11F0CDFA0028F8
:103B5800D3D1002007E0D9F80830009378684346AD
:103B680032462946D0470837BD46BDE8F08700BF32
:103B780027B30108040000012099010803484FF009
:103B8800FF324FF0FF330CF0CBBA00BFF006002035
:103B980001480CF095BB00BFF006002038B5094D70
:103BA800FFF7ECFF2B783BB9FFF72CFF00F06AF822
:103BB800044610B901232B700024FFF7E9FF2046C3
:103BC80038BD00BF312200202DE9F047048FDFF80F
:103BD800B0A0013498B006468946A4B200F108079F
:103BE800651EADB2B5F5004F47D04A2305AA294650
:103BF800384611F0DCF804F57F543F34A4B280460F
:103C0800214601230DF10B02384611F0D0F8B8F126
:103C1800000F014610DC002810DC338FAB4209D1BD
:103C280032466B1E22F8383F4FF4004102233846D3
:103C3800FEF716FE2C46D3E7002808DC294638464E
:103C480011F0B1F82146384611F0ADF8E5E708F172
:103C580060030DEB0308002308F84C3C5246CDF8EE
:103C6800009003AB05A80397ADF81040FFF734FFA9
:103C78000028DFD018B0BDE8F0870020FAE700BFC1
:103C88003D5101087FB50123694603200193FFF7E1
:103C980027FE044660BB02AA01A9032011F00BFA13
:103CA800044610B110F10C0F22D10399B1F5803FF1
:103CB80023D2009A002394681846084484421AD3F1
:103CC8000133082BF9D10E4D69612B835368AB6022
:103CD8002846D368EB6311F0C5FA044640B9094E8B
:103CE8006E602846FFF75AFE28466E60FFF764FEAE
:103CF800204604B070BD9BB2E5E76FF02004F7E7FB
:103D0800700F00207C03002008B50348034A0021F7
:103D1800121A11F0DCFA08BD5007002040230020D9
:103D28000748084A084908B5121A11F0D2FA074894
:103D3800074A0849BDE80840121A11F0CABA00BF7C
:103D4800000000204C07002010E7010800000020B8
:103D58000000002010E701082DE9F047064600AFF3
:103D68000C46002936D0E9468AB0D1E90012A3688A
:103D78006D462148A8464FF0050AC5E90501C5E981
:103D8800072348F810AF1D48424600234FF421513D
:103D9800FFF73EFACD46D4E903126369AD461848E9
:103DA800C5F810A0C5E90501C5E907231348002394
:103DB80042464FF42151FFF72BFACD46E369114AE9
:103DC8000E48012111F0ADF8A3690F4A0B480121F3
:103DD80011F0A7F8012E07D1EFF305830B4A074826
:103DE800103B314611F09DF8214630460BF08AFF12
:103DF800BD46BDE8F08700BF5BB30108189901080C
:103E08008AB30108B9B30108C8B30108F6B30108B9
:103E180030BFFFF7FDBF00BF2DE9F0410B4EDFF8C3
:103E2800308006EB0807CC1B054632460949204678
:103E380014F04AFFA01942460021083C14F052FF32
:103E4800C5F8944007F10800BDE8F08100000000C3
:103E58000400000098990108054B5A699B689A422A
:103E68001FBF044A536843F080535360704700BF34
:103E7800D421002000ED00E070B5244C06460D4624
:103E88002348244911F032FAA36AD9043CD52048C2
:103E9800214911F02BFA1720A36A1A0504D51C48EA
:103EA8001E4911F023FA1820184CA36A9B0512D555
:103EB8001B49174811F01AFAA36BA26A110409D515
:103EC800184A1348012111F02CF81EB1A36A23F4F3
:103ED8000043A36219200D4CA36A5A0504D50C4867
:103EE800114911F003FA1A20A36ADB0504D5084822
:103EF8000E4911F0FBF91B20044A936A43F47F43EF
:103F0800936200232B7070BD1620C5E700ED00E01A
:103F18001899010809B401081FB4010830B4010850
:103F280043B401085CB4010871B401088CB40108F9
:103F380010B5204C2049214811F0D8F9A36A9901FD
:103F480036D51E481E4911F0D1F91E20A36ADA01A0
:103F580004D51A481B4911F0C9F91F20154CA36A4A
:103F68001B0304D51548184911F0C0F92120A36A8C
:103F7800590304D51148154911F0B8F922200D4C00
:103F8800A36A9A0304D50D48114911F0AFF923200B
:103F9800A36ADB0304D509480E4911F0A7F92420C8
:103FA800044A936A6FEA03436FEA1343936210BDAE
:103FB8001D20CBE700ED00E0A4B401081899010822
:103FC800BCB40108CFB40108E9B4010807B5010879
:103FD8002CB5010846B501082DE9F843384D80464F
:103FE800894638483849174611F080F9AB6ADC062B
:103FF80027D53649334811F079F91124AB6A1807E7
:1040080004D533492F4811F071F912242C4DAB6AAD
:10401800990718D52F492B4811F068F96E6BAB6AD0
:104028001A0637D52C4A27483346012110F079FF64
:10403800B9F1000F03D0AB6A23F08003AB621324FD
:1040480003E01024DAE76FF015061D4DAB6ADB07B5
:1040580004D522491B4811F049F91424AB6AD80643
:1040680002D4AB6A99070BD5154D6B681A0507D5AD
:104078004146304600F070FA78B180F3098802248E
:104088000F4A936A43F0FF03936200233B70204674
:10409800BDE8F8836FF01506D1E7AB6ADB06EFD50C
:1040A8000F49104A104840F2271310F042FB0F48FE
:1040B80010F03FFB0B4840F2271110F031FB00BF16
:1040C80000ED00E01899010871B5010887B50108ED
:1040D80030B40108BAB50108D2B50108E8B501083D
:1040E80039B6010807B6010803AA010883B6010812
:1040F800F0B5794B8BB00446586800AFC0F308039D
:10410800002686F31188BFF36F8F02F07F45B5F163
:104118007F4F07D102F00C05082D12D16F49704866
:1041280011F0E4F86F49704A704840F2144310F0F7
:1041380000FB6F4810F0FDFA40F214416A4810F095
:10414800EFFA15074CBF0C460126002CEAD00022D6
:10415800FA71DA1E092A00F29E80DFE802F005945F
:1041680097779C9C9C9C9C9A62495D485A4D11F09B
:10417800BDF80023FB71EB6A9A0705D55E495848DC
:1041880011F0B4F8002329E0EB6A002B01DA5B494F
:10419800F5E7EB6A5B0069D55949514811F0A6F873
:1041A8006B69A26943F480736B61BFF34F8FBFF3F0
:1041B8006F8F6B6932F8022C23F480736B61BFF345
:1041C8004F8FBFF36F8F4DF602739A4227D1236842
:1041D8004C4A4348012110F0A4FE2368FA79DAB961
:1041E80007F1080504F1200C206861682A4603C21B
:1041F800083464451546F7D17A6A002E67D0C2F3B1
:10420800080121B96FEA52226FEA42227A6207F165
:1042180008011846FFF7A0FD2C37BD46F0BDAB6A74
:10422800DBB233B1FA1D01212046FFF7D5FE034664
:10423800D4E7AB6A13F47F4F04D0F91D0120FFF7D0
:104248001BFEF4E7AB6AB3F5803F02D3FFF770FEBD
:10425800EDE72D49244A254840F2ED2310F069FA8C
:104268002A4810F066FA40F2ED2167E726491E4A0F
:104278001E484FF43C7310F05CFA254810F059FAC8
:104288004FF43C715AE7FA1D0021CDE7F91D0020D3
:10429800D5E7204973E7204A204910F4F87F6D4696
:1042A8008AB018BF11466A46103BD3611C484FF4C8
:1042B800007313841B4BC2E9050142F8103F0848FC
:1042C80000234FF41151FEF7A3FFAD465AE722F43D
:1042D800FF7222F0010299E700ED00E0D4B6010870
:1042E80018990108FFB6010807B6010803AA0108D2
:1042F80012B7010850B7010867B7010888B7010865
:1043080096B70108B5B701085DDB0108D1B7010808
:10431800F5B7010825B80108BBB60108A6B601081B
:1043280049B8010804000001044B5A6942F0100220
:104338005A615A6922F008025A61704700ED00E09C
:10434800EFF30880EFF3098101B57246FFF7D0FE5D
:1043580001BD00BF0A4880F30888102080F3118847
:1043680008484FF40461401880F30988EFF314807B
:104378000221084380F31488BFF36F8F10F0BEFF4B
:10438800003D0020802B0020084B9B6883420BD106
:10439800EFF3058343B1064B5A6842F080525A60E6
:1043A8005A6A22F400425A620DF050BDD42100200E
:1043B80000ED00E015498A684FF030001044EFF333
:1043C800098C80E8F01F102080F31288BFF36F8FEC
:1043D8000F4F4FF000664A698A603E60D2F8940039
:1043E8000C4C2060D2F898000023C2F8983080F373
:1043F800118804B5104600F017F9BDE8044002F131
:10440800300090E8F01F8CF309887047D421002011
:1044180004ED00E0B00F00201EF0040F0CBFEFF316
:104428000880EFF30980816911F8021C0229FFD086
:1044380001B5724610F04FFF01BD00BF40B2002821
:1044480007DB044A4109012300F01F00834042F8BA
:104458002130704700E100E040B200280CDB43093E
:10446800064900F01F0020330122824041F8232032
:10447800BFF34F8FBFF36F8F704700BF00E100E0BD
:10448800054B420900F01F0053F82220012303FACC
:1044980000F01040704700BF00E100E038B54B1C49
:1044A8000F2B04460D460FD9114A124912486B23A7
:1044B80010F03FF9114829460F23224610F039F928
:1044C8000B486B2110F02CF940B20028ACBF00F16A
:1044D80060400B4A4FEA0313B8BF00F00F00DBB28D
:1044E800AABF00F56140135480F8003338BD00BFFF
:1044F8005CB8010893B8010803AA0108AEB801081E
:1045080014ED00E0044B054A23F07F039360BFF3EA
:104518004F8FBFF36F8F70470000000800ED00E079
:1045280042F8203C009B42F81C3C0A49019B42F897
:10453800183C029B42F8143C21F001014FF08073B3
:1045480042F8043C42F8081C0023203A0265C0F8EF
:1045580098307047C11C00080A4A0346906878B131
:1045680013F1160FD0F8840005D0A0F140029A424A
:1045780005D8834203D2814228BF0020704700201B
:10458800704700BFD421002008B515460C4A0D4BD2
:104598009060D0F894201A600E4600F045F82C463A
:1045A80086F309880020044B984720460021002202
:1045B8000023024C2047000021530108C11C0008B9
:1045C800D4210020B00F0020014B10221A6170473F
:1045D80000ED00E0044800231021C21801333E2BEF
:1045E80082F80013F9D1704700E100E008B5EFF355
:1045F8000583064A103B02EBC30152F833004968B1
:104608008847BDE80840FFF727BC00BFA49401080D
:10461800024B034A0348012100F08CB80000012036
:10462800000000204C9D0108D0F88420054B403A3A
:104638001A60054A4021C3E901121846012100F019
:104648009FB800BFB40F002000000B1508B5034643
:104658001048D0F89020C2F30722013A934207D9B4
:104668000D480E4A012110F05CFC6FF0150008BDE2
:10467800C0F898300A6822F01F021A4342F010026C
:10468800C0F89C208A6842F00102C0F8A0201846B1
:10469800EDE700BF00ED00E010990108F2B801084D
:1046A800F0B50E4685B01F4604460025B5420DDA22
:1046B800606810B397B1431E18420AD0104A1148D7
:1046C8002B46012110F02DFC6FF01502104605B0A5
:1046D800F0BD1F28F2D921680B42EFD1236801935E
:1046E80010F02EFEA36801A90343D0B20393FFF78D
:1046F800ADFF10F1160FE7D0421C01350C34D5E799
:1047080018B9010810990108044B0522C3F8942030
:10471800BFF34F8FBFF36F8F704700BF00ED00E00E
:10472800BFF35F8F024B0022C3F89420704700BF8D
:1047380000ED00E038B50D4D01232A780C46FFF74F
:10474800AFFF287016300FD1094A0A490A4840F2CB
:1047580083130FF0EEFF094821460FF0EAFF0448E3
:1047680040F283110FF0DCFF38BD00BF3222002079
:104778003BB901085DDB010803AA01086AB9010811
:1047880010B5144A002312780C46FFF789FF10F180
:10479800160F08D0104A0021D2F89030C3F307232F
:1047A800984210DB10BD0D4A0D490E484FF4D173E5
:1047B8000FF0BFFF0C4821460FF0BBFF07484FF42E
:1047C800D1710FF0ADFFC2F89800C2F8A010013007
:1047D800E2E700BF3222002000ED00E03BB901080B
:1047E8005DDB010803AA010896B901082DE9F04F1D
:1047F8007B4C7C49D4F890300D68C3F307239D4265
:1048080085B013D9784A794979484FF4FE730FF087
:1048180090FFD4F8902077482946C2F307220FF07A
:1048280088FF4FF4FE7170480FF07AFFFFF778FFAA
:1048380049680022954201F10C012DD16E4C6F4F51
:1048480025706846FFF746F8DFF8B481DFF8B491C1
:1048580006460025AE4232D1237861490020D1F8BE
:104868009020C2F307229342C0F2AF80FFF74CFFBB
:10487800D1F89030C3F30723082B00F0AC806249CD
:10488800594A5B4840F26E230FF053FF5F480FF020
:1048980050FF40F26E21C6E7C4F8982051F80C3C4E
:1048A80023F01F03134343F01003C4F89C3051F85E
:1048B800043C43F00103C4F8A0300132BAE7009A7F
:1048C80002EB05132901D3F80CA00AEA0700B0F59A
:1048D800000F60D00AD8B0F5001F38D0B0F5800FAF
:1048E8004ED0B0F5801F12D00135B3E7B0F1807F0C
:1048F8005CD0B0F1007FF7D19868D3F804A0525883
:1049080010F01EFDCDE901A240F480200BE098686C
:10491800D3F804A0525810F013FDCDE901A240F0DD
:10492800885040F430200390207801A9FFF78EFECC
:10493800002846DA2D492C4A2D4840F226230FF04C
:10494800F8FE33480FF0F5FE40F226216BE7986831
:10495800D3F804B0525810F0F3FC1AF0010F40EAF3
:104968000800CDE901B20390DED02A491E4A20484A
:1049780083230FF0DEFE28480FF0DBFE832152E789
:104988009868D3F804A0525810F0DAFCCDE901A2D7
:1049980040EA0900C7E79868D3F804A0525810F015
:1049A800CFFCCDE901A240F08270BCE79868D3F84B
:1049B80004A0525810F0C4FCCDE901A240F0887060
:1049C800B1E72378013323708EE7C1F89830C1F836
:1049D800A000013343E7002005B0BDE8F08F00BF19
:1049E80000ED00E0589D01083BB901085DDB0108B6
:1049F80003AA0108C3B90108322200200000F0FF11
:104A0800000008110000020276BA0108C6BA0108BF
:104A18004CBA0108F7B901081DBA0108F0B587B00A
:104A280007460E4614460021102268461D4614F01B
:104A380059F902238DF802302A46054B0193214685
:104A48006846CDE904760EF023FD07B0F0BD00BF3F
:104A58006953010808B5024B1B689847002008BD38
:104A6800C00F0020034B044A1860937843F00203F8
:104A780093707047C00F00209803002008B50649BE
:104A8800064821F00701C1F1005202F58032FCF717
:104A980029FC002008BD00BF87450020C40F002066
:104AA800024B1B6803B11847FF207047D80F00203E
:104AB8000A4B0B4A0020C3E900000A4B1A600A4A55
:104AC8005A600A4A9A600A4ADA600A4B0A4AC3E9F3
:104AD80000200A4A9A600A4ADA607047FC0F0020F0
:104AE800414C0008EC0F00206D4B0008A54C000855
:104AF8007F530108DC0F0020A94A00084953000829
:104B08008153010830B50E4C8BB02D2305466846FD
:104B18008DF8003004F054F99DF90430227893425E
:104B280000D15DB1D8B2074B20701B6803B198471C
:104B38002378054A0548032110F0F3F90BB030BD7E
:104B480035220020D40F0020F6BA0108E8980108A1
:104B5800034BBFF35B8F1868BFF35B8F704700BFD1
:104B6800041000202DE9F04383B0427802AF0446D8
:104B7800C2B1104600F020FB6C4688B002AA294B4F
:104B8800C2E905304FF400739383274B42F8103F76
:104B980026484FF4E25110F0F1FBA5460437BD4614
:104BA800BDE8F083FFF7D4FFC00702D51046FFF732
:104BB800A9FFFFF7CDFF81070ED4237F63B1BFF3B1
:104BC8005B8F1B4B53E8001F41F0020143E80012C2
:104BD800002AF7D1BFF35B8F6179237F4A1E5142C8
:104BE800514141EA4301134B1D685FFA81F8002DDA
:104BF800D4D0083D4FF6FF792B88E0784B4501D09B
:104C080083420AD1A16894F91030B4F90E200191B9
:104C1800217B00916E684146B047AD68002DBDD03C
:104C2800083DE9E70EBB010803000001E898010808
:104C380004100020FC0F0020B0B50446407800AFF7
:104C480098B100F0B9FA6D4688B06A460E4BC2E9D1
:104C580005304FF4007393830C4B42F8103F0C4817
:104C68004FF4E25110F08AFBAD46FFF771FFC3071E
:104C780002D50020FFF746FF064B62781A700648F7
:104C88000BF00EFCBD46B0BD29BB010803000001B6
:104C9800E8980108342200201C070020B0B58AB02B
:104CA8000446407800AFE0B100F086FA6D4688B05F
:104CB8006A461C4BC2E905304FF4007393831A4BC4
:104CC80042F8103F19484FF4E25110F057FBAD4637
:104CD800174B62781A7017480BF0E2FB2837BD466D
:104CE800B0BD2378052B0FD0092B19D0012BEFD19C
:104CF800072338463B7004F063F87B680E4A0B487C
:104D0800032110F00EF9E3E70C4B1B6813B1617A2D
:104D1800207A98470A4A0548032110F0F9F8D7E79E
:104D2800084AF8E741BB010803000001E8980108B8
:104D3800332200203407002059BB0108D00F00207F
:104D480077BB010887BB0108052808B5034606D1CB
:104D5800074A084B107001221A70002008BD064847
:104D6800064A012110F0DDF86FF08500F6E700BF74
:104D7800EF050020EE050020E898010897BB010820
:104D8800F0B59BB0044600AF4FF0FF324FF0FF3351
:104D980065480BF0C5F901261D2307F118003B767D
:104DA8003E7704F025F9257D002D5CD15F4B3E71DF
:104DB8001B787B7202233B7287F8403023697B643F
:104DC80007F1400004F014F9032387F84030236802
:104DD8007B6407F1400004F00BF9092387F84030A1
:104DE80063687B6407F1400004F002F9082387F840
:104DF8004030A3687B6407F1400004F0F9F8381DDF
:104E080004F01AFC044600B300F0CAF96D4688B0F5
:104E18006A46474BC2E905304FF400739383454B0C
:104E2800454842F8103F4FF4E25110F0A7FA2046E7
:104E3800AD4600F0CDF9044600285DD03A480BF0A5
:104E48003FFA20466C37BD46F0BD4FF0FF333B4874
:104E58004FF0FF320BF0A8FB394B187800284BD0E5
:104E680000F0C8F9E7E7012D5AD1352387F840301B
:104E7800344B7B6407F1400004F0BAF8062387F846
:104E8800403000237B6407F1400004F0B1F80723A9
:104E980087F8403023687B6407F1400004F0A8F8E5
:104EA8000C2387F84030A3687B6407F1400004F0C6
:104EB8009FF80D2387F84030A3687B6407F1400012
:104EC80004F096F80E2387F84030A3687B6407F156
:104ED800400004F08DF80F2387F8403063687B6446
:104EE80007F1400004F084F887F8405087F84450F0
:104EF80007F1400004F07CF8FFF72AFEC3070AD444
:104F08002D2387F84030094B1B7887F8443007F188
:104F1800400004F06DF80120FFF7F4FD00248DE750
:104F28006FF015048AE700BFC8060020362200206B
:104F3800B1BB010803000001E8980108340700200C
:104F4800332200200003000100B58BB00246FFF7B2
:104F5800FFFD00F00100824219D0BFF35B8F124BB6
:104F6800C2B153E8001F41F0010143E80012002AD2
:104F7800F7D1BFF35B8F05238DF80030FFF7E8FD0D
:104F880000F001008DF80400684604F031F80BB019
:104F98005DF804FB53E8001F21F0010143E800120B
:104FA800002AE6D0F6E700BF041000202DE9F04102
:104FB80086B0804600AF15461C460E4609B9002A41
:104FC8006BD137484FF0FF324FF0FF330BF0A8F8A2
:104FD8003946284603F092FE00283ED000F0E0F85B
:104FE8006C4688B06A462F4BC2E905304FF400730F
:104FF80093832D4B42F8103F2C484FF4E25110F0A8
:10500800BDF90023A5463B71FB603B820125381D95
:10501800BB7405F0F3F9044668B300F0C1F86D46B7
:1050280088B06A46224BC2E905304FF40073938377
:105038001D4B42F8103F1D484FF4E25110F09EF905
:105048002046AD4600F0C4F8044615480BF038F980
:1050580020461837BD46BDE8F08154B1012C08D070
:10506800144B3D8293F9003087F80880FE600025D4
:10507800CDE73C71F4E74FF0FF330F484FF0FF32B4
:105088000BF092FA0D4B187808B100F0B3F8002D28
:10509800044618BF6FF00A04D7E76FF01504D7E786
:1050A800DC060020C6BB010803000001E8980108DF
:1050B800EBBB0108352200201C0700203422002009
:1050C80000238360054B596800F1080211B9C3E950
:1050D800002270470A605A60704700BFFC0F00202A
:1050E800014B1860704700BFD40F0020B0B5234DA6
:1050F800234924488EB02A7800AF03F035FCC0B1AC
:1051080000F04EF86C4688B06A461F4BC2E905307D
:105118004FF4007393831D4B1D4842F8103F4FF422
:10512800E25110F02BF96FF01500A5463837BD464F
:10513800B0BD10F036F900F04BF903F0D5FD044688
:1051480030B100F02DF86C4688B06A46114BDDE7A7
:10515800062307F1080128783B7211F01CFC0E4B5E
:10516800C0B218700D4B187030233B7407F1100053
:1051780014237B6103F03CFF2046D7E7EF050020AE
:10518800DC0F0020EC0F002003BC01080300000125
:10519800E898010824BC01083622002035220020A6
:1051A80017289ABF024B53F820000248704700BFE7
:1051B800589E010852BC01080F289ABF024B53F8A9
:1051C80020000248704700BF189E010862BC010811
:1051D8001628034608D8064A52F8200030B9002B92
:1051E80018BF6FF0150070476FF01500704700BFCB
:1051F800BC9D01080F28034608D8064A52F820002B
:1052080030B9002B18BF6FF0150070476FF015000C
:10521800704700BF7C9D01082DE9F04F85B000AFB5
:10522800C7E90232DFF8F8A004460D464FF000083F
:105238004FF0140909FB08F101EB0A025AF801B012
:105248007A6021465846FBF793FC7A6806460028A0
:105258004BD1D1689268BB6B95420B440DD06D461B
:1052680088B06A462F4BC2E905344FF40073938324
:105278002D4B42F8103F33460CE053BB6D4688B0C7
:105288006A462A49C2E905144FF4007191832649F8
:1052980042F8101F26484FF4E251FDF7B9FFAD461A
:1052A8006C4688B06A46234BC2E9053B4FF400734D
:1052B80093831D4B42F8103F1D4800234FF4E251E1
:1052C800FDF7A6FF6FF01500A5461437BD46BDE8EB
:1052D800F08F19462A46D7E90203984785421CD021
:1052E8006D4688B06A46144BBDE708F10108B8F16D
:1052F800070F9FD16D4688B06A46104BC2E9053446
:105308004FF400739383084B42F8103F084800237A
:105318004FF4E451FDF77CFFAD460020D5E700BF10
:10532800B89E0108EABE01080300000110BF010889
:10533800F898010855BF010832BF01086FBF01087E
:105348002DE9F0438BB0064600AF58B134233846F8
:105358003B7003F035FD044640B1184A1848012156
:105368000FF0D6FD2C37BD46BDE8F083D7F8048092
:10537800144D2B8AB3431BD1D5E9022168684144F7
:10538800FEF7EEFAA0B1E9468AB02B686A460E49E4
:10539800D061C2E905134FF4007313840B4B42F834
:1053A800103F074800234FF41151FDF731FFCD4658
:1053B8000134072C05F11405DBD1D3E78BBF0108B5
:1053C800F8980108B89E0108A5BF0108040000016B
:1053D80030B58BB0342568468DF8005003F0F0FCEA
:1053E80038B1134A134801210FF092FD6FF01504EC
:1053F8000CE0019A10491148FEF7E4FA044640B15E
:105408000F4A034601210B480FF08BFD20460BB0D5
:1054180030BD68468DF8005003F0EAFD03460028C9
:10542800F4D0084A034801210FF07BFDDEE700BFF6
:105438008BBF0108F898010821520008CABF01086B
:10544800D6BF010800C0010810B5012303FA01F115
:10545800436804691B6819420ED10E490E4A0F4869
:1054680040F2A2630FF065F90D480FF062F90A489F
:1054780040F2A2610FF054F92368194218BF82F074
:10548800010222B18368DB68BDE8104018478368D1
:105498001B69F9E703C10108D2C0010803AA010882
:1054A80041C10108024605210148FFF7CDBF00BFF1
:1054B800E4920108024604210148FFF7C5BF00BF76
:1054C800E4920108024A034802210FF021BD00BFFF
:1054D80053C101086099010810B50B4CE3691BB969
:1054E800BDE81040FFF7EEBF00209847074B1B6E42
:1054F80003B1984794F8203023B1BDE81040024822
:1055080000F0D6BC10BD00BF0810002050A0010854
:1055180070B54FF4B011466805461E4800F0FEF914
:1055280018B16FF00404204670BD1B484FF4B01149
:1055380000F0F4F90028F4D1184919480BF074FA6E
:10554800284600F0BFFC044628B1164A1648012137
:105558000FF0DEFCE7E7306813F0C7F938B9134AF3
:10556800114801210FF0D4FC6FF01204DBE7337E01
:1055780023B1F06813F0B9F90028F0D0284600F0FC
:105588005FFC051ECFDA0A4A074801210FF0C0FC6C
:105598002C46C8E76C9F0108649F0108E154000885
:1055A8001410002082C1010860990108A0C10108F7
:1055B800B5C10108014B93F820007047081000207E
:1055C80008B503461048042B80F8203011D005D8C0
:1055D800BBB10020FFF766FF00200EE0053B022B61
:1055E800F7D80020FFF766FFBDE808400120FFF765
:1055F80059BF0020FFF756FF0120BDE80840FFF71C
:1056080059BF0FF0C7FFE4E708100020014BD8612D
:10561800704700BF0810002010B5044C20460FF05A
:105628009EFF012384F8203010BD00BF0810002021
:1056380010B5054C204600F033FC00B910BD002120
:105648000A200CF06BFBF5E70810002070B58CB051
:105658000D46DDE91061CDE9063104ABCDE9040260
:10566800CDE90852009308AA02230446CDE90A614D
:10567800CDE90223019310F0B2F80F48ADB9A6B9ED
:1056880083680E491D686A463346A84700280346C2
:1056980004DA0B4A0B4801210FF043FC2378842BD2
:1056A80001D0FFF7C5FF0CB070BD836803491D68C2
:1056B800014802AB6A46E8E7FC930108489F0108E5
:1056C800D8C101086099010870B5124D86B0284606
:1056D80000F0EEFBC023ADF8043001AB02930223C7
:1056E8000393012402AB049305940B480B49836888
:1056F80004AA1E680023B047031E06DA084A0948B0
:1057080021460FF00EFC06B070BDFFF791FF85F83B
:105718002040F8E708100020FC930108489F010882
:10572800D8C101086099010801480FF031BF00BFD6
:105738000810002001480BF007BA00BFA80300209A
:10574800014B1860596070472C100020024B1A68F2
:105758005B6802600B6070472C10002008B50FF0E2
:10576800C0FE024B1B68C01A08BD00BF34100020E1
:10577800014813F016BA00BF900600200A2307B5A7
:10578800A0FB032300210020CDE9000102480DF011
:105798002DF903B05DF804FB9006002008B50FF062
:1057A800A0FE014B186008BD34100020014B18689A
:1057B800704700BF3410002010B5124CBFF35B8F48
:1057C800022354E8002F012A03D144E800310029BC
:1057D800F7D1BFF35B8F0CBF0120002010D10A4B1B
:1057E800DB6A9847002344F8403CBFF35B8F54E8DA
:1057F800002F44E800310029F9D1BFF35B8F012065
:1058080010BD00BF7C10002050A0010810B5064B49
:105818005C68FFF7D1FF30B12CB100212046BDE80C
:1058280010400DF09DBC10BD3810002013B50D4B75
:10583800D3E901433BB10C4B5B6B0193002002B0F1
:10584800BDE810401847FFF7B7FF40B13CB16FF013
:105858000401204602B0BDE810400DF081BC02B042
:1058680010BD00BF3810002050A001082DE9F347F3
:10587800284C9A46D4E9019307460D46164683B14B
:10588800254B00205B6B9847E368CDE900A32A46C7
:10589800D4F80880206833463946C04702B0BDE8CE
:1058A800F08704F144020223BFF35B8F52E8001F24
:1058B800012903D142E800300028F7D1BFF35B8FFC
:1058C8009046EBD1E36C1A78AA4288BF1D70E36C4E
:1058D800A06C1A78394613F0F7F9236D03B11E80CE
:1058E800636D0BB183F800A00B4BDB6A984700216E
:1058F8006160BFF35B8F58E8003F48E80012002A58
:10590800F9D1BFF35B8F484602B0BDE8F0470DF010
:1059180027BC00BF3810002050A00108F8B5044685
:1059280000AF00680D4612F0E0FF03462068BBB9DF
:105938006C4688B001686A466048C2E905014FF4C0
:10594800007191835E4942F8101F5E484FF4E2519E
:10595800FDF75EFC6FF01205A5462846BD46F8BD6A
:10596800E38821792B4313F0FC6FD0E9015ED0F86E
:1059780010C00ED05449554A55484FF47D730EF067
:10598800D8FE54480EF0D5FE4FF47D714F480EF006
:10599800C7FE03F03002302A0CD14F494B4A4C481D
:1059A80040F2F7330EF0C5FE4C480EF0C2FE40F24E
:1059B800F731EBE74A4A4B4E1A40B2420CD14A49FA
:1059C800424A434840F2FB330EF0B3FE47480EF01C
:1059D800B0FE40F2FB31D9E703F00602042A09D1F0
:1059E80043493A4A3A4840F2FE330EF0A2FE40F2EA
:1059F800FE31CBE713F4402216D09E030CD43D4968
:105A0800324A334840F201430EF093FE3A480EF012
:105A180090FE40F20141B9E7B2F5402F18D0374A5D
:105A28009A4301D183F440232D6801268E402E42EB
:105A380023F4801219D13249244A254840F21143EF
:105A48000EF077FE2F480EF074FE40F211419DE7EC
:105A58002D491E4A1E4840F205430EF06AFE2B48A7
:105A68000EF067FE40F2054190E7DCF80050DB07D6
:105A78004CBF3543B543CCF80050DEF800309847AA
:105A8800054600283FF469AF2368196823796C46F6
:105A98008AB06A461E48C2E907354FF400739384FA
:105AA8001C4BC2E9050142F8103F064800234FF499
:105AB8003151FDF7ADFBA5464FE700BF02C2010813
:105AC80003000001689901081BC20108D2C001083F
