:020000040800F2
:10000000804000201D5100080B67010809510008BD
:1000100009510008095100080951000800000000BA
:10002000000000000000000000000000E151000896
:1000300009510008000000007D51000881050108F9
:10004000B5530008B5530008B5530008B553000870
:10005000B5530008B5530008B5530008B553000860
:10006000B5530008B5530008B5530008B553000850
:10007000B5530008B5530008B5530008B553000840
:10008000B5530008B5530008B5530008B553000830
:10009000B5530008B5530008B5530008B553000820
:1000A000B5530008B5530008B5530008B553000810
:1000B000B5530008B5530008B5530008B553000800
:1000C000B5530008B5530008B5530008B5530008F0
:1000D000B5530008B5530008B5530008B5530008E0
:1000E000B5530008B5530008B5530008B5530008D0
:1000F000B5530008B5530008B5530008B5530008C0
:10010000B5530008B5530008B5530008B5530008AF
:10011000B5530008B5530008B5530008B55300089F
:10012000B5530008B5530008B5530008B55300088F
:08013000B5530008B5530008A7
:1001380081F0004102E000BF83F0004330B54FEA90
:1001480041044FEA430594EA050F08BF90EA020FFD
:100158001FBF54EA000C55EA020C7FEA645C7FEA90
:10016800655C00F0E2804FEA5454D4EB5555B8BFB3
:100178006D420CDD2C4480EA020281EA030382EA24
:10018800000083EA010180EA020281EA0303362DB6
:1001980088BF30BD11F0004F4FEA01314FF4801C89
:1001A8004CEA113102D0404261EB410113F0004F9B
:1001B8004FEA03334CEA133302D0524263EB430352
:1001C80094EA050F00F0A780A4F10104D5F1200EF0
:1001D8000DDB02FA0EFC22FA05F2801841F100014B
:1001E80003FA0EF2801843FA05F359410EE0A5F11F
:1001F80020050EF1200E012A03FA0EFC28BF4CF050
:10020800020C43FA05F3C01851EBE37101F0004505
:1002180007D54FF0000EDCF1000C7EEB00006EEB12
:100228000101B1F5801F1BD3B1F5001F0CD349089C
:100238005FEA30004FEA3C0C04F101044FEA4452F3
:1002480012F5800F80F09A80BCF1004F08BF5FEA7A
:10025800500C50F1000041EB045141EA050130BD5A
:100268005FEA4C0C404141EB0101013C28BFB1F56C
:10027800801FE9D291F0000F04BF01460020B1FAB7
:1002880081F308BF2033A3F10B03B3F120020CDA8A
:100298000C3208DD02F1140CC2F10C0201FA0CF068
:1002A80021FA02F10CE002F11402D8BFC2F1200CCD
:1002B80001FA02F120FA0CFCDCBF41EA0C01904083
:1002C800E41AA2BF01EB0451294330BD6FEA0404CC
:1002D8001F3C1CDA0C340EDC04F11404C4F12002B7
:1002E80020FA04F001FA02F340EA030021FA04F3C9
:1002F80045EA030130BDC4F10C04C4F1200220FA20
:1003080002F001FA04F340EA0300294630BD21FA5D
:1003180004F0294630BD94F0000F83F4801306BF23
:1003280081F480110134013D4EE77FEA645C18BF17
:100338007FEA655C29D094EA050F08BF90EA020FAE
:1003480005D054EA000C04BF1946104630BD91EAA6
:10035800030F1EBF0021002030BD5FEA545C05D1A9
:100368004000494128BF41F0004130BD14F58004E8
:100378003CBF01F5801130BD01F0004545F0FE415C
:1003880041F470014FF0000030BD7FEA645C1ABF91
:10039800194610467FEA655C1CBF0B46024650EAC8
:1003A800013406BF52EA033591EA030F41F40021F4
:1003B80030BD00BF90F0000F04BF0021704730B57A
:1003C8004FF4806404F132044FF000054FF000014F
:1003D80050E700BF90F0000F04BF0021704730B510
:1003E8004FF4806404F1320410F0004548BF4042E5
:1003F8004FF000013EE700BF42004FEAE2014FEA3A
:1004080031014FEA02701FBF12F07F4393F07F4F14
:1004180081F06051704732F07F4208BF704793F017
:100428007F4F04BF41F40021704730B54FF460742A
:1004380001F0004521F000411CE700BF50EA01022D
:1004480008BF704730B54FF000050AE050EA0102D6
:1004580008BF704730B511F0004502D5404261EB46
:1004680041014FF4806404F132045FEA915C3FF487
:10047800D8AE4FF003025FEADC0C18BF03325FEA24
:10048800DC0C18BF033202EBDC02C2F1200300FAD5
:1004980003FC20FA02F001FA03FE40EA0E0021FAFA
:1004A80002F11444BDE600BF70B54FF0FF0C4CF4E8
:1004B800E06C1CEA11541DBF1CEA135594EA0C0F9A
:1004C80095EA0C0F00F0DEF82C4481EA030621EAD5
:1004D8004C5123EA4C5350EA013518BF52EA033510
:1004E80041F4801143F4801338D0A0FB02CE4FF0C2
:1004F8000005E1FB02E506F00042E0FB03E54FF0F2
:100508000006E1FB03569CF0000F18BF4EF0010EE9
:10051800A4F1FF04B6F5007F64F5407404D25FEAE5
:100528004E0E6D4146EB060642EAC62141EA555198
:100538004FEAC52040EA5E504FEACE2EB4F1FD0CDA
:1005480088BFBCF5E06F1ED8BEF1004F08BF5FEA58
:10055800500E50F1000041EB045170BD06F000460A
:1005680046EA010140EA020081EA0301B4EB5C04B7
:10057800C2BFD4EB0C0541EA045170BD41F48011AF
:100588004FF0000E013C00F3AB8014F1360FDEBFD4
:10059800002001F0004170BDC4F10004203C35DAB0
:1005A8000C341BDC04F11404C4F1200500FA05F333
:1005B80020FA04F001FA05F240EA020001F00042D4
:1005C80021F0004110EBD37021FA04F642EB06014A
:1005D8005EEA430E08BF20EAD37070BDC4F10C0474
:1005E800C4F1200500FA04F320FA05F001FA04F238
:1005F80040EA020001F0004110EBD37041F1000124
:100608005EEA430E08BF20EAD37070BDC4F120052E
:1006180000FA05F24EEA020E20FA04F301FA05F296
:1006280043EA020321FA04F001F0004121FA04F23E
:1006380020EA020000EBD3705EEA430E08BF20EA0E
:10064800D37070BD94F0000F0FD101F00046400048
:1006580041EB010111F4801F08BF013CF7D041EACA
:10066800060195F0000F18BF704703F000465200CE
:1006780043EB030313F4801F08BF013DF7D043EA9F
:100688000603704794EA0C0F0CEA135518BF95EA55
:100698000C0F0CD050EA410618BF52EA4306D1D1DC
:1006A80081EA030101F000414FF0000070BD50EAFB
:1006B800410606BF1046194652EA430619D094EA85
:1006C8000C0F02D150EA013613D195EA0C0F05D16F
:1006D80052EA03361CBF104619460AD181EA0301C3
:1006E80001F0004141F0FE4141F470014FF000007B
:1006F80070BD41F0FE4141F4780170BD70B54FF016
:10070800FF0C4CF4E06C1CEA11541DBF1CEA135595
:1007180094EA0C0F95EA0C0F00F0A7F8A4EB050477
:1007280081EA030E52EA03354FEA013100F088806E
:100738004FEA03334FF0805545EA131343EA126337
:100748004FEA022245EA111545EA10654FEA0026EC
:100758000EF000419D4208BF964244F1FD0404F5A5
:10076800407402D25B084FEA3202B61A65EB030501
:100778005B084FEA32024FF480104FF4002CB6EBBE
:10078800020E75EB030E22BFB61A754640EA0C003E
:100798005B084FEA3202B6EB020E75EB030E22BF7E
:1007A800B61A754640EA5C005B084FEA3202B6EBBF
:1007B800020E75EB030E22BFB61A754640EA9C007E
:1007C8005B084FEA3202B6EB020E75EB030E22BF4E
:1007D800B61A754640EADC0055EA060E18D04FEA0C
:1007E800051545EA16754FEA06164FEAC30343EAAC
:1007F80052734FEAC2025FEA1C1CC0D111F4801F79
:100808000BD141EA00014FF000004FF0004CB6E771
:1008180011F4801F04BF01430020B4F1FD0C88BF10
:10082800BCF5E06F3FF6AFAEB5EB030C04BFB6EB1B
:10083800020C5FEA500C50F1000041EB045170BD0E
:100848000EF0004E4EEA113114EB5C04C2BFD4EB3B
:100858000C0541EA045170BD41F480114FF0000EBF
:10086800013C90E645EA060E8DE60CEA135594EA3B
:100878000C0F08BF95EA0C0F3FF43BAF94EA0C0F3E
:100888000AD150EA01347FF434AF95EA0C0F7FF4B3
:1008980025AF104619462CE795EA0C0F06D152EA07
:1008A80003353FF4FDAE1046194622E750EA4106EB
:1008B80018BF52EA43067FF4C5AE50EA41047FF4FC
:1008C8000DAF52EA43057FF4EBAE12E74FF0FF3C61
:1008D80006E000BF4FF0010C02E000BF4FF0010C32
:1008E8004DF804CD4FEA410C7FEA6C5C4FEA430CAB
:1008F80018BF7FEA6C5C1BD001B050EA410C0CBFFA
:1009080052EA430C91EA030F02BF90EA020F00205B
:10091800704710F1000F91EA030F58BF994208BFC2
:1009280090422CBFD8176FEAE37040F0010070477F
:100938004FEA410C7FEA6C5C02D150EA013C07D1D6
:100948004FEA430C7FEA6C5CD6D152EA033CD3D021
:100958005DF8040B704700BF8446104662468C461B
:100968001946634600E000BF01B5FFF7B7FF00284E
:1009780048BF10F1000F01BD4DF808EDFFF7F4FF77
:100988000CBF012000205DF808FB00BF4DF808ED02
:10099800FFF7EAFF34BF012000205DF808FB00BF25
:1009A8004DF808EDFFF7E0FF94BF012000205DF847
:1009B80008FB00BF4DF808EDFFF7CEFF94BF0120FC
:1009C80000205DF808FB00BF4DF808EDFFF7C4FFF5
:1009D80034BF012000205DF808FB00BF4FEA410248
:1009E80012F5001215D211D56FF47873B3EB625279
:1009F80012D94FEAC12343F0004343EA505311F0A0
:100A0800004F23FA02F018BF404270474FF0000031
:100A1800704750EA013005D111F0004008BF6FF06F
:100A2800004070474FF00000704700BF80F0004062
:100A380002E000BF81F0004142001FBF5FEA4103AE
:100A480092EA030F7FEA226C7FEA236C6AD04FEAAE
:100A58001262D2EB1363C1BFD218414048404140F3
:100A6800B8BF5B42192B88BF704710F0004F40F4A5
:100A7800000020F07F4018BF404211F0004F41F4C1
:100A8800000121F07F4118BF494292EA030F3FD08D
:100A9800A2F1010241FA03FC10EB0C00C3F12003A0
:100AA80001FA03F100F0004302D5494260EB40002F
:100AB800B0F5000F13D3B0F1807F06D340084FEA9A
:100AC800310102F10102FE2A51D2B1F1004F40EB8F
:100AD800C25008BF20F0010040EA030070474900F7
:100AE80040EB0000013A28BFB0F5000FEDD2B0FA94
:100AF80080FCACF1080CB2EB0C0200FA0CF0AABFB7
:100B080000EBC25052421843BCBFD0401843704754
:100B180092F0000F81F4000106BF80F4000001325A
:100B2800013BB5E74FEA41037FEA226C18BF7FEA31
:100B3800236C21D092EA030F04D092F0000F08BF73
:100B48000846704790EA010F1CBF0020704712F05A
:100B58007F4F04D1400028BF40F00040704712F199
:100B680000723CBF00F50000704700F0004343F0FE
:100B7800FE4040F4000070477FEA226216BF084634
:100B88007FEA23630146420206BF5FEA412390EAF7
:100B9800010F40F4800070474FF0000304E000BFED
:100BA80010F0004348BF40425FEA000C08BF70479E
:100BB80043F0964301464FF000001CE050EA010262
:100BC80008BF70474FF000030AE000BF50EA010277
:100BD80008BF704711F0004302D5404261EB410164
:100BE8005FEA010C02BF84460146002043F0B64389
:100BF80008BFA3F18053A3F50003BCFA8CF2083AAE
:100C0800A3EBC25310DB01FA02FC634400FA02FCB6
:100C1800C2F12002BCF1004F20FA02F243EB0200BD
:100C280008BF20F00100704702F1200201FA02FC1F
:100C3800C2F1200250EA4C0021FA02F243EB020012
:100C480008BF20EADC7070474FF0FF0C1CEAD05256
:100C58001EBF1CEAD15392EA0C0F93EA0C0F6FD017
:100C68001A4480EA010C400218BF5FEA41211ED0F5
:100C78004FF0006343EA501043EA5111A0FB0131E1
:100C88000CF00040B1F5000F3EBF490041EAD371B6
:100C98005B0040EA010062F17F02FD2A1DD8B3F132
:100CA800004F40EBC25008BF20F00100704790F0A1
:100CB800000F0CF0004C08BF49024CEA502040EAF3
:100CC80051207F3AC2BFD2F1FF0340EAC2507047B9
:100CD80040F400004FF00003013A5DDC12F1190FF7
:100CE800DCBF00F000407047C2F10002410021FA69
:100CF80002F1C2F1200200FA02FC5FEA310040F181
:100D0800000053EA4C0308BF20EADC70704792F0F9
:100D1800000F00F0004C02BF400010F4000F013A31
:100D2800F9D040EA0C0093F0000F01F0004C02BF2C
:100D3800490011F4000F013BF9D041EA0C018FE79B
:100D48000CEAD15392EA0C0F18BF93EA0C0F0AD0A1
:100D580030F0004C18BF31F0004CD8D180EA0100C7
:100D680000F00040704790F0000F17BF90F0004F60
:100D7800084691F0000F91F0004F14D092EA0C0F42
:100D880001D142020FD193EA0C0F03D14B0218BFD5
:100D9800084608D180EA010000F0004040F0FE401B
:100DA80040F40000704740F0FE4040F440007047B7
:100DB8004FF0FF0C1CEAD0521EBF1CEAD15392EA36
:100DC8000C0F93EA0C0F69D0A2EB030280EA010C26
:100DD80049024FEA402037D04FF0805343EA1111BF
:100DE80043EA10130CF000408B4238BF5B0042F11D
:100DF8007D024FF4000C8B4224BF5B1A40EA0C00C2
:100E0800B3EB510F24BFA3EB510340EA5C00B3EBF3
:100E1800910F24BFA3EB910340EA9C00B3EBD10FE1
:100E280024BFA3EBD10340EADC001B0118BF5FEA33
:100E38001C1CE0D1FD2A3FF650AF8B4240EBC2505C
:100E480008BF20F0010070470CF0004C4CEA50201D
:100E58007F32C2BFD2F1FF0340EAC250704740F46C
:100E680000004FF00003013A37E792F0000F00F05E
:100E7800004C02BF400010F4000F013AF9D040EADC
:100E88000C0093F0000F01F0004C02BF490011F470
:100E9800000F013BF9D041EA0C0195E70CEAD15368
:100EA80092EA0C0F08D142027FF47DAF93EA0C0F4F
:100EB8007FF470AF084676E793EA0C0F04D14B0233
:100EC8003FF44CAF08466EE730F0004C18BF31F0E5
:100ED800004CCAD130F000427FF45CAF31F00043DF
:100EE8007FF43CAF5FE700BF4FF0FF3C06E000BF78
:100EF8004FF0010C02E000BF4FF0010C4DF804CD9B
:100F08004FEA40024FEA41037FEA226C18BF7FEAAA
:100F1800236C11D001B052EA530C18BF90EA010FAC
:100F280058BFB2EB030088BFC81738BF6FEAE1703B
:100F380018BF40F0010070477FEA226C02D15FEAD7
:100F4800402C05D17FEA236CE4D15FEA412CE1D043
:100F58005DF8040B704700BF844608466146FFE70A
:100F68000FB5FFF7C9FF002848BF10F1000F0FBDEC
:100F78004DF808EDFFF7F4FF0CBF012000205DF8E5
:100F880008FB00BF4DF808EDFFF7EAFF34BF01206A
:100F980000205DF808FB00BF4DF808EDFFF7E0FF03
:100FA80094BF012000205DF808FB00BF4DF808ED54
:100FB800FFF7D2FF94BF012000205DF808FB00BFB7
:100FC8004DF808EDFFF7C8FF34BF012000205DF899
:100FD80008FB00BF4FEA4002B2F1FE4F0FD34FF0BB
:100FE8009E03B3EB12620DD94FEA002343F000438E
:100FF80010F0004F23FA02F018BF404270474FF03C
:101008000000704712F1610F01D1420205D110F0C2
:10101800004008BF6FF0004070474FF00000704775
:101028007BB972B90029BEBF00204FF0004106E02D
:1010380008BF00281CBF6FF000414FF0FF3000F0E0
:1010480057B8ADF1080C6DE904CE002909DB002B77
:101058001ADB00F074F8DDF804E0DDE9022304B0DF
:101068007047404261EB4101002B1BDB00F067F841
:10107800DDF804E0DDE9022304B0404261EB410100
:10108800524263EB43037047524263EB430300F061
:1010980056F8DDF804E0DDE9022304B0404261EBD4
:1010A80041017047524263EB430300F048F8DDF812
:1010B80004E0DDE9022304B0524263EB43037047C6
:1010C80053B94AB9002908BF00281CBF4FF0FF31A7
:1010D8004FF0FF3000F00CB8ADF1080C6DE904CE0C
:1010E80000F02DF8DDF804E0DDE9022304B07047D4
:1010F800704700BF10F8012B11F8013B012A28BFE7
:101108009A42F7D0D01A7047034613F8012B002AE9
:10111800FBD1181A01387047430803F05533C01A39
:1011280000F03333800800F03330184400EB10101F
:101138004FF0013300F00F305843000E70472DE98F
:10114800F04786468C460846089E1546744619465A
:10115800002B40F0C2808542B2FA82F245D94AB1EA
:10116800C2F1200300FA02FC2EFA03F3954043EA89
:101178000C0C94404FEA154EA8B2BCFBFEF8230CA9
:101188000EFB18CC08FB00F943EA0C43994528D913
:10119800EB1808F1FF3704D2994502D9A8F10207E4
:1011A8002B44A3EB0903A4B2B3FBFEFC0EFB1C33D8
:1011B8000CFB00F044EA0344A04214D92C190CF1AA
:1011C800FF3304D2A04202D9ACF102032C44241A02
:1011D80043EA07401EB1D440002334607360BDE881
:1011E800F0874746DDE76346F1E792BB431B0121E1
:1011F8004FEA154EAFB2B3FBFEFC200C0EFB1C33BE
:101208000CFB07F840EA0343984562D9EB180CF148
:10121800FF3004D2984502D9ACF102002B44A3EB6D
:101228000803A4B2B3FBFEFC0EFB1C330CFB07F750
:1012380044EA0344A7424ED92C190CF1FF3304D2D7
:10124800A74202D9ACF102032C44E41B43EA004054
:10125800C0E7C2F1200320FA03F1954090402EFA2E
:1012680003F303434FEA154EAFB2B1FBFEFC0EFB8E
:101278001C10190C0CFB07F841EA0041884504FAD8
:1012880002F422D969180CF1FF3004D2884502D93A
:10129800ACF102002944A1EB08019BB2B1FBFEFCB2
:1012A8000EFB1C110CFB07F743EA01439F420ED9C2
:1012B800EB180CF1FF3104D29F4202D9ACF10201C4
:1012C8002B44DB1B41EA004192E76046E3E76146B5
:1012D800F7E76046A3E76346B7E7834206D916B93E
:1012E800002108467BE7C6E900E0F9E7B3FA83F78F
:1012F8008FB9834201D3724508D8BEEB020460EB74
:10130800030301209C461EB9002168E73846FAE726
:10131800C6E9004CF8E7C7F1200CBB4022FA0CF4F0
:101328001C432EFA0CF120FA0CF3B84001434FEAA3
:1013380014490EFA07F5B3FBF9F81FFA84FE09FB06
:1013480018300B0C08FB0EFA43EA00439A4502FAE0
:1013580007F240D9E31808F1FF3004D29A4502D9C0
:10136800A8F102002344A3EB0A0389B2B3FBF9F8FE
:1013780009FB183308FB0EFE41EA03418E452CD9C0
:10138800611808F1FF3304D28E4502D9A8F102038F
:10139800214443EA0040A0FB0298A1EB0E0141451D
:1013A800CE46434602D306D14D4504D2B9EB020ED0
:1013B80068EB04030138002EA6D0B5EB0E0261EBF2
:1013C800030101FA0CFC22FA07F34CEA0303F94083
:1013D800C6E9003198E74046C5E74346D9E700002B
:1013E8002DE98048DFF8D8A1DFF8D891B5B0DAF850
:1013F800000038B900F030FD4FF4FA60002111F018
:101408006DFBF4E718F083FC0028F3D0DAF800004D
:1014180083689B690BB93220F0E76B4C21469847EB
:101428000028F8D123780D2BE1D099F800204AB98B
:10143800242BDCD16549012289F800200A60644A1E
:101448001370D4E7DFF884810A2BD8F8002040F025
:10145800AB805F4D5F49A8540622284618F079FEF4
:101468000446002837D12A21284618F0A0FE014654
:1014780088B30135A8422ED3407860B38E7856B32E
:1014880014F0B5FA051E26DB304614F0B0FA002831
:1014980021DB40EA0510504AC0B20023914220D116
:1014A800984218D114AD4A494C4E7F22284618F06C
:1014B80062FE00213C2205A88DF8CF1018F024FE0A
:1014C800049505AD314604A818F087FE68B9062CC6
:1014D80010DC00F0C1FC002389F80030C8F80030A7
:1014E80085E712F8015B6B40D8E701340F2C45F80B
:1014F800040BE7D10B9B002BEBD01B78002BE8D01B
:10150800302BE6D007980028E3D00378002BE0D0F2
:10151800099C002CDDD02378002BDAD0089DDDF85B
:1015280028B000F0B5FC06460F4645B12B78532B82
:1015380005D101F1004300900193DDE900672046E1
:1015480000F0A6FC04460D46BBF1000F09D09BF83D
:101558000030572B05D101F1004302900393DDE9D8
:10156800024515A3D3E9002330463946FEF79CFF10
:1015780014F0EEF91A4B294618600FA3D3E900239B
:101588002046FEF791FF14F0E3F9164B1860164B4E
:1015980001221A7018F0C3FC00230A22FFF790FDFD
:1015A800124BC3E9000196E77E2A94DC511CC8F867
:1015B800001007498B541AE70000000080842E4170
:1015C800A80F0020EB220020EC220020BC0F0020F6
:1015D800ED220020A2C30108EE220020A9C30108C1
:1015E800B80F0020B40F0020EA220020F0070020E6
:1015F8002DE9F04112F0FC6FD0E901470669134666
:101608000ED04249424A43484FF47D7314F0A3FA7E
:10161800414814F0A0FA4FF47D713D4814F092FA55
:1016280002F03002302A0CD13C49394A394840F29C
:10163800F73314F090FA3A4814F08DFA40F2F73183
:10164800EBE7384A384D1A40AA420CD13749304A9C
:10165800304840F2FB3314F07EFA354814F07BFA38
:1016680040F2FB31D9E703F00602042A09D13149D7
:10167800274A284840F2FE3314F06DFA40F2FE3152
:10168800CBE713F4402216D09D030CD42A49204AF4
:10169800204840F2014314F05EFA284814F05BFA3F
:1016A80040F20141B9E7B2F5402F18D0244A9A43D5
:1016B80001D183F44023246801258D40254223F479
:1016C800801219D11F49124A124840F2114314F0EE
:1016D80042FA1D4814F03FFA40F211419DE71B49B8
:1016E8000B4A0C4840F2054314F035FA184814F038
:1016F80032FA40F2054190E73468DB074CBF2C43CF
:10170800AC4334603B68BDE8F041184765BD01084B
:1017180034BD0108D4BD0108F1BD010815BE01089A
:101728004EBE010802000300020001008BBE010842
:10173800D8BE010827BF01085ABF0108A9BF010880
:10174800010010005DC001089BC00108E4BF01084A
:1017580031C001081FB504460DF10F010DF10E004F
:1017680015F022F89DF80F30044A009304482346E8
:10177800032114F0F2FD04B010BD00BFADC0010894
:1017880084AE0108F0B585B06E4600AF88B0044657
:101798000D466A46334B5361334B93614FF40073E4
:1017A80093830105314B42F8103F41F4E65130482C
:1017B8002B4602F00DFC0F2C204628BF0F202B468D
:1017C800B546394605443C469D421ED100F11003FA
:1017D8003B44002103F8101C231813F8012D0D2A8F
:1017E80000F1FF3004D00A2A02D012F0DF0F02D134
:1017F80019700028F1D11F492046FFF77BFC70B90A
:1018080000F088FA1437BD46F0BD13F8012BA2F199
:101818006106192E98BF203A01F8012BD4E7164922
:101828002046FFF767FC08B90120E9E7134920467D
:10183800FFF760FC08B90220E2E76D4688B06A4607
:101848000F4BC2E905344FF400739383074B42F8FA
:10185800103F074800234FF4E45102F0B9FBAD46AE
:10186800D0E700BF23D50108D1C00108030000015B
:1018780084AE0108DDC00108E1C00108E5C0010827
:10188800EBC0010837B5079D9DF818400346084A84
:1018980008480094032114F060FD3DB134B1294695
:1018A800204603B0BDE83040FFF76CBF03B030BD41
:1018B800FDC0010884AE01082DE9F04FB84AA3B075
:1018C80010685168B74A04AF07F1140303C31068DE
:1018D800516807F11C0303C3B34B07F1300203F14E
:1018E800100C07F1140807F11C061546186859680A
:1018F800144603C4083363452246F7D10023C7F8CA
:101908002630C7F82A30FB854FF6FF73BB84A74BF8
:10191800BB62A74C204618F0FAF90346B8B921680B
:101928006C4688B004AAA348C2E905014FF40071C7
:101938009183A14942F8101FA0484FF4E25102F0E8
:1019480047FBA54600207C37BD46BDE8F08F9C4884
:1019580018F0DDF928B99B4A9848012114F0EAFCEF
:10196800F0E7974818F0D3F90028F4D0964A94483D
:101978000821FFF73DFE031E05DA944A8F4801212E
:1019880014F0E1FCDEE7904A8D480A21FFF730FEAB
:10199800031E01DA8E4AF1E78E4B8F48186018F063
:1019A800B6F920B98D4A8548012114F0C3FC8C4C46
:1019B80014F033F88B48206018F0A9F908B98A4A5E
:1019C800CAE720684FF4B0120521FFF711FE08B1ED
:1019D800864AC1E720684FF480320621FFF708FEE7
:1019E800044630B9052004F08FF8031E03DA804A54
:1019F800C4E7804AB0E704F059FA031E01DA7E4AC8
:101A0800BCE7204604F080F907F1240004F038FA16
:101A18007A48DFF8ECA104F043FA7A4887F8544092
:101A2800C7E91155C7F850803E6412F019FBA1466A
:101A380018F8011B504609F1010912F011FBB9F120
:101A4800080FF5D17048DFF8B89112F009FB4FF094
:101A5800000816F8011B484608F1010812F000FBBF
:101A6800B8F1080FF5D16948654E12F0F9FA15F882
:101A7800011B3046013412F0F3FA102CF7D16448F8
:101A880012F000FB634A4D48032114F053FC002177
:101A9800614811F023F8614A4848614D474EDFF824
:101AA8008481032114F046FC00244FF0000907F15B
:101AB800400004F045F8031E56DB5B4A3F48DFF858
:101AC8006C91DFF86CA1032114F034FC0024C7E901
:101AD800034400F059F900F0B5FA5146D9F800006E
:101AE800DFF850B1544DFFF7AFF818F0FEFC51463F
:101AF8003860DBF80000FFF7A7F818F0F6FC07F1EC
:101B08001001804607F10C0000F0F0F9786000F051
:101B180023FA7B68A7F85C80DFF820813A6887F8A9
:101B28005F30FB682988A7F85A203B66D8F8002060
:101B38003B69A7F8581087F85E207B66064623465F
:101B4800102207F15801012004F010F910F10B0FD1
:101B5800034620D13A4A1948012114F0F4FB002128
:101B68002D4810F0BBFFB1E701341F2C08D11E230C
:101B78000093344A11482346012114F0EEFBE1E6B4
:101B8800012100942A46304614F0E7FB40464946B6
:101B980010F0A4FF8BE7002858DA2B4AEEE600BFC6
:101BA80078C3010868AF010881C301088D180008CF
:101BB80098A901081AC101080300000184AE0108B0
:101BC80064A8010830C101080100160044C10108D9
:101BD8005AC10108A80F0020F0A8010870C1010827
:101BE800A40F002080A801087FC101088FC1010847
:101BF800BBC10108A5C10108D9C101085D170008CA
:101C0800FFC10108F2C1010804C2010811C201089C
:101C18001EC2010820C20108A08601003EC20108B8
:101C280091C20108E0930400C6C20108A00F002079
:101C3800000020419C0F0020E0220020980F002087
:101C4800DFC2010858C2010806C301082B88134ADD
:101C58001348032114F077FB2B88D9F80000FE2BDA
:101C68009CBF01339CB22C80FEF7C6FB0446DBF810
:101C780000000D46FEF7C0FBD8F800300293094A71
:101C8800094B002E18BF1A46CDE9000103920748F8
:101C980022462B4613F049FF61E700BF1EC3010827
:101CA80084AE010815C1010810C1010840C301082C
:101CB80010B503460A46006819790469012303FA36
:101CC80001F143681B6819420ED10E490E4A0F48AC
:101CD80040F2A26313F03FFF0D4813F03CFF0A489F
:101CE80040F2A26113F02EFF2368194218BF82F058
:101CF800010222B18368DB68BDE810401847836899
:101D08001B69F9E75DC0010834BD0108D4BD0108AD
:101D18009BC0010810B5002104460A48FFF7C8FF18
:101D280009480021FFF7C4FF012C02D0022C06D07D
:101D380010BD04482146BDE81040FFF7B9BF02486E
:101D48000121F8E728B2010820B2010810B586B0D1
:101D58000122019200228DF808200A4A009103927C
:101D68000721022204928DF814109DF8143081681E
:101D780013438DF814308C6840236946A04706B099
:101D880010BD00BFE822002070B5244E244D25491F
:101D98003068254CFFF7DAFF2B88244930685BBA96
:101DA8002380FFF7D3FF2888214B40BA188080B2E0
:101DB800FEF7F2FE1F49FEF747FF4FF05E51FEF7B0
:101DC80043FF1D49FEF736FE1C4B05461860208868
:101DD800FEF7E2FE1A49FEF737FF4FF05E51FEF7B5
:101DE80033FF1849FEF726FE174B184918600446BA
:101DF8002846FEF729FF13F063FD1449FEF7D8FFC4
:101E0800134B124918602046FEF71EFF13F058FDC9
:101E18000E49FEF7CDFF0F4B186070BD6803002018
:101E2800E8220020F1050020E4220020F00500202F
:101E3800E222002052B82F4366663B42AC0F0020D6
:101E48000000FA420000C040B00F00200000C84265
:101E5800A00F00209C0F0020074B084A1A60084B6F
:101E6800084A1A60084B01221A70084B002000210A
:101E7800C3E90001704700BFB80F0020E0B053026B
:101E8800B40F0020C4FB7E07EA220020F0070020E0
:101E9800F8B518B303780BB3002112F03DF9114BD4
:101EA800002206460F46FEF729FCFEF797FDFEF7CF
:101EB80091FA0C4B002204460D46FEF7F5FA02464D
:101EC8000B4630463946FEF737F9074B0022FEF736
:101ED80015FC22462B46FEF731F9F8BD00200021FB
:101EE800FBE700BF0000594000004E402DE9F041DB
:101EF800154B1B7805460C4603F0FF08CBB1134E73
:101F0800D6E90023012A73F1000312DB18F007F861
:101F18000A220023FFF7D4F8D6E9006743F699228E
:101F2800801B61EB0703904273F1000101DBFFF7AF
:101F380093FF15B1064B1B682B6014B1054B1B684A
:101F480023604046BDE8F081EA220020F007002027
:101F5800B80F0020B40F002038B50E4CD4E9002388
:101F6800012A73F1000313DB17F0D9FF00230A22BB
:101F7800FFF7A6F8D4E9004543F69923001B61EB67
:101F88000501984271F10001B4BF0120002038BD5D
:101F98000020FCE7F007002013B5426812685206DB
:101FA8000ED40E490E4A0F4840F2496313F0D3FD90
:101FB8000D4813F0D0FD0A4840F2496113F0C2FD04
:101FC8000469836801A95B68984720B92368019868
:101FD8005840C0F3801002B010BD00BF5DC00108BA
:101FE80034BD0108D4BD01089BC0010810B5426882
:101FF8000369126892060ED40E490F4A0F4840F240
:10200800A26313F0A8FD0E4813F0A5FD0A4840F29C
:10201800A26113F097FD1B689B0648BF81F0010180
:1020280029B18368DB68BDE8104020211847836820
:102038001B69F8E75DC0010834BD0108D4BD01087B
:102048009BC0010838B5154C01212068FFF7CEFF69
:102058000A2017F04EFE20680021FFF7C7FF20680E
:10206800FFF79AFF0028FAD00EF0A8FB0546206873
:10207800FFF792FF0128FAD00EF0A0FB401B1830A2
:102088002CBF0121002100234FF42E62FFF718F81E
:10209800034BFA2828BFFA20186038BDA40F002087
:1020A800980F0020B2F5802F2DE9F0410ED33C495E
:1020B8003C4A3D4840F2132313F04DFD3B4813F0D2
:1020C8004AFD40F21321374813F03CFD042A0CD88E
:1020D8003749344A344840F21A2313F03CFD354856
:1020E80013F039FD40F21A21EDE7043ACD1D8E18A0
:1020F80025F0070526F00706761B172E4FEAD607A8
:102108000CD82D49274A284840F2232313F023FDF1
:10211800284813F020FD40F22321D4E7B7FA87F4CA
:10212800C4F12002C4F12404A4000734E408631CA9
:102138004FF00008BB420560AF60C5F80C800CD9B1
:102148001E49184A18484FF40E7313F004FD194835
:1021580013F001FD4FF40E71B5E74146920005F109
:10216800100017F0D1FF630043F001036B8005EB0B
:10217800C4023B1B5900A5F800805180AA1925F814
:102188003440A2F80280AB5305EBC70321465A88B6
:1021980042F001025A802846BDE8F04113F044BCE1
:1021A80087C40108B9C30108D4BD01089DC401084A
:1021B800B4C40108D5C40108EEC4010817C5010854
:1021C8002DE9F04F91B00546009302F00403019306
:1021D800C2F3C203013304938307DDF868900292C7
:1021E8000E4640F0FC81041D30B1072909D86FF074
:1021F8001B0011B0BDE8F08F01F007063444C6F1AA
:102208000806009B4FF000084FF0040B591ECDF84C
:102218000C80474643464FF0FF32DA460DB100982E
:1022280020600498002800F3DF809B48DDF800C098
:10223800844503D399488445C0F0D680DDF808C0AA
:10224800A4EB050E1CF0020F4FEA9E0000F0E78099
:102258004FF0000CD1E07A2862D84B280FD84728D5
:102268005ED829282DD8252859D059D820287DD09E
:10227800A0F12309D9F1000343EB090376E04C38B8
:102288002E284DD8DFE800F0724C4C4C4C4C4C4C8E
:102298004C4C4C4C4E4C4C4C4C4C4C4C4C5C4C4E62
:1022A8004E5C5C5C724E6F4C724C184E184C4C81F4
:1022B8007E4E4C4C4E4C7E00002000234FF0040B09
:1022C8003CE02A384FF0010EC0B20EFA00F04FF68B
:1022D800DA7E10EA0E0F49D110F0625E30D110F0AC
:1022E800010343D07046013C5C44B4FBFBF40BFB98
:1022F80004F4002D5ED0AAEB050EA644B6453FF6C1
:1023080076AF002868D1BAF1040F43D1E14659F8F5
:10231800040B20600434CC464FF0040A26E0013A4E
:10232800002323E011F8013C6C2B30D111F8023C5A
:1023380000206C2B0346C1D14FF0080BDA46D2E7D8
:102348000CF1070929F0070C0734FCE802AB24F06C
:10235800070435B105982044B0423FF648AFC4E9B8
:1023680000AB083400234FF0080BDA4611F8010FD0
:10237800002800F0BC80002B7FF46DAF2528F5D134
:10238800013201234FF0040BEFE7184695E70020D0
:102398000346A8E7BAF1080F40F09B800CF1070943
:1023A80029F0070CFCE8029AC4E9009A08344FF0B7
:1023B800080ADBE780B9BAF1040F02D10CF104096D
:1023C800A8E7BAF1080F40F084800CF1070929F05A
:1023D800070909F1080CE9E70498E1460138049077
:1023E80059F8040B009019E70298800748D5A4EB28
:1023F800050E4FEA9E004FF0010CBEF5007F1DD37D
:102408002749284A28484FF41F7313F0A4FB27488C
:1024180013F0A1FB4FF41F71224813F093FB0F2F09
:102428000ED8002D46D007F1400CEC440CF8200CD7
:102438000CF8102C03980130039020E00F2F0CD9D2
:102448001749184A184840F2812313F084FB1848AA
:1024580013F081FB40F28121DEE7BDB107F1400EA8
:10246800EE44C0B20EF8200C0EF8102CBCF1000F90
:10247800E0D060F07F000EF8200C08F10108013769
:10248800C5F108000434CC4605906FE7BCF1000F95
:1024980010D00136F3E700BFA0A601088CFD0108A3
:1024A800CEF1010842C50108D4BD010870C5010874
:1024B80091C50108019802360028E0D100980592DC
:1024C800CDE90631FEF720FEDDE90631059A06441E
:1024D800D5E7444A4449454840F2C62313F03BFB3C
:1024E8005146434813F037FB40F2C62194E7631B7B
:1024F800B3F5806F0CD33C493A4A3C4840F2D223AA
:1025080013F029FB3B4813F026FB40F2D22183E766
:102518001DB9A6F10804E0186BE6019A28609B082B
:102528002B709DF80C30C2B1EB7085F80280B8F1C1
:10253800000F05D008A80022C5F1010C97420ED162
:10254800C5F101030DF120094FF0000A02930DF1C6
:10255800300B574512D1601B4BE66B70E5E710F85E
:10256800013B190608D50CEB040EB64503F07F03B2
:102578003FF63DAE04F8013B0132DFE7B8F1000F4A
:1025880003D099F90020002A17DB019BD3B11AF870
:102598000B2004F8012B0022029B18191044B042AA
:1025A8003FF625AE99F8000004F8010B0099039254
:1025B800204617F09BFD039A14440AF1010A09F119
:1025C8000109C6E799F8002055F822300093019BCD
:1025D80045F822300098FEF797FD421CDCE76FF0C3
:1025E8000D0006E642C50108CEF10108D4BD010878
:1025F800ABC50108C0C501082DE9F04F97B000AF81
:102608008946D7F880B0FA623B62044658B9A849AF
:10261800A84AA94840F2993313F09DFA40F299313B
:10262800A44813F08FFACBF3C00390F802A07B61A3
:1026380041B9457800780AEB800020444D4517D809
:10264800A0EB0409E378FB61BAF1000F02D01BF09C
:10265800010F16D1FB6953BBFB6A1BB13A6A4946A5
:10266800204698474D4628465C37BD46BDE8F08F62
:10267800461C3046FEF748FD0130304409F1010997
:10268800DCE7237862687A62FA6A9900B96104EB38
:102698008301002A40F001814D460E4601EB0A09EC
:1026A8004FF000084E454CD101EB0A0610E01BF034
:1026B800020FD1D023789A00BA6162687A62FA6A06
:1026C80004EB8301002A77D14D4601EB0A069046B8
:1026D8001BF0050F0CBF02230123FB62FB6906EB0D
:1026E800430A0BF00203BB625645BCD016F8021B26
:1026F80016F8013C54F82390704B994502D3704B5F
:10270800994536D37B69002B40D0786A13F0E4F9F9
:1027180000283BD0E9468AB06A466A4B53617B6A17
:10272800C2E906314FF400731384674B42F8103F37
:10273800664800234FF4125101F04AFC023DCD4691
:10274800D2E716F8013BF96254F82300FEF7DCFCE7
:10275800D7F88430F96A01304BB1D7F888309845FA
:102768003EBFD7F8843023F8180008F10108054463
:1027780098E77B6923B1786A13F0AEF90028C9D1CC
:102788001BF0010F05D1FB6AED1AADE7BB6A002B00
:10279800AAD04846FEF7B8FCD7F8843053B1D7F82A
:1027A800883098453FBFD7F88420431C22F818305A
:1027B80008F10108054497E7BAF1000F73D01BF040
:1027C800040673D0D046002607F1480052463B6104
:1027D800B96217F08BFCB96A3B6901EB0A02BA626D
:1027E800FA69F9695200FA60BA6A02EB41023A6181
:1027F8000BF00202BA60BA6A39698A4268D1627813
:102808007A621BF0020F32440CBF4FEA58010021D4
:102818001BF0010FD2B240F0E4801BF0040F14BF8C
:10282800404600207B616270A070E1703A6AB96925
:10283800FB6A20469847051EFFF615AF7B69237093
:102848007B6A6370FB69E37041463A6AFB6A84F805
:1028580002A007F148009847B0F10008C0F2F580DF
:10286800BB693A6AA9EB0A01C91AFB68C91AD7E910
:102878000A0398470028C0F2EA80A84408EB00053C
:102888004FF0000B07F1380AB345C0F0AC800021C7
:102898003A6AFB6A08469847E5E656464FF000084C
:1028A80007F1380092E75646D04696E7B04694E7D7
:1028B800D7C5010842C50108D4BD0108A0A6010872
:1028C8008CFD0108F2C5010804000001F4AD0108FF
:1028D800BA6A12F8021BBA6212F8015C5D4A54F82F
:1028E8002500904202D35C4A904218D37A693AB1E3
:1028F800786A7B6013F0F0F87B6800287FF47BAF80
:10290800BA68002A4CD00F2E40D95449544A554829
:1029180040F24D4313F01FF940F24D4180E67A69C9
:102928003AB1786A7B6013F0D7F87B6800287FF4A7
:1029380062AF1BF0010F0BD00F2E27D94749484A29
:10294800484840F2434313F006F940F2434167E632
:102958001BF0040F3FF44FAFB8F10F0F09D94249EC
:102968003F4A404840F2464313F0F5F840F24641EA
:1029780056E608F1280207F1300008F1010102EBE0
:10298800000808F8105C5FFA81F834E706F12802BD
:1029980007F13000711C161806F8205CCEB22AE741
:1029A800B8F10F0F09D930492D4A2E484FF48A63E0
:1029B80013F0D1F84FF48A6132E608F1280207F1E2
:1029C800300C08F10100944407F1580252FA80F0E3
:1029D80008F102080CF8101C5FFA88F800F8105C7F
:1029E80009E700201EE71BF80A3087F8373054F84B
:1029F8002390D7F884302BB3D7F888309B4521D261
:102A0800D7F8843033F81B803A6AFB6A012107F152
:102A18003700984700281ADB0544B8F1000F06D1A3
:102A28004846FEF771FB00F101081FFA88F83A6A78
:102A3800FB6A414648469847002808DB05440BF1E5
:102A4800010B21E74FF00008DEE745460BE6054697
:102A580009E600BFA0A601088CFD010895C601087B
:102A680042C50108D4BD0108B4C60108014B18606D
:102A7800704700BF6C03002080B505460E46174618
:102A8800984610F0BDF8034617F0FCFDDFF83C90BF
:102A9800044649F80030424639463046A8470C4BB0
:102AA8001B7873B90B490C4A0C4840F2463313F0B3
:102AB80052F80B4813F04FF8074840F2463113F02C
:102AC80041F854F8090002F03FFB00BF080000007D
:102AD8007D24002010C70108E5C60108D4BD0108FF
:102AE80023C7010838B50D4604462022002117F0F7
:102AF8000BFBEB68E361AB68A3612B6823626B682F
:102B080063620022A2622A6923B1591E194208BFD2
:102B180042F0010222610122002104F12C0017F089
:102B280018F948B105490648064A2F2313F013F847
:102B380004482F2113F006F838BD00BF6BC7010801
:102B4800D4BD010845C701082DE9F04F89B0CDE98A
:102B58000123436A00278B42044688460597079756
:102B6800BA4654D300F11406EFF31185102383F30A
:102B78001288BFF36F8F3046A94610F0C3FA58B9D0
:102B88004D4A4E494E48882312F0E5FF31464D48DC
:102B980012F0E1FF882163E0304610F0D7FA079A77
:102BA8002AB13946204613F0BEF80023079306A938
:102BB800204612F0DDFF06994145834630D322684E
:102BC800236A13F8221021F0030103F8221003EB03
:102BD800820A21684246204612F0EEFFE368206030
:102BE800984218D04FF0000B304610F099FA50B3C5
:102BF80089F31188BFF36F8F059929B1A2690AB1CA
:102C08002046904700230593BBF1000FACD15046F6
:102C180009B0BDE8F08F236943F008032361E1E7B9
:102C280018B1204612F0E2FFDEE7DDE90132134376
:102C380039D0039117F001F90399A0BB9DBB304629
:102C480010F06EFA78B91C4A1F491D484FF49A7360
:102C580012F081FF31461D4812F07DFF4FF49A7142
:102C6800154812F06FFF85F31188BFF36F8FDDE908
:102C7800012304F12C000EF077FB8346EFF3118952
:102C8800102383F31288BFF36F8F304610F03AFA9F
:102C980000283FF475AF3046BBFA8BFB10F056FAAC
:102CA8004FEA5B1BA0E707AB05AA2046276812F08E
:102CB800BAFF834698E700BF74C70108A1C7010897
:102CC800D4BD0108B6C70108CCC70108E3C701088D
:102CD8002DE9F0410446C36908460E46984704F1B9
:102CE80014050746EFF31188102383F31288BFF306
:102CF8006F8F284610F006FA68B91B4A1B491C4812
:102D0800882312F028FF29461A4812F024FF882148
:102D1800154812F017FF284610F018FA337843F0D8
:102D28000103337061683A46204612F045FF60603F
:102D3800204613F013F8284610F0F2F968B90A4A49
:102D48000D490B484FF49A7312F005FF29460B48BA
:102D580012F001FF4FF49A71DAE788F31188BFF394
:102D68006F8FBDE8F08100BF74C70108A1C70108D3
:102D7800D4BD0108B6C70108CCC70108E3C70108DC
:102D88002DE9F0470446002700F11406EFF31188F7
:102D9800102383F31288BFF36F8F304610F0B2F917
:102DA800054668B93A4A3B493B48882312F0D3FEA6
:102DB80031463A4812F0CFFE8821354812F0C2FE5B
:102DC800304610F0C3F92369A16813F0080F02D147
:102DD8006368994200D9636A5B1A002B41D0206A64
:102DE80010F8213013F0030200EB81093CD0022ACD
:102DF80004D150F821205FEA920A05D1DA0720D4DD
:102E0800E369484698478246A1685246204612F030
:102E1800D3FE5146A060204612F0DCFE2F46304615
:102E280010F07EF910BB1A4A1D491B484FF49A73DB
:102E380012F091FE31461B4812F08DFE4FF49A7144
:102E4800BBE743F0020300F821304846E369A56870
:102E5800984729460246204612F0AEFE0025A0609B
:102E6800DDE71D46A946DAE71546FBE788F3118832
:102E7800BFF36F8F002D89D137B1B9F1000F03D19E
:102E880004F12C000EF0ECF94846BDE8F08700BFCD
:102E980074C70108A1C70108D4BD0108B6C7010855
:102EA800CCC70108E3C701082DE9F0410446C3690E
:102EB80008460D46984704F114060746EFF31188B3
:102EC800102383F31288BFF36F8F304610F01AF97E
:102ED80068B9284A28492948882312F03CFE314617
:102EE800274812F038FE8821224812F02BFE30467F
:102EF80010F02CF92B786FF300032B7023699B07D4
:102F080005D5E268236A03EB82039D4222D12B7820
:102F18006FF341032B70D4E90231994204D13A4648
:102F2800204612F049FEA0603946204612F052FEB3
:102F3800304610F0F5F890B90E4A12490F484FF490
:102F48009A7312F008FE31460F4812F004FE4FF44F
:102F58009A71C9E72B6867F39F032B60E8E788F34A
:102F68001188BFF36F8F04F12C00BDE8F0410EF01B
:102F780077B900BF74C70108A1C70108D4BD01080B
:102F8800B6C70108CCC70108E3C7010870B50446F5
:102F980000F11405EFF31186102383F31288BFF3B1
:102FA8006F8F284610F0AEF868B91B4A1B491C48B9
:102FB800882312F0D0FD29461A4812F0CCFD88214A
:102FC800154812F0BFFD284610F0C0F82369A06824
:102FD80013F0080F02D16368984213D9646A241A5F
:102FE800284610F09DF878B90B4A0F490C484FF461
:102FF8009A7312F0B0FD29460C4812F0ACFD4FF45C
:103008009A71DDE71C1AEBE786F31188BFF36F8F1F
:10301800201E18BF012070BD74C70108A1C7010890
:10302800D4BD0108B6C70108CCC70108E3C7010829
:10303800034A536823F0020353600020704700BF1F
:10304800002004E010B5EFF31184102383F31288F5
:10305800BFF36F8F1C4810F055F868B91B4A1C491C
:103068001C48882312F077FD17491B4812F073FD9E
:103078008821164812F066FD134810F067F8174BC0
:103088001A683AB9164A116841F4807111601168DA
:10309800C905FCD51A680C4801321A6010F040F8CE
:1030A80068B90A4A0F490B484FF49A7312F053FD56
:1030B80005490D4812F04FFD4FF49A71D9E784F392
:1030C8001188BFF36F8F10BDC80F002074C70108A7
:1030D800A1C70108D4BD0108B6C70108C40F002064
:1030E80000040058CCC70108E3C7010810B5EFF386
:1030F8001184102383F31288BFF36F8F264810F0D2
:1031080001F868B9254A26492648882312F023FD84
:103118002149254812F01FFD8821204812F012FD90
:103128001D4810F013F8214B1A682ABBBFF35B8FB8
:103138001F4B012253E8001F002903D143E8002058
:103148000028F7D1BFF35B8F04D11A4A1A4802212D
:1031580013F0F0F810480FF0E3FFC0B90F4A174911
:1031680010484FF49A7312F0F6FC0B49144812F009
:10317800F2FC4FF49A71D0E7012A01BF11490A689D
:1031880022F480720A601A68013A1A60E2E784F34E
:103198001188BFF36F8F10BDC80F002074C70108D6
:1031A800A1C70108D4BD0108B6C70108C40F002093
:1031B800C00F002003C80108D4AE0108CCC701081D
:1031C800E3C7010800040058084B1A6842F400726B
:1031D8001A601A6842F480621A601A6842F48072AF
:1031E8001A60034B034A1A60704700BF004000583A
:1031F800D805002000093D002DE9F7430F46064693
:103208000821C06ADFF8509012F020FE3C68241AAA
:1032180080463C6004EA0905AC4203D8002003B0AC
:10322800BDE8F08308236A462146304612F0A4FD23
:103238000028F4D16946304612F012FE40B1BDF8BC
:103248000230BDF804203C6005EA090513441D441A
:10325800A4EB0804E0E700BF0000FFFF73B50446D5
:103268000821C06A124E12F0F1FD4FF6FF72636832
:10327800ADF800208DF80620E26819183340134491
:10328800181A002560606846ADF80210ADF80450C1
:1032980012F0D3FD6946204612F0A2FE2046211DF9
:1032A80012F0A3FD636828463340A36002B070BDE6
:1032B8000000FFFF2DE9F04704468AB000F114072B
:1032C800384616F03FFDA06A8368DB689847E062DD
:1032D80050B98D4A8D48012112F094FD6FF0150503
:1032E80028460AB0BDE8F087A06A8368DB6898477B
:1032F8000368013B1F2B01D9854AEBE7E368B3F567
:10330800803F08D94FF4803200928048814A0121D9
:1033180013F023F8E2E7A06A216807AA15F012FC67
:1033280008B17D4AD6E7E5682DB1089BB5FBF3F2F5
:1033380003FB12550DB1794ACCE7238A012B01D83A
:10334800774AC7E7E36A029593F805904FF0FF3391
:103358004FF0FF3238460DF0C3FDE06A082112F045
:1033680075FDA8460646238A1FFA85FA534508D8EC
:10337800238A434523D138460DF082FE6FF02C0591
:10338800AEE7E1682B04891B13FA81F14A4608234A
:103398002046029112F0FEFC78B102A9204612F0F4
:1033A80024FD08F10108029908234A4620461FFA1D
:1033B80088F812F0EFFC0028DAD00135D3E79A45F7
:1033C8000BD1029908234A46891B204612F0E2FCD9
:1033D80018B902A9204612F008FD02A92046FFF7F5
:1033E8000BFF054618B138460DF04AFE78E7029BF8
:1033F80063604FEA13484FEA0848C4F80880D4E9E4
:10340800011399420FD3082303AA204612F0B4FCF3
:1034180005460028E7D103AB13F8012B91453DD1B0
:103428000135082DF8D163681B0C1B0402A920463E
:10343800029312F0DAFCE36802994A46204612F039
:10344800A9FC051ECFDB63687ED006EB03084FF6A8
:10345800FF79E368CDF808801FFA88F29B1B9A422F
:1034680038D3304A2948032112F0CCFC6168204641
:1034780012F0CAFC05460028B5D163682A4AE168FB
:1034880013400B44A3EB460363601340A36020463C
:1034980012F0CEFD0546002D72D0A4E703A9204600
:1034A80012F0DEFC626810B9921B6260A7E7BDF8F3
:1034B8001050BDF80E10E06AC4F80880294412F0D4
:1034C800C5FC40449042A060EED1002DECD06FF0D6
:1034D8001C0580E0082305AA4146204612F04CFC52
:1034E800054600287FF47FAF05A9204612F0B8FCF6
:1034F80038B1BDF814304B4503D1BDF81830002B56
:103508006FD0B044A5E700BF58C801083CAE010819
:103518007AC8010897C80108C0C80108D8C80108B6
:10352800ECC801085EC901080000FFFF5B1A4A46A3
:10353800204612F02FFC051EFFF655AF08D0E26AB0
:10354800A36812681344A360D4E901318B42EDD813
:103558006168E36801EB46029A429CD1DFF8A880D3
:10356800A26801EA08039A4295D0204612F04CFC62
:10357800054600287FF437AF636803EA0803A360B1
:10358800E368A288A3EB46039A4220D038460DF0A0
:1035980077FD0123A374E268238A1C480092032163
:1035A8001B4A12F0DAFE63689AB200921748194A69
:1035B8001B0C032112F0D1FEA3689AB200921348A3
:1035C800154A1B0C032112F0C8FE002588E6204688
:1035D80012F017FD054638460DF052FD002DD8D0E3
:1035E8007EE60E4A0948032112F00CFC63681B0CA6
:1035F8001B0402A92046029312F0F7FB0299204609
:1036080012F002FC46E700BF0000FFFF3CAE0108D5
:103618000FC9010826C9010838C9010849C90108A4
:103628002DE9F04F1D4691B0837C0291044600922B
:1036380053B9644A6448012112F0E4FB6FF00C06A8
:10364800304611B0BDE8F08FC26A0821104612F06A
:10365800FDFB29460190104612F0F8FBE368019A39
:10366800A3EB8203AB420746C0F0A9801DB1009BC3
:10367800002B00F0A4806368059306AA05A92046DC
:10368800DDF814A012F029FC06460028D8D1BDF8B0
:103698001830029A934206D06268059B9A42ECD190
:1036A800002D36D1CCE706A9204612F0D9FB002818
:1036B800F2D0BDF81A80BDF81C3045B39D4228D120
:1036C800E36ADDF800B01B684FEA1A4A5B424FEA2A
:1036D8000A4A03F02003D0440393AA46DDF80C906D
:1036E800D14528BFD1464B4608AA4146204612F08C
:1036F80043FB00284AD14A4608A9584616F00CFD53
:1037080038B9BAEB090AC844CB44E7D198E7002B8B
:1037180096D0002F3DD1B84604F1140A4FF0FF327D
:103728004FF0FF3350460DF0DBFB238A9E4243D017
:10373800A168626808EB01039A422FD3029BADF897
:103748002030FF238DF82630009AADF822102B4642
:103758002046ADF8245012F00AFC29460746E06AD4
:1037680012F074FBA3680344A36057B908A812F0C9
:1037780064FB08A9204612F033FC002814BF074652
:103788002F4650460DF07CFC3E4659E7C1DC064604
:1037980056E7019B1F441FFA87F8BDE72046FFF74D
:1037A8005DFD07460028ECD1204612F041FC074693
:1037B8000028E6D10136B8E76FF01B07E1E76FF0A4
:1037C80015063DE744C801083CAE01082DE9FF474E
:1037D8001E46837CBDF8309004460F4690464BB990
:1037E8002C482D4A012112F00DFB6FF00C0004B09B
:1037F800BDE8F087C06A082112F028FBE368A3EB54
:103808004003B34243D3D4F804A0CDF804A0002564
:103818004D455146DDF804A009D9636853451ED1CA
:10382800BDF80830BB421AD06FF00100DFE702AAEA
:1038380001A9204612F051FB0028D8D1BDF8083064
:10384800BB4206D102A9204612F00AFB08B1013595
:10385800ADB26268019B9A42DAD15146E0E7BDF801
:103868000C30002BE0D0A945DED8BDF80A00090CC1
:10387800B3424FEA014128BF33460144424620463D
:1038880012F07AFA0028B2D1BDF80C00AFE76FF059
:103898001500ACE73CAE010844C8010830B5104932
:1038A800104889B0002216F082FB0F4D0F49002204
:1038B8000023CDE9062300240E23CDE90334CDE906
:1038C80001440B4B00944FF4006228460EF034FA82
:1038D800084928460EF09EF9204609B030BD00BFC1
:1038E800493A0008A00C0020F8070020C026002054
:1038F800913D00088CC901082DE9F047DFF8588090
:10390800044607464FF0010914B93846BDE8F08768
:1039180094FAA4F5B5FA85F509FA05F32E0108EB32
:1039280005156FEA030A24EA03042B7B002BEBD06E
:1039380058F806301B694BB9464404227368284678
:10394800196807EA0A0712F085FCDDE72846984758
:103958000028D9D1F0E700BF1CAF01082DE9F047D6
:10396800DFF8BC902F4CA9EB04038F2B80460F4641
:103978000BD92D492D4A2E484FF4A67312F0EBF8B7
:103988004FF4A671294812F0DDF82A4812F03AFCE3
:10399800064678B300252846BDE8F087237B83B127
:1039A8002368DB680BB120469847636883F806A054
:1039B80023681B69B3B9636804221968204612F0AA
:1039C80049FC013610344C4518D91B49174A184888
:1039D8004FF4AC7312F0BFF8184812F0BCF84FF46B
:1039E800AC71CFE7204698470028E4D00AFA06F3DE
:1039F8001D43E6E705464FF0010AE4E7CED3B8F1E8
:103A0800000FC8D0002DC5D02846FFF775FF054622
:103A1800002FF7D0002164200FF060F8F2E700BF14
:103A28002CAF01081CAF0108C1C9010894C90108DD
:103A3800D4BD0108E00F0020F1C9010812CA01082D
:103A480001480DF00DBC00BF04070020014B53F8DE
:103A58002000704744B2010808B5034608462BB158
:103A6800044A136000F0D0FD002008BD6FF0150077
:103A7800FBE700BF7003002010B5044C237813B98E
:103A880003480DF0EDFB0123237010BD6D230020CA
:103A98000407002010B504460B4812F0B3FB5CB1D4
:103AA800BFF35B8F094B53E8001F013943E800124D
:103AB800002AF8D1BFF35B8F054816F084FA054851
:103AC800BDE810400DF0CCBBD80F0020DC0F002063
:103AD800A00C0020040700200020064BBFF35B8FDA
:103AE800014653E8000F43E80012002AF9D1BFF35A
:103AF8005B8F7047D80F002070B5FFF7EDFF104CB3
:103B0800104E0546B44219D90F49104A10484FF4CF
:103B1800037312F020F80F4812F01DF80B484FF409
:103B2800037112F00FF863685B792BB123685B6847
:103B380013B12946204698471034E3E7F3D370BD04
:103B48001CAF01082CAF0108F1C9010894C901088C
:103B5800D4BD010812CA010810B5044C0449204616
:103B6800FEF7C0FF034B1C6010BD00BF48060020D5
:103B780030B20108CC0F0020154A1648002310B5B2
:103B88001370154A1360154A4FF47A711360FFF7E2
:103B980063FFFFF7E1FF124B124918468B4215D914
:103BA8001149124A124840F2271311F0D4FF114864
:103BB80011F0D1FF0D4840F2271111F0C3FF1A1A76
:103BC8005C681211013222711033E7E7F7D310BD98
:103BD8006E23002027620108D80F0020DC0F002088
:103BE8001CAF01082CAF0108F1C9010894C90108EC
:103BF800D4BD010812CA0108014600220148002369
:103C0800FEF7A2BF480600200148FFF7B9B800BF79
:103C180048060020024B01461868FFF745B900BF67
:103C2800CC0F00200148FFF7B1B900BF48060020BB
:103C380070B52E4B1878002856D0FFF7E5FF0546DB
:103C480000283DD12A4B2B4C1B68002B12DD16F0A7
:103C580066F90A220023FDF733FAD4E90032C01AC4
:103C680040F2E93361EB0201984271F1000101D39E
:103C7800FFF742FFD4E9003213F57A7342F10002EC
:103C8800C4E90032BDE87040FFF7CCBF63685B79D8
:103C980023B1236829461B68204698471034B4424C
:103CA80011D91549154A16484FF4007311F053FFFE
:103CB800144811F050FF11484FF4007111F042FF01
:103CC800114C124EEBE7E1D32846FFF7A3FFBFF3F1
:103CD8005B8F0F4B53E8001F013943E80012002A9D
:103CE800F8D1BFF35B8FADE770BD00BF6D23002037
:103CF800D80F0020980C0020F1C9010894C90108C8
:103D0800D4BD010812CA01081CAF01082CAF010874
:103D1800DC0F002070B5154D297829BB0120FFF76D
:103D28001DFE134C134EB44217D91349134A1448B5
:103D380040F2C51311F00FFF124811F00CFF0F48A5
:103D480040F2C51111F0FEFE63685B791BB1236870
:103D580020469B6898471034E5E7F5D3FFF768FFDE
:103D68000028FBD101232B7070BD00BF6E230020FB
:103D78001CAF01082CAF0108F1C9010894C901085A
:103D8800D4BD010812CA01082DE9F047384B394F54
:103D9800FB1A1B090AD13849384A394840F2A93375
:103DA80011F0D9FE40F2A931344819E00021084643
:103DB800FFF7D4FD0446A8B14FF4FA784FF0000994
:103DC800304B1B789BB93049304A2D4840F2463376
:103DD80011F0C1FE2E4811F0BEFE2C4840F24631CB
:103DE80011F0B0FE4FF0FF384FF0FF39E8E716F05A
:103DF80049FC284B284A1B58136033B1274B1B68D2
:103E0800092B02DD26480DF02BFADFF894A00025D7
:103E180044B12046FFF770FD044618B94FF0FF384B
:103E28004FF0FF39FFF704FF064628B935B9424677
:103E38004B4650460DF098FA3546E9E70C4D08E038
:103E4800F5D22B689B691BB100221146284698477A
:103E58001035BD42F4D91349084A094840F29D3348
:103E680011F079FE104811F076FE40F29D319BE783
:103E78001CAF01082CAF010831CA010894C9010818
:103E8800D4BD01087D24002010C70108E5C601083B
:103E980023C7010808000000D40F0020DC0F002011
:103EA80004070020F1C9010812CA010813B52C48FB
:103EB80012F0A8F92B4B1B78002B35D0EFF31184A7
:103EC800102383F31288BFF36F8F27480FF01AF976
:103ED80068B9264A26492748882311F03CFE22491A
:103EE800254811F038FE8821204811F02BFE1E4885
:103EF8000FF02CF9FFF79CFE1B480FF011F968B979
:103F08001A4A1E491B484FF49A7311F024FE1649A9
:103F18001B4811F020FE4FF49A71E5E784F31188ED
:103F2800BFF36F8F02B010BD164B1B68002BF9D082
:103F380050B900220023CDE90023134842F2107241
:103F480000230FF033FCEDE70928EBD10E4816F0FB
:103F58003AF80E4802B0BDE810400DF081B900BF34
:103F6800DC0F00206E230020D00F002074C701084A
:103F7800A1C70108D4BD0108B6C70108CCC701080C
:103F8800E3C70108D40F0020A00C0020040700207C
:103F980010B5064B1B68044698472146A0600448A4
:103FA800FEF796FEBDE81040FFF780BF70030020C3
:103FB80048060020044A054B9B1AB1EBD30F34BFC7
:103FC80052F8310000207047E4AD01081CAF010829
:103FD8002DE9F04F8FB004AFC1F34A28B8600D4601
:103FE80091467B600C0DB8F1000F68D0002607F1F0
:103FF80014034FF0040B4FF00A0AC7F80C80C7E906
:1040080007667E620193CDF808B0CDF800A007F1ED
:104018001C03F96832464846FEF7EEFAB0F5006F21
:1040280003461CD36C468AB0D9F8041004AB2C485C
:10403800C3E9050140F2FF71D9611A464FF40071D6
:104048001984284B42F8103F274833464FF4125141
:10405800FFF7BEFFA5462C37BD46BDE8F08FC0F37D
:104068000A0804F11700184420F0070080083B6094
:10407800FFF7C2FD68F35325044640B33B681B4A6B
:10408800C7E9083600F1100107F11403F961CDE919
:1040980000A3CDF808B0F96807F11C034846FEF7FD
:1040A800ABFA002813DA12491248134A4FF4A373E3
:1040B80011F051FD10484FF4A37111F043FD04F1C4
:1040C800170020F007008008FFF796FD044668F304
:1040D80053257B68B9682A46204612F0DBF8BAE710
:1040E8005ACA01080400000164AE01086F620108A1
:1040F800C6CA0108D4BD010899CA01082DE9F04FC4
:1041080087B0DDE91279DDE9106A04460391934628
:10411800984627B3CDF800903B4652461021002020
:10412800CDF81490FEF74CF8051E0BDA2649274AFD
:10413800274840F2651311F00EFD40F2651123483F
:1041480011F000FDB5F5006F0ADB224A224840F263
:10415800FF73022107B0BDE8F04F12F0F4B83D46F6
:1041680006F11700284420F0070004F0070480082F
:10417800FFF742FD0BF0070BE40044EA8B1444EA16
:10418800452444EA06540646A0B19FB1CDF80090F4
:104198003B46524629461030FEF712F8002809DA45
:1041A80009490A4A0A484FF4C47311F0D4FC4FF481
:1041B800C471C4E7039943462246304607B0BDE8B8
:1041C800F04F12F067B800BFC5CA010899CA0108C4
:1041D800D4BD0108CFCA010864AE0108406820B107
:1041E800034BC01A40F3CF0070474FF0FF307047C1
:1041F800E4AD01080EB403B503AB014653F8042B34
:104208000448019301F0EAFA02B05DF804EB03B048
:10421800704700BF3D420008CA0605D48B064CBF54
:1042280002490349FFF7E6BF704700BF8EF4010853
:1042380007CB010838B54B681A68CB689A4205461F
:104248000C4602D1084612F0A2F86368BFF35B8FF0
:1042580053E8002F511C43E800100028F8D1BFF3A1
:104268005B8FA3689D5463681A68E3689A4209D90A
:1042780005490648064A722311F06DFC044872216C
:1042880011F060FC002038BD39CB0108D4BD01080D
:104298000ACB01082DE9F04F89B09B46149B069381
:1042A8009DF84CA0159B0593169B179E04930446F6
:1042B8000D469046BAF1000F00F0AD80BAF1040F38
:1042C8000BD9A349A34AA44840F24D2311F043FC5B
:1042D80040F24D219F4811F035FC06F48073079396
:1042E80011F0B6FF06F00209024600283FD09B49AC
:1042F8002046FFF77FFF0746B9F1000F08D016F0F8
:10430800440F36D196492A462046FFF773FF0744E3
:1043180006F0010353B1934B934953F82A20934B6A
:104328002046002A08BF1A46FFF764FF06F4807388
:10433800002B4AD006F00803002B64D1B8F1000F17
:1043480067D08B4942462046FFF754FF0546069B37
:104358003D44002B6ED1049B002B40F08380F30773
:1043680000F1F08031462046FFF756FFE4E00746AB
:10437800C2E7804B18680028C9D07F4B4FF47A7980
:104388001B68B5FBF3F54FF46163B5FBF0F100FB77
:10439800115509FB05F54FF03C0CB1FBF3F203FB9B
:1043A8001211B5FBF0FEB1FBFCF300FB1E550CFB34
:1043B800131109FB05F50091B5FBF0F56F49CDE93F
:1043C80001E52046FFF716FFA1E706F00803EBB169
:1043D8006B4B6C4953F82A202046FFF70BFF054624
:1043E800B8F1000F05D0624942462046FFF702FFA8
:1043F8000544BBF1000FAAD063495A462046FFF78F
:10440800F9FE0544A3E74FF0000BE1E706F00805C5
:10441800E6E745469BE7BBF1010F069B06D1DBB9F2
:10442800049B002B00F0888000251BE0002BF7D0B0
:10443800564812E05648069B5649224611F01BFB87
:1044480000280CDA5449434A434840F2A72311F0A4
:1044580082FB40F2A7213DE74D485546EBE7049B18
:10446800002B65D0DFF83481DFF83491049F3146A2
:10447800102F204628BF1027FFF7CEFE4FF0000B65
:104488005D4542DC059B49461A782046FFF7B2FE97
:104498004FF0010B1BF0070F03D141462046FFF7F1
:1044A800A9FE5F4538D9059B494613F80B202046DD
:1044B800FFF7A0FE0BF1010BBBF1100FEAD1394950
:1044C80020464FF0000BFFF795FE5A46059B9A5C75
:1044D800A2F120015F2928BF2E2233492046FFF789
:1044E80089FE0BF1010BBBF1100F1AD01BF0070F5F
:1044F80003D141462046FFF77DFE5F455A46E5D881
:1045080041462046FFF776FEEBE741462046FFF797
:1045180071FE0BF1010BB3E724492046FFF76AFE51
:10452800C8E7059B3B440593049BDB1B04939DD183
:10453800BAF1000F7FF413AF204609B0BDE8F04F81
:1045480011F025BF094A08492046FFF753FE09E73D
:104558006ECB01080ACB0108D4BD010879CB01084C
:104568007DCB010854B2010823D5010869CB0108A5
:10457800A2CB0108E80F0020E40F002086CB010839
:1045880068B20108A6CB0108ACCB0108B1630108E9
:104598003D420008E5570008B1CB0108C2CB01082D
:1045A800BACB0108C4CB0108C6CB0108C0CB0108AF
:1045B80073B542F20F738B4228BF0B4605680F4A4A
:1045C8000446052168460FF07DFD63680C495B6869
:1045D80006460B22284611F0CCFE6368324669462F
:1045E80028465B6811F0C5FE636806495B681B22B4
:1045F800284611F0BEFE02B070BD00BF0BE60108F0
:10460800E5CB0108C9CB0108074A002101239042E4
:1046180006D8064A01B901231360054B1860704794
:1046280040085B000121F2E740420F00E40F002040
:10463800E80F0020F8B5074F0D4604464618B44267
:1046480001D12846F8BD14F8011BBB680148DB6995
:104658009847F4E7D4A8010810B543681C680948CE
:1046680015F055FB48B908490848094A992311F03B
:1046780072FA0748992111F065FA23685B685C6053
:1046880010BD00BFD4A801084FCC0108D4BD010853
:1046980011CC0108014B036000207047B0B201083B
:1046A80070B5104B1C680D46B4B10F4B1968002348
:1046B8008B4202DB6FF0010070BD224612F8106BCE
:1046C800864202D001331446F2E7E06815F01FFB7A
:1046D80028B12C600020EFE76FF00C00ECE76FF0DA
:1046E8001200E9E77C030020B0B2010810B588B0D9
:1046F800436802938368C068CDE903320A680023DF
:10470800CDE906230C4601AA0449059314F01EFAC4
:10471800079808B9059B236008B010BD9F6401087D
:104728002DE9F0410C4B1C6805460E4617467CB136
:1047380000F004F963682046D3F8108032463B46FF
:104748002946C047044600F003F92046BDE8F08139
:104758006FF00104F9E700BF181000200023036080
:10476800044B5A6812B9C3E90000704710605860DA
:10477800704700BF1C100020014B1860704700BF35
:10478800181000201FB5CDE90101039200F0D6F8FA
:10479800074B1C6824B900F0DBF8204604B010BDB4
:1047A800636820461B6801A998472468F2E700BFA0
:1047B8001C100020024B0022C3E90022704700BFF2
:1047C8001C100020024B0022C3E90022FFF7F2BFB1
:1047D800241000202DE9F74307460C4609B10023B1
:1047E8000B60264DDFF8989000264D4524D92549C1
:1047F800254A26489D2311F0AEF9254811F0ABF95A
:1048080021489D2111F09EF9D5F8008001AA414662
:10481800384611F07BFE50B116B954B92E4606E061
:1048280031680022404611F071FE0028F5D1183594
:10483800DBE7019B2360F1E7E6D3164B1D68C5B1A2
:1048480055F8188C01AA41463846183D11F05EFE0D
:1048580050B116B954B92E4606E0316800224046D8
:1048680011F054FE0028F5D1AD69E8E7019B2360FB
:10487800F1E7304603B0BDE8F08300BF2CAF010874
:104888002CAF0108CCCC01089ACC0108D4BD010892
:1048980012CA0108241000202DE9F04784B002AFA5
:1048A8000446D7F8289078600D4616469846B9F120
:1048B800000F07D0D9F8001031BBD9F804A0BAF11D
:1048C800000F28D1391D2046FFF784FF08B3D0F820
:1048D8000C907868434632462946C847C8B16D46A9
:1048E8008AB002AA124BD061C2E905344FF40073B2
:1048F8001384104B42F8103F0F4800234FF4115116
:10490800FFF766FBAD4604E03A1D11F0FFFD0028F5
:10491800D3D1002007E0D9F80830009378684346DF
:1049280032462946D0470837BD46BDE8F08700BF64
:10493800F4CC010804000001B4AE010803484FF0AC
:10494800FF324FF0FF330CF0CBBA00BFF006002067
:1049580001480CF095BB00BFF006002038B5094DA2
:10496800FFF7ECFF2B783BB9FFF72CFF00F06AF854
:10497800044610B901232B700024FFF7E9FF2046F5
:1049880038BD00BF702300202DE9F047048FDFF801
:10499800B0A0013498B006468946A4B200F10807D1
:1049A800651EADB2B5F5004F47D04A2305AA294682
:1049B800384611F00EFC04F57F543F34A4B280460B
:1049C800214601230DF10B02384611F002FCB8F123
:1049D800000F014610DC002810DC338FAB4209D1F0
:1049E80032466B1E22F8383F4FF400410223384606
:1049F800FEF716FE2C46D3E7002808DC2946384681
:104A080011F0E3FB2146384611F0DFFBE5E708F13A
:104A180060030DEB0308002308F84C3C5246CDF820
:104A2800009003AB05A80397ADF81040FFF734FFDB
:104A38000028DFD018B0BDE8F0870020FAE700BFF3
:104A4800616501087FB50123694603200193FFF7DB
:104A580027FE044660BB02AA01A9032011F03DFD10
:104A6800044610B110F10C0F22D10399B1F5803F23
:104A780023D2009A002394681846084484421AD323
:104A88000133082BF9D10E4D69612B835368AB6054
:104A98002846D368EB6311F0F7FD044640B9094E88
:104AA8006E602846FFF75AFE28466E60FFF764FEE0
:104AB800204604B070BD9BB2E5E76FF02004F7E72D
:104AC8002C1000208003002008B50348034A002169
:104AD800121A11F00EFE08BD500700208024002095
:104AE8000748084A084908B5121A11F004FE074891
:104AF800074A0849BDE80840121A11F0FCBD00BF7A
:104B0800000000204C0700208CFD01080000002058
:104B1800000000208CFD01082DE9F047064600AF93
:104B28000C46002936D0E9468AB0D1E90012A368BC
:104B38006D462148A8464FF0050AC5E90501C5E9B3
:104B4800072348F810AF1D48424600234FF421516F
:104B5800FFF73EFACD46D4E903126369AD4618481B
:104B6800C5F810A0C5E90501C5E9072313480023C6
:104B780042464FF42151FFF72BFACD46E369114A1B
:104B88000E48012111F0DFFBA3690F4A0B480121F0
:104B980011F0D9FB012E07D1EFF305830B4A074823
:104BA800103B314611F0CFFB214630460BF08AFF0F
:104BB800BD46BDE8F08700BF28CD0108ACAE0108AE
:104BC80057CD010886CD010895CD0108C3CD010850
:104BD80030BFFFF7FDBF00BF2DE9F0410B4EDFF8F6
:104BE800308006EB0807CC1B0546324609492046AB
:104BF80015F07CFAA01942460021083C15F084FA09
:104C0800C5F8944007F10800BDE8F08100000000F5
:104C1800080000002CAF0108054B5A699B689A42AE
:104C28001FBF044A536843F080535360704700BF66
:104C38009022002000ED00E070B5244C06460D4699
:104C48002348244911F064FDA36AD9043CD52048BF
:104C5800214911F05DFD1720A36A1A0504D51C48E7
:104C68001E4911F055FD1820184CA36A9B0512D552
:104C78001B49174811F04CFDA36BA26A110409D512
:104C8800184A1348012111F05EFB1EB1A36A23F4F0
:104C98000043A36219200D4CA36A5A0504D50C4899
:104CA800114911F035FD1A20A36ADB0504D508481F
:104CB8000E4911F02DFD1B20044A936A43F47F43EB
:104CC800936200232B7070BD1620C5E700ED00E04D
:104CD800ACAE0108D6CD0108ECCD0108FDCD010828
:104CE80010CE010829CE01083ECE010859CE010890
:104CF80010B5204C2049214811F00AFDA36A9901FA
:104D080036D51E481E4911F003FD1E20A36ADA019C
:104D180004D51A481B4911F0FBFC1F20154CA36A47
:104D28001B0304D51548184911F0F2FC2120A36A89
:104D3800590304D51148154911F0EAFC22200D4CFD
:104D4800A36A9A0304D50D48114911F0E1FC232008
:104D5800A36ADB0304D509480E4911F0D9FC2420C5
:104D6800044A936A6FEA03436FEA1343936210BDE0
:104D78001D20CBE700ED00E071CE0108ACAE0108C4
:104D880089CE01089CCE0108B6CE0108D4CE010810
:104D9800F9CE010813CF01082DE9F843384D8046B4
:104DA800894638483849174611F0B2FCAB6ADC0628
:104DB80027D53649334811F0ABFC1124AB6A1807E4
:104DC80004D533492F4811F0A3FC12242C4DAB6AAB
:104DD800990718D52F492B4811F09AFC6E6BAB6ACE
:104DE8001A0637D52C4A27483346012111F0ABFA69
:104DF800B9F1000F03D0AB6A23F08003AB62132430
:104E080003E01024DAE76FF015061D4DAB6ADB07E7
:104E180004D522491B4811F07BFC1424AB6AD80640
:104E280002D4AB6A99070BD5154D6B681A0507D5DF
:104E38004146304600F070FA78B180F309880224C0
:104E48000F4A936A43F0FF03936200233B702046A6
:104E5800BDE8F8836FF01506D1E7AB6ADB06EFD53E
:104E68000F49104A104840F2271310F074FE0F48FB
:104E780010F071FE0B4840F2271110F063FE00BFDE
:104E880000ED00E0ACAE01083ECF010854CF0108A8
:104E9800FDCD010887CF01089FCF0108B5CF0108D4
:104EA80006D00108D4CF0108D4BD010850D00108AC
:104EB800F0B5794B8BB00446586800AFC0F30803CF
:104EC800002686F31188BFF36F8F02F07F45B5F196
:104ED8007F4F07D102F00C05082D12D16F49704899
:104EE80011F016FC6F49704A704840F2144310F0F4
:104EF80032FE6F4810F02FFE40F214416A4810F05D
:104F080021FE15074CBF0C460126002CEAD00022D2
:104F1800FA71DA1E092A00F29E80DFE802F0059491
:104F280097779C9C9C9C9C9A62495D485A4D11F0CD
:104F3800EFFB0023FB71EB6A9A0705D55E495848D9
:104F480011F0E6FB002329E0EB6A002B01DA5B494C
:104F5800F5E7EB6A5B0069D55949514811F0D8FB70
:104F68006B69A26943F480736B61BFF34F8FBFF322
:104F78006F8F6B6932F8022C23F480736B61BFF377
:104F88004F8FBFF36F8F4DF602739A4227D1236874
:104F98004C4A4348012111F0D6F92368FA79DAB965
:104FA80007F1080504F1200C206861682A4603C24D
:104FB800083464451546F7D17A6A002E67D0C2F3E3
:104FC800080121B96FEA52226FEA42227A6207F198
:104FD80008011846FFF7A0FD2C37BD46F0BDAB6AA7
:104FE800DBB233B1FA1D01212046FFF7D5FE034697
:104FF800D4E7AB6A13F47F4F04D0F91D0120FFF703
:105008001BFEF4E7AB6AB3F5803F02D3FFF770FEEF
:10501800EDE72D49244A254840F2ED2310F09BFD89
:105028002A4810F098FD40F2ED2167E726491E4A0C
:105038001E484FF43C7310F08EFD254810F08BFD90
:105048004FF43C715AE7FA1D0021CDE7F91D002005
:10505800D5E7204973E7204A204910F4F87F6D46C8
:105068008AB018BF11466A46103BD3611C484FF4FA
:10507800007313841B4BC2E9050142F8103F08482E
:1050880000234FF41151FEF7A3FFAD465AE722F46F
:10509800FF7222F0010299E700ED00E0A1D00108BB
:1050A800ACAE0108CCD00108D4CF0108D4BD0108AA
:1050B800DFD001081DD1010834D1010855D10108FC
:1050C80063D1010882D10108CEF101089ED10108FF
:1050D800C2D10108F2D1010888D0010873D00108B3
:1050E80016D2010804000001044B5A6942F010026C
:1050F8005A615A6922F008025A61704700ED00E0CF
:10510800EFF30880EFF3098101B57246FFF7D0FE8F
:1051180001BD00BF0A4880F30888102080F3118879
:1051280008484FF40461401880F30988EFF31480AD
:105138000221084380F31488BFF36F8F11F0F0FA4F
:1051480080400020002F0020084B9B6883420BD131
:10515800EFF3058343B1064B5A6842F080525A6018
:105168005A6A22F400425A620DF050BD9022002083
:1051780000ED00E015498A684FF030001044EFF365
:10518800098C80E8F01F102080F31288BFF36F8F1E
:105198000F4F4FF000664A698A603E60D2F894006B
:1051A8000C4C2060D2F898000023C2F8983080F3A5
:1051B800118804B5104600F017F9BDE8044002F163
:1051C800300090E8F01F8CF3098870479022002087
:1051D80004ED00E06C1000201EF0040F0CBFEFF38C
:1051E8000880EFF30980816911F8021C0229FFD0B9
:1051F80001B5724611F081FA01BD00BF40B2002826
:1052080007DB044A4109012300F01F00834042F8EC
:105218002130704700E100E040B200280CDB430970
:10522800064900F01F0020330122824041F8232064
:10523800BFF34F8FBFF36F8F704700BF00E100E0EF
:10524800054B420900F01F0053F82220012303FAFE
:1052580000F01040704700BF00E100E038B54B1C7B
:105268000F2B04460D460FD9114A124912486B23D9
:1052780010F071FC114829460F23224610F06BFCF0
:105288000B486B2110F05EFC40B20028ACBF00F167
:1052980060400B4A4FEA0313B8BF00F00F00DBB2BF
:1052A800AABF00F56140135480F8003338BD00BF31
:1052B80029D2010860D20108D4BD01087BD20108B7
:1052C80014ED00E0044B054A23F07F039360BFF31D
:1052D8004F8FBFF36F8F70470000000800ED00E0AC
:1052E80042F8203C009B42F81C3C0A49019B42F8CA
:1052F800183C029B42F8143C21F001014FF08073E6
:1053080042F8043C42F8081C0023203A0265C0F821
:1053180098307047812A00080A4A0346906878B195
:1053280013F1160FD0F8840005D0A0F140029A427C
:1053380005D8834203D2814228BF0020704700204D
:10534800704700BF9022002008B515460C4A0D4B47
:105358009060D0F894201A600E4600F045F82C466C
:1053680086F309880020044B984720460021002234
:105378000023024C2047000045670108812A0008E5
:10538800902200206C100020014B10221A617047F7
:1053980000ED00E0044800231021C21801333E2B21
:1053A80082F80013F9D1704700E100E008B5EFF387
:1053B8000583064A103B02EBC30152F833004968E3
:1053C8008847BDE80840FFF727BC00BF08AA0108C6
:1053D800024B034A0348012100F08CB80000012069
:1053E80000000020F4B20108D0F88420054B403AB0
:1053F8001A60054A4021C3E901121846012100F04C
:105408009FB800BF7010002000000B1508B50346B8
:105418001048D0F89020C2F30722013A934207D9E6
:105428000D480E4A012110F08EFF6FF0150008BDDF
:10543800C0F898300A6822F01F021A4342F010029E
:10544800C0F89C208A6842F00102C0F8A0201846E3
:10545800EDE700BF00ED00E0A4AE0108BFD20108EF
:10546800F0B50E4685B01F4604460025B5420DDA54
:10547800606810B397B1431E18420AD0104A114809
:105488002B46012110F05FFF6FF01502104605B0A2
:10549800F0BD1F28F2D921680B42EFD12368019390
:1054A80011F060F9A36801A90343D0B20393FFF791
:1054B800ADFF10F1160FE7D0421C01350C34D5E7CB
:1054C800E5D20108A4AE0108044B0522C3F89420D4
:1054D800BFF34F8FBFF36F8F704700BF00ED00E041
:1054E800BFF35F8F024B0022C3F89420704700BFC0
:1054F80000ED00E038B50D4D01232A780C46FFF782
:10550800AFFF287016300FD1094A0A490A4840F2FD
:10551800831310F020FB0948214610F01CFB0448B7
:1055280040F2831110F00EFB38BD00BF712300203C
:1055380008D30108CEF10108D4BD010837D301080A
:1055480010B5144A002312780C46FFF789FF10F1B2
:10555800160F08D0104A0021D2F89030C3F3072361
:10556800984210DB10BD0D4A0D490E484FF4D17317
:1055780010F0F1FA0C48214610F0EDFA07484FF404
:10558800D17110F0DFFAC2F89800C2F8A01001300B
:10559800E2E700BF7123002000ED00E008D3010816
:1055A800CEF10108D4BD010863D301082DE9F04FFD
:1055B8007B4C7C49D4F890300D68C3F307239D4297
:1055C80085B013D9784A794979484FF4FE7310F0B9
:1055D800C2FAD4F8902077482946C2F3072210F07F
:1055E800BAFA4FF4FE71704810F0ACFAFFF778FF82
:1055F80049680022954201F10C012DD16E4C6F4F84
:1056080025706846FFF746F8DFF8B481DFF8B491F3
:1056180006460025AE4232D1237861490020D1F8F0
:105628009020C2F307229342C0F2AF80FFF74CFFED
:10563800D1F89030C3F30723082B00F0AC806249FF
:10564800594A5B4840F26E2310F085FA5F4810F023
:1056580082FA40F26E21C6E7C4F8982051F80C3C53
:1056680023F01F03134343F01003C4F89C3051F890
:10567800043C43F00103C4F8A0300132BAE7009AB1
:1056880002EB05132901D3F80CA00AEA0700B0F5CC
:10569800000F60D00AD8B0F5001F38D0B0F5800FE1
:1056A8004ED0B0F5801F12D00135B3E7B0F1807F3E
:1056B8005CD0B0F1007FF7D19868D3F804A05258B5
:1056C80011F050F8CDE901A240F480200BE0986871
:1056D800D3F804A0525811F045F8CDE901A240F0E2
:1056E800885040F430200390207801A9FFF78EFEFF
:1056F800002846DA2D492C4A2D4840F2262310F07E
:105708002AFA334810F027FA40F226216BE7986806
:10571800D3F804B0525811F025F81AF0010F40EAF6
:105728000800CDE901B20390DED02A491E4A20487C
:10573800832310F010FA284810F00DFA832152E75D
:105748009868D3F804A0525811F00CF8CDE901A2DA
:1057580040EA0900C7E79868D3F804A0525811F046
:1057680001F8CDE901A240F08270BCE79868D3F84F
:1057780004A0525810F0F6FFCDE901A240F088705D
:10578800B1E72378013323708EE7C1F89830C1F868
:10579800A000013343E7002005B0BDE8F08F00BF4B
:1057A80000ED00E000B3010808D30108CEF10108BC
:1057B800D4BD010890D30108712300200000F0FF38
:1057C800000008110000020243D4010893D4010824
:1057D80019D40108C4D30108EAD30108F0B587B089
:1057E80007460E4614460021102268461D4614F04E
:1057F8008BFC02238DF802302A46054B0193214683
:105808006846CDE904760EF0DFFE07B0F0BD00BFB4
:105818008D67010808B5024B1B689847002008BD32
:105828007C100020034B044A1860937843F002036D
:10583800937070477C1000209C03002008B506492F
:10584800064821F00701C1F1005202F58032FCF749
:1058580029FC002008BD00BF074900208010002057
:10586800024B1B6803B11847FF20704794100020B3
:105878000A4B0B4A0020C3E900000A4B1A600A4A87
:105888005A600A4A9A600A4ADA600A4B0A4AC3E925
:1058980000200A4A9A600A4ADA607047B810002065
:1058A800015A0008A81000202D590008655A000860
:1058B800A3670108981000206958000809610008CA
:1058C800A567010830B50E4C8BB02D2305466846F8
:1058D8008DF8003004F054F99DF904302278934291
:1058E80000D15DB1D8B2074B20701B6803B198474F
:1058F8002378054A0548032110F025FD0BB030BD7B
:105908007423002090100020C3D401087CAE010845
:10591800034BBFF35B8F1868BFF35B8F704700BF03
:10592800C01000202DE9F04383B0427802AF04464E
:10593800C2B1104600F020FB6C4688B002AA294B81
:10594800C2E905304FF400739383274B42F8103FA8
:1059580026484FF4E25110F023FFA5460437BD4610
:10596800BDE8F083FFF7D4FFC00702D51046FFF764
:10597800A9FFFFF7CDFF81070ED4237F63B1BFF3E3
:105988005B8F1B4B53E8001F41F0020143E80012F4
:10599800002AF7D1BFF35B8F6179237F4A1E5142FA
:1059A800514141EA4301134B1D685FFA81F8002D0C
:1059B800D4D0083D4FF6FF792B88E0784B4501D0CD
:1059C80083420AD1A16894F91030B4F90E200191EC
:1059D800217B00916E684146B047AD68002DBDD06F
:1059E800083DE9E7DBD40108030000017CAE0108AB
:1059F800C0100020B8100020B0B50446407800AFB1
:105A080098B100F0B9FA6D4688B06A460E4BC2E903
:105A180005304FF4007393830C4B42F8103F0C4849
:105A28004FF4E25110F0BCFEAD46FFF771FFC3071B
:105A380002D50020FFF746FF064B62781A70064829
:105A48000BF00EFCBD46B0BDF6D401080300000102
:105A58007CAE0108732300201C070020B0B58AB073
:105A68000446407800AFE0B100F086FA6D4688B091
:105A78006A461C4BC2E905304FF4007393831A4BF6
:105A880042F8103F19484FF4E25110F089FEAD4634
:105A9800174B62781A7017480BF0E2FB2837BD469F
:105AA800B0BD2378052B0FD0092B19D0012BEFD1CE
:105AB800072338463B7004F063F87B680E4A0B48AE
:105AC800032110F040FCE3E70C4B1B6813B1617A2B
