:020000040800F2
:10000000003D0020753E0008B74D0108613E000824
:10001000613E0008613E0008613E000800000000EB
:10002000000000000000000000000000393F000850
:10003000613E000800000000D53E0008D9F200082B
:100040000D4100080D4100080D4100080D41000858
:100050000D4100080D4100080D4100080D41000848
:100060000D4100080D4100080D4100080D41000838
:100070000D4100080D4100080D4100080D41000828
:100080000D4100080D4100080D4100080D41000818
:100090000D4100080D4100080D4100080D41000808
:1000A0000D4100080D4100080D4100080D410008F8
:1000B0000D4100080D4100080D4100080D410008E8
:1000C0000D4100080D4100080D4100080D410008D8
:1000D0000D4100080D4100080D4100080D410008C8
:1000E0000D4100080D4100080D4100080D410008B8
:1000F0000D4100080D4100080D4100080D410008A8
:100100000D4100080D4100080D4100080D41000897
:100110000D4100080D4100080D4100080D41000887
:100120000D4100080D4100080D4100080D41000877
:080130000D4100080D4100081B
:1001380080F0004002E000BF81F0004142001FBF94
:100148005FEA410392EA030F7FEA226C7FEA236C9D
:100158006AD04FEA1262D2EB1363C1BFD218414092
:1001680048404140B8BF5B42192B88BF704710F028
:10017800004F40F4000020F07F4018BF404211F0CB
:10018800004F41F4000121F07F4118BF494292EA33
:10019800030F3FD0A2F1010241FA03FC10EB0C005F
:1001A800C3F1200301FA03F100F0004302D54942EC
:1001B80060EB4000B0F5000F13D3B0F1807F06D399
:1001C80040084FEA310102F10102FE2A51D2B1F191
:1001D800004F40EBC25008BF20F0010040EA030086
:1001E8007047490040EB0000013A28BFB0F5000F06
:1001F800EDD2B0FA80FCACF1080CB2EB0C0200FABC
:100208000CF0AABF00EBC25052421843BCBFD0400A
:100218001843704792F0000F81F4000106BF80F484
:1002280000000132013BB5E74FEA41037FEA226C47
:1002380018BF7FEA236C21D092EA030F04D092F012
:10024800000F08BF0846704790EA010F1CBF002046
:10025800704712F07F4F04D1400028BF40F00040A3
:10026800704712F100723CBF00F50000704700F0C3
:10027800004343F0FE4040F4000070477FEA2262EA
:1002880016BF08467FEA23630146420206BF5FEABB
:10029800412390EA010F40F4800070474FF00003BB
:1002A80004E000BF10F0004348BF40425FEA000C82
:1002B80008BF704743F0964301464FF000001CE02A
:1002C80050EA010208BF70474FF000030AE000BF80
:1002D80050EA010208BF704711F0004302D54042BE
:1002E80061EB41015FEA010C02BF84460146002030
:1002F80043F0B64308BFA3F18053A3F50003BCFA4B
:100308008CF2083AA3EBC25310DB01FA02FC6344F7
:1003180000FA02FCC2F12002BCF1004F20FA02F2FE
:1003280043EB020008BF20F00100704702F12002F1
:1003380001FA02FCC2F1200250EA4C0021FA02F252
:1003480043EB020008BF20EADC7070474FF0FF0C57
:100358001CEAD0521EBF1CEAD15392EA0C0F93EA52
:100368000C0F6FD01A4480EA010C400218BF5FEAF4
:1003780041211ED04FF0006343EA501043EA511167
:10038800A0FB01310CF00040B1F5000F3EBF490061
:1003980041EAD3715B0040EA010062F17F02FD2A65
:1003A8001DD8B3F1004F40EBC25008BF20F0010048
:1003B800704790F0000F0CF0004C08BF49024CEA5F
:1003C800502040EA51207F3AC2BFD2F1FF0340EAF1
:1003D800C250704740F400004FF00003013A5DDC62
:1003E80012F1190FDCBF00F000407047C2F10002A3
:1003F800410021FA02F1C2F1200200FA02FC5FEA90
:10040800310040F1000053EA4C0308BF20EADC70D9
:10041800704792F0000F00F0004C02BF400010F44B
:10042800000F013AF9D040EA0C0093F0000F01F0F8
:10043800004C02BF490011F4000F013BF9D041EA1A
:100448000C018FE70CEAD15392EA0C0F18BF93EA1C
:100458000C0F0AD030F0004C18BF31F0004CD8D146
:1004680080EA010000F00040704790F0000F17BFCD
:1004780090F0004F084691F0000F91F0004F14D013
:1004880092EA0C0F01D142020FD193EA0C0F03D16B
:100498004B0218BF084608D180EA010000F000406E
:1004A80040F0FE4040F40000704740F0FE4040F449
:1004B800400070474FF0FF0C1CEAD0521EBF1CEAE8
:1004C800D15392EA0C0F93EA0C0F69D0A2EB030206
:1004D80080EA010C49024FEA402037D04FF08053A0
:1004E80043EA111143EA10130CF000408B4238BF65
:1004F8005B0042F17D024FF4000C8B4224BF5B1A73
:1005080040EA0C00B3EB510F24BFA3EB510340EAC0
:100518005C00B3EB910F24BFA3EB910340EA9C006E
:10052800B3EBD10F24BFA3EBD10340EADC001B01DE
:1005380018BF5FEA1C1CE0D1FD2A3FF650AF8B4282
:1005480040EBC25008BF20F0010070470CF0004C8F
:100558004CEA50207F32C2BFD2F1FF0340EAC250BA
:10056800704740F400004FF00003013A37E792F07B
:10057800000F00F0004C02BF400010F4000F013AD9
:10058800F9D040EA0C0093F0000F01F0004C02BFD4
:10059800490011F4000F013BF9D041EA0C0195E73D
:1005A8000CEAD15392EA0C0F08D142027FF47DAFD6
:1005B80093EA0C0F7FF470AF084676E793EA0C0FC6
:1005C80004D14B023FF44CAF08466EE730F0004CC4
:1005D80018BF31F0004CCAD130F000427FF45CAF54
:1005E80031F000437FF43CAF5FE700BF4FF0FF3CC2
:1005F80006E000BF4FF0010C02E000BF4FF0010C15
:100608004DF804CD4FEA40024FEA41037FEA226CDD
:1006180018BF7FEA236C11D001B052EA530C18BFFF
:1006280090EA010F58BFB2EB030088BFC81738BF64
:100638006FEAE17018BF40F0010070477FEA226C52
:1006480002D15FEA402C05D17FEA236CE4D15FEA4E
:10065800412CE1D05DF8040B704700BF8446084682
:100668006146FFE70FB5FFF7C9FF002848BF10F143
:10067800000F0FBD4DF808EDFFF7F4FF0CBF012088
:1006880000205DF808FB00BF4DF808EDFFF7EAFF12
:1006980034BF012000205DF808FB00BF4DF808EDCD
:1006A800FFF7E0FF94BF012000205DF808FB00BFC2
:1006B8004DF808EDFFF7D2FF94BF012000205DF848
:1006C80008FB00BF4DF808EDFFF7C8FF34BF012055
:1006D80000205DF808FB00BF4FEA4002B2F1FE4F70
:1006E8000FD34FF09E03B3EB12620DD94FEA0023EC
:1006F80043F0004310F0004F23FA02F018BF4042C5
:1007080070474FF00000704712F1610F01D14202AB
:1007180005D110F0004008BF6FF0004070474FF05F
:10072800000070477BB972B90029BEBF00204FF0A6
:10073800004106E008BF00281CBF6FF000414FF0E1
:10074800FF3000F057B8ADF1080C6DE904CE002970
:1007580009DB002B1ADB00F074F8DDF804E0DDE9B2
:10076800022304B07047404261EB4101002B1BDBC0
:1007780000F067F8DDF804E0DDE9022304B0404248
:1007880061EB4101524263EB43037047524263EB12
:10079800430300F056F8DDF804E0DDE9022304B075
:1007A800404261EB41017047524263EB430300F062
:1007B80048F8DDF804E0DDE9022304B0524263EBB7
:1007C8004303704753B94AB9002908BF00281CBF22
:1007D8004FF0FF314FF0FF3000F00CB8ADF1080CCE
:1007E8006DE904CE00F02DF8DDF804E0DDE9022320
:1007F80004B07047704700BF10F8012B11F8013B97
:10080800012A28BF9A42F7D0D01A7047034613F836
:10081800012B002AFBD1181A01387047430803F04E
:100828005533C01A00F03333800800F033301844D1
:1008380000EB10104FF0013300F00F305843000E5A
:1008480070472DE9F04786468C460846089E1546AF
:1008580074461946002B40F0C2808542B2FA82F2F3
:1008680045D94AB1C2F1200300FA02FC2EFA03F37B
:10087800954043EA0C0C94404FEA154EA8B2BCFBD5
:10088800FEF8230C0EFB18CC08FB00F943EA0C43D6
:10089800994528D9EB1808F1FF3704D2994502D9B0
:1008A800A8F102072B44A3EB0903A4B2B3FBFEFC97
:1008B8000EFB1C330CFB00F044EA0344A04214D99D
:1008C8002C190CF1FF3304D2A04202D9ACF1020377
:1008D8002C44241A43EA07401EB1D4400023346054
:1008E8007360BDE8F0874746DDE76346F1E792BBF2
:1008F800431B01214FEA154EAFB2B3FBFEFC200C9F
:100908000EFB1C330CFB07F840EA0343984562D9F9
:10091800EB180CF1FF3004D2984502D9ACF1020073
:100928002B44A3EB0803A4B2B3FBFEFC0EFB1C3361
:100938000CFB07F744EA0344A7424ED92C190CF1E3
:10094800FF3304D2A74202D9ACF102032C44E41BC2
:1009580043EA0040C0E7C2F1200320FA03F19540C2
:1009680090402EFA03F303434FEA154EAFB2B1FBA2
:10097800FEFC0EFB1C10190C0CFB07F841EA0041A9
:10098800884504FA02F422D969180CF1FF3004D220
:10099800884502D9ACF102002944A1EB08019BB2B9
:1009A800B1FBFEFC0EFB1C110CFB07F743EA0143ED
:1009B8009F420ED9EB180CF1FF3104D29F4202D9A5
:1009C800ACF102012B44DB1B41EA004192E760468F
:1009D800E3E76146F7E76046A3E76346B7E7834284
:1009E80006D916B9002108467BE7C6E900E0F9E711
:1009F800B3FA83F78FB9834201D3724508D8BEEBA7
:100A0800020460EB030301209C461EB9002168E73D
:100A18003846FAE7C6E9004CF8E7C7F1200CBB40B6
:100A280022FA0CF41C432EFA0CF120FA0CF3B8400D
:100A380001434FEA14490EFA07F5B3FBF9F81FFA18
:100A480084FE09FB18300B0C08FB0EFA43EA00433E
:100A58009A4502FA07F240D9E31808F1FF3004D2A8
:100A68009A4502D9A8F102002344A3EB0A0389B2EC
:100A7800B3FBF9F809FB183308FB0EFE41EA034102
:100A88008E452CD9611808F1FF3304D28E4502D95E
:100A9800A8F10203214443EA0040A0FB0298A1EB1D
:100AA8000E014145CE46434602D306D14D4504D2F8
:100AB800B9EB020E68EB04030138002EA6D0B5EBA3
:100AC8000E0261EB030101FA0CFC22FA07F34CEA6F
:100AD8000303F940C6E9003198E74046C5E74346B5
:100AE800D9E700001FB504460DF10F010DF10E0006
:100AF80014F0B0F99DF80F30044A009304482346D7
:100B0800032113F080FF04B010BD00BFFCA1010851
:100B180060930108F8B500AF6D468CB0FE696C466D
:100B2800DFF85CC06362C4E905C001F00100C4E9F4
:100B380007022246C1F340010723A16242F8103F91
:100B4800104800234FF4635102F0EEF8AD46A6B109
:100B580088B06A460C4B5361397E0C4B93614FF455
:100B68000073938309050A4B42F8103F41F4E6519C
:100B78000448334602F0D8F8AD46BD46F8BD00BF7C
:100B880020A2010860930108A9B5010853A2010831
:100B9800030000012DE9F0437D4A9DB010685168BB
:100BA8007C4A02AF3B1D03C31068516807F10C0370
:100BB80003C3794B07F1200203F1100C07F1040875
:100BC80007F10C06154618685968144603C408331B
:100BD80063452246F7D14FF6FF730024BB826F4B63
:100BE800C7F81640C7F81A40FC83BB61DFF8B0911C
:100BF800484617F0E2FB0346C0B96C4688B0D9F8FE
:100C0800001002AA6748C2E905014FF400719183F8
:100C1800654942F8101F65484FF4E25102F084F824
:100C2800A54600206C37BD46BDE8F083052003F0DB
:100C380017FE031E05DA5E4A5C48012113F0D9FE4F
:100C4800EFE703F0DFFF031E01DA5A4AF4E7204614
:100C580003F006FF07F1140003F0BEFF5648DFF863
:100C68005C9103F0C9FF564887F84440C7E90D5521
:100C7800C7F840803E6312F09FF818F8011B4846F9
:100C8800013412F099F8082CF7D14E48DFF82C817E
:100C980012F092F8002416F8011B4046013412F0B5
:100CA8008BF8082CF7D14848444E12F085F80024F8
:100CB80015F8011B3046013412F07EF8102CF7D1DC
:100CC800424812F08BF8424A3848032113F088FE54
:100CD8000021404810F0AEFD3F4A34483F4D334EA6
:100CE800DFF8FC80032113F07BFE00244FF000099D
:100CF80007F1300003F0D0FD031E1FDB394A2B48F3
:100D0800394C3A4D032113F06BFE238887F848309D
:100D18000122002307F14801104603F0D3FE10F129
:100D28000B0F034621D1324A2048012113F061FEFE
:100D380000214CF2503010F07DFDE6E701341F2C05
:100D480008D11E2300932B4A18482346012113F08B
:100D58005AFE66E7012100942A46304613F053FEF6
:100D68004046494610F066FDC2E7002801DA224AEB
:100D780062E723880D482A46032113F03AFE2388A8
:100D8800FE2B9ABF01339BB200232380D0E700BF1C
:100D9800F8A301084094010801A401081D0B0008EC
:100DA800A48E01085DA201080300000160930108F8
:100DB80073A2010891A20108ED0A0008B7A2010870
:100DC800AAA20108BCA20108C9A20108D6A201086A
:100DD800D8A20108A0860100F6A2010849A30108CB
:100DE800E09304007EA3010808220020D6A301088E
:100DF80097A3010810A30108BEA30108B2F5802F2C
:100E08002DE9F0410ED33C493C4A3D4840F21323BA
:100E180013F0F7F93B4813F0F4F940F2132137487F
:100E280013F0E6F9042A0CD83749344A344840F21A
:100E38001A2313F0E6F9354813F0E3F940F21A21C2
:100E4800EDE7043ACD1D8E1825F0070526F00706B4
:100E5800761B172E4FEAD6070CD82D49274A284863
:100E680040F2232313F0CDF9284813F0CAF940F2D1
:100E78002321D4E7B7FA87F4C4F12002C4F124048B
:100E8800A4000734E408631C4FF00008BB42056067
:100E9800AF60C5F80C800CD91E49184A18484FF4A1
:100EA8000E7313F0AEF9194813F0ABF94FF40E7145
:100EB800B5E74146920005F1100017F07BFC63008E
:100EC80043F001036B8005EBC4023B1B5900A5F8F6
:100ED80000805180AA1925F83440A2F80280AB534B
:100EE80005EBC70321465A8842F001025A8028467A
:100EF800BDE8F04113F0EEB80DA5010822A40108E1
:100F080056A4010823A501083AA501085BA5010814
:100F180074A501089DA501082DE9F04F91B005467B
:100F2800009302F004030193C2F3C2030133049354
:100F38008307DDF8689002920E4640F0FC81041D9C
:100F480030B1072909D86FF01B0011B0BDE8F08F48
:100F580001F007063444C6F10806009B4FF000086C
:100F68004FF0040B591ECDF80C80474643464FF00E
:100F7800FF32DA460DB1009820600498002800F38B
:100F8800DF809B48DDF800C0844503D39948844539
:100F9800C0F0D680DDF808C0A4EB050E1CF0020FE7
:100FA8004FEA9E0000F0E7804FF0000CD1E07A286D
:100FB80062D84B280FD847285ED829282DD825284D
:100FC80059D059D820287DD0A0F12309D9F10003A0
:100FD80043EB090376E04C382E284DD8DFE800F0C3
:100FE800724C4C4C4C4C4C4C4C4C4C4C4E4C4C4C11
:100FF8004C4C4C4C4C5C4C4E4E5C5C5C724E6F4C9A
:10100800724C184E184C4C817E4E4C4C4E4C7E0007
:10101800002000234FF0040B3CE02A384FF0010E6B
:10102800C0B20EFA00F04FF6DA7E10EA0E0F49D180
:1010380010F0625E30D110F0010343D07046013CDD
:101048005C44B4FBFBF40BFB04F4002D5ED0AAEB6C
:10105800050EA644B6453FF676AF002868D1BAF12A
:10106800040F43D1E14659F8040B20600434CC4600
:101078004FF0040A26E0013A002323E011F8013C6E
:101088006C2B30D111F8023C00206C2B0346C1D1E7
:101098004FF0080BDA46D2E70CF1070929F0070CE4
:1010A8000734FCE802AB24F0070435B10598204466
:1010B800B0423FF648AFC4E900AB083400234FF014
:1010C800080BDA4611F8010F002800F0BC80002B4D
:1010D8007FF46DAF2528F5D1013201234FF0040BC1
:1010E800EFE7184695E700200346A8E7BAF1080F8E
:1010F80040F09B800CF1070929F0070CFCE8029AE4
:10110800C4E9009A08344FF0080ADBE780B9BAF15D
:10111800040F02D10CF10409A8E7BAF1080F40F056
:1011280084800CF1070929F0070909F1080CE9E79F
:101138000498E1460138049059F8040B009019E727
:101148000298800748D5A4EB050E4FEA9E004FF0A1
:10115800010CBEF5007F1DD32749284A28484FF4C3
:101168001F7313F04EF8274813F04BF84FF41F7114
:10117800224813F03DF80F2F0ED8002D46D007F166
:10118800400CEC440CF8200C0CF8102C039801309F
:10119800039020E00F2F0CD91749184A184840F23D
:1011A800812313F02EF8184813F02BF840F2812110
:1011B800DEE7BDB107F1400EEE44C0B20EF8200CD8
:1011C8000EF8102CBCF1000FE0D060F07F000EF894
:1011D800200C08F101080137C5F108000434CC4699
:1011E80005906FE7BCF1000F10D00136F3E700BFA0
:1011F800AC8B010864E10108B0D50108C8A5010855
:1012080056A40108F6A5010817A601080198023698
:101218000028E0D100980592CDE90631FFF7F6FAEB
:10122800DDE90631059A0644D5E7444A444945486C
:1012380040F2C62312F0E5FF5146434812F0E1FFA1
:1012480040F2C62194E7631BB3F5806F0CD33C4989
:101258003A4A3C4840F2D22312F0D3FF3B4812F0FE
:10126800D0FF40F2D22183E71DB9A6F10804E018A7
:101278006BE6019A28609B082B709DF80C30C2B170
:10128800EB7085F80280B8F1000F05D008A800229D
:10129800C5F1010C97420ED1C5F101030DF12009EA
:1012A8004FF0000A02930DF1300B574512D1601B25
:1012B8004BE66B70E5E710F8013B190608D50CEB17
:1012C800040EB64503F07F033FF63DAE04F8013B3C
:1012D8000132DFE7B8F1000F03D099F90020002AA6
:1012E80017DB019BD3B11AF80B2004F8012B00225D
:1012F800029B18191044B0423FF625AE99F8000039
:1013080004F8010B00990392204617F045FA039A56
:1013180014440AF1010A09F10109C6E799F8002005
:1013280055F822300093019B45F822300098FFF7CA
:101338006DFA421CDCE76FF00D0006E6C8A501084F
:10134800B0D5010856A4010831A6010846A601082F
:101358002DE9F04F97B000AF8946D7F880B0FA6210
:101368003B62044658B9A849A84AA94840F29933AB
:1013780012F047FF40F29931A44812F039FFCBF33D
:10138800C00390F802A07B6141B9457800780AEB68
:10139800800020444D4517D8A0EB0409E378FB6191
:1013A800BAF1000F02D01BF0010F16D1FB6953BB35
:1013B800FB6A1BB13A6A4946204698474D4628467B
:1013C8005C37BD46BDE8F08F461C3046FFF71EFA75
:1013D8000130304409F10109DCE7237862687A6258
:1013E800FA6A9900B96104EB8301002A40F001818F
:1013F8004D460E4601EB0A094FF000084E454CD108
:1014080001EB0A0610E01BF0020FD1D023789A00F6
:10141800BA6162687A62FA6A04EB8301002A77D1BA
:101428004D4601EB0A0690461BF0050F0CBF022340
:101438000123FB62FB6906EB430A0BF00203BB6264
:101448005645BCD016F8021B16F8013C54F82390F8
:10145800704B994502D3704B994536D37B69002B65
:1014680040D0786A12F08EFE00283BD0E9468AB058
:101478006A466A4B53617B6AC2E906314FF40073CE
:101488001384674B42F8103F664800234FF412510B
:1014980001F04AFC023DCD46D2E716F8013BF9625D
:1014A80054F82300FFF7B2F9D7F88430F96A01300D
:1014B8004BB1D7F8883098453EBFD7F8843023F829
:1014C800180008F10108054498E77B6923B1786A98
:1014D80012F058FE0028C9D11BF0010F05D1FB6A94
:1014E800ED1AADE7BB6A002BAAD04846FFF78EF984
:1014F800D7F8843053B1D7F8883098453FBFD7F82C
:101508008420431C22F8183008F10108054497E7A5
:10151800BAF1000F73D01BF0040673D0D046002632
:1015280007F1480052463B61B96217F035F9B96ACC
:101538003B6901EB0A02BA62FA69F9695200FA607A
:10154800BA6A02EB41023A610BF00202BA60BA6A67
:1015580039698A4268D162787A621BF0020F324494
:101568000CBF4FEA580100211BF0010FD2B240F026
:10157800E4801BF0040F14BF404600207B616270BA
:10158800A070E1703A6AB969FB6A20469847051E5F
:10159800FFF615AF7B6923707B6A6370FB69E370A4
:1015A80041463A6AFB6A84F802A007F14800984766
:1015B800B0F10008C0F2F580BB693A6AA9EB0A01EC
:1015C800C91AFB68C91AD7E90A0398470028C0F264
:1015D800EA80A84408EB00054FF0000B07F1380A31
:1015E800B345C0F0AC8000213A6AFB6A08469847C8
:1015F800E5E656464FF0000807F1380092E75646F0
:10160800D04696E7B04694E75DA60108C8A501084C
:1016180056A40108AC8B010864E1010878A601080A
:1016280004000001D0920108BA6A12F8021BBA62DB
:1016380012F8015C5D4A54F82500904202D35C4AD6
:10164800904218D37A693AB1786A7B6012F09AFDB1
:101658007B6800287FF47BAFBA68002A4CD00F2E35
:1016680040D95449544A554840F24D4312F0C9FDF7
:1016780040F24D4180E67A693AB1786A7B6012F0AF
:1016880081FD7B6800287FF462AF1BF0010F0BD04F
:101698000F2E27D94749484A484840F2434312F099
:1016A800B0FD40F2434167E61BF0040F3FF44FAF33
:1016B800B8F10F0F09D942493F4A404840F2464322
:1016C80012F09FFD40F2464156E608F1280207F164
:1016D800300008F1010102EB000808F8105C5FFA1D
:1016E80081F834E706F1280207F13000711C16185A
:1016F80006F8205CCEB22AE7B8F10F0F09D93049B5
:101708002D4A2E484FF48A6312F07BFD4FF48A610C
:1017180032E608F1280207F1300C08F10100944480
:1017280007F1580252FA80F008F102080CF8101C70
:101738005FFA88F800F8105C09E700201EE71BF83C
:101748000A3087F8373054F82390D7F884302BB311
:10175800D7F888309B4521D2D7F8843033F81B80DE
:101768003A6AFB6A012107F13700984700281ADB1B
:101778000544B8F1000F06D14846FFF747F800F1D5
:1017880001081FFA88F83A6AFB6A414648469847B2
:10179800002808DB05440BF1010B21E74FF0000896
:1017A800DEE745460BE6054609E600BFAC8B0108B7
:1017B80064E101081BA70108C8A5010856A401088F
:1017C8003AA70108014B1860704700BF6803002062
:1017D80080B505460E461746984610F0BDF80346F4
:1017E80017F0D6F9DFF83C90044649F80030424635
:1017F80039463046A8470C4B1B7873B90B490C4A3D
:101808000C4840F2463312F0FCFC0B4812F0F9FC8D
:10181800074840F2463112F0EBFC54F8090002F098
:101828003FFB00BF080000001C23002096A701080A
:101838006BA7010856A40108A9A7010838B50D46E9
:1018480004462022002116F0B5FFEB68E361AB687F
:10185800A3612B6823626B6863620022A2622A6913
:1018680023B1591E194208BF42F001022261012228
:10187800002104F12C0016F0C2FD48B105490648C4
:10188800064A2F2312F0BDFC04482F2112F0B0FCA9
:1018980038BD00BFF1A7010856A40108CBA701086D
:1018A8002DE9F04F89B0CDE90123436A00278B4227
:1018B8000446884605970797BA4654D300F114069C
:1018C800EFF31185102383F31288BFF36F8F30462F
:1018D800A94610F0C3FA58B94D4A4E494E488823D4
:1018E80012F08FFC31464D4812F08BFC882163E0E2
:1018F800304610F0D7FA079A2AB13946204612F036
:1019080068FD0023079306A9204612F087FC069974
:101918004145834630D32268236A13F8221021F008
:10192800030103F8221003EB820A2168424620468D
:1019380012F098FCE3682060984218D04FF0000B32
:10194800304610F099FA50B389F31188BFF36F8FBE
:10195800059929B1A2690AB1204690470023059349
:10196800BBF1000FACD1504609B0BDE8F08F236938
:1019780043F008032361E1E718B1204612F08CFC1C
:10198800DEE7DDE90132134339D0039116F0ABFDF0
:101998000399A0BB9DBB304610F06EFA78B91C4A7B
:1019A8001F491D484FF49A7312F02BFC31461D480D
:1019B80012F027FC4FF49A71154812F019FC85F3C0
:1019C8001188BFF36F8FDDE9012304F12C000EF0BD
:1019D80077FB8346EFF31189102383F31288BFF353
:1019E8006F8F304610F03AFA00283FF475AF304652
:1019F800BBFA8BFB10F056FA4FEA5B1BA0E707AB6C
:101A080005AA2046276812F064FC834698E700BFC1
:101A1800FAA7010827A8010856A401083CA801084C
:101A280052A8010869A801082DE9F0410446C369D4
:101A380008460E46984704F114050746EFF3118847
:101A4800102383F31288BFF36F8F284610F006FA2D
:101A580068B91B4A1B491C48882312F0D2FB294647
:101A68001A4812F0CEFB8821154812F0C1FB28460F
:101A780010F018FA337843F00103337061683A467E
:101A8800204612F0EFFB6060204612F0BDFC2846AD
:101A980010F0F2F968B90A4A0D490B484FF49A73E5
:101AA80012F0AFFB29460B4812F0ABFB4FF49A71CA
:101AB800DAE788F31188BFF36F8FBDE8F08100BFC4
:101AC800FAA7010827A8010856A401083CA801089C
:101AD80052A8010869A801082DE9F0470446002723
:101AE80000F11406EFF31188102383F31288BFF373
:101AF8006F8F304610F0B2F9054668B93A4A3B494B
:101B08003B48882312F07DFB31463A4812F079FBB6
:101B18008821354812F06CFB304610F0C3F9236970
:101B2800A16813F0080F02D16368994200D9636A6B
:101B38005B1A002B41D0206A10F8213013F0030201
:101B480000EB81093CD0022A04D150F821205FEA39
:101B5800920A05D1DA0720D4E369484698478246B5
:101B6800A1685246204612F07DFB5146A0602046EF
:101B780012F086FB2F46304610F07EF910BB1A4A49
:101B88001D491B484FF49A7312F03BFB31461B4822
:101B980012F037FB4FF49A71BBE743F0020300F8E9
:101BA80021304846E369A5689847294602462046F9
:101BB80012F058FB0025A060DDE71D46A946DAE7CC
:101BC8001546FBE788F31188BFF36F8F002D89D185
:101BD80037B1B9F1000F03D104F12C000EF0ECF984
:101BE8004846BDE8F08700BFFAA7010827A8010802
:101BF80056A401083CA8010852A8010869A80108D0
:101C08002DE9F0410446C36908460D46984704F19A
:101C180014060746EFF31188102383F31288BFF3E5
:101C28006F8F304610F01AF968B9284A28492948B0
:101C3800882312F0E6FA3146274812F0E2FA8821A2
:101C4800224812F0D5FA304610F02CF92B786FF3B1
:101C580000032B7023699B0705D5E268236A03EB11
:101C680082039D4222D12B786FF341032B70D4E974
:101C78000231994204D13A46204612F0F3FAA060A4
:101C88003946204612F0FCFA304610F0F5F890B9C3
:101C98000E4A12490F484FF49A7312F0B2FA3146BD
:101CA8000F4812F0AEFA4FF49A71C9E72B6867F340
:101CB8009F032B60E8E788F31188BFF36F8F04F167
:101CC8002C00BDE8F0410EF077B900BFFAA7010873
:101CD80027A8010856A401083CA8010852A8010831
:101CE80069A8010870B5044600F11405EFF31186E0
:101CF800102383F31288BFF36F8F284610F0AEF8D5
:101D080068B91B4A1B491C48882312F07AFA2946ED
:101D18001A4812F076FA8821154812F069FA28460E
:101D280010F0C0F82369A06813F0080F02D16368A7
:101D3800984213D9646A241A284610F09DF878B995
:101D48000B4A0F490C484FF49A7312F05AFA294675
:101D58000C4812F056FA4FF49A71DDE71C1AEBE7BB
:101D680086F31188BFF36F8F201E18BF012070BD46
:101D7800FAA7010827A8010856A401083CA80108E9
:101D880052A8010869A80108034A536823F002030E
:101D980053600020704700BF002004E010B5EFF347
:101DA8001184102383F31288BFF36F8F1C4810F03F
:101DB80055F868B91B4A1C491C48882312F021FAB7
:101DC80017491B4812F01DFA8821164812F010FA1C
:101DD800134810F067F8174B1A683AB9164A116891
:101DE80041F4807111601168C905FCD51A680C4866
:101DF80001321A6010F040F868B90A4A0F490B48D6
:101E08004FF49A7312F0FDF905490D4812F0F9F9EB
:101E18004FF49A71D9E784F31188BFF36F8F10BD1F
:101E2800F00E0020FAA7010827A8010856A4010807
:101E38003CA80108EC0E00200004005852A8010834
:101E480069A8010810B5EFF31184102383F31288F1
:101E5800BFF36F8F264810F001F868B9254A264964
:101E68002648882312F0CDF92149254812F0C9F9EE
:101E78008821204812F0BCF91D4810F013F8214BB6
:101E88001A682ABBBFF35B8F1F4B012253E8001F60
:101E9800002903D143E800200028F7D1BFF35B8F66
:101EA80004D11A4A1A48022112F09AFD10480FF07C
:101EB800E3FFC0B90F4A174910484FF49A7312F05C
:101EC800A0F90B49144812F09CF94FF49A71D0E725
:101ED800012A01BF11490A6822F480720A601A684F
:101EE800013A1A60E2E784F31188BFF36F8F10BDDF
:101EF800F00E0020FAA7010827A8010856A4010837
:101F08003CA80108EC0E0020E80E002089A8010872
:101F1800B093010852A8010869A8010800040058F4
:101F2800084B1A6842F400721A601A6842F4806218
:101F38001A601A6842F480721A60034B034A1A60E6
:101F4800704700BF00400058D405002000093D003C
:101F58002DE9F7430F4606460821C06ADFF850907E
:101F680012F0CAFA3C68241A80463C6004EA090563
:101F7800AC4203D8002003B0BDE8F08308236A46CA
:101F88002146304612F04EFA0028F4D16946304610
:101F980012F0BCFA40B1BDF80230BDF804203C6034
:101FA80005EA090513441D44A4EB0804E0E700BF53
:101FB8000000FFFF73B504460821C06A124E12F0F4
:101FC8009BFA4FF6FF726368ADF800208DF8062083
:101FD800E268191833401344181A002560606846EF
:101FE800ADF80210ADF8045012F07DFA69462046AB
:101FF80012F04CFB2046211D12F04DFA636828466A
:102008003340A36002B070BD0000FFFF2DE9F04728
:1020180004468AB000F11407384616F0E9F9A06AB8
:102028008368DB689847E06250B98D4A8D48012182
:1020380012F03EFA6FF0150528460AB0BDE8F087A1
:10204800A06A8368DB6898470368013B1F2B01D9A6
:10205800854AEBE7E368B3F5803F08D94FF480324F
:1020680000928048814A012112F0CDFCE2E7A06A83
:10207800216807AA15F0BCF808B17D4AD6E7E568DB
:102088002DB1089BB5FBF3F203FB12550DB1794A4C
:10209800CCE7238A012B01D8774AC7E7E36A029580
:1020A80093F805904FF0FF334FF0FF3238460DF0AC
:1020B800C3FDE06A082112F01FFAA8460646238AE3
:1020C8001FFA85FA534508D8238A434523D1384651
:1020D8000DF082FE6FF02C05AEE7E1682B04891B3A
:1020E80013FA81F14A4608232046029112F0A8F912
:1020F80078B102A9204612F0CEF908F10108029938
:1021080008234A4620461FFA88F812F099F9002851
:10211800DAD00135D3E79A450BD1029908234A460C
:10212800891B204612F08CF918B902A9204612F032
:10213800B2F902A92046FFF70BFF054618B1384649
:102148000DF04AFE78E7029B63604FEA13484FEAB6
:102158000848C4F80880D4E9011399420FD308232A
:1021680003AA204612F05EF905460028E7D103AB22
:1021780013F8012B91453DD10135082DF8D163683D
:102188001B0C1B0402A92046029312F084F9E36891
:1021980002994A46204612F053F9051ECFDB6368C0
:1021A8007ED006EB03084FF6FF79E368CDF8088088
:1021B8001FFA88F29B1B9A4238D3304A29480321D8
:1021C80012F076F96168204612F074F90546002885
:1021D800B5D163682A4AE16813400B44A3EB460370
:1021E80063601340A360204612F078FA0546002D7C
:1021F80072D0A4E703A9204612F088F9626810B9E2
:10220800921B6260A7E7BDF81050BDF80E10E06A97
:10221800C4F80880294412F06FF940449042A06045
:10222800EED1002DECD06FF01C0580E0082305AA44
:102238004146204612F0F6F8054600287FF47FAFA5
:1022480005A9204612F062F938B1BDF814304B45A3
:1022580003D1BDF81830002B6FD0B044A5E700BFFC
:10226800DEA801081893010800A901081DA90108A2
:1022780046A901085EA9010872A90108E4A9010894
:102288000000FFFF5B1A4A46204612F0D9F8051EE7
:10229800FFF655AF08D0E26AA36812681344A3603A
:1022A800D4E901318B42EDD86168E36801EB46025D
:1022B8009A429CD1DFF8A880A26801EA08039A42F2
:1022C80095D0204612F0F6F8054600287FF437AF7F
:1022D800636803EA0803A360E368A288A3EB4603E4
:1022E8009A4220D038460DF077FD0123A374E268A6
:1022F800238A1C48009203211B4A12F084FB63685E
:102308009AB200921748194A1B0C032112F07BFB62
:10231800A3689AB200921348154A1B0C032112F0C5
:1023280072FB002588E6204612F0C1F905463846BA
:102338000DF052FD002DD8D07EE60E4A0948032143
:1023480012F0B6F863681B0C1B0402A9204602931E
:1023580012F0A1F80299204612F0ACF846E700BF47
:102368000000FFFF1893010895A90108ACA901080E
:10237800BEA90108CFA901082DE9F04F1D4691B06B
:10238800837C02910446009253B9644A644801214F
:1023980012F08EF86FF00C06304611B0BDE8F08FE1
:1023A800C26A0821104612F0A7F829460190104683
:1023B80012F0A2F8E368019AA3EB8203AB42074646
:1023C800C0F0A9801DB1009B002B00F0A4806368B9
:1023D800059306AA05A92046DDF814A012F0D3F843
:1023E80006460028D8D1BDF81830029A934206D084
:1023F8006268059B9A42ECD1002D36D1CCE706A93C
:10240800204612F083F80028F2D0BDF81A80BDF8F3
:102418001C3045B39D4228D1E36ADDF800B01B6843
:102428004FEA1A4A5B424FEA0A4A03F02003D044B3
:102438000393AA46DDF80C90D14528BFD1464B46F8
:1024480008AA4146204611F0EDFF00284AD14A4625
:1024580008A9584616F0B6F938B9BAEB090AC844BB
:10246800CB44E7D198E7002B96D0002F3DD1B84652
:1024780004F1140A4FF0FF324FF0FF3350460DF0CD
:10248800DBFB238A9E4243D0A168626808EB010304
:102498009A422FD3029BADF82030FF238DF82630C7
:1024A800009AADF822102B462046ADF8245012F0C1
:1024B800B4F829460746E06A12F01EF8A3680344F8
:1024C800A36057B908A812F00EF808A9204612F020
:1024D800DDF8002814BF07462F4650460DF07CFC57
:1024E8003E4659E7C1DC064656E7019B1F441FFAE2
:1024F80087F8BDE72046FFF75DFD07460028ECD1C9
:10250800204612F0EBF807460028E6D10136B8E776
:102518006FF01B07E1E76FF015063DE7CAA8010851
:10252800189301082DE9FF471E46837CBDF83090BB
:1025380004460F4690464BB92C482D4A012111F00C
:10254800B7FF6FF00C0004B0BDE8F087C06A08213F
:1025580011F0D2FFE368A3EB4003B34243D3D4F8AE
:1025680004A0CDF804A000254D455146DDF804A08F
:1025780009D9636853451ED1BDF80830BB421AD04B
:102588006FF00100DFE702AA01A9204611F0FBFF66
:102598000028D8D1BDF80830BB4206D102A9204690
:1025A80011F0B4FF08B10135ADB26268019B9A42DF
:1025B800DAD15146E0E7BDF80C30002BE0D0A94550
:1025C800DED8BDF80A00090CB3424FEA014128BF22
:1025D800334601444246204611F024FF0028B2D178
:1025E800BDF80C00AFE76FF01500ACE718930108D1
:1025F800CAA8010830B51049104889B0002216F061
:102608002CF80F4D0F4900220023CDE906230024A2
:102618000E23CDE90334CDE901440B4B00944FF46C
:10262800006228460EF034FA084928460EF09EF952
:10263800204609B030BD00BFA1270008F00B0020DC
:102648004807002040230020E92A000812AA0108B0
:102658002DE9F047DFF85880044607464FF0010996
:1026680014B93846BDE8F08794FAA4F5B5FA85F5AB
:1026780009FA05F32E0108EB05156FEA030A24EAA7
:1026880003042B7B002BEBD058F806301B694BB9A1
:102698004644042273682846196807EA0A0712F0B4
:1026A8002FF9DDE7284698470028D9D1F0E700BF81
:1026B800F89301082DE9F047DFF8BC902F4CA9EBFF
:1026C80004038F2B80460F460BD92D492D4A2E48DF
:1026D8004FF4A67311F095FD4FF4A671294811F037
:1026E80087FD2A4812F0E4F8064678B30025284604
:1026F800BDE8F087237B83B12368DB680BB12046F4
:102708009847636883F806A023681B69B3B96368B0
:1027180004221968204612F0F3F8013610344C45AB
:1027280018D91B49174A18484FF4AC7311F069FDC2
:10273800184811F066FD4FF4AC71CFE72046984772
:102748000028E4D00AFA06F31D43E6E705464FF0F1
:10275800010AE4E7CED3B8F1000FC8D0002DC5D0E8
:102768002846FFF775FF0546002FF7D000216420A3
:102778000FF060F8F2E700BF08940108F893010829
:1027880047AA01081AAA010856A40108080F002040
:1027980077AA010898AA010801480DF00DBC00BFEE
:1027A800FC060020014B53F8200070470C970108E5
:1027B80008B5034608462BB1044A136000F0D0FD63
:1027C800002008BD6FF01500FBE700BF6C03002078
:1027D80010B5044C237813B903480DF0EDFB012321
:1027E800237010BD0C220020FC06002010B5044602
:1027F8000B4812F05DF85CB1BFF35B8F094B53E8EF
:10280800001F013943E80012002AF8D1BFF35B8F9B
:10281800054815F02EFF0548BDE810400DF0CCBB6B
:10282800000F0020040F0020F00B0020FC06002001
:102838000020064BBFF35B8F014653E8000F43E8C7
:102848000012002AF9D1BFF35B8F7047000F0020F8
:1028580070B5FFF7EDFF104C104E0546B44219D97C
:102868000F49104A10484FF4037311F0CAFC0F487F
:1028780011F0C7FC0B484FF4037111F0B9FC636801
:102888005B792BB123685B6813B1294620469847CA
:102898001034E3E7F3D370BDF893010808940108F6
:1028A80077AA01081AAA010856A4010898AA0108DB
:1028B80010B5044C04492046FEF7C0FF034B1C60CA
:1028C80010BD00BF40060020F8960108F40E002055
:1028D800154A1648002310B51370154A1360154A97
:1028E8004FF47A711360FFF763FFFFF7E1FF124BB4
:1028F800124918468B4215D91149124A124840F21A
:10290800271311F07EFC114811F07BFC0D4840F2B2
:10291800271111F06DFC1A1A5C681211013222712C
:102928001033E7E7F7D310BD0D220020D348010884
:10293800000F0020040F0020F893010808940108F4
:1029480077AA01081AAA010856A4010898AA01083A
:102958000146002201480023FEF7A2BF40060020DE
:102968000148FFF7B9B800BF40060020024B0146F6
:102978001868FFF745B900BFF40E00200148FFF7BB
:10298800B1B900BF4006002070B52E4B187800285A
:1029980056D0FFF7E5FF054600283DD12A4B2B4CC2
:1029A8001B68002B12DD15F010FE0A220023FDF72C
:1029B80009FFD4E90032C01A40F2E93361EB0201A1
:1029C800984271F1000101D3FFF742FFD4E90032C8
:1029D80013F57A7342F10002C4E90032BDE8704091
:1029E800FFF7CCBF63685B7923B1236829461B686E
:1029F800204698471034B44211D91549154A16484B
:102A08004FF4007311F0FDFB144811F0FAFB114864
:102A18004FF4007111F0ECFB114C124EEBE7E1D3CF
:102A28002846FFF7A3FFBFF35B8F0F4B53E8001F48
:102A3800013943E80012002AF8D1BFF35B8FADE7F4
:102A480070BD00BF0C220020000F0020E80B002002
:102A580077AA01081AAA010856A4010898AA010829
:102A6800F893010808940108040F002070B5154D6B
:102A7800297829BB0120FFF71DFE134C134EB442E1
:102A880017D91349134A144840F2C51311F0B9FB7A
:102A9800124811F0B6FB0F4840F2C51111F0A8FB1F
:102AA80063685B791BB1236820469B68984710349C
:102AB800E5E7F5D3FFF768FF0028FBD101232B706A
:102AC80070BD00BF0D220020F8930108089401088A
:102AD80077AA01081AAA010856A4010898AA0108A9
:102AE8002DE9F047384B394FFB1A1B090AD13849F1
:102AF800384A394840F2A93311F083FB40F2A93132
:102B0800344819E000210846FFF7D4FD0446A8B16F
:102B18004FF4FA784FF00009304B1B789BB93049D5
:102B2800304A2D4840F2463311F06BFB2E4811F025
:102B380068FB2C4840F2463111F05AFB4FF0FF3841
:102B48004FF0FF39E8E716F023F8284B284A1B58BE
:102B5800136033B1274B1B68092B02DD26480DF0A3
:102B68002BFADFF894A0002544B12046FFF770FD4A
:102B7800044618B94FF0FF384FF0FF39FFF704FF4C
:102B8800064628B935B942464B4650460DF098FAE4
:102B98003546E9E70C4D08E0F5D22B689B691BB177
:102BA80000221146284698471035BD42F4D91349EA
:102BB800084A094840F29D3311F023FB104811F0F0
:102BC80020FB40F29D319BE7F89301080894010827
:102BD800B7AA01081AAA010856A401081C23002054
:102BE80096A701086BA70108A9A70108080000001B
:102BF800FC0E0020040F0020FC06002077AA010824
:102C080098AA010813B52C4811F052FE2B4B1B78DB
:102C1800002B35D0EFF31184102383F31288BFF310
:102C28006F8F27480FF01AF968B9264A26492748AE
:102C3800882311F0E6FA2249254811F0E2FA8821A2
:102C4800204811F0D5FA1E480FF02CF9FFF79CFE2A
:102C58001B480FF011F968B91A4A1E491B484FF46E
:102C68009A7311F0CEFA16491B4811F0CAFA4FF4BC
:102C78009A71E5E784F31188BFF36F8F02B010BD36
:102C8800164B1B68002BF9D050B900220023CDE960
:102C98000023134842F2107200230FF033FCEDE7D3
:102CA8000928EBD10E4815F0E4FC0E4802B0BDE847
:102CB80010400DF081B900BF040F00200D22002044
:102CC800F80E0020FAA7010827A8010856A4010851
:102CD8003CA8010852A8010869A80108FC0E0020B8
:102CE800F00B0020FC06002010B5064B1B680446BC
:102CF80098472146A0600448FEF796FEBDE81040BC
:102D0800FFF780BF6C03002040060020044A054BF3
:102D18009B1AB1EBD30F34BF52F831000020704733
:102D2800C0920108F89301082DE9F04F8FB004AF65
:102D3800C1F34A28B8600D4691467B600C0DB8F186
:102D4800000F68D0002607F114034FF0040B4FF072
:102D58000A0AC7F80C80C7E907667E620193CDF8B6
:102D680008B0CDF800A007F11C03F96832464846C0
:102D7800FEF7EEFAB0F5006F03461CD36C468AB036
:102D8800D9F8041004AB2C48C3E9050140F2FF71DF
:102D9800D9611A464FF400711984284B42F8103F44
:102DA800274833464FF41251FFF7BEFFA5462C378C
:102DB800BD46BDE8F08FC0F30A0804F117001844B7
:102DC80020F0070080083B60FFF7C2FD68F3532539
:102DD800044640B33B681B4AC7E9083600F11001B6
:102DE80007F11403F961CDE900A3CDF808B0F9683B
:102DF80007F11C034846FEF7ABFA002813DA12491C
:102E08001248134A4FF4A37311F0FBF910484FF41A
:102E1800A37111F0EDF904F1170020F00700800804
:102E2800FFF796FD044668F353257B68B9682A4680
:102E3800204611F085FDBAE7E0AA01080400000168
:102E4800409301081B4901084CAB010856A401082E
:102E58001FAB01082DE9F04F87B0DDE91279DDE9F4
:102E6800106A044603919346984627B3CDF800901C
:102E78003B46524610210020CDF81490FEF74CF83E
:102E8800051E0BDA2649274A274840F2651311F038
:102E9800B8F940F26511234811F0AAF9B5F5006FA9
:102EA8000ADB224A224840F2FF73022107B0BDE83C
:102EB800F04F11F09EBD3D4606F11700284420F062
:102EC800070004F007048008FFF742FD0BF0070B2A
:102ED800E40044EA8B1444EA452444EA06540646CE
:102EE800A0B19FB1CDF800903B465246294610301C
:102EF800FEF712F8002809DA09490A4A0A484FF485
:102F0800C47311F07EF94FF4C471C4E703994346C2
:102F18002246304607B0BDE8F04F11F011BD00BFA2
:102F28004BAB01081FAB010856A4010855AB0108BB
:102F380040930108406820B1034BC01A40F3CF000A
:102F480070474FF0FF307047C09201080EB403B5C8
:102F580003AB014653F8042B0448019301F0EAFA45
:102F680002B05DF804EB03B0704700BF952F00086E
:102F7800CA0605D48B064CBF02490349FFF7E6BFD2
:102F8800704700BF70D801088DAB010838B54B6891
:102F98001A68CB689A4205460C4602D1084611F0D9
:102FA8004CFD6368BFF35B8F53E8002F511C43E867
:102FB80000100028F8D1BFF35B8FA3689D546368A5
:102FC8001A68E3689A4209D905490648064A7223ED
:102FD80011F017F90448722111F00AF9002038BDE0
:102FE800BFAB010856A4010890AB01082DE9F04FCA
:102FF80089B09B46149B06939DF84CA0159B05939E
:10300800169B179E049304460D469046BAF1000F8E
:1030180000F0AD80BAF1040F0BD9A349A34AA44824
:1030280040F24D2311F0EDF840F24D219F4811F088
:10303800DFF806F48073079311F060FC06F00209CC
:10304800024600283FD09B492046FFF77FFF0746EE
:10305800B9F1000F08D016F0440F36D196492A4628
:103068002046FFF773FF074406F0010353B1934B63
:10307800934953F82A20934B2046002A08BF1A4642
:10308800FFF764FF06F48073002B4AD006F00803AC
:10309800002B64D1B8F1000F67D08B494246204617
:1030A800FFF754FF0546069B3D44002B6ED1049B59
:1030B800002B40F08380F30700F1F0803146204672
:1030C800FFF756FFE4E00746C2E7804B1868002880
:1030D800C9D07F4B4FF47A791B68B5FBF3F54FF4F1
:1030E8006163B5FBF0F100FB115509FB05F54FF0E5
:1030F8003C0CB1FBF3F203FB1211B5FBF0FEB1FB84
:10310800FCF300FB1E550CFB131109FB05F50091A0
:10311800B5FBF0F56F49CDE901E52046FFF716FF4D
:10312800A1E706F00803EBB16B4B6C4953F82A2072
:103138002046FFF70BFF0546B8F1000F05D062499E
:1031480042462046FFF702FF0544BBF1000FAAD014
:1031580063495A462046FFF7F9FE0544A3E74FF0B6
:10316800000BE1E706F00805E6E745469BE7BBF1FB
:10317800010F069B06D1DBB9049B002B00F0888069
:1031880000251BE0002BF7D0564812E05648069B56
:103198005649224610F0C5FF00280CDA5449434A24
:1031A800434840F2A72311F02CF840F2A7213DE74D
:1031B8004D485546EBE7049B002B65D0DFF834817A
:1031C800DFF83491049F3146102F204628BF10277E
:1031D800FFF7CEFE4FF0000B5D4542DC059B4946EC
:1031E8001A782046FFF7B2FE4FF0010B1BF0070FCD
:1031F80003D141462046FFF7A9FE5F4538D9059B14
:10320800494613F80B202046FFF7A0FE0BF1010BEF
:10321800BBF1100FEAD1394920464FF0000BFFF7F8
:1032280095FE5A46059B9A5CA2F120015F2928BFAA
:103238002E2233492046FFF789FE0BF1010BBBF123
:10324800100F1AD01BF0070F03D141462046FFF795
:103258007DFE5F455A46E5D841462046FFF776FE93
:10326800EBE741462046FFF771FE0BF1010BB3E790
:1032780024492046FFF76AFEC8E7059B3B440593AF
:10328800049BDB1B04939DD1BAF1000F7FF413AFAD
:10329800204609B0BDE8F04F11F0CFBB094A0849F4
:1032A8002046FFF753FE09E7F4AB010890AB01088D
:1032B80056A40108FFAB010803AC01081C970108DC
:1032C800A9B50108EFAB010828AC0108100F0020D0
:1032D8000C0F00200CAC0108309701082CAC010839
:1032E80032AC01085D4A0108952F00083D450008E9
:1032F80037AC010848AC010840AC01084AAC0108E9
:103308004CAC010846AC010873B542F20F738B420E
:1033180028BF0B4605680F4A0446052168460FF08A
:103328007DFD63680C495B6806460B22284611F050
:1033380076FB63683246694628465B6811F06FFB86
:10334800636806495B681B22284611F068FB02B0D7
:1033580070BD00BFEDC901086BAC01084FAC010896
:10336800074A00210123904206D8064A01B90123E1
:103378001360054B1860704740085B000121F2E7B5
:1033880040420F000C0F0020100F0020F8B5074F27
:103398000D4604464618B44201D12846F8BD14F833
:1033A800011BBB680148DB699847F4E7E08D010819
:1033B80010B543681C68094814F0FFFF48B908496C
:1033C8000848094A992310F01CFF0748992110F072
:1033D8000FFF23685B685C6010BD00BFE08D0108CB
:1033E800D5AC010856A4010897AC0108014B03604D
:1033F800002070477897010870B5104B1C680D467F
:10340800B4B10F4B196800238B4202DB6FF0010047
:1034180070BD224612F8106B864202D00133144662
:10342800F2E7E06814F0C9FF28B12C600020EFE74C
:103438006FF00C00ECE76FF01200E9E7780300206A
:103448007897010810B588B0436802938368C0680C
:10345800CDE903320A680023CDE906230C4601AA08
:103468000449059313F0C8FE079808B9059B236023
:1034780008B010BD4B4B01082DE9F0410C4B1C68FE
:1034880005460E4617467CB100F004F963682046ED
:10349800D3F8108032463B462946C047044600F020
:1034A80003F92046BDE8F0816FF00104F9E700BF99
:1034B800400F002000230360044B5A6812B9C3E987
:1034C8000000704710605860704700BF440F00202C
:1034D800014B1860704700BF400F00201FB5CDE9B1
:1034E8000101039200F0D6F8074B1C6824B900F0DC
:1034F800DBF8204604B010BD636820461B6801A9AC
:1035080098472468F2E700BF440F0020024B0022CE
:10351800C3E90022704700BF440F0020024B00227D
:10352800C3E90022FFF7F2BF4C0F00202DE9F74353
:1035380007460C4609B100230B60264DDFF898902A
:1035480000264D4524D92549254A26489D2310F0B3
:1035580058FE254810F055FE21489D2110F048FEE0
:10356800D5F8008001AA4146384611F025FB50B134
:1035780016B954B92E4606E031680022404611F0CB
:103588001BFB0028F5D11835DBE7019B2360F1E729
:10359800E6D3164B1D68C5B155F8188C01AA4146EB
:1035A8003846183D11F008FB50B116B954B92E46EB
:1035B80006E031680022404611F0FEFA0028F5D1F5
:1035C800AD69E8E7019B2360F1E7304603B0BDE849
:1035D800F08300BF089401080894010852AD01085F
:1035E80020AD010856A4010898AA01084C0F002034
:1035F8002DE9F04784B002AF0446D7F828907860E8
:103608000D4616469846B9F1000F07D0D9F80010B4
:1036180031BBD9F804A0BAF1000F28D1391D2046D2
:10362800FFF784FF08B3D0F80C9078684346324619
:103638002946C847C8B16D468AB002AA124BD06164
:10364800C2E905344FF400731384104B42F8103F5D
:103658000F4800234FF41151FFF766FBAD4604E015
:103668003A1D11F0A9FA0028D3D1002007E0D9F8B3
:10367800083000937868434632462946D0470837D1
:10368800BD46BDE8F08700BF7AAD0108040000011F
:103698009093010803484FF0FF324FF0FF330CF0CE
:1036A800CBBA00BFE806002001480CF095BB00BF6C
:1036B800E806002038B5094DFFF7ECFF2B783BB939
:1036C800FFF72CFF00F06AF8044610B901232B70AD
:1036D8000024FFF7E9FF204638BD00BF0F22002075
:1036E8002DE9F047048FDFF8B0A0013498B0064602
:1036F8008946A4B200F10807651EADB2B5F5004FC2
:1037080047D04A2305AA2946384611F0B8F804F5E7
:103718007F543F34A4B28046214601230DF10B02A9
:10372800384611F0ACF8B8F1000F014610DC00285B
:1037380010DC338FAB4209D132466B1E22F8383F7A
:103748004FF4004102233846FEF716FE2C46D3E715
:10375800002808DC2946384611F08DF821463846FD
:1037680011F089F8E5E708F160030DEB0308002381
:1037780008F84C3C5246CDF8009003AB05A80397D7
:10378800ADF81040FFF734FF0028DFD018B0BDE8CF
:10379800F0870020FAE700BF0D4C01087FB5012330
:1037A800694603200193FFF727FE044660BB02AA7F
:1037B80001A9032011F0E7F9044610B110F10C0F2C
:1037C80022D10399B1F5803F23D2009A002394684F
:1037D8001846084484421AD30133082BF9D10E4DF8
:1037E80069612B835368AB602846D368EB6311F09B
:1037F800A1FA044640B9094E6E602846FFF75AFE02
:1038080028466E60FFF764FE204604B070BD9BB288
:10381800E5E76FF02004F7E7540F00207C03002051
:1038280008B50348034A0021121A11F0B8FA08BD76
:1038380048070020202300200748084A084908B5FF
:10384800121A11F0AEFA0748074A0849BDE80840BD
:10385800121A11F0A6BA00BF000000204407002089
:1038680064E10108000000200000002064E1010874
:103878002DE9F047064600AF0C46002936D0E94648
:103888008AB0D1E90012A3686D462148A8464FF0D6
:10389800050AC5E90501C5E9072348F810AF1D4821
:1038A800424600234FF42151FFF73EFACD46D4E9B2
:1038B80003126369AD461848C5F810A0C5E90501AB
:1038C800C5E907231348002342464FF42151FFF767
:1038D8002BFACD46E369114A0E48012111F089F807
:1038E800A3690F4A0B48012111F083F8012E07D173
:1038F800EFF305830B4A0748103B314611F079F87E
:10390800214630460BF08AFFBD46BDE8F08700BF70
:10391800AEAD010888930108DDAD01080CAE0108C1
:103928001BAE010849AE010830BFFFF7FDBF00BF5D
:103938002DE9F0410B4EDFF8308006EB0807CC1B71
:10394800054632460949204614F026FFA01942468A
:103958000021083C14F02EFFC5F8944007F1080038
:10396800BDE8F08100000000040000000894010890
:10397800054B5A699B689A421FBF044A536843F033
:1039880080535360704700BFB821002000ED00E06D
:1039980070B5244C06460D462348244911F00EFA0A
:1039A800A36AD9043CD52048214911F007FA172009
:1039B800A36A1A0504D51C481E4911F0FFF91820FE
:1039C800184CA36A9B0512D51B49174811F0F6F944
:1039D800A36BA26A110409D5184A1348012111F0F2
:1039E80008F81EB1A36A23F40043A36219200D4C02
:1039F800A36A5A0504D50C48114911F0DFF91A20B9
:103A0800A36ADB0504D508480E4911F0D7F91B2035
:103A1800044A936A43F47F43936200232B7070BD7A
:103A28001620C5E700ED00E0889301085CAE0108A8
:103A380072AE010883AE010896AE0108AFAE010868
:103A4800C4AE0108DFAE010810B5204C204921485A
:103A580011F0B4F9A36A990136D51E481E4911F030
:103A6800ADF91E20A36ADA0104D51A481B4911F0E2
:103A7800A5F91F20154CA36A1B0304D5154818493E
:103A880011F09CF92120A36A590304D5114815495E
:103A980011F094F922200D4CA36A9A0304D50D481D
:103AA800114911F08BF92320A36ADB0304D50948D7
:103AB8000E4911F083F92420044A936A6FEA0343FC
:103AC8006FEA1343936210BD1D20CBE700ED00E0C1
:103AD800F7AE0108889301080FAF010822AF01086B
:103AE8003CAF01085AAF01087FAF010899AF010840
:103AF8002DE9F843384D80468946384838491746F5
:103B080011F05CF9AB6ADC0627D53649334811F069
:103B180055F91124AB6A180704D533492F4811F019
:103B28004DF912242C4DAB6A990718D52F492B480B
:103B380011F044F96E6BAB6A1A0637D52C4A274840
:103B48003346012110F055FFB9F1000F03D0AB6ADD
:103B580023F08003AB62132403E01024DAE76FF04C
:103B680015061D4DAB6ADB0704D522491B4811F029
:103B780025F91424AB6AD80602D4AB6A99070BD589
:103B8800154D6B681A0507D54146304600F070FAA6
:103B980078B180F3098802240F4A936A43F0FF033F
:103BA800936200233B702046BDE8F8836FF015064A
:103BB800D1E7AB6ADB06EFD50F49104A104840F24F
:103BC800271310F01EFB0F4810F01BFB0B4840F2A8
:103BD800271110F00DFB00BF00ED00E088930108ED
:103BE800C4AF0108DAAF010883AE01080DB00108BF
:103BF80025B001083BB001088CB001085AB0010893
:103C080056A40108D6B00108F0B5794B8BB004462C
:103C1800586800AFC0F30803002686F31188BFF385
:103C28006F8F02F07F45B5F17F4F07D102F00C0589
:103C3800082D12D16F49704811F0C0F86F49704AC9
:103C4800704840F2144310F0DCFA6F4810F0D9FACB
:103C580040F214416A4810F0CBFA15074CBF0C46E5
:103C68000126002CEAD00022FA71DA1E092A00F295
:103C78009E80DFE802F0059497779C9C9C9C9C9A18
:103C880062495D485A4D11F099F80023FB71EB6ABF
:103C98009A0705D55E49584811F090F8002329E0A5
:103CA800EB6A002B01DA5B49F5E7EB6A5B0069D543
:103CB8005949514811F082F86B69A26943F480733D
:103CC8006B61BFF34F8FBFF36F8F6B6932F8022CB4
:103CD80023F480736B61BFF34F8FBFF36F8F4DF683
:103CE80002739A4227D123684C4A4348012110F0B5
:103CF80080FE2368FA79DAB907F1080504F1200C87
:103D0800206861682A4603C2083464451546F7D11D
:103D18007A6A002E67D0C2F3080121B96FEA5222ED
:103D28006FEA42227A6207F108011846FFF7A0FD00
:103D38002C37BD46F0BDAB6ADBB233B1FA1D0121A9
:103D48002046FFF7D5FE0346D4E7AB6A13F47F4F4E
:103D580004D0F91D0120FFF71BFEF4E7AB6AB3F5A9
:103D6800803F02D3FFF770FEEDE72D49244A25482E
:103D780040F2ED2310F045FA2A4810F042FA40F2DA
:103D8800ED2167E726491E4A1E484FF43C7310F0A0
:103D980038FA254810F035FA4FF43C715AE7FA1D05
:103DA8000021CDE7F91D0020D5E7204973E7204A17
:103DB800204910F4F87F6D468AB018BF11466A464C
:103DC800103BD3611C484FF4007313841B4BC2E9AA
:103DD800050142F8103F084800234FF41151FEF73F
:103DE800A3FFAD465AE722F4FF7222F0010299E7D9
:103DF80000ED00E027B101088893010852B10108DD
:103E08005AB0010856A4010865B10108A3B1010818
:103E1800BAB10108DBB10108E9B1010808B201082B
:103E2800B0D5010824B2010848B2010878B20108E7
:103E38000EB10108F9B001089CB2010804000001A4
:103E4800044B5A6942F010025A615A6922F008027A
:103E58005A61704700ED00E0EFF30880EFF3098145
:103E680001B57246FFF7D0FE01BD00BF0A4880F3D6
:103E78000888102080F3118808484FF4046140181E
:103E880080F30988EFF314800221084380F3148833
:103E9800BFF36F8F10F09AFF003D0020802B0020A9
:103EA800084B9B6883420BD1EFF3058343B1064B64
:103EB8005A6842F080525A605A6A22F400425A62A2
:103EC8000DF050BDB821002000ED00E015498A68CA
:103ED8004FF030001044EFF3098C80E8F01F1020F9
:103EE80080F31288BFF36F8F0F4F4FF000664A6957
:103EF8008A603E60D2F894000C4C2060D2F898009A
:103F08000023C2F8983080F3118804B5104600F0F9
:103F180017F9BDE8044002F1300090E8F01F8CF377
:103F280009887047B821002004ED00E0940F0020B4
:103F38001EF0040F0CBFEFF30880EFF309808169CE
:103F480011F8021C0229FFD001B5724610F02BFFB0
:103F580001BD00BF40B2002807DB044A4109012324
:103F680000F01F00834042F82130704700E100E074
:103F780040B200280CDB4309064900F01F0020333B
:103F88000122824041F82320BFF34F8FBFF36F8F88
:103F9800704700BF00E100E0054B420900F01F0038
:103FA80053F82220012303FA00F01040704700BFA5
:103FB80000E100E038B54B1C0F2B04460D460FD925
:103FC800114A124912486B2310F01BF9114829466F
:103FD8000F23224610F015F90B486B2110F008F951
:103FE80040B20028ACBF00F160400B4A4FEA03130F
:103FF800B8BF00F00F00DBB2AABF00F56140135450
:1040080080F8003338BD00BFAFB20108E6B201083E
:1040180056A4010801B3010814ED00E0044B054A59
:1040280023F07F039360BFF34F8FBFF36F8F704709
:104038000000000800ED00E042F8203C009B42F838
:104048001C3C0A49019B42F8183C029B42F8143C6C
:1040580021F001014FF0807342F8043C42F8081C3B
:104068000023203A0265C0F898307047D917000835
:104078000A4A0346906878B113F1160FD0F8840005
:1040880005D0A0F140029A4205D8834203D281426A
:1040980028BF002070470020704700BFB8210020CB
:1040A80008B515460C4A0D4B9060D0F894201A605C
:1040B8000E4600F045F82C4686F309880020044B8C
:1040C80098472046002100220023024C2047000088
:1040D800F14D0108D9170008B8210020940F0020DD
:1040E800014B10221A61704700ED00E004480023DC
:1040F8001021C21801333E2B82F80013F9D1704702
:1041080000E100E008B5EFF30583064A103B02EB37
:10411800C30152F8330049688847BDE80840FFF7F3
:1041280027BC00BF148F0108024B034A0348012132
:1041380000F08CB80000012000000020BC970108A6
:10414800D0F88420054B403A1A60054A4021C3E95B
:1041580001121846012100F09FB800BF980F0020F7
:1041680000000B1508B503461048D0F89020C2F39C
:104178000722013A934207D90D480E4A012110F04F
:1041880038FC6FF0150008BDC0F898300A6822F0B6
:104198001F021A4342F01002C0F89C208A6842F0BD
:1041A8000102C0F8A0201846EDE700BF00ED00E0CE
:1041B8008093010845B30108F0B50E4685B01F4647
:1041C80004460025B5420DDA606810B397B1431E66
:1041D80018420AD0104A11482B46012110F009FC58
:1041E8006FF01502104605B0F0BD1F28F2D92168FE
:1041F8000B42EFD12368019310F00AFEA36801A9CE
:104208000343D0B20393FFF7ADFF10F1160FE7D0C9
:10421800421C01350C34D5E76BB3010880930108C3
:10422800044B0522C3F89420BFF34F8FBFF36F8F61
:10423800704700BF00ED00E0BFF35F8F024B002224
:10424800C3F89420704700BF00ED00E038B50D4D6D
:1042580001232A780C46FFF7AFFF287016300FD1DC
:10426800094A0A490A4840F283130FF0CAFF09486D
:1042780021460FF0C6FF044840F283110FF0B8FF43
:1042880038BD00BF102200208EB30108B0D5010848
:1042980056A40108BDB3010810B5144A00231278CA
:1042A8000C46FFF789FF10F1160F08D0104A0021BD
:1042B800D2F89030C3F30723984210DB10BD0D4AA3
:1042C8000D490E484FF4D1730FF09BFF0C4821465F
:1042D8000FF097FF07484FF4D1710FF089FFC2F82C
:1042E8009800C2F8A0100130E2E700BF10220020B9
:1042F80000ED00E08EB30108B0D5010856A401080E
:10430800E9B301082DE9F04F7B4C7C49D4F8903093
:104318000D68C3F307239D4285B013D9784A7949BC
:1043280079484FF4FE730FF06CFFD4F8902077486B
:104338002946C2F307220FF064FF4FF4FE7170485C
:104348000FF056FFFFF778FF49680022954201F108
:104358000C012DD16E4C6F4F25706846FFF746F85B
:10436800DFF8B481DFF8B49106460025AE4232D1B9
:10437800237861490020D1F89020C2F307229342A4
:10438800C0F2AF80FFF74CFFD1F89030C3F307239A
:10439800082B00F0AC806249594A5B4840F26E2312
:1043A8000FF02FFF5F480FF02CFF40F26E21C6E799
:1043B800C4F8982051F80C3C23F01F03134343F032
:1043C8001003C4F89C3051F8043C43F00103C4F8CE
:1043D800A0300132BAE7009A02EB05132901D3F89D
:1043E8000CA00AEA0700B0F5000F60D00AD8B0F5B3
:1043F800001F38D0B0F5800F4ED0B0F5801F12D016
:104408000135B3E7B0F1807F5CD0B0F1007FF7D120
:104418009868D3F804A0525810F0FAFCCDE901A22C
:1044280040F480200BE09868D3F804A0525810F0AC
:10443800EFFCCDE901A240F0885040F43020039011
:10444800207801A9FFF78EFE002846DA2D492C4A6C
:104458002D4840F226230FF0D4FE33480FF0D1FE4A
:1044680040F226216BE79868D3F804B0525810F050
:10447800CFFC1AF0010F40EA0800CDE901B2039021
:10448800DED02A491E4A204883230FF0BAFE284866
:104498000FF0B7FE832152E79868D3F804A052586A
:1044A80010F0B6FCCDE901A240EA0900C7E7986818
:1044B800D3F804A0525810F0ABFCCDE901A240F0AB
:1044C8008270BCE79868D3F804A0525810F0A0FC9A
:1044D800CDE901A240F08870B1E723780133237059
:1044E8008EE7C1F89830C1F8A000013343E70020F7
:1044F80005B0BDE8F08F00BF00ED00E0C8970108E7
:104508008EB30108B0D5010856A4010816B40108F5
:10451800102200200000F0FF000008110000020235
:10452800C9B4010819B501089FB401084AB40108C3
:1045380070B40108F0B587B007460E46144600214E
:10454800102268461D4614F035F902238DF8023012
:104558002A46054B019321466846CDE904760EF0BC
:1045680023FD07B0F0BD00BF394E010808B5024B66
:104578001B689847002008BDA40F0020034B044A7D
:104588001860937843F0020393707047A40F0020DB
:104598009803002008B50649064821F00701C1F133
:1045A800005202F58032FCF729FC002008BD00BF4C
:1045B80087450020A80F0020024B1B6803B118474D
:1045C800FF207047BC0F00200A4B0B4A0020C3E9AC
:1045D80000000A4B1A600A4A5A600A4A9A600A4A54
:1045E800DA600A4B0A4AC3E900200A4A9A600A4A72
:1045F800DA607047E00F002059470008D00F00200C
:1046080085460008BD4700084F4E0108C00F00202E
:10461800C1450008614E0008514E010830B50E4CE6
:104628008BB02D23054668468DF8003004F054F908
:104638009DF904302278934200D15DB1D8B2074B7E
:1046480020701B6803B198472378054A0548032161
:1046580010F0CFF90BB030BD13220020B80F0020A6
:1046680049B5010858930108034BBFF35B8F1868DD
:10467800BFF35B8F704700BFE80F00202DE9F043C0
:1046880083B0427802AF0446C2B1104600F020FB66
:104698006C4688B002AA294BC2E905304FF4007372
:1046A8009383274B42F8103F26484FF4E25110F00D
:1046B800CDFBA5460437BD46BDE8F083FFF7D4FF20
:1046C800C00702D51046FFF7A9FFFFF7CDFF810706
:1046D8000ED4237F63B1BFF35B8F1B4B53E8001FDE
:1046E80041F0020143E80012002AF7D1BFF35B8FC3
:1046F8006179237F4A1E5142514141EA4301134BDC
:104708001D685FFA81F8002DD4D0083D4FF6FF7977
:104718002B88E0784B4501D083420AD1A16894F9EF
:104728001030B4F90E200191217B00916E6841464A
:10473800B047AD68002DBDD0083DE9E761B5010877
:104748000300000158930108E80F0020E00F002043
:10475800B0B50446407800AF98B100F0B9FA6D469C
:1047680088B06A460E4BC2E905304FF40073938354
:104778000C4B42F8103F0C484FF4E25110F066FB26
:10478800AD46FFF771FFC30702D50020FFF746FFCC
:10479800064B62781A7006480BF00EFCBD46B0BD99
:1047A8007CB501080300000158930108122200207B
:1047B80014070020B0B58AB00446407800AFE0B1D5
:1047C80000F086FA6D4688B06A461C4BC2E905308F
:1047D8004FF4007393831A4B42F8103F19484FF473
:1047E800E25110F033FBAD46174B62781A70174848
:1047F8000BF0E2FB2837BD46B0BD2378052B0FD060
:10480800092B19D0012BEFD1072338463B7004F050
:1048180063F87B680E4A0B48032110F0EAF8E3E7D7
:104828000C4B1B6813B1617A207A98470A4A0548ED
:10483800032110F0D5F8D7E7084AF8E794B501083E
:104848000300000158930108112200202C070020C2
:10485800ACB50108B40F0020CAB50108DAB50108E3
:10486800052808B5034606D1074A084B10700122EF
:104878001A70002008BD0648064A012110F0B9F850
:104888006FF08500F6E700BFED050020EC0500207D
:1048980058930108EAB50108F0B59BB0044600AF8B
:1048A8004FF0FF324FF0FF3365480BF0C5F9012692
:1048B8001D2307F118003B763E7704F025F9257D86
:1048C800002D5CD15F4B3E711B787B7202233B72DB
:1048D80087F8403023697B6407F1400004F014F93D
:1048E800032387F8403023687B6407F1400004F015
:1048F8000BF9092387F8403063687B6407F14000AF
:1049080004F002F9082387F84030A3687B6407F1B4
:10491800400004F0F9F8381D04F01AFC044600B30E
:1049280000F0CAF96D4688B06A46474BC2E90530BF
:104938004FF400739383454B454842F8103F4FF4BA
:10494800E25110F083FA2046AD4600F0CDF9044656
:1049580000285DD03A480BF03FFA20466C37BD4638
:10496800F0BD4FF0FF333B484FF0FF320BF0A8FB90
:10497800394B187800284BD000F0C8F9E7E7012D2B
:104988005AD1352387F84030344B7B6407F1400017
:1049980004F0BAF8062387F8403000237B6407F157
:1049A800400004F0B1F8072387F8403023687B649F
:1049B80007F1400004F0A8F80C2387F84030A368FA
:1049C8007B6407F1400004F09FF80D2387F840301E
:1049D800A3687B6407F1400004F096F80E2387F87B
:1049E8004030A3687B6407F1400004F08DF80F2382
:1049F80087F8403063687B6407F1400004F084F86E
:104A080087F8405087F8445007F1400004F07CF8DC
:104A1800FFF72AFEC3070AD42D2387F84030094B35
:104A28001B7887F8443007F1400004F06DF8012046
:104A3800FFF7F4FD00248DE76FF015048AE700BF47
:104A4800C00600201422002004B60108030000015B
:104A5800589301082C0700201122002000030001B0
:104A680000B58BB00246FFF7FFFD00F0010082425F
:104A780019D0BFF35B8F124BC2B153E8001F41F04E
:104A8800010143E80012002AF7D1BFF35B8F052329
:104A98008DF80030FFF7E8FD00F001008DF8040004
:104AA800684604F031F80BB05DF804FB53E8001FCA
:104AB80021F0010143E80012002AE6D0F6E700BF22
:104AC800E80F00202DE9F04186B0804600AF15467A
:104AD8001C460E4609B9002A6BD137484FF0FF3201
:104AE8004FF0FF330BF0A8F83946284603F092FE42
:104AF80000283ED000F0E0F86C4688B06A462F4B9C
:104B0800C2E905304FF4007393832D4B42F8103FF0
:104B18002C484FF4E25110F099F90023A5463B7157
:104B2800FB603B820125381DBB7405F0F3F9044690
:104B380068B300F0C1F86D4688B06A46224BC2E9F6
:104B480005304FF4007393831D4B42F8103F1D4806
:104B58004FF4E25110F07AF92046AD4600F0C4F85F
:104B6800044615480BF038F920461837BD46BDE80D
:104B7800F08154B1012C08D0144B3D8293F90030D8
:104B880087F80880FE600025CDE73C71F4E74FF018
:104B9800FF330F484FF0FF320BF092FA0D4B1878A5
:104BA80008B100F0B3F8002D044618BF6FF00A04EE
:104BB800D7E76FF01504D7E7D406002019B6010827
:104BC80003000001589301083EB601081322002093
:104BD800140700201222002000238360054B596827
:104BE80000F1080211B9C3E9002270470A605A604F
:104BF800704700BFE00F0020014B1860704700BFEE
:104C0800B80F0020B0B5234D234924488EB02A7828
:104C180000AF03F035FCC0B100F04EF86C4688B028
:104C28006A461F4BC2E905304FF4007393831D4B4E
:104C38001D4842F8103F4FF4E25110F007F96FF0A9
:104C48001500A5463837BD46B0BD10F012F900F082
:104C58004BF903F0D5FD044630B100F02DF86C4651
:104C680088B06A46114BDDE7062307F1080128786A
:104C78003B7211F0F8FB0E4BC0B218700D4B187058
:104C880030233B7407F1100014237B6103F03CFFD1
:104C98002046D7E7ED050020C00F0020D00F0020E8
:104CA80056B60108030000015893010877B60108B9
:104CB800142200201322002017289ABF024B53F811
:104CC80020000248704700BFC8980108A5B601082F
:104CD8000F289ABF024B53F820000248704700BFC4
:104CE80088980108B5B601081628034608D8064A68
:104CF80052F8200030B9002B18BF6FF0150070472C
:104D08006FF01500704700BF2C9801080F28034664
:104D180008D8064A52F8200030B9002B18BF6FF0A7
:104D2800150070476FF01500704700BFEC97010839
:104D38002DE9F04F85B000AFC7E90232DFF8F8A0DF
:104D480004460D464FF000084FF0140909FB08F11E
:104D580001EB0A025AF801B07A6021465846FBF77F
:104D68004BFD7A68064600284BD1D1689268BB6B28
:104D780095420B440DD06D4688B06A462F4BC2E968
:104D880005344FF4007393832D4B42F8103F33469C
:104D98000CE053BB6D4688B06A462A49C2E905143F
:104DA8004FF400719183264942F8101F26484FF4AA
:104DB800E251FDF7B9FFAD466C4688B06A46234B11
:104DC800C2E9053B4FF4007393831D4B42F8103F33
:104DD8001D4800234FF4E251FDF7A6FF6FF01500C0
:104DE800A5461437BD46BDE8F08F19462A46D7E9CF
:104DF8000203984785421CD06D4688B06A46144B1A
:104E0800BDE708F10108B8F1070F9FD16D4688B0DA
:104E18006A46104BC2E905344FF400739383084B7C
:104E280042F8103F084800234FF4E451FDF77CFF97
:104E3800AD460020D5E700BF289901083DB9010813
:104E48000300000163B9010868930108A8B90108C3
:104E580085B90108C2B901082DE9F0438BB00646AF
:104E680000AF58B1342338463B7003F035FD044693
:104E780040B1184A184801210FF0B2FD2C37BD4641
:104E8800BDE8F083D7F80480144D2B8AB3431BD1B7
:104E9800D5E9022168684144FEF7EEFAA0B1E94677
:104EA8008AB02B686A460E49D061C2E905134FF4EF
:104EB800007313840B4B42F8103F074800234FF44C
:104EC8001151FDF731FFCD460134072C05F11405CA
:104ED800DBD1D3E7DEB901086893010828990108F6
:104EE800F8B901080400000130B58BB034256846D4
:104EF8008DF8005003F0F0FC38B1134A1348012133
:104F08000FF06EFD6FF015040CE0019A104911487E
:104F1800FEF7E4FA044640B10F4A034601210B4864
:104F28000FF067FD20460BB030BD68468DF8005085
:104F380003F0EAFD03460028F4D0084A034801219B
:104F48000FF057FDDEE700BFDEB9010868930108DE
:104F5800394D00081DBA010829BA010853BA0108D9
:104F680010B5012303FA01F1436804691B6819426B
:104F78000ED10E490E4A0F4840F2A2630FF041F9D4
:104F88000D480FF03EF90A4840F2A2610FF030F9DF
:104F98002368194218BF82F0010222B18368DB68D6
:104FA800BDE81040184783681B69F9E756BB01083C
:104FB80025BB010856A4010894BB01080246052137
:104FC8000148FFF7CDBF00BF548D010802460421F8
:104FD8000148FFF7C5BF00BF548D0108024A0348C6
:104FE80002210FF0FDBC00BFA6BB0108D093010849
:104FF80010B50B4CE3691BB9BDE81040FFF7EEBFD5
:1050080000209847074B1B6E03B1984794F820304F
:1050180023B1BDE81040024800F0D6BC10BD00BF67
:10502800EC0F0020C09A010870B54FF4B011466823
:1050380005461E4800F0FEF918B16FF0040420463A
:1050480070BD1B484FF4B01100F0F4F90028F4D1FA
:10505800184919480BF074FA284600F0BFFC0446BA
:1050680028B1164A164801210FF0BAFCE7E7306864
:1050780013F0A3F938B9134A114801210FF0B0FC15
:105088006FF01204DBE7337E23B1F06813F095F973
:105098000028F0D0284600F05FFC051ECFDA0A4A47
:1050A800074801210FF09CFC2C46C8E7DC99010851
:1050B800D4990108F94F0008F80F0020D5BB010862
:1050C800D0930108F3BB010808BC0108014B93F811
:1050D80020007047EC0F002008B503461048042B49
:1050E80080F8203011D005D8BBB10020FFF766FF4B
:1050F80000200EE0053B022BF7D80020FFF766FFE3
:10510800BDE808400120FFF759BF0020FFF756FF10
:105118000120BDE80840FFF759BF0FF0A3FFE4E7FF
:10512800EC0F0020014BD861704700BFEC0F002046
:1051380010B5044C20460FF07AFF012384F8203084
:1051480010BD00BFEC0F002010B5054C204600F044
:1051580033FC00B910BD00210A200CF06BFBF5E709
:10516800EC0F002070B58CB00D46DDE91061CDE97B
:10517800063104ABCDE90402CDE90852009308AA30
:1051880002230446CDE90A61CDE90223019310F018
:105198008EF80F48ADB9A6B983680E491D686A46EE
:1051A8003346A8470028034604DA0B4A0B48012176
:1051B8000FF01FFC2378842B01D0FFF7C5FF0CB03C
:1051C80070BD836803491D68014802AB6A46E8E779
:1051D8006C8E0108B89901082BBC0108D09301080E
:1051E80070B5124D86B0284600F0EEFBC023ADF82E
:1051F800043001AB029302230393012402AB04930E
:1052080005940B480B49836804AA1E680023B0471D
:10521800031E06DA084A094821460FF0EAFB06B0E1
:1052280070BDFFF791FF85F82040F8E7EC0F0020EC
:105238006C8E0108B89901082BBC0108D0930108AD
:1052480001480FF00DBF00BFEC0F002001480BF024
:1052580007BA00BFA8030020014B186059607047C7
:1052680010100020024B1A685B6802600B607047E0
:105278001010002008B50FF09CFE024B1B68C01AE6
:1052880008BD00BF18100020014813F0F2B900BF94
:10529800880600200A2307B5A0FB0323002100206D
:1052A800CDE9000102480DF02DF903B05DF804FBCB
:1052B8008806002008B50FF07CFE014B186008BD79
:1052C80018100020014B1868704700BF1810002004
:1052D80010B5124CBFF35B8F022354E8002F012A4C
:1052E80003D144E800310029F7D1BFF35B8F0CBF2D
:1052F8000120002010D10A4BDB6A9847002344F8AC
:10530800403CBFF35B8F54E8002F44E8003100298C
:10531800F9D1BFF35B8F012010BD00BF60100020E2
:10532800C09A010810B5064B5C68FFF7D1FF30B191
:105338002CB100212046BDE810400DF09DBC10BDE9
:105348001C10002013B50D4BD3E901433BB10C4BA6
:105358005B6B0193002002B0BDE810401847FFF7CF
:10536800B7FF40B13CB16FF00401204602B0BDE880
:1053780010400DF081BC02B010BD00BF1C10002011
:10538800C09A01082DE9F347284C9A46D4E90193BD
:1053980007460D46164683B1254B00205B6B9847A0
:1053A800E368CDE900A32A46D4F80880206833468C
:1053B8003946C04702B0BDE8F08704F14402022331
:1053C800BFF35B8F52E8001F012903D142E8003088
:1053D8000028F7D1BFF35B8F9046EBD1E36C1A78C6
:1053E800AA4288BF1D70E36CA06C1A78394613F086
:1053F800D3F9236D03B11E80636D0BB183F800A050
:105408000B4BDB6A984700216160BFF35B8F58E85C
:10541800003F48E80012002AF9D1BFF35B8F4846E5
:1054280002B0BDE8F0470DF027BC00BF1C100020FB
:10543800C09A0108F8B5044600AF00680D4612F09E
:10544800BCFF03462068BBB96C4688B001686A4651
:105458006048C2E905014FF4007191835E4942F842
:10546800101F5E484FF4E251FDF75EFC6FF0120525
:10547800A5462846BD46F8BDE38821792B4313F09D
:10548800FC6FD0E9015ED0F810C00ED05449554ADF
:1054980055484FF47D730EF0B4FE54480EF0B1FE3B
:1054A8004FF47D714F480EF0A3FE03F03002302A0E
:1054B8000CD14F494B4A4C4840F2F7330EF0A1FE4D
:1054C8004C480EF09EFE40F2F731EBE74A4A4B4E4D
:1054D8001A40B2420CD14A49424A434840F2FB338F
:1054E8000EF08FFE47480EF08CFE40F2FB31D9E7F4
:1054F80003F00602042A09D143493A4A3A4840F2DD
:10550800FE330EF07EFE40F2FE31CBE713F440226C
:1055180016D09E030CD43D49324A334840F2014329
:105528000EF06FFE3A480EF06CFE40F20141B9E70A
:10553800B2F5402F18D0374A9A4301D183F440235B
:105548002D6801268E402E4223F4801219D132494B
:10555800244A254840F211430EF053FE2F480EF01E
:1055680050FE40F211419DE72D491E4A1E4840F267
:1055780005430EF046FE2B480EF043FE40F205416F
:1055880090E7DCF80050DB074CBF3543B543CCF857
:105598000050DEF800309847054600283FF469AF10
:1055A8002368196823796C468AB06A461E48C2E99E
:1055B80007354FF4007393841C4BC2E9050142F888
:1055C800103F064800234FF43151FDF7ADFBA546C7
:1055D8004FE700BF55BC010803000001D89301083C
:1055E8006EBC010825BB010856A40108DDBC0108F2
:1055F80001BD01083ABD01080200030002000100D4
:1056080077BD0108C4BD010813BE010846BE0108E4
:1056180095BE01080100100056BB010894BB0108A3
:10562800D0BE01081DBF010849BF010805000001DF
:1056380070B50D460F49BFF35B8F012051E8004F4D
:10564800002C03D141E80006002EF7D1BFF35B8F91
:105658000CD1094E41F8403CD4B2736D21469847AD
:105668002846B36A21469847002070BD6FF00F00A6
:10567800FBE700BF60100020C09A01082DE9F04741
:105688004FF000088EB005AC264F81468A46164674
:105698004146102209A80125CDE90544CDE907882E
:1056A80013F088F88DF831507B6B0D94002B35D0B2
:1056B8002346324651464846FFF7BAFF041E29DB07
:1056C800F6B2CDE901860395BB8F174C009397F886
:1056D8003A3097F8392097F83810646A2846A04776
:1056E8000A23A840A0FB0323294609A80DF08CF93A
:1056F800041E0FDA0D4A0E4829460FF071F9FFF71C
:10570800E7FD38B94FF0FF324FF0FF33294609A8BB
:105718000DF07AF920460EB0BDE8F0876FF0150459
:10572800F8E700BF1C100020C09A010869BF0108F3
:10573800D8930108F0B58DB000248DF8072003AE8A
:105748000F461022214607A8CDE90366CDE9054496
:10575800012513F02FF8274B8DF829500B96BFF32E
:105768005B8F53E8002FA24203D143E80051002980
:10577800F7D1BFF35B8F39D10DF1070243E910640C
:105788009A601D4E149ADA60159A1A615F60FF21BB
:10579800736D28469847736B20469847DDE91223B6
:1057A800294607A80DF030F9041E15DAFFF790FD19
:1057B80050B94FF0FF324FF0FF33294607A80DF0DC
:1057C80023F99DF8074004E00C4A0D4803210FF027
:1057D80007F920460DB0F0BD069B002BF1DA094A07
:1057E800074829460FF0FCF8069CF2E76FF00F0413
:1057F800EFE700BF60100020C09A010885BF0108CC
:10580800D893010895BF010810B529B9FFF760FDC5
:10581800D8B96FF0150010BD0E4BBFF35B8F012098
:1058280053E8004F002C04D143E8000CBCF1000FF2
:10583800F6D1BFF35B8F0AD1074C43E90F12636DB2
:10584800FF219847636B002098470020E3E76FF03B
:105858000F00E0E760100020C09A0108F0B52C4D59
:10586800BFF35B8F8BB00C46012755E8003F002B38
:1058780003D145E80072002AF7D1BFF35B8F43D10B
:10588800244E2068F3689847E37A4BB32346103DCB
:1058980004F11007186859682A4603C20833BB4246
:1058A8001546F7D14FF47A63089300220120237B31
:1058B8000793CDE90522CDE9032023890293A37933
:1058C800019363790093F569237994F90A10A8473D
:1058D800B36D607B9847FFF7FBFC00200BB0F0BD71
:1058E8000997227BB569CDE90732CDE90533CDE9C2
:1058F80003330A2202922289CDE900323846A3797D
:1059080062792179A847E3E76FF00F00E6E700BF67
:1059180060100020C09A010838B5084611461A469A
:105928000B4BBFF35B8F012453E8005F002D04D1BC
:1059380043E8004CBCF1000FF6D1BFF35B8F04D1F4
:10594800044BDB6B9847002038BD6FF00F00FBE776
:1059580060100020C09A010838B5114BBFF35B8F67
:10596800002453E8002F43E800410029F9D1BFF390
:105978005B8F0C4943F8341C0B490C4D43F82C1C25
:105988000B4943F8241C0B4943F8301C2A6843F898
:10599800440CA3F134009047EB6A9847204638BD81
:1059A800601000202D5300088D530008C09A01088C
:1059B8004D5300081D500108024B5869C0F34000C0
:1059C800704700BF00040058034B4FF48022C3F80F
:1059D80084213220FEF7BEBA00E100E0002208B5BB
:1059E80011463220FEF7E6FA054AD2F8903043F421
:1059F8008053C2F890303220FEF7ACFA002008BD80
:105A080000080058074B08491A6843F2390001FB9F
:105A1800020018606FF00043B0FBF3F3C3EBC373ED
:105A2800C01A7047B80300206D4EC641014B18607C
:105A3800704700BFB803002030B530B10A4D0144AB
:105A48004FF0FF33814201D1D84330BD10F8012B0C
:105A58005340082243F30004013A2C4092B284EAEE
:105A68005303002AF6D1EDE72083B8ED044A136802
:105A78000BB100215972436110600FF0D1BB00BF18
:105A88007410002037B5044601A80FF0B4FA6CB1C1
:105A9800174D2A68134673B963682360012323816D
:105AA8006AB9FFF707FC2046FFF7E0FF01A80FF0EF
:105AB800ABFA03B030BD9C42F8D05B69EBE7FFF767
:105AC800D9FB236818442B6820601A689042EAD3EF
